{"contracts/Dice.sol":{"DiceV4":{"abi":[{"inputs":[{"internalType":"uint64","name":"subscriptionId","type":"uint64"},{"internalType":"address","name":"bankAddress","type":"address"}],"stateMutability":"nonpayable","type":"constructor"},{"inputs":[],"name":"AccessDenied","type":"error"},{"inputs":[{"internalType":"uint8","name":"minCap","type":"uint8"},{"internalType":"uint8","name":"maxCap","type":"uint8"}],"name":"CapNotInRange","type":"error"},{"inputs":[],"name":"ExcessiveHouseEdge","type":"error"},{"inputs":[],"name":"ForbiddenToken","type":"error"},{"inputs":[],"name":"InvalidAddress","type":"error"},{"inputs":[],"name":"NotFulfilled","type":"error"},{"inputs":[],"name":"NotPendingBet","type":"error"},{"inputs":[{"internalType":"address","name":"have","type":"address"},{"internalType":"address","name":"want","type":"address"}],"name":"OnlyCoordinatorCanFulfill","type":"error"},{"inputs":[],"name":"TokenHasPendingBets","type":"error"},{"inputs":[{"internalType":"uint256","name":"minBetAmount","type":"uint256"}],"name":"UnderMinBetAmount","type":"error"},{"inputs":[],"name":"WrongGasValueToCoverFee","type":"error"},{"anonymous":false,"inputs":[{"indexed":false,"internalType":"uint256","name":"id","type":"uint256"},{"indexed":false,"internalType":"address","name":"user","type":"address"},{"indexed":false,"internalType":"uint256","name":"amount","type":"uint256"},{"indexed":false,"internalType":"uint256","name":"chainlinkVRFCost","type":"uint256"}],"name":"BetRefunded","type":"event"},{"anonymous":false,"inputs":[{"indexed":true,"internalType":"address","name":"previousOwner","type":"address"},{"indexed":true,"internalType":"address","name":"newOwner","type":"address"}],"name":"OwnershipTransferred","type":"event"},{"anonymous":false,"inputs":[{"indexed":false,"internalType":"address","name":"account","type":"address"}],"name":"Paused","type":"event"},{"anonymous":false,"inputs":[{"indexed":false,"internalType":"uint256","name":"id","type":"uint256"},{"indexed":true,"internalType":"address","name":"user","type":"address"},{"indexed":true,"internalType":"address","name":"token","type":"address"},{"indexed":false,"internalType":"uint256","name":"amount","type":"uint256"},{"indexed":false,"internalType":"uint8","name":"cap","type":"uint8"}],"name":"PlaceBet","type":"event"},{"anonymous":false,"inputs":[{"indexed":false,"internalType":"uint256","name":"id","type":"uint256"},{"indexed":true,"internalType":"address","name":"user","type":"address"},{"indexed":true,"internalType":"address","name":"token","type":"address"},{"indexed":false,"internalType":"uint256","name":"amount","type":"uint256"},{"indexed":false,"internalType":"uint8","name":"cap","type":"uint8"},{"indexed":false,"internalType":"uint8","name":"rolled","type":"uint8"}],"name":"Roll","type":"event"},{"anonymous":false,"inputs":[{"indexed":false,"internalType":"address","name":"bank","type":"address"}],"name":"SetBank","type":"event"},{"anonymous":false,"inputs":[{"indexed":true,"internalType":"address","name":"token","type":"address"},{"indexed":false,"internalType":"uint16","name":"houseEdge","type":"uint16"}],"name":"SetHouseEdge","type":"event"},{"anonymous":false,"inputs":[{"indexed":false,"internalType":"address","name":"account","type":"address"}],"name":"Unpaused","type":"event"},{"inputs":[],"name":"bank","outputs":[{"internalType":"contract IBankV2","name":"","type":"address"}],"stateMutability":"view","type":"function"},{"inputs":[{"internalType":"uint256","name":"","type":"uint256"}],"name":"bets","outputs":[{"internalType":"bool","name":"resolved","type":"bool"},{"internalType":"address payable","name":"user","type":"address"},{"internalType":"address","name":"token","type":"address"},{"internalType":"uint256","name":"id","type":"uint256"},{"internalType":"uint256","name":"amount","type":"uint256"},{"internalType":"uint256","name":"blockTime","type":"uint256"},{"internalType":"bool","name":"betStatus","type":"bool"}],"stateMutability":"view","type":"function"},{"inputs":[{"internalType":"uint256","name":"","type":"uint256"}],"name":"diceBets","outputs":[{"internalType":"uint8","name":"cap","type":"uint8"},{"internalType":"uint8","name":"rolled","type":"uint8"}],"stateMutability":"view","type":"function"},{"inputs":[],"name":"getBalance","outputs":[{"internalType":"uint256","name":"","type":"uint256"}],"stateMutability":"view","type":"function"},{"inputs":[{"internalType":"uint256","name":"id","type":"uint256"}],"name":"getBetData","outputs":[{"components":[{"internalType":"bool","name":"resolved","type":"bool"},{"internalType":"address payable","name":"user","type":"address"},{"internalType":"address","name":"token","type":"address"},{"internalType":"uint256","name":"id","type":"uint256"},{"internalType":"uint256","name":"amount","type":"uint256"},{"internalType":"uint256","name":"blockTime","type":"uint256"},{"internalType":"bool","name":"betStatus","type":"bool"}],"internalType":"struct DiceV4.Bet","name":"betData","type":"tuple"}],"stateMutability":"view","type":"function"},{"inputs":[{"internalType":"uint256","name":"id","type":"uint256"}],"name":"getBetStatus","outputs":[{"internalType":"bool","name":"status","type":"bool"}],"stateMutability":"view","type":"function"},{"inputs":[{"internalType":"address","name":"user","type":"address"},{"internalType":"uint256","name":"dataLength","type":"uint256"}],"name":"getLastUserBets","outputs":[{"components":[{"components":[{"internalType":"bool","name":"resolved","type":"bool"},{"internalType":"address payable","name":"user","type":"address"},{"internalType":"address","name":"token","type":"address"},{"internalType":"uint256","name":"id","type":"uint256"},{"internalType":"uint256","name":"amount","type":"uint256"},{"internalType":"uint256","name":"blockTime","type":"uint256"},{"internalType":"bool","name":"betStatus","type":"bool"}],"internalType":"struct DiceV4.Bet","name":"bet","type":"tuple"},{"components":[{"internalType":"uint8","name":"cap","type":"uint8"},{"internalType":"uint8","name":"rolled","type":"uint8"}],"internalType":"struct DiceV4.DiceBet","name":"diceBet","type":"tuple"}],"internalType":"struct DiceV4.FullDiceBet[]","name":"","type":"tuple[]"}],"stateMutability":"view","type":"function"},{"inputs":[{"internalType":"address","name":"token","type":"address"}],"name":"getTokenBalance","outputs":[{"internalType":"uint256","name":"","type":"uint256"}],"stateMutability":"view","type":"function"},{"inputs":[{"internalType":"address","name":"token","type":"address"}],"name":"hasPendingBets","outputs":[{"internalType":"bool","name":"","type":"bool"}],"stateMutability":"view","type":"function"},{"inputs":[{"internalType":"bytes[]","name":"data","type":"bytes[]"}],"name":"multicall","outputs":[{"internalType":"bytes[]","name":"results","type":"bytes[]"}],"stateMutability":"nonpayable","type":"function"},{"inputs":[],"name":"multiplier","outputs":[{"internalType":"uint256","name":"","type":"uint256"}],"stateMutability":"view","type":"function"},{"inputs":[],"name":"owner","outputs":[{"internalType":"address","name":"","type":"address"}],"stateMutability":"view","type":"function"},{"inputs":[],"name":"pause","outputs":[],"stateMutability":"nonpayable","type":"function"},{"inputs":[],"name":"paused","outputs":[{"internalType":"bool","name":"","type":"bool"}],"stateMutability":"view","type":"function"},{"inputs":[{"internalType":"uint256","name":"requestId","type":"uint256"},{"internalType":"uint256[]","name":"randomWords","type":"uint256[]"}],"name":"rawFulfillRandomWords","outputs":[],"stateMutability":"nonpayable","type":"function"},{"inputs":[{"internalType":"uint256","name":"id","type":"uint256"}],"name":"refundBet","outputs":[],"stateMutability":"nonpayable","type":"function"},{"inputs":[],"name":"renounceOwnership","outputs":[],"stateMutability":"nonpayable","type":"function"},{"inputs":[],"name":"s_owner","outputs":[{"internalType":"address","name":"","type":"address"}],"stateMutability":"view","type":"function"},{"inputs":[],"name":"s_randomWords","outputs":[{"internalType":"uint256","name":"","type":"uint256"}],"stateMutability":"view","type":"function"},{"inputs":[],"name":"s_requestId","outputs":[{"internalType":"uint256","name":"","type":"uint256"}],"stateMutability":"view","type":"function"},{"inputs":[{"internalType":"contract IBankV2","name":"_bank","type":"address"}],"name":"setBank","outputs":[],"stateMutability":"nonpayable","type":"function"},{"inputs":[{"internalType":"address","name":"token","type":"address"},{"internalType":"uint16","name":"houseEdge","type":"uint16"}],"name":"setHouseEdge","outputs":[],"stateMutability":"nonpayable","type":"function"},{"inputs":[{"internalType":"address","name":"","type":"address"}],"name":"tokens","outputs":[{"internalType":"uint16","name":"houseEdge","type":"uint16"},{"internalType":"uint64","name":"pendingCount","type":"uint64"}],"stateMutability":"view","type":"function"},{"inputs":[{"internalType":"address","name":"newOwner","type":"address"}],"name":"transferOwnership","outputs":[],"stateMutability":"nonpayable","type":"function"},{"inputs":[{"internalType":"uint256","name":"amount","type":"uint256"}],"name":"updateMultiplier","outputs":[],"stateMutability":"nonpayable","type":"function"},{"inputs":[{"internalType":"uint8","name":"cap","type":"uint8"},{"internalType":"address","name":"token","type":"address"},{"internalType":"uint256","name":"tokenAmount","type":"uint256"}],"name":"wager","outputs":[],"stateMutability":"payable","type":"function"}],"devdoc":{"errors":{"CapNotInRange(uint8,uint8)":[{"params":{"maxCap":"The maximum cap.","minCap":"The minimum cap."}}],"UnderMinBetAmount(uint256)":[{"params":{"minBetAmount":"Bet amount."}}]},"events":{"BetRefunded(uint256,address,uint256,uint256)":{"params":{"amount":"Number of tokens refunded.","chainlinkVRFCost":"The Chainlink VRF cost refunded to player.","id":"The bet ID.","user":"Address of the gamer."}},"PlaceBet(uint256,address,address,uint256,uint8)":{"params":{"amount":"The bet amount.","cap":"The chosen coin face.","id":"The bet ID.","token":"Address of the token.","user":"Address of the gamer."}},"Roll(uint256,address,address,uint256,uint8,uint8)":{"params":{"amount":"The bet amount.","cap":"The chosen dice number.","id":"The bet ID.","rolled":"The rolled dice number.","token":"Address of the token.","user":"Address of the gamer."}},"SetBank(address)":{"params":{"bank":"Address of the bank contract."}},"SetHouseEdge(address,uint16)":{"params":{"houseEdge":"House edge rate.","token":"Address of the token."}}},"kind":"dev","methods":{"getLastUserBets(address,uint256)":{"params":{"dataLength":"The amount of bets to return.","user":"Address of the gamer."},"returns":{"_0":"A list of Dice bet."}},"getTokenBalance(address)":{"params":{"token":"Address of the token."},"returns":{"_0":"The amount of token available for profits."}},"hasPendingBets(address)":{"returns":{"_0":"Whether the token has pending bets."}},"multicall(bytes[])":{"custom:oz-upgrades-unsafe-allow-reachable":"delegatecall","details":"Receives and executes a batch of function calls on this contract."},"owner()":{"details":"Returns the address of the current owner."},"paused()":{"details":"Returns true if the contract is paused, and false otherwise."},"refundBet(uint256)":{"params":{"id":"The Bet ID."}},"renounceOwnership()":{"details":"Leaves the contract without owner. It will not be possible to call `onlyOwner` functions. Can only be called by the current owner. NOTE: Renouncing ownership will leave the contract without an owner, thereby disabling any functionality that is only available to the owner."},"setBank(address)":{"params":{"_bank":"Address of the Bank contract."}},"setHouseEdge(address,uint16)":{"details":"The house edge rate couldn't exceed 4%.","params":{"houseEdge":"House edge rate.","token":"Address of the token."}},"transferOwnership(address)":{"details":"Transfers ownership of the contract to a new account (`newOwner`). Can only be called by the current owner."},"wager(uint8,address,uint256)":{"params":{"cap":"The chosen number .","token":"Address of the token.","tokenAmount":"The number of tokens bet."}}},"version":1},"evm":{"bytecode":{"linkReferences":{},"object":"60a0604052600380546001600160a01b03191673bd13f08b8352a3635218ab9418e340c60d6eb4181781557f121a143066e0f2f08b620784af77cccb35c6242460b4a8ee251b4b416abaebd4600455600580546602000300030d406001600160501b0319909116179055600f553480156200007957600080fd5b50604051620025d9380380620025d98339810160408190526200009c916200023f565b6003546001600160a01b0316608052620000b63362000130565b6000805460ff60a01b19169055600180556003546002805460088054336001600160a01b03199091161790556001600160e01b0319166001600160a01b0390921668010000000000000000026001600160401b031916919091176001600160401b038416179055620001288162000180565b505062000294565b600080546001600160a01b038381166001600160a01b0319831681178455604051919092169283917f8be0079c531659141344cd1fd0a4f28419497f9722a3daafe3b4186f6b6457e09190a35050565b6200018a620001de565b600980546001600160a01b0319166001600160a01b0383169081179091556040519081527f10f5824683d64a0712038f2244e046b174a1cc57fbb8556bfda5ffb2612440679060200160405180910390a150565b6000546001600160a01b031633146200023d5760405162461bcd60e51b815260206004820181905260248201527f4f776e61626c653a2063616c6c6572206973206e6f7420746865206f776e6572604482015260640160405180910390fd5b565b600080604083850312156200025357600080fd5b82516001600160401b03811681146200026b57600080fd5b60208401519092506001600160a01b03811681146200028957600080fd5b809150509250929050565b608051612322620002b76000396000818161067701526106b901526123226000f3fe6080604052600436106101815760003560e01c806361f14f11116100d1578063ac9650d81161008a578063e397824011610064578063e397824014610556578063e486033914610576578063e89e106a146105da578063f2fde38b146105f057600080fd5b8063ac9650d8146104dc578063c2fb579f14610509578063e1fdb4b41461053657600080fd5b806361f14f1114610409578063715018a61461043c57806376cdb03b1461045157806378bcde22146104895780638456cb59146104a95780638da5cb5b146104be57600080fd5b80633aecd0e31161013e578063594043fd11610118578063594043fd146103465780635bfe16301461039d5780635c975abb146103ca5780635ffe6146146103e957600080fd5b80633aecd0e3146102c05780634031e85b146102e057806342258eca146102f357600080fd5b8063090d23b91461018657806312065fe0146101a85780631b3ed722146101ca5780631d3c7b91146101e05780631fe543e3146101f657806322af00fa14610216575b600080fd5b34801561019257600080fd5b506101a66101a1366004611d26565b610610565b005b3480156101b457600080fd5b50475b6040519081526020015b60405180910390f35b3480156101d657600080fd5b506101b7600f5481565b3480156101ec57600080fd5b506101b760065481565b34801561020257600080fd5b506101a6610211366004611d59565b61066c565b34801561022257600080fd5b5061027b610231366004611e22565b600a6020526000908152604090208054600182015460028301546003840154600485015460059095015460ff808616966101009096046001600160a01b0390811696951694911687565b6040805197151588526001600160a01b03968716602089015294909516938601939093526060850191909152608084015260a0830152151560c082015260e0016101c1565b3480156102cc57600080fd5b506101b76102db366004611d26565b6106f9565b6101a66102ee366004611e3b565b610781565b3480156102ff57600080fd5b5061032c61030e366004611e22565b600c6020526000908152604090205460ff8082169161010090041682565b6040805160ff9384168152929091166020830152016101c1565b34801561035257600080fd5b5061038d610361366004611d26565b6001600160a01b03166000908152600e60205260409020546201000090046001600160401b0316151590565b60405190151581526020016101c1565b3480156103a957600080fd5b506103bd6103b8366004611e22565b610867565b6040516101c19190611ed8565b3480156103d657600080fd5b50600054600160a01b900460ff1661038d565b3480156103f557600080fd5b506101a6610404366004611e22565b6108e6565b34801561041557600080fd5b5061038d610424366004611e22565b6000908152600a602052604090206005015460ff1690565b34801561044857600080fd5b506101a66108f3565b34801561045d57600080fd5b50600954610471906001600160a01b031681565b6040516001600160a01b0390911681526020016101c1565b34801561049557600080fd5b506101a66104a4366004611ee6565b610907565b3480156104b557600080fd5b506101a66109de565b3480156104ca57600080fd5b506000546001600160a01b0316610471565b3480156104e857600080fd5b506104fc6104f7366004611f26565b610a08565b6040516101c19190611ff2565b34801561051557600080fd5b50610529610524366004612054565b610afd565b6040516101c19190612080565b34801561054257600080fd5b506101a6610551366004611e22565b610c2c565b34801561056257600080fd5b50600854610471906001600160a01b031681565b34801561058257600080fd5b506105b8610591366004611d26565b600e6020526000908152604090205461ffff8116906201000090046001600160401b031682565b6040805161ffff90931683526001600160401b039091166020830152016101c1565b3480156105e657600080fd5b506101b760075481565b3480156105fc57600080fd5b506101a661060b366004611d26565b610d93565b610618610e09565b600980546001600160a01b0319166001600160a01b0383169081179091556040519081527f10f5824683d64a0712038f2244e046b174a1cc57fbb8556bfda5ffb2612440679060200160405180910390a150565b336001600160a01b037f000000000000000000000000000000000000000000000000000000000000000016146106eb5760405163073e64fd60e21b81523360048201526001600160a01b037f00000000000000000000000000000000000000000000000000000000000000001660248201526044015b60405180910390fd5b6106f58282610e63565b5050565b6000806001600160a01b03831661071257504792915050565b6040516370a0823160e01b81523060048201526001600160a01b038416906370a0823190602401602060405180830381865afa158015610756573d6000803e3d6000fd5b505050506040513d601f19601f8201168201806040525081019061077a91906120de565b9392505050565b610789611056565b60ff8316158061079c575060638360ff16115b156107c457604051638a4b39a760e01b815260016004820152606360248201526044016106e2565b60006107dc83836107d7612710886110a3565b6110c8565b606081810180516000908152600c6020908152604091829020805460ff191660ff8b16908117909155828601518287015194516080880151855191825293810193909352928201529394506001600160a01b03908116939116917f7bc15b06f5a3547b8fc8eb36e2c45f4b3385d615fba6158c797e5aa279dcf748910160405180910390a350505050565b61086f611c95565b506000908152600a6020908152604091829020825160e081018452815460ff808216151583526001600160a01b03610100909204821694830194909452600183015416938101939093526002810154606084015260038101546080840152600481015460a08401526005015416151560c082015290565b6108ee610e09565b600f55565b6108fb610e09565b610905600061155b565b565b61090f610e09565b6101908161ffff16111561093657604051631c2d5dd360e21b815260040160405180910390fd5b6001600160a01b0382166000908152600e60205260409020546201000090046001600160401b03161561097c5760405163055212b760e51b815260040160405180910390fd5b6001600160a01b0382166000818152600e6020908152604091829020805461ffff191661ffff861690811790915591519182527f7dfd3ecb8ac83242184c019f85ca408558f2ac0a5a19af6be2a4aee697eac812910160405180910390a25050565b6109e6610e09565b600054600160a01b900460ff1615610a00576109056115ab565b610905611600565b6060816001600160401b03811115610a2257610a22611d43565b604051908082528060200260200182016040528015610a5557816020015b6060815260200190600190039081610a405790505b50905060005b82811015610af557610ac530858584818110610a7957610a796120f7565b9050602002810190610a8b919061210d565b8080601f01602080910402602001604051908101604052809392919081815260200183838082843760009201919091525061164392505050565b828281518110610ad757610ad76120f7565b60200260200101819052508080610aed90612170565b915050610a5b565b505b92915050565b60606000610b0b8484611668565b9050600081516001600160401b03811115610b2857610b28611d43565b604051908082528060200260200182016040528015610b6157816020015b610b4e611cd1565b815260200190600190039081610b465790505b50905060005b8251811015610c23576040518060400160405280848381518110610b8d57610b8d6120f7565b60200260200101518152602001600c6000868581518110610bb057610bb06120f7565b60209081029190910181015160600151825281810192909252604090810160002081518083019092525460ff8082168352610100909104169181019190915290528251839083908110610c0557610c056120f7565b60200260200101819052508080610c1b90612170565b915050610b67565b50949350505050565b610c3461183a565b6000818152600a60205260409020805460ff16151560011415610c6a576040516310d5f2bd60e11b815260040160405180910390fd5b6004810154610c7a90601e61218b565b421015610c9a576040516303de361f60e11b815260040160405180910390fd5b60018101546001600160a01b03166000908152600e6020526040902080546201000090046001600160401b0316816002610cd3836121a3565b82546001600160401b039182166101009390930a928302919092021990911617905550815460ff1916600190811783558201546001600160a01b0316610d5a57815460038301546040516101009092046001600160a01b0316916108fc82150291906000818181858888f19350505050158015610d54573d6000803e3d6000fd5b50610d85565b815460038301546001840154610d85926001600160a01b039182169261010090910490911690611894565b5050610d9060018055565b50565b610d9b610e09565b6001600160a01b038116610e005760405162461bcd60e51b815260206004820152602660248201527f4f776e61626c653a206e6577206f776e657220697320746865207a65726f206160448201526564647265737360d01b60648201526084016106e2565b610d908161155b565b6000546001600160a01b031633146109055760405162461bcd60e51b815260206004820181905260248201527f4f776e61626c653a2063616c6c6572206973206e6f7420746865206f776e657260448201526064016106e2565b6000828152600c60209081526040808320600a909252822083519192909160649085908390610e9457610e946120f7565b6020026020010151610ea691906121dc565b610eb190600161218b565b835460ff808316610100810261ff00198416811788559394509281169116171015610fc3578154600160ff1991821681178085556005850180549093168217909255830154600384015485546001600160a01b0392831693610100900490921691600090610f2390839060ff166110a3565b9050806000610f3286856118fc565b90506000610f4082846121f0565b600954604051631f61502360e01b81526001600160a01b0389811660048301528a811660248301526044820184905260648201869052929350911690631f61502390608401600060405180830381600087803b158015610f9f57600080fd5b505af1158015610fb3573d6000803e3d6000fd5b5050505050505050505050610fdc565b815460ff19908116600117835560058301805490911690555b6001820154825460028401546003850154865460408051938452602084019290925260ff9081168383015285166060830152516001600160a01b0393841693610100909304909216917f9b488c9d2f317852722d0866bc6acda97e4e9de6b986918e8a7143cd697437e19181900360800190a35050505050565b600054600160a01b900460ff16156109055760405162461bcd60e51b815260206004820152601060248201526f14185d5cd8589b194e881c185d5cd95960821b60448201526064016106e2565b60006110b0826064612207565b60ff166110be84606461222a565b61077a9190612249565b6110d0611c95565b6110d8611056565b6110e061183a565b6001600160a01b038481166000818152600e602052604090819020600954915163cbe230c360e01b8152600481019390935292169063cbe230c390602401602060405180830381865afa15801561113b573d6000803e3d6000fd5b505050506040513d601f19601f8201168201806040525081019061115f919061225d565b158061116e5750805461ffff16155b1561118c5760405163c455905560e01b815260040160405180910390fd5b60095460405163f6b2a2f160e01b81526001600160a01b038781166004830181905233939015928892600092169063f6b2a2f190602401602060405180830381865afa1580156111e0573d6000803e3d6000fd5b505050506040513d601f19601f8201168201806040525081019061120491906120de565b905080821015611229576040516289563d60e21b8152600481018290526024016106e2565b6009546040516313c59cef60e11b81526001600160a01b038b81166004830152602482018a9052600092169063278b39de90604401602060405180830381865afa15801561127b573d6000803e3d6000fd5b505050506040513d601f19601f8201168201806040525081019061129f91906120de565b9050808311156112f45783156112f0576001600160a01b0385166108fc6112c683866121f0565b6040518115909202916000818181858888f193505050501580156112ee573d6000803e3d6000fd5b505b8092505b5050600254600480546005546040516305d3b1d360e41b8152928301919091526001600160401b0383166024830152640100000000810461ffff16604483015263ffffffff80821660648401526601000000000000909104166084820152680100000000000000009091046001600160a01b031690635d3b1d309060a4016020604051808303816000875af1158015611391573d6000803e3d6000fd5b505050506040513d601f19601f820116820180604052508101906113b591906120de565b60078190555060006040518060e00160405280600015158152602001856001600160a01b031681526020018a6001600160a01b031681526020016007548152602001838152602001438152602001600015158152509050600b6000856001600160a01b03166001600160a01b03168152602001908152602001600020600754908060018154018082558091505060019003906000526020600020016000909190919091505580600a6000600754815260200190815260200160002060008201518160000160006101000a81548160ff02191690831515021790555060208201518160000160016101000a8154816001600160a01b0302191690836001600160a01b0316021790555060408201518160010160006101000a8154816001600160a01b0302191690836001600160a01b03160217905550606082015181600201556080820151816003015560a0820151816004015560c08201518160050160006101000a81548160ff0219169083151502179055509050508261154c5760095461154c906001600160a01b038b81169187911685611928565b94505050505061077a60018055565b600080546001600160a01b038381166001600160a01b0319831681178455604051919092169283917f8be0079c531659141344cd1fd0a4f28419497f9722a3daafe3b4186f6b6457e09190a35050565b6115b3611966565b6000805460ff60a01b191690557f5db9ee0a495bf2e6ff9c91a7834c1ba4fdd244a5e8aa4e537bd38aeae4b073aa335b6040516001600160a01b03909116815260200160405180910390a1565b611608611056565b6000805460ff60a01b1916600160a01b1790557f62e78cea01bee320cd4e420270b5ea74000d11b0c9f74754ebdbfc544b05a2586115e33390565b606061077a83836040518060600160405280602781526020016122c6602791396119b6565b6001600160a01b0382166000908152600b602090815260408083208054825181850281018501909352808352606094938301828280156116c757602002820191906000526020600020905b8154815260200190600101908083116116b3575b50508351939450505050838110156116dd578093505b6000846001600160401b038111156116f7576116f7611d43565b60405190808252806020026020018201604052801561173057816020015b61171d611c95565b8152602001906001900390816117155790505b5090508415611831576000825b61174787856121f0565b81111561182e57600a60008661175e6001856121f0565b8151811061176e5761176e6120f7565b6020908102919091018101518252818101929092526040908101600020815160e081018352815460ff808216151583526001600160a01b03610100909204821695830195909552600183015416928101929092526002810154606083015260038101546080830152600481015460a083015260050154909116151560c08201528351849084908110611802576118026120f7565b6020026020010181905250818061181890612170565b92505080806118269061227f565b91505061173d565b50505b95945050505050565b6002600154141561188d5760405162461bcd60e51b815260206004820152601f60248201527f5265656e7472616e637947756172643a207265656e7472616e742063616c6c0060448201526064016106e2565b6002600155565b6040516001600160a01b0383166024820152604481018290526118f790849063a9059cbb60e01b906064015b60408051601f198184030181529190526020810180516001600160e01b03166001600160e01b031990931692909217909152611a2e565b505050565b6001600160a01b0382166000908152600e6020526040812054612710906110be90849061ffff1661222a565b6040516001600160a01b03808516602483015283166044820152606481018290526119609085906323b872dd60e01b906084016118c0565b50505050565b600054600160a01b900460ff166109055760405162461bcd60e51b815260206004820152601460248201527314185d5cd8589b194e881b9bdd081c185d5cd95960621b60448201526064016106e2565b6060600080856001600160a01b0316856040516119d39190612296565b600060405180830381855af49150503d8060008114611a0e576040519150601f19603f3d011682016040523d82523d6000602084013e611a13565b606091505b5091509150611a2486838387611b03565b9695505050505050565b6000611a83826040518060400160405280602081526020017f5361666545524332303a206c6f772d6c6576656c2063616c6c206661696c6564815250856001600160a01b0316611b819092919063ffffffff16565b9050805160001480611aa4575080806020019051810190611aa4919061225d565b6118f75760405162461bcd60e51b815260206004820152602a60248201527f5361666545524332303a204552433230206f7065726174696f6e20646964206e6044820152691bdd081cdd58d8d9595960b21b60648201526084016106e2565b60608315611b6f578251611b68576001600160a01b0385163b611b685760405162461bcd60e51b815260206004820152601d60248201527f416464726573733a2063616c6c20746f206e6f6e2d636f6e747261637400000060448201526064016106e2565b5081611b79565b611b798383611b90565b949350505050565b6060611b798484600085611bba565b815115611ba05781518083602001fd5b8060405162461bcd60e51b81526004016106e291906122b2565b606082471015611c1b5760405162461bcd60e51b815260206004820152602660248201527f416464726573733a20696e73756666696369656e742062616c616e636520666f6044820152651c8818d85b1b60d21b60648201526084016106e2565b600080866001600160a01b03168587604051611c379190612296565b60006040518083038185875af1925050503d8060008114611c74576040519150601f19603f3d011682016040523d82523d6000602084013e611c79565b606091505b5091509150611c8a87838387611b03565b979650505050505050565b6040805160e081018252600080825260208201819052918101829052606081018290526080810182905260a0810182905260c081019190915290565b6040518060400160405280611ce4611c95565b8152602001611d0c6040518060400160405280600060ff168152602001600060ff1681525090565b905290565b6001600160a01b0381168114610d9057600080fd5b600060208284031215611d3857600080fd5b813561077a81611d11565b634e487b7160e01b600052604160045260246000fd5b60008060408385031215611d6c57600080fd5b823591506020808401356001600160401b0380821115611d8b57600080fd5b818601915086601f830112611d9f57600080fd5b813581811115611db157611db1611d43565b8060051b604051601f19603f83011681018181108582111715611dd657611dd6611d43565b604052918252848201925083810185019189831115611df457600080fd5b938501935b82851015611e1257843584529385019392850192611df9565b8096505050505050509250929050565b600060208284031215611e3457600080fd5b5035919050565b600080600060608486031215611e5057600080fd5b833560ff81168114611e6157600080fd5b92506020840135611e7181611d11565b929592945050506040919091013590565b805115158252602081015160018060a01b0380821660208501528060408401511660408501525050606081015160608301526080810151608083015260a081015160a083015260c0810151151560c08301525050565b60e08101610af78284611e82565b60008060408385031215611ef957600080fd5b8235611f0481611d11565b9150602083013561ffff81168114611f1b57600080fd5b809150509250929050565b60008060208385031215611f3957600080fd5b82356001600160401b0380821115611f5057600080fd5b818501915085601f830112611f6457600080fd5b813581811115611f7357600080fd5b8660208260051b8501011115611f8857600080fd5b60209290920196919550909350505050565b60005b83811015611fb5578181015183820152602001611f9d565b838111156119605750506000910152565b60008151808452611fde816020860160208601611f9a565b601f01601f19169290920160200192915050565b6000602080830181845280855180835260408601915060408160051b870101925083870160005b8281101561204757603f19888603018452612035858351611fc6565b94509285019290850190600101612019565b5092979650505050505050565b6000806040838503121561206757600080fd5b823561207281611d11565b946020939093013593505050565b6020808252825182820181905260009190848201906040850190845b8181101561182e5783516120b1848251611e82565b850151805160ff90811660e08601529086015116610100840152928401926101209092019160010161209c565b6000602082840312156120f057600080fd5b5051919050565b634e487b7160e01b600052603260045260246000fd5b6000808335601e1984360301811261212457600080fd5b8301803591506001600160401b0382111561213e57600080fd5b60200191503681900382131561215357600080fd5b9250929050565b634e487b7160e01b600052601160045260246000fd5b60006000198214156121845761218461215a565b5060010190565b6000821982111561219e5761219e61215a565b500190565b60006001600160401b038216806121bc576121bc61215a565b6000190192915050565b634e487b7160e01b600052601260045260246000fd5b6000826121eb576121eb6121c6565b500690565b6000828210156122025761220261215a565b500390565b600060ff821660ff8416808210156122215761222161215a565b90039392505050565b60008160001904831182151516156122445761224461215a565b500290565b600082612258576122586121c6565b500490565b60006020828403121561226f57600080fd5b8151801515811461077a57600080fd5b60008161228e5761228e61215a565b506000190190565b600082516122a8818460208701611f9a565b9190910192915050565b60208152600061077a6020830184611fc656fe416464726573733a206c6f772d6c6576656c2064656c65676174652063616c6c206661696c6564a264697066735822122074db6cb60bcf2ffa7880d27923afffa101041fbfbf71683315dabf25d47ab95964736f6c634300080c0033","opcodes":"PUSH1 0xA0 PUSH1 0x40 MSTORE PUSH1 0x3 DUP1 SLOAD PUSH1 0x1 PUSH1 0x1 PUSH1 0xA0 SHL SUB NOT AND PUSH20 0xBD13F08B8352A3635218AB9418E340C60D6EB418 OR DUP2 SSTORE PUSH32 0x121A143066E0F2F08B620784AF77CCCB35C6242460B4A8EE251B4B416ABAEBD4 PUSH1 0x4 SSTORE PUSH1 0x5 DUP1 SLOAD PUSH7 0x2000300030D40 PUSH1 0x1 PUSH1 0x1 PUSH1 0x50 SHL SUB NOT SWAP1 SWAP2 AND OR SWAP1 SSTORE PUSH1 0xF SSTORE CALLVALUE DUP1 ISZERO PUSH3 0x79 JUMPI PUSH1 0x0 DUP1 REVERT JUMPDEST POP PUSH1 0x40 MLOAD PUSH3 0x25D9 CODESIZE SUB DUP1 PUSH3 0x25D9 DUP4 CODECOPY DUP2 ADD PUSH1 0x40 DUP2 SWAP1 MSTORE PUSH3 0x9C SWAP2 PUSH3 0x23F JUMP JUMPDEST PUSH1 0x3 SLOAD PUSH1 0x1 PUSH1 0x1 PUSH1 0xA0 SHL SUB AND PUSH1 0x80 MSTORE PUSH3 0xB6 CALLER PUSH3 0x130 JUMP JUMPDEST PUSH1 0x0 DUP1 SLOAD PUSH1 0xFF PUSH1 0xA0 SHL NOT AND SWAP1 SSTORE PUSH1 0x1 DUP1 SSTORE PUSH1 0x3 SLOAD PUSH1 0x2 DUP1 SLOAD PUSH1 0x8 DUP1 SLOAD CALLER PUSH1 0x1 PUSH1 0x1 PUSH1 0xA0 SHL SUB NOT SWAP1 SWAP2 AND OR SWAP1 SSTORE PUSH1 0x1 PUSH1 0x1 PUSH1 0xE0 SHL SUB NOT AND PUSH1 0x1 PUSH1 0x1 PUSH1 0xA0 SHL SUB SWAP1 SWAP3 AND PUSH9 0x10000000000000000 MUL PUSH1 0x1 PUSH1 0x1 PUSH1 0x40 SHL SUB NOT AND SWAP2 SWAP1 SWAP2 OR PUSH1 0x1 PUSH1 0x1 PUSH1 0x40 SHL SUB DUP5 AND OR SWAP1 SSTORE PUSH3 0x128 DUP2 PUSH3 0x180 JUMP JUMPDEST POP POP PUSH3 0x294 JUMP JUMPDEST PUSH1 0x0 DUP1 SLOAD PUSH1 0x1 PUSH1 0x1 PUSH1 0xA0 SHL SUB DUP4 DUP2 AND PUSH1 0x1 PUSH1 0x1 PUSH1 0xA0 SHL SUB NOT DUP4 AND DUP2 OR DUP5 SSTORE PUSH1 0x40 MLOAD SWAP2 SWAP1 SWAP3 AND SWAP3 DUP4 SWAP2 PUSH32 0x8BE0079C531659141344CD1FD0A4F28419497F9722A3DAAFE3B4186F6B6457E0 SWAP2 SWAP1 LOG3 POP POP JUMP JUMPDEST PUSH3 0x18A PUSH3 0x1DE JUMP JUMPDEST PUSH1 0x9 DUP1 SLOAD PUSH1 0x1 PUSH1 0x1 PUSH1 0xA0 SHL SUB NOT AND PUSH1 0x1 PUSH1 0x1 PUSH1 0xA0 SHL SUB DUP4 AND SWAP1 DUP2 OR SWAP1 SWAP2 SSTORE PUSH1 0x40 MLOAD SWAP1 DUP2 MSTORE PUSH32 0x10F5824683D64A0712038F2244E046B174A1CC57FBB8556BFDA5FFB261244067 SWAP1 PUSH1 0x20 ADD PUSH1 0x40 MLOAD DUP1 SWAP2 SUB SWAP1 LOG1 POP JUMP JUMPDEST PUSH1 0x0 SLOAD PUSH1 0x1 PUSH1 0x1 PUSH1 0xA0 SHL SUB AND CALLER EQ PUSH3 0x23D JUMPI PUSH1 0x40 MLOAD PUSH3 0x461BCD PUSH1 0xE5 SHL DUP2 MSTORE PUSH1 0x20 PUSH1 0x4 DUP3 ADD DUP2 SWAP1 MSTORE PUSH1 0x24 DUP3 ADD MSTORE PUSH32 0x4F776E61626C653A2063616C6C6572206973206E6F7420746865206F776E6572 PUSH1 0x44 DUP3 ADD MSTORE PUSH1 0x64 ADD PUSH1 0x40 MLOAD DUP1 SWAP2 SUB SWAP1 REVERT JUMPDEST JUMP JUMPDEST PUSH1 0x0 DUP1 PUSH1 0x40 DUP4 DUP6 SUB SLT ISZERO PUSH3 0x253 JUMPI PUSH1 0x0 DUP1 REVERT JUMPDEST DUP3 MLOAD PUSH1 0x1 PUSH1 0x1 PUSH1 0x40 SHL SUB DUP2 AND DUP2 EQ PUSH3 0x26B JUMPI PUSH1 0x0 DUP1 REVERT JUMPDEST PUSH1 0x20 DUP5 ADD MLOAD SWAP1 SWAP3 POP PUSH1 0x1 PUSH1 0x1 PUSH1 0xA0 SHL SUB DUP2 AND DUP2 EQ PUSH3 0x289 JUMPI PUSH1 0x0 DUP1 REVERT JUMPDEST DUP1 SWAP2 POP POP SWAP3 POP SWAP3 SWAP1 POP JUMP JUMPDEST PUSH1 0x80 MLOAD PUSH2 0x2322 PUSH3 0x2B7 PUSH1 0x0 CODECOPY PUSH1 0x0 DUP2 DUP2 PUSH2 0x677 ADD MSTORE PUSH2 0x6B9 ADD MSTORE PUSH2 0x2322 PUSH1 0x0 RETURN INVALID PUSH1 0x80 PUSH1 0x40 MSTORE PUSH1 0x4 CALLDATASIZE LT PUSH2 0x181 JUMPI PUSH1 0x0 CALLDATALOAD PUSH1 0xE0 SHR DUP1 PUSH4 0x61F14F11 GT PUSH2 0xD1 JUMPI DUP1 PUSH4 0xAC9650D8 GT PUSH2 0x8A JUMPI DUP1 PUSH4 0xE3978240 GT PUSH2 0x64 JUMPI DUP1 PUSH4 0xE3978240 EQ PUSH2 0x556 JUMPI DUP1 PUSH4 0xE4860339 EQ PUSH2 0x576 JUMPI DUP1 PUSH4 0xE89E106A EQ PUSH2 0x5DA JUMPI DUP1 PUSH4 0xF2FDE38B EQ PUSH2 0x5F0 JUMPI PUSH1 0x0 DUP1 REVERT JUMPDEST DUP1 PUSH4 0xAC9650D8 EQ PUSH2 0x4DC JUMPI DUP1 PUSH4 0xC2FB579F EQ PUSH2 0x509 JUMPI DUP1 PUSH4 0xE1FDB4B4 EQ PUSH2 0x536 JUMPI PUSH1 0x0 DUP1 REVERT JUMPDEST DUP1 PUSH4 0x61F14F11 EQ PUSH2 0x409 JUMPI DUP1 PUSH4 0x715018A6 EQ PUSH2 0x43C JUMPI DUP1 PUSH4 0x76CDB03B EQ PUSH2 0x451 JUMPI DUP1 PUSH4 0x78BCDE22 EQ PUSH2 0x489 JUMPI DUP1 PUSH4 0x8456CB59 EQ PUSH2 0x4A9 JUMPI DUP1 PUSH4 0x8DA5CB5B EQ PUSH2 0x4BE JUMPI PUSH1 0x0 DUP1 REVERT JUMPDEST DUP1 PUSH4 0x3AECD0E3 GT PUSH2 0x13E JUMPI DUP1 PUSH4 0x594043FD GT PUSH2 0x118 JUMPI DUP1 PUSH4 0x594043FD EQ PUSH2 0x346 JUMPI DUP1 PUSH4 0x5BFE1630 EQ PUSH2 0x39D JUMPI DUP1 PUSH4 0x5C975ABB EQ PUSH2 0x3CA JUMPI DUP1 PUSH4 0x5FFE6146 EQ PUSH2 0x3E9 JUMPI PUSH1 0x0 DUP1 REVERT JUMPDEST DUP1 PUSH4 0x3AECD0E3 EQ PUSH2 0x2C0 JUMPI DUP1 PUSH4 0x4031E85B EQ PUSH2 0x2E0 JUMPI DUP1 PUSH4 0x42258ECA EQ PUSH2 0x2F3 JUMPI PUSH1 0x0 DUP1 REVERT JUMPDEST DUP1 PUSH4 0x90D23B9 EQ PUSH2 0x186 JUMPI DUP1 PUSH4 0x12065FE0 EQ PUSH2 0x1A8 JUMPI DUP1 PUSH4 0x1B3ED722 EQ PUSH2 0x1CA JUMPI DUP1 PUSH4 0x1D3C7B91 EQ PUSH2 0x1E0 JUMPI DUP1 PUSH4 0x1FE543E3 EQ PUSH2 0x1F6 JUMPI DUP1 PUSH4 0x22AF00FA EQ PUSH2 0x216 JUMPI JUMPDEST PUSH1 0x0 DUP1 REVERT JUMPDEST CALLVALUE DUP1 ISZERO PUSH2 0x192 JUMPI PUSH1 0x0 DUP1 REVERT JUMPDEST POP PUSH2 0x1A6 PUSH2 0x1A1 CALLDATASIZE PUSH1 0x4 PUSH2 0x1D26 JUMP JUMPDEST PUSH2 0x610 JUMP JUMPDEST STOP JUMPDEST CALLVALUE DUP1 ISZERO PUSH2 0x1B4 JUMPI PUSH1 0x0 DUP1 REVERT JUMPDEST POP SELFBALANCE JUMPDEST PUSH1 0x40 MLOAD SWAP1 DUP2 MSTORE PUSH1 0x20 ADD JUMPDEST PUSH1 0x40 MLOAD DUP1 SWAP2 SUB SWAP1 RETURN JUMPDEST CALLVALUE DUP1 ISZERO PUSH2 0x1D6 JUMPI PUSH1 0x0 DUP1 REVERT JUMPDEST POP PUSH2 0x1B7 PUSH1 0xF SLOAD DUP2 JUMP JUMPDEST CALLVALUE DUP1 ISZERO PUSH2 0x1EC JUMPI PUSH1 0x0 DUP1 REVERT JUMPDEST POP PUSH2 0x1B7 PUSH1 0x6 SLOAD DUP2 JUMP JUMPDEST CALLVALUE DUP1 ISZERO PUSH2 0x202 JUMPI PUSH1 0x0 DUP1 REVERT JUMPDEST POP PUSH2 0x1A6 PUSH2 0x211 CALLDATASIZE PUSH1 0x4 PUSH2 0x1D59 JUMP JUMPDEST PUSH2 0x66C JUMP JUMPDEST CALLVALUE DUP1 ISZERO PUSH2 0x222 JUMPI PUSH1 0x0 DUP1 REVERT JUMPDEST POP PUSH2 0x27B PUSH2 0x231 CALLDATASIZE PUSH1 0x4 PUSH2 0x1E22 JUMP JUMPDEST PUSH1 0xA PUSH1 0x20 MSTORE PUSH1 0x0 SWAP1 DUP2 MSTORE PUSH1 0x40 SWAP1 KECCAK256 DUP1 SLOAD PUSH1 0x1 DUP3 ADD SLOAD PUSH1 0x2 DUP4 ADD SLOAD PUSH1 0x3 DUP5 ADD SLOAD PUSH1 0x4 DUP6 ADD SLOAD PUSH1 0x5 SWAP1 SWAP6 ADD SLOAD PUSH1 0xFF DUP1 DUP7 AND SWAP7 PUSH2 0x100 SWAP1 SWAP7 DIV PUSH1 0x1 PUSH1 0x1 PUSH1 0xA0 SHL SUB SWAP1 DUP2 AND SWAP7 SWAP6 AND SWAP5 SWAP2 AND DUP8 JUMP JUMPDEST PUSH1 0x40 DUP1 MLOAD SWAP8 ISZERO ISZERO DUP9 MSTORE PUSH1 0x1 PUSH1 0x1 PUSH1 0xA0 SHL SUB SWAP7 DUP8 AND PUSH1 0x20 DUP10 ADD MSTORE SWAP5 SWAP1 SWAP6 AND SWAP4 DUP7 ADD SWAP4 SWAP1 SWAP4 MSTORE PUSH1 0x60 DUP6 ADD SWAP2 SWAP1 SWAP2 MSTORE PUSH1 0x80 DUP5 ADD MSTORE PUSH1 0xA0 DUP4 ADD MSTORE ISZERO ISZERO PUSH1 0xC0 DUP3 ADD MSTORE PUSH1 0xE0 ADD PUSH2 0x1C1 JUMP JUMPDEST CALLVALUE DUP1 ISZERO PUSH2 0x2CC JUMPI PUSH1 0x0 DUP1 REVERT JUMPDEST POP PUSH2 0x1B7 PUSH2 0x2DB CALLDATASIZE PUSH1 0x4 PUSH2 0x1D26 JUMP JUMPDEST PUSH2 0x6F9 JUMP JUMPDEST PUSH2 0x1A6 PUSH2 0x2EE CALLDATASIZE PUSH1 0x4 PUSH2 0x1E3B JUMP JUMPDEST PUSH2 0x781 JUMP JUMPDEST CALLVALUE DUP1 ISZERO PUSH2 0x2FF JUMPI PUSH1 0x0 DUP1 REVERT JUMPDEST POP PUSH2 0x32C PUSH2 0x30E CALLDATASIZE PUSH1 0x4 PUSH2 0x1E22 JUMP JUMPDEST PUSH1 0xC PUSH1 0x20 MSTORE PUSH1 0x0 SWAP1 DUP2 MSTORE PUSH1 0x40 SWAP1 KECCAK256 SLOAD PUSH1 0xFF DUP1 DUP3 AND SWAP2 PUSH2 0x100 SWAP1 DIV AND DUP3 JUMP JUMPDEST PUSH1 0x40 DUP1 MLOAD PUSH1 0xFF SWAP4 DUP5 AND DUP2 MSTORE SWAP3 SWAP1 SWAP2 AND PUSH1 0x20 DUP4 ADD MSTORE ADD PUSH2 0x1C1 JUMP JUMPDEST CALLVALUE DUP1 ISZERO PUSH2 0x352 JUMPI PUSH1 0x0 DUP1 REVERT JUMPDEST POP PUSH2 0x38D PUSH2 0x361 CALLDATASIZE PUSH1 0x4 PUSH2 0x1D26 JUMP JUMPDEST PUSH1 0x1 PUSH1 0x1 PUSH1 0xA0 SHL SUB AND PUSH1 0x0 SWAP1 DUP2 MSTORE PUSH1 0xE PUSH1 0x20 MSTORE PUSH1 0x40 SWAP1 KECCAK256 SLOAD PUSH3 0x10000 SWAP1 DIV PUSH1 0x1 PUSH1 0x1 PUSH1 0x40 SHL SUB AND ISZERO ISZERO SWAP1 JUMP JUMPDEST PUSH1 0x40 MLOAD SWAP1 ISZERO ISZERO DUP2 MSTORE PUSH1 0x20 ADD PUSH2 0x1C1 JUMP JUMPDEST CALLVALUE DUP1 ISZERO PUSH2 0x3A9 JUMPI PUSH1 0x0 DUP1 REVERT JUMPDEST POP PUSH2 0x3BD PUSH2 0x3B8 CALLDATASIZE PUSH1 0x4 PUSH2 0x1E22 JUMP JUMPDEST PUSH2 0x867 JUMP JUMPDEST PUSH1 0x40 MLOAD PUSH2 0x1C1 SWAP2 SWAP1 PUSH2 0x1ED8 JUMP JUMPDEST CALLVALUE DUP1 ISZERO PUSH2 0x3D6 JUMPI PUSH1 0x0 DUP1 REVERT JUMPDEST POP PUSH1 0x0 SLOAD PUSH1 0x1 PUSH1 0xA0 SHL SWAP1 DIV PUSH1 0xFF AND PUSH2 0x38D JUMP JUMPDEST CALLVALUE DUP1 ISZERO PUSH2 0x3F5 JUMPI PUSH1 0x0 DUP1 REVERT JUMPDEST POP PUSH2 0x1A6 PUSH2 0x404 CALLDATASIZE PUSH1 0x4 PUSH2 0x1E22 JUMP JUMPDEST PUSH2 0x8E6 JUMP JUMPDEST CALLVALUE DUP1 ISZERO PUSH2 0x415 JUMPI PUSH1 0x0 DUP1 REVERT JUMPDEST POP PUSH2 0x38D PUSH2 0x424 CALLDATASIZE PUSH1 0x4 PUSH2 0x1E22 JUMP JUMPDEST PUSH1 0x0 SWAP1 DUP2 MSTORE PUSH1 0xA PUSH1 0x20 MSTORE PUSH1 0x40 SWAP1 KECCAK256 PUSH1 0x5 ADD SLOAD PUSH1 0xFF AND SWAP1 JUMP JUMPDEST CALLVALUE DUP1 ISZERO PUSH2 0x448 JUMPI PUSH1 0x0 DUP1 REVERT JUMPDEST POP PUSH2 0x1A6 PUSH2 0x8F3 JUMP JUMPDEST CALLVALUE DUP1 ISZERO PUSH2 0x45D JUMPI PUSH1 0x0 DUP1 REVERT JUMPDEST POP PUSH1 0x9 SLOAD PUSH2 0x471 SWAP1 PUSH1 0x1 PUSH1 0x1 PUSH1 0xA0 SHL SUB AND DUP2 JUMP JUMPDEST PUSH1 0x40 MLOAD PUSH1 0x1 PUSH1 0x1 PUSH1 0xA0 SHL SUB SWAP1 SWAP2 AND DUP2 MSTORE PUSH1 0x20 ADD PUSH2 0x1C1 JUMP JUMPDEST CALLVALUE DUP1 ISZERO PUSH2 0x495 JUMPI PUSH1 0x0 DUP1 REVERT JUMPDEST POP PUSH2 0x1A6 PUSH2 0x4A4 CALLDATASIZE PUSH1 0x4 PUSH2 0x1EE6 JUMP JUMPDEST PUSH2 0x907 JUMP JUMPDEST CALLVALUE DUP1 ISZERO PUSH2 0x4B5 JUMPI PUSH1 0x0 DUP1 REVERT JUMPDEST POP PUSH2 0x1A6 PUSH2 0x9DE JUMP JUMPDEST CALLVALUE DUP1 ISZERO PUSH2 0x4CA JUMPI PUSH1 0x0 DUP1 REVERT JUMPDEST POP PUSH1 0x0 SLOAD PUSH1 0x1 PUSH1 0x1 PUSH1 0xA0 SHL SUB AND PUSH2 0x471 JUMP JUMPDEST CALLVALUE DUP1 ISZERO PUSH2 0x4E8 JUMPI PUSH1 0x0 DUP1 REVERT JUMPDEST POP PUSH2 0x4FC PUSH2 0x4F7 CALLDATASIZE PUSH1 0x4 PUSH2 0x1F26 JUMP JUMPDEST PUSH2 0xA08 JUMP JUMPDEST PUSH1 0x40 MLOAD PUSH2 0x1C1 SWAP2 SWAP1 PUSH2 0x1FF2 JUMP JUMPDEST CALLVALUE DUP1 ISZERO PUSH2 0x515 JUMPI PUSH1 0x0 DUP1 REVERT JUMPDEST POP PUSH2 0x529 PUSH2 0x524 CALLDATASIZE PUSH1 0x4 PUSH2 0x2054 JUMP JUMPDEST PUSH2 0xAFD JUMP JUMPDEST PUSH1 0x40 MLOAD PUSH2 0x1C1 SWAP2 SWAP1 PUSH2 0x2080 JUMP JUMPDEST CALLVALUE DUP1 ISZERO PUSH2 0x542 JUMPI PUSH1 0x0 DUP1 REVERT JUMPDEST POP PUSH2 0x1A6 PUSH2 0x551 CALLDATASIZE PUSH1 0x4 PUSH2 0x1E22 JUMP JUMPDEST PUSH2 0xC2C JUMP JUMPDEST CALLVALUE DUP1 ISZERO PUSH2 0x562 JUMPI PUSH1 0x0 DUP1 REVERT JUMPDEST POP PUSH1 0x8 SLOAD PUSH2 0x471 SWAP1 PUSH1 0x1 PUSH1 0x1 PUSH1 0xA0 SHL SUB AND DUP2 JUMP JUMPDEST CALLVALUE DUP1 ISZERO PUSH2 0x582 JUMPI PUSH1 0x0 DUP1 REVERT JUMPDEST POP PUSH2 0x5B8 PUSH2 0x591 CALLDATASIZE PUSH1 0x4 PUSH2 0x1D26 JUMP JUMPDEST PUSH1 0xE PUSH1 0x20 MSTORE PUSH1 0x0 SWAP1 DUP2 MSTORE PUSH1 0x40 SWAP1 KECCAK256 SLOAD PUSH2 0xFFFF DUP2 AND SWAP1 PUSH3 0x10000 SWAP1 DIV PUSH1 0x1 PUSH1 0x1 PUSH1 0x40 SHL SUB AND DUP3 JUMP JUMPDEST PUSH1 0x40 DUP1 MLOAD PUSH2 0xFFFF SWAP1 SWAP4 AND DUP4 MSTORE PUSH1 0x1 PUSH1 0x1 PUSH1 0x40 SHL SUB SWAP1 SWAP2 AND PUSH1 0x20 DUP4 ADD MSTORE ADD PUSH2 0x1C1 JUMP JUMPDEST CALLVALUE DUP1 ISZERO PUSH2 0x5E6 JUMPI PUSH1 0x0 DUP1 REVERT JUMPDEST POP PUSH2 0x1B7 PUSH1 0x7 SLOAD DUP2 JUMP JUMPDEST CALLVALUE DUP1 ISZERO PUSH2 0x5FC JUMPI PUSH1 0x0 DUP1 REVERT JUMPDEST POP PUSH2 0x1A6 PUSH2 0x60B CALLDATASIZE PUSH1 0x4 PUSH2 0x1D26 JUMP JUMPDEST PUSH2 0xD93 JUMP JUMPDEST PUSH2 0x618 PUSH2 0xE09 JUMP JUMPDEST PUSH1 0x9 DUP1 SLOAD PUSH1 0x1 PUSH1 0x1 PUSH1 0xA0 SHL SUB NOT AND PUSH1 0x1 PUSH1 0x1 PUSH1 0xA0 SHL SUB DUP4 AND SWAP1 DUP2 OR SWAP1 SWAP2 SSTORE PUSH1 0x40 MLOAD SWAP1 DUP2 MSTORE PUSH32 0x10F5824683D64A0712038F2244E046B174A1CC57FBB8556BFDA5FFB261244067 SWAP1 PUSH1 0x20 ADD PUSH1 0x40 MLOAD DUP1 SWAP2 SUB SWAP1 LOG1 POP JUMP JUMPDEST CALLER PUSH1 0x1 PUSH1 0x1 PUSH1 0xA0 SHL SUB PUSH32 0x0 AND EQ PUSH2 0x6EB JUMPI PUSH1 0x40 MLOAD PUSH4 0x73E64FD PUSH1 0xE2 SHL DUP2 MSTORE CALLER PUSH1 0x4 DUP3 ADD MSTORE PUSH1 0x1 PUSH1 0x1 PUSH1 0xA0 SHL SUB PUSH32 0x0 AND PUSH1 0x24 DUP3 ADD MSTORE PUSH1 0x44 ADD JUMPDEST PUSH1 0x40 MLOAD DUP1 SWAP2 SUB SWAP1 REVERT JUMPDEST PUSH2 0x6F5 DUP3 DUP3 PUSH2 0xE63 JUMP JUMPDEST POP POP JUMP JUMPDEST PUSH1 0x0 DUP1 PUSH1 0x1 PUSH1 0x1 PUSH1 0xA0 SHL SUB DUP4 AND PUSH2 0x712 JUMPI POP SELFBALANCE SWAP3 SWAP2 POP POP JUMP JUMPDEST PUSH1 0x40 MLOAD PUSH4 0x70A08231 PUSH1 0xE0 SHL DUP2 MSTORE ADDRESS PUSH1 0x4 DUP3 ADD MSTORE PUSH1 0x1 PUSH1 0x1 PUSH1 0xA0 SHL SUB DUP5 AND SWAP1 PUSH4 0x70A08231 SWAP1 PUSH1 0x24 ADD PUSH1 0x20 PUSH1 0x40 MLOAD DUP1 DUP4 SUB DUP2 DUP7 GAS STATICCALL ISZERO DUP1 ISZERO PUSH2 0x756 JUMPI RETURNDATASIZE PUSH1 0x0 DUP1 RETURNDATACOPY RETURNDATASIZE PUSH1 0x0 REVERT JUMPDEST POP POP POP POP PUSH1 0x40 MLOAD RETURNDATASIZE PUSH1 0x1F NOT PUSH1 0x1F DUP3 ADD AND DUP3 ADD DUP1 PUSH1 0x40 MSTORE POP DUP2 ADD SWAP1 PUSH2 0x77A SWAP2 SWAP1 PUSH2 0x20DE JUMP JUMPDEST SWAP4 SWAP3 POP POP POP JUMP JUMPDEST PUSH2 0x789 PUSH2 0x1056 JUMP JUMPDEST PUSH1 0xFF DUP4 AND ISZERO DUP1 PUSH2 0x79C JUMPI POP PUSH1 0x63 DUP4 PUSH1 0xFF AND GT JUMPDEST ISZERO PUSH2 0x7C4 JUMPI PUSH1 0x40 MLOAD PUSH4 0x8A4B39A7 PUSH1 0xE0 SHL DUP2 MSTORE PUSH1 0x1 PUSH1 0x4 DUP3 ADD MSTORE PUSH1 0x63 PUSH1 0x24 DUP3 ADD MSTORE PUSH1 0x44 ADD PUSH2 0x6E2 JUMP JUMPDEST PUSH1 0x0 PUSH2 0x7DC DUP4 DUP4 PUSH2 0x7D7 PUSH2 0x2710 DUP9 PUSH2 0x10A3 JUMP JUMPDEST PUSH2 0x10C8 JUMP JUMPDEST PUSH1 0x60 DUP2 DUP2 ADD DUP1 MLOAD PUSH1 0x0 SWAP1 DUP2 MSTORE PUSH1 0xC PUSH1 0x20 SWAP1 DUP2 MSTORE PUSH1 0x40 SWAP2 DUP3 SWAP1 KECCAK256 DUP1 SLOAD PUSH1 0xFF NOT AND PUSH1 0xFF DUP12 AND SWAP1 DUP2 OR SWAP1 SWAP2 SSTORE DUP3 DUP7 ADD MLOAD DUP3 DUP8 ADD MLOAD SWAP5 MLOAD PUSH1 0x80 DUP9 ADD MLOAD DUP6 MLOAD SWAP2 DUP3 MSTORE SWAP4 DUP2 ADD SWAP4 SWAP1 SWAP4 MSTORE SWAP3 DUP3 ADD MSTORE SWAP4 SWAP5 POP PUSH1 0x1 PUSH1 0x1 PUSH1 0xA0 SHL SUB SWAP1 DUP2 AND SWAP4 SWAP2 AND SWAP2 PUSH32 0x7BC15B06F5A3547B8FC8EB36E2C45F4B3385D615FBA6158C797E5AA279DCF748 SWAP2 ADD PUSH1 0x40 MLOAD DUP1 SWAP2 SUB SWAP1 LOG3 POP POP POP POP JUMP JUMPDEST PUSH2 0x86F PUSH2 0x1C95 JUMP JUMPDEST POP PUSH1 0x0 SWAP1 DUP2 MSTORE PUSH1 0xA PUSH1 0x20 SWAP1 DUP2 MSTORE PUSH1 0x40 SWAP2 DUP3 SWAP1 KECCAK256 DUP3 MLOAD PUSH1 0xE0 DUP2 ADD DUP5 MSTORE DUP2 SLOAD PUSH1 0xFF DUP1 DUP3 AND ISZERO ISZERO DUP4 MSTORE PUSH1 0x1 PUSH1 0x1 PUSH1 0xA0 SHL SUB PUSH2 0x100 SWAP1 SWAP3 DIV DUP3 AND SWAP5 DUP4 ADD SWAP5 SWAP1 SWAP5 MSTORE PUSH1 0x1 DUP4 ADD SLOAD AND SWAP4 DUP2 ADD SWAP4 SWAP1 SWAP4 MSTORE PUSH1 0x2 DUP2 ADD SLOAD PUSH1 0x60 DUP5 ADD MSTORE PUSH1 0x3 DUP2 ADD SLOAD PUSH1 0x80 DUP5 ADD MSTORE PUSH1 0x4 DUP2 ADD SLOAD PUSH1 0xA0 DUP5 ADD MSTORE PUSH1 0x5 ADD SLOAD AND ISZERO ISZERO PUSH1 0xC0 DUP3 ADD MSTORE SWAP1 JUMP JUMPDEST PUSH2 0x8EE PUSH2 0xE09 JUMP JUMPDEST PUSH1 0xF SSTORE JUMP JUMPDEST PUSH2 0x8FB PUSH2 0xE09 JUMP JUMPDEST PUSH2 0x905 PUSH1 0x0 PUSH2 0x155B JUMP JUMPDEST JUMP JUMPDEST PUSH2 0x90F PUSH2 0xE09 JUMP JUMPDEST PUSH2 0x190 DUP2 PUSH2 0xFFFF AND GT ISZERO PUSH2 0x936 JUMPI PUSH1 0x40 MLOAD PUSH4 0x1C2D5DD3 PUSH1 0xE2 SHL DUP2 MSTORE PUSH1 0x4 ADD PUSH1 0x40 MLOAD DUP1 SWAP2 SUB SWAP1 REVERT JUMPDEST PUSH1 0x1 PUSH1 0x1 PUSH1 0xA0 SHL SUB DUP3 AND PUSH1 0x0 SWAP1 DUP2 MSTORE PUSH1 0xE PUSH1 0x20 MSTORE PUSH1 0x40 SWAP1 KECCAK256 SLOAD PUSH3 0x10000 SWAP1 DIV PUSH1 0x1 PUSH1 0x1 PUSH1 0x40 SHL SUB AND ISZERO PUSH2 0x97C JUMPI PUSH1 0x40 MLOAD PUSH4 0x55212B7 PUSH1 0xE5 SHL DUP2 MSTORE PUSH1 0x4 ADD PUSH1 0x40 MLOAD DUP1 SWAP2 SUB SWAP1 REVERT JUMPDEST PUSH1 0x1 PUSH1 0x1 PUSH1 0xA0 SHL SUB DUP3 AND PUSH1 0x0 DUP2 DUP2 MSTORE PUSH1 0xE PUSH1 0x20 SWAP1 DUP2 MSTORE PUSH1 0x40 SWAP2 DUP3 SWAP1 KECCAK256 DUP1 SLOAD PUSH2 0xFFFF NOT AND PUSH2 0xFFFF DUP7 AND SWAP1 DUP2 OR SWAP1 SWAP2 SSTORE SWAP2 MLOAD SWAP2 DUP3 MSTORE PUSH32 0x7DFD3ECB8AC83242184C019F85CA408558F2AC0A5A19AF6BE2A4AEE697EAC812 SWAP2 ADD PUSH1 0x40 MLOAD DUP1 SWAP2 SUB SWAP1 LOG2 POP POP JUMP JUMPDEST PUSH2 0x9E6 PUSH2 0xE09 JUMP JUMPDEST PUSH1 0x0 SLOAD PUSH1 0x1 PUSH1 0xA0 SHL SWAP1 DIV PUSH1 0xFF AND ISZERO PUSH2 0xA00 JUMPI PUSH2 0x905 PUSH2 0x15AB JUMP JUMPDEST PUSH2 0x905 PUSH2 0x1600 JUMP JUMPDEST PUSH1 0x60 DUP2 PUSH1 0x1 PUSH1 0x1 PUSH1 0x40 SHL SUB DUP2 GT ISZERO PUSH2 0xA22 JUMPI PUSH2 0xA22 PUSH2 0x1D43 JUMP JUMPDEST PUSH1 0x40 MLOAD SWAP1 DUP1 DUP3 MSTORE DUP1 PUSH1 0x20 MUL PUSH1 0x20 ADD DUP3 ADD PUSH1 0x40 MSTORE DUP1 ISZERO PUSH2 0xA55 JUMPI DUP2 PUSH1 0x20 ADD JUMPDEST PUSH1 0x60 DUP2 MSTORE PUSH1 0x20 ADD SWAP1 PUSH1 0x1 SWAP1 SUB SWAP1 DUP2 PUSH2 0xA40 JUMPI SWAP1 POP JUMPDEST POP SWAP1 POP PUSH1 0x0 JUMPDEST DUP3 DUP2 LT ISZERO PUSH2 0xAF5 JUMPI PUSH2 0xAC5 ADDRESS DUP6 DUP6 DUP5 DUP2 DUP2 LT PUSH2 0xA79 JUMPI PUSH2 0xA79 PUSH2 0x20F7 JUMP JUMPDEST SWAP1 POP PUSH1 0x20 MUL DUP2 ADD SWAP1 PUSH2 0xA8B SWAP2 SWAP1 PUSH2 0x210D JUMP JUMPDEST DUP1 DUP1 PUSH1 0x1F ADD PUSH1 0x20 DUP1 SWAP2 DIV MUL PUSH1 0x20 ADD PUSH1 0x40 MLOAD SWAP1 DUP2 ADD PUSH1 0x40 MSTORE DUP1 SWAP4 SWAP3 SWAP2 SWAP1 DUP2 DUP2 MSTORE PUSH1 0x20 ADD DUP4 DUP4 DUP1 DUP3 DUP5 CALLDATACOPY PUSH1 0x0 SWAP3 ADD SWAP2 SWAP1 SWAP2 MSTORE POP PUSH2 0x1643 SWAP3 POP POP POP JUMP JUMPDEST DUP3 DUP3 DUP2 MLOAD DUP2 LT PUSH2 0xAD7 JUMPI PUSH2 0xAD7 PUSH2 0x20F7 JUMP JUMPDEST PUSH1 0x20 MUL PUSH1 0x20 ADD ADD DUP2 SWAP1 MSTORE POP DUP1 DUP1 PUSH2 0xAED SWAP1 PUSH2 0x2170 JUMP JUMPDEST SWAP2 POP POP PUSH2 0xA5B JUMP JUMPDEST POP JUMPDEST SWAP3 SWAP2 POP POP JUMP JUMPDEST PUSH1 0x60 PUSH1 0x0 PUSH2 0xB0B DUP5 DUP5 PUSH2 0x1668 JUMP JUMPDEST SWAP1 POP PUSH1 0x0 DUP2 MLOAD PUSH1 0x1 PUSH1 0x1 PUSH1 0x40 SHL SUB DUP2 GT ISZERO PUSH2 0xB28 JUMPI PUSH2 0xB28 PUSH2 0x1D43 JUMP JUMPDEST PUSH1 0x40 MLOAD SWAP1 DUP1 DUP3 MSTORE DUP1 PUSH1 0x20 MUL PUSH1 0x20 ADD DUP3 ADD PUSH1 0x40 MSTORE DUP1 ISZERO PUSH2 0xB61 JUMPI DUP2 PUSH1 0x20 ADD JUMPDEST PUSH2 0xB4E PUSH2 0x1CD1 JUMP JUMPDEST DUP2 MSTORE PUSH1 0x20 ADD SWAP1 PUSH1 0x1 SWAP1 SUB SWAP1 DUP2 PUSH2 0xB46 JUMPI SWAP1 POP JUMPDEST POP SWAP1 POP PUSH1 0x0 JUMPDEST DUP3 MLOAD DUP2 LT ISZERO PUSH2 0xC23 JUMPI PUSH1 0x40 MLOAD DUP1 PUSH1 0x40 ADD PUSH1 0x40 MSTORE DUP1 DUP5 DUP4 DUP2 MLOAD DUP2 LT PUSH2 0xB8D JUMPI PUSH2 0xB8D PUSH2 0x20F7 JUMP JUMPDEST PUSH1 0x20 MUL PUSH1 0x20 ADD ADD MLOAD DUP2 MSTORE PUSH1 0x20 ADD PUSH1 0xC PUSH1 0x0 DUP7 DUP6 DUP2 MLOAD DUP2 LT PUSH2 0xBB0 JUMPI PUSH2 0xBB0 PUSH2 0x20F7 JUMP JUMPDEST PUSH1 0x20 SWAP1 DUP2 MUL SWAP2 SWAP1 SWAP2 ADD DUP2 ADD MLOAD PUSH1 0x60 ADD MLOAD DUP3 MSTORE DUP2 DUP2 ADD SWAP3 SWAP1 SWAP3 MSTORE PUSH1 0x40 SWAP1 DUP2 ADD PUSH1 0x0 KECCAK256 DUP2 MLOAD DUP1 DUP4 ADD SWAP1 SWAP3 MSTORE SLOAD PUSH1 0xFF DUP1 DUP3 AND DUP4 MSTORE PUSH2 0x100 SWAP1 SWAP2 DIV AND SWAP2 DUP2 ADD SWAP2 SWAP1 SWAP2 MSTORE SWAP1 MSTORE DUP3 MLOAD DUP4 SWAP1 DUP4 SWAP1 DUP2 LT PUSH2 0xC05 JUMPI PUSH2 0xC05 PUSH2 0x20F7 JUMP JUMPDEST PUSH1 0x20 MUL PUSH1 0x20 ADD ADD DUP2 SWAP1 MSTORE POP DUP1 DUP1 PUSH2 0xC1B SWAP1 PUSH2 0x2170 JUMP JUMPDEST SWAP2 POP POP PUSH2 0xB67 JUMP JUMPDEST POP SWAP5 SWAP4 POP POP POP POP JUMP JUMPDEST PUSH2 0xC34 PUSH2 0x183A JUMP JUMPDEST PUSH1 0x0 DUP2 DUP2 MSTORE PUSH1 0xA PUSH1 0x20 MSTORE PUSH1 0x40 SWAP1 KECCAK256 DUP1 SLOAD PUSH1 0xFF AND ISZERO ISZERO PUSH1 0x1 EQ ISZERO PUSH2 0xC6A JUMPI PUSH1 0x40 MLOAD PUSH4 0x10D5F2BD PUSH1 0xE1 SHL DUP2 MSTORE PUSH1 0x4 ADD PUSH1 0x40 MLOAD DUP1 SWAP2 SUB SWAP1 REVERT JUMPDEST PUSH1 0x4 DUP2 ADD SLOAD PUSH2 0xC7A SWAP1 PUSH1 0x1E PUSH2 0x218B JUMP JUMPDEST TIMESTAMP LT ISZERO PUSH2 0xC9A JUMPI PUSH1 0x40 MLOAD PUSH4 0x3DE361F PUSH1 0xE1 SHL DUP2 MSTORE PUSH1 0x4 ADD PUSH1 0x40 MLOAD DUP1 SWAP2 SUB SWAP1 REVERT JUMPDEST PUSH1 0x1 DUP2 ADD SLOAD PUSH1 0x1 PUSH1 0x1 PUSH1 0xA0 SHL SUB AND PUSH1 0x0 SWAP1 DUP2 MSTORE PUSH1 0xE PUSH1 0x20 MSTORE PUSH1 0x40 SWAP1 KECCAK256 DUP1 SLOAD PUSH3 0x10000 SWAP1 DIV PUSH1 0x1 PUSH1 0x1 PUSH1 0x40 SHL SUB AND DUP2 PUSH1 0x2 PUSH2 0xCD3 DUP4 PUSH2 0x21A3 JUMP JUMPDEST DUP3 SLOAD PUSH1 0x1 PUSH1 0x1 PUSH1 0x40 SHL SUB SWAP2 DUP3 AND PUSH2 0x100 SWAP4 SWAP1 SWAP4 EXP SWAP3 DUP4 MUL SWAP2 SWAP1 SWAP3 MUL NOT SWAP1 SWAP2 AND OR SWAP1 SSTORE POP DUP2 SLOAD PUSH1 0xFF NOT AND PUSH1 0x1 SWAP1 DUP2 OR DUP4 SSTORE DUP3 ADD SLOAD PUSH1 0x1 PUSH1 0x1 PUSH1 0xA0 SHL SUB AND PUSH2 0xD5A JUMPI DUP2 SLOAD PUSH1 0x3 DUP4 ADD SLOAD PUSH1 0x40 MLOAD PUSH2 0x100 SWAP1 SWAP3 DIV PUSH1 0x1 PUSH1 0x1 PUSH1 0xA0 SHL SUB AND SWAP2 PUSH2 0x8FC DUP3 ISZERO MUL SWAP2 SWAP1 PUSH1 0x0 DUP2 DUP2 DUP2 DUP6 DUP9 DUP9 CALL SWAP4 POP POP POP POP ISZERO DUP1 ISZERO PUSH2 0xD54 JUMPI RETURNDATASIZE PUSH1 0x0 DUP1 RETURNDATACOPY RETURNDATASIZE PUSH1 0x0 REVERT JUMPDEST POP PUSH2 0xD85 JUMP JUMPDEST DUP2 SLOAD PUSH1 0x3 DUP4 ADD SLOAD PUSH1 0x1 DUP5 ADD SLOAD PUSH2 0xD85 SWAP3 PUSH1 0x1 PUSH1 0x1 PUSH1 0xA0 SHL SUB SWAP2 DUP3 AND SWAP3 PUSH2 0x100 SWAP1 SWAP2 DIV SWAP1 SWAP2 AND SWAP1 PUSH2 0x1894 JUMP JUMPDEST POP POP PUSH2 0xD90 PUSH1 0x1 DUP1 SSTORE JUMP JUMPDEST POP JUMP JUMPDEST PUSH2 0xD9B PUSH2 0xE09 JUMP JUMPDEST PUSH1 0x1 PUSH1 0x1 PUSH1 0xA0 SHL SUB DUP2 AND PUSH2 0xE00 JUMPI PUSH1 0x40 MLOAD PUSH3 0x461BCD PUSH1 0xE5 SHL DUP2 MSTORE PUSH1 0x20 PUSH1 0x4 DUP3 ADD MSTORE PUSH1 0x26 PUSH1 0x24 DUP3 ADD MSTORE PUSH32 0x4F776E61626C653A206E6577206F776E657220697320746865207A65726F2061 PUSH1 0x44 DUP3 ADD MSTORE PUSH6 0x646472657373 PUSH1 0xD0 SHL PUSH1 0x64 DUP3 ADD MSTORE PUSH1 0x84 ADD PUSH2 0x6E2 JUMP JUMPDEST PUSH2 0xD90 DUP2 PUSH2 0x155B JUMP JUMPDEST PUSH1 0x0 SLOAD PUSH1 0x1 PUSH1 0x1 PUSH1 0xA0 SHL SUB AND CALLER EQ PUSH2 0x905 JUMPI PUSH1 0x40 MLOAD PUSH3 0x461BCD PUSH1 0xE5 SHL DUP2 MSTORE PUSH1 0x20 PUSH1 0x4 DUP3 ADD DUP2 SWAP1 MSTORE PUSH1 0x24 DUP3 ADD MSTORE PUSH32 0x4F776E61626C653A2063616C6C6572206973206E6F7420746865206F776E6572 PUSH1 0x44 DUP3 ADD MSTORE PUSH1 0x64 ADD PUSH2 0x6E2 JUMP JUMPDEST PUSH1 0x0 DUP3 DUP2 MSTORE PUSH1 0xC PUSH1 0x20 SWAP1 DUP2 MSTORE PUSH1 0x40 DUP1 DUP4 KECCAK256 PUSH1 0xA SWAP1 SWAP3 MSTORE DUP3 KECCAK256 DUP4 MLOAD SWAP2 SWAP3 SWAP1 SWAP2 PUSH1 0x64 SWAP1 DUP6 SWAP1 DUP4 SWAP1 PUSH2 0xE94 JUMPI PUSH2 0xE94 PUSH2 0x20F7 JUMP JUMPDEST PUSH1 0x20 MUL PUSH1 0x20 ADD ADD MLOAD PUSH2 0xEA6 SWAP2 SWAP1 PUSH2 0x21DC JUMP JUMPDEST PUSH2 0xEB1 SWAP1 PUSH1 0x1 PUSH2 0x218B JUMP JUMPDEST DUP4 SLOAD PUSH1 0xFF DUP1 DUP4 AND PUSH2 0x100 DUP2 MUL PUSH2 0xFF00 NOT DUP5 AND DUP2 OR DUP9 SSTORE SWAP4 SWAP5 POP SWAP3 DUP2 AND SWAP2 AND OR LT ISZERO PUSH2 0xFC3 JUMPI DUP2 SLOAD PUSH1 0x1 PUSH1 0xFF NOT SWAP2 DUP3 AND DUP2 OR DUP1 DUP6 SSTORE PUSH1 0x5 DUP6 ADD DUP1 SLOAD SWAP1 SWAP4 AND DUP3 OR SWAP1 SWAP3 SSTORE DUP4 ADD SLOAD PUSH1 0x3 DUP5 ADD SLOAD DUP6 SLOAD PUSH1 0x1 PUSH1 0x1 PUSH1 0xA0 SHL SUB SWAP3 DUP4 AND SWAP4 PUSH2 0x100 SWAP1 DIV SWAP1 SWAP3 AND SWAP2 PUSH1 0x0 SWAP1 PUSH2 0xF23 SWAP1 DUP4 SWAP1 PUSH1 0xFF AND PUSH2 0x10A3 JUMP JUMPDEST SWAP1 POP DUP1 PUSH1 0x0 PUSH2 0xF32 DUP7 DUP6 PUSH2 0x18FC JUMP JUMPDEST SWAP1 POP PUSH1 0x0 PUSH2 0xF40 DUP3 DUP5 PUSH2 0x21F0 JUMP JUMPDEST PUSH1 0x9 SLOAD PUSH1 0x40 MLOAD PUSH4 0x1F615023 PUSH1 0xE0 SHL DUP2 MSTORE PUSH1 0x1 PUSH1 0x1 PUSH1 0xA0 SHL SUB DUP10 DUP2 AND PUSH1 0x4 DUP4 ADD MSTORE DUP11 DUP2 AND PUSH1 0x24 DUP4 ADD MSTORE PUSH1 0x44 DUP3 ADD DUP5 SWAP1 MSTORE PUSH1 0x64 DUP3 ADD DUP7 SWAP1 MSTORE SWAP3 SWAP4 POP SWAP2 AND SWAP1 PUSH4 0x1F615023 SWAP1 PUSH1 0x84 ADD PUSH1 0x0 PUSH1 0x40 MLOAD DUP1 DUP4 SUB DUP2 PUSH1 0x0 DUP8 DUP1 EXTCODESIZE ISZERO DUP1 ISZERO PUSH2 0xF9F JUMPI PUSH1 0x0 DUP1 REVERT JUMPDEST POP GAS CALL ISZERO DUP1 ISZERO PUSH2 0xFB3 JUMPI RETURNDATASIZE PUSH1 0x0 DUP1 RETURNDATACOPY RETURNDATASIZE PUSH1 0x0 REVERT JUMPDEST POP POP POP POP POP POP POP POP POP POP POP PUSH2 0xFDC JUMP JUMPDEST DUP2 SLOAD PUSH1 0xFF NOT SWAP1 DUP2 AND PUSH1 0x1 OR DUP4 SSTORE PUSH1 0x5 DUP4 ADD DUP1 SLOAD SWAP1 SWAP2 AND SWAP1 SSTORE JUMPDEST PUSH1 0x1 DUP3 ADD SLOAD DUP3 SLOAD PUSH1 0x2 DUP5 ADD SLOAD PUSH1 0x3 DUP6 ADD SLOAD DUP7 SLOAD PUSH1 0x40 DUP1 MLOAD SWAP4 DUP5 MSTORE PUSH1 0x20 DUP5 ADD SWAP3 SWAP1 SWAP3 MSTORE PUSH1 0xFF SWAP1 DUP2 AND DUP4 DUP4 ADD MSTORE DUP6 AND PUSH1 0x60 DUP4 ADD MSTORE MLOAD PUSH1 0x1 PUSH1 0x1 PUSH1 0xA0 SHL SUB SWAP4 DUP5 AND SWAP4 PUSH2 0x100 SWAP1 SWAP4 DIV SWAP1 SWAP3 AND SWAP2 PUSH32 0x9B488C9D2F317852722D0866BC6ACDA97E4E9DE6B986918E8A7143CD697437E1 SWAP2 DUP2 SWAP1 SUB PUSH1 0x80 ADD SWAP1 LOG3 POP POP POP POP POP JUMP JUMPDEST PUSH1 0x0 SLOAD PUSH1 0x1 PUSH1 0xA0 SHL SWAP1 DIV PUSH1 0xFF AND ISZERO PUSH2 0x905 JUMPI PUSH1 0x40 MLOAD PUSH3 0x461BCD PUSH1 0xE5 SHL DUP2 MSTORE PUSH1 0x20 PUSH1 0x4 DUP3 ADD MSTORE PUSH1 0x10 PUSH1 0x24 DUP3 ADD MSTORE PUSH16 0x14185D5CD8589B194E881C185D5CD959 PUSH1 0x82 SHL PUSH1 0x44 DUP3 ADD MSTORE PUSH1 0x64 ADD PUSH2 0x6E2 JUMP JUMPDEST PUSH1 0x0 PUSH2 0x10B0 DUP3 PUSH1 0x64 PUSH2 0x2207 JUMP JUMPDEST PUSH1 0xFF AND PUSH2 0x10BE DUP5 PUSH1 0x64 PUSH2 0x222A JUMP JUMPDEST PUSH2 0x77A SWAP2 SWAP1 PUSH2 0x2249 JUMP JUMPDEST PUSH2 0x10D0 PUSH2 0x1C95 JUMP JUMPDEST PUSH2 0x10D8 PUSH2 0x1056 JUMP JUMPDEST PUSH2 0x10E0 PUSH2 0x183A JUMP JUMPDEST PUSH1 0x1 PUSH1 0x1 PUSH1 0xA0 SHL SUB DUP5 DUP2 AND PUSH1 0x0 DUP2 DUP2 MSTORE PUSH1 0xE PUSH1 0x20 MSTORE PUSH1 0x40 SWAP1 DUP2 SWAP1 KECCAK256 PUSH1 0x9 SLOAD SWAP2 MLOAD PUSH4 0xCBE230C3 PUSH1 0xE0 SHL DUP2 MSTORE PUSH1 0x4 DUP2 ADD SWAP4 SWAP1 SWAP4 MSTORE SWAP3 AND SWAP1 PUSH4 0xCBE230C3 SWAP1 PUSH1 0x24 ADD PUSH1 0x20 PUSH1 0x40 MLOAD DUP1 DUP4 SUB DUP2 DUP7 GAS STATICCALL ISZERO DUP1 ISZERO PUSH2 0x113B JUMPI RETURNDATASIZE PUSH1 0x0 DUP1 RETURNDATACOPY RETURNDATASIZE PUSH1 0x0 REVERT JUMPDEST POP POP POP POP PUSH1 0x40 MLOAD RETURNDATASIZE PUSH1 0x1F NOT PUSH1 0x1F DUP3 ADD AND DUP3 ADD DUP1 PUSH1 0x40 MSTORE POP DUP2 ADD SWAP1 PUSH2 0x115F SWAP2 SWAP1 PUSH2 0x225D JUMP JUMPDEST ISZERO DUP1 PUSH2 0x116E JUMPI POP DUP1 SLOAD PUSH2 0xFFFF AND ISZERO JUMPDEST ISZERO PUSH2 0x118C JUMPI PUSH1 0x40 MLOAD PUSH4 0xC4559055 PUSH1 0xE0 SHL DUP2 MSTORE PUSH1 0x4 ADD PUSH1 0x40 MLOAD DUP1 SWAP2 SUB SWAP1 REVERT JUMPDEST PUSH1 0x9 SLOAD PUSH1 0x40 MLOAD PUSH4 0xF6B2A2F1 PUSH1 0xE0 SHL DUP2 MSTORE PUSH1 0x1 PUSH1 0x1 PUSH1 0xA0 SHL SUB DUP8 DUP2 AND PUSH1 0x4 DUP4 ADD DUP2 SWAP1 MSTORE CALLER SWAP4 SWAP1 ISZERO SWAP3 DUP9 SWAP3 PUSH1 0x0 SWAP3 AND SWAP1 PUSH4 0xF6B2A2F1 SWAP1 PUSH1 0x24 ADD PUSH1 0x20 PUSH1 0x40 MLOAD DUP1 DUP4 SUB DUP2 DUP7 GAS STATICCALL ISZERO DUP1 ISZERO PUSH2 0x11E0 JUMPI RETURNDATASIZE PUSH1 0x0 DUP1 RETURNDATACOPY RETURNDATASIZE PUSH1 0x0 REVERT JUMPDEST POP POP POP POP PUSH1 0x40 MLOAD RETURNDATASIZE PUSH1 0x1F NOT PUSH1 0x1F DUP3 ADD AND DUP3 ADD DUP1 PUSH1 0x40 MSTORE POP DUP2 ADD SWAP1 PUSH2 0x1204 SWAP2 SWAP1 PUSH2 0x20DE JUMP JUMPDEST SWAP1 POP DUP1 DUP3 LT ISZERO PUSH2 0x1229 JUMPI PUSH1 0x40 MLOAD PUSH3 0x89563D PUSH1 0xE2 SHL DUP2 MSTORE PUSH1 0x4 DUP2 ADD DUP3 SWAP1 MSTORE PUSH1 0x24 ADD PUSH2 0x6E2 JUMP JUMPDEST PUSH1 0x9 SLOAD PUSH1 0x40 MLOAD PUSH4 0x13C59CEF PUSH1 0xE1 SHL DUP2 MSTORE PUSH1 0x1 PUSH1 0x1 PUSH1 0xA0 SHL SUB DUP12 DUP2 AND PUSH1 0x4 DUP4 ADD MSTORE PUSH1 0x24 DUP3 ADD DUP11 SWAP1 MSTORE PUSH1 0x0 SWAP3 AND SWAP1 PUSH4 0x278B39DE SWAP1 PUSH1 0x44 ADD PUSH1 0x20 PUSH1 0x40 MLOAD DUP1 DUP4 SUB DUP2 DUP7 GAS STATICCALL ISZERO DUP1 ISZERO PUSH2 0x127B JUMPI RETURNDATASIZE PUSH1 0x0 DUP1 RETURNDATACOPY RETURNDATASIZE PUSH1 0x0 REVERT JUMPDEST POP POP POP POP PUSH1 0x40 MLOAD RETURNDATASIZE PUSH1 0x1F NOT PUSH1 0x1F DUP3 ADD AND DUP3 ADD DUP1 PUSH1 0x40 MSTORE POP DUP2 ADD SWAP1 PUSH2 0x129F SWAP2 SWAP1 PUSH2 0x20DE JUMP JUMPDEST SWAP1 POP DUP1 DUP4 GT ISZERO PUSH2 0x12F4 JUMPI DUP4 ISZERO PUSH2 0x12F0 JUMPI PUSH1 0x1 PUSH1 0x1 PUSH1 0xA0 SHL SUB DUP6 AND PUSH2 0x8FC PUSH2 0x12C6 DUP4 DUP7 PUSH2 0x21F0 JUMP JUMPDEST PUSH1 0x40 MLOAD DUP2 ISZERO SWAP1 SWAP3 MUL SWAP2 PUSH1 0x0 DUP2 DUP2 DUP2 DUP6 DUP9 DUP9 CALL SWAP4 POP POP POP POP ISZERO DUP1 ISZERO PUSH2 0x12EE JUMPI RETURNDATASIZE PUSH1 0x0 DUP1 RETURNDATACOPY RETURNDATASIZE PUSH1 0x0 REVERT JUMPDEST POP JUMPDEST DUP1 SWAP3 POP JUMPDEST POP POP PUSH1 0x2 SLOAD PUSH1 0x4 DUP1 SLOAD PUSH1 0x5 SLOAD PUSH1 0x40 MLOAD PUSH4 0x5D3B1D3 PUSH1 0xE4 SHL DUP2 MSTORE SWAP3 DUP4 ADD SWAP2 SWAP1 SWAP2 MSTORE PUSH1 0x1 PUSH1 0x1 PUSH1 0x40 SHL SUB DUP4 AND PUSH1 0x24 DUP4 ADD MSTORE PUSH5 0x100000000 DUP2 DIV PUSH2 0xFFFF AND PUSH1 0x44 DUP4 ADD MSTORE PUSH4 0xFFFFFFFF DUP1 DUP3 AND PUSH1 0x64 DUP5 ADD MSTORE PUSH7 0x1000000000000 SWAP1 SWAP2 DIV AND PUSH1 0x84 DUP3 ADD MSTORE PUSH9 0x10000000000000000 SWAP1 SWAP2 DIV PUSH1 0x1 PUSH1 0x1 PUSH1 0xA0 SHL SUB AND SWAP1 PUSH4 0x5D3B1D30 SWAP1 PUSH1 0xA4 ADD PUSH1 0x20 PUSH1 0x40 MLOAD DUP1 DUP4 SUB DUP2 PUSH1 0x0 DUP8 GAS CALL ISZERO DUP1 ISZERO PUSH2 0x1391 JUMPI RETURNDATASIZE PUSH1 0x0 DUP1 RETURNDATACOPY RETURNDATASIZE PUSH1 0x0 REVERT JUMPDEST POP POP POP POP PUSH1 0x40 MLOAD RETURNDATASIZE PUSH1 0x1F NOT PUSH1 0x1F DUP3 ADD AND DUP3 ADD DUP1 PUSH1 0x40 MSTORE POP DUP2 ADD SWAP1 PUSH2 0x13B5 SWAP2 SWAP1 PUSH2 0x20DE JUMP JUMPDEST PUSH1 0x7 DUP2 SWAP1 SSTORE POP PUSH1 0x0 PUSH1 0x40 MLOAD DUP1 PUSH1 0xE0 ADD PUSH1 0x40 MSTORE DUP1 PUSH1 0x0 ISZERO ISZERO DUP2 MSTORE PUSH1 0x20 ADD DUP6 PUSH1 0x1 PUSH1 0x1 PUSH1 0xA0 SHL SUB AND DUP2 MSTORE PUSH1 0x20 ADD DUP11 PUSH1 0x1 PUSH1 0x1 PUSH1 0xA0 SHL SUB AND DUP2 MSTORE PUSH1 0x20 ADD PUSH1 0x7 SLOAD DUP2 MSTORE PUSH1 0x20 ADD DUP4 DUP2 MSTORE PUSH1 0x20 ADD NUMBER DUP2 MSTORE PUSH1 0x20 ADD PUSH1 0x0 ISZERO ISZERO DUP2 MSTORE POP SWAP1 POP PUSH1 0xB PUSH1 0x0 DUP6 PUSH1 0x1 PUSH1 0x1 PUSH1 0xA0 SHL SUB AND PUSH1 0x1 PUSH1 0x1 PUSH1 0xA0 SHL SUB AND DUP2 MSTORE PUSH1 0x20 ADD SWAP1 DUP2 MSTORE PUSH1 0x20 ADD PUSH1 0x0 KECCAK256 PUSH1 0x7 SLOAD SWAP1 DUP1 PUSH1 0x1 DUP2 SLOAD ADD DUP1 DUP3 SSTORE DUP1 SWAP2 POP POP PUSH1 0x1 SWAP1 SUB SWAP1 PUSH1 0x0 MSTORE PUSH1 0x20 PUSH1 0x0 KECCAK256 ADD PUSH1 0x0 SWAP1 SWAP2 SWAP1 SWAP2 SWAP1 SWAP2 POP SSTORE DUP1 PUSH1 0xA PUSH1 0x0 PUSH1 0x7 SLOAD DUP2 MSTORE PUSH1 0x20 ADD SWAP1 DUP2 MSTORE PUSH1 0x20 ADD PUSH1 0x0 KECCAK256 PUSH1 0x0 DUP3 ADD MLOAD DUP2 PUSH1 0x0 ADD PUSH1 0x0 PUSH2 0x100 EXP DUP2 SLOAD DUP2 PUSH1 0xFF MUL NOT AND SWAP1 DUP4 ISZERO ISZERO MUL OR SWAP1 SSTORE POP PUSH1 0x20 DUP3 ADD MLOAD DUP2 PUSH1 0x0 ADD PUSH1 0x1 PUSH2 0x100 EXP DUP2 SLOAD DUP2 PUSH1 0x1 PUSH1 0x1 PUSH1 0xA0 SHL SUB MUL NOT AND SWAP1 DUP4 PUSH1 0x1 PUSH1 0x1 PUSH1 0xA0 SHL SUB AND MUL OR SWAP1 SSTORE POP PUSH1 0x40 DUP3 ADD MLOAD DUP2 PUSH1 0x1 ADD PUSH1 0x0 PUSH2 0x100 EXP DUP2 SLOAD DUP2 PUSH1 0x1 PUSH1 0x1 PUSH1 0xA0 SHL SUB MUL NOT AND SWAP1 DUP4 PUSH1 0x1 PUSH1 0x1 PUSH1 0xA0 SHL SUB AND MUL OR SWAP1 SSTORE POP PUSH1 0x60 DUP3 ADD MLOAD DUP2 PUSH1 0x2 ADD SSTORE PUSH1 0x80 DUP3 ADD MLOAD DUP2 PUSH1 0x3 ADD SSTORE PUSH1 0xA0 DUP3 ADD MLOAD DUP2 PUSH1 0x4 ADD SSTORE PUSH1 0xC0 DUP3 ADD MLOAD DUP2 PUSH1 0x5 ADD PUSH1 0x0 PUSH2 0x100 EXP DUP2 SLOAD DUP2 PUSH1 0xFF MUL NOT AND SWAP1 DUP4 ISZERO ISZERO MUL OR SWAP1 SSTORE POP SWAP1 POP POP DUP3 PUSH2 0x154C JUMPI PUSH1 0x9 SLOAD PUSH2 0x154C SWAP1 PUSH1 0x1 PUSH1 0x1 PUSH1 0xA0 SHL SUB DUP12 DUP2 AND SWAP2 DUP8 SWAP2 AND DUP6 PUSH2 0x1928 JUMP JUMPDEST SWAP5 POP POP POP POP POP PUSH2 0x77A PUSH1 0x1 DUP1 SSTORE JUMP JUMPDEST PUSH1 0x0 DUP1 SLOAD PUSH1 0x1 PUSH1 0x1 PUSH1 0xA0 SHL SUB DUP4 DUP2 AND PUSH1 0x1 PUSH1 0x1 PUSH1 0xA0 SHL SUB NOT DUP4 AND DUP2 OR DUP5 SSTORE PUSH1 0x40 MLOAD SWAP2 SWAP1 SWAP3 AND SWAP3 DUP4 SWAP2 PUSH32 0x8BE0079C531659141344CD1FD0A4F28419497F9722A3DAAFE3B4186F6B6457E0 SWAP2 SWAP1 LOG3 POP POP JUMP JUMPDEST PUSH2 0x15B3 PUSH2 0x1966 JUMP JUMPDEST PUSH1 0x0 DUP1 SLOAD PUSH1 0xFF PUSH1 0xA0 SHL NOT AND SWAP1 SSTORE PUSH32 0x5DB9EE0A495BF2E6FF9C91A7834C1BA4FDD244A5E8AA4E537BD38AEAE4B073AA CALLER JUMPDEST PUSH1 0x40 MLOAD PUSH1 0x1 PUSH1 0x1 PUSH1 0xA0 SHL SUB SWAP1 SWAP2 AND DUP2 MSTORE PUSH1 0x20 ADD PUSH1 0x40 MLOAD DUP1 SWAP2 SUB SWAP1 LOG1 JUMP JUMPDEST PUSH2 0x1608 PUSH2 0x1056 JUMP JUMPDEST PUSH1 0x0 DUP1 SLOAD PUSH1 0xFF PUSH1 0xA0 SHL NOT AND PUSH1 0x1 PUSH1 0xA0 SHL OR SWAP1 SSTORE PUSH32 0x62E78CEA01BEE320CD4E420270B5EA74000D11B0C9F74754EBDBFC544B05A258 PUSH2 0x15E3 CALLER SWAP1 JUMP JUMPDEST PUSH1 0x60 PUSH2 0x77A DUP4 DUP4 PUSH1 0x40 MLOAD DUP1 PUSH1 0x60 ADD PUSH1 0x40 MSTORE DUP1 PUSH1 0x27 DUP2 MSTORE PUSH1 0x20 ADD PUSH2 0x22C6 PUSH1 0x27 SWAP2 CODECOPY PUSH2 0x19B6 JUMP JUMPDEST PUSH1 0x1 PUSH1 0x1 PUSH1 0xA0 SHL SUB DUP3 AND PUSH1 0x0 SWAP1 DUP2 MSTORE PUSH1 0xB PUSH1 0x20 SWAP1 DUP2 MSTORE PUSH1 0x40 DUP1 DUP4 KECCAK256 DUP1 SLOAD DUP3 MLOAD DUP2 DUP6 MUL DUP2 ADD DUP6 ADD SWAP1 SWAP4 MSTORE DUP1 DUP4 MSTORE PUSH1 0x60 SWAP5 SWAP4 DUP4 ADD DUP3 DUP3 DUP1 ISZERO PUSH2 0x16C7 JUMPI PUSH1 0x20 MUL DUP3 ADD SWAP2 SWAP1 PUSH1 0x0 MSTORE PUSH1 0x20 PUSH1 0x0 KECCAK256 SWAP1 JUMPDEST DUP2 SLOAD DUP2 MSTORE PUSH1 0x20 ADD SWAP1 PUSH1 0x1 ADD SWAP1 DUP1 DUP4 GT PUSH2 0x16B3 JUMPI JUMPDEST POP POP DUP4 MLOAD SWAP4 SWAP5 POP POP POP POP DUP4 DUP2 LT ISZERO PUSH2 0x16DD JUMPI DUP1 SWAP4 POP JUMPDEST PUSH1 0x0 DUP5 PUSH1 0x1 PUSH1 0x1 PUSH1 0x40 SHL SUB DUP2 GT ISZERO PUSH2 0x16F7 JUMPI PUSH2 0x16F7 PUSH2 0x1D43 JUMP JUMPDEST PUSH1 0x40 MLOAD SWAP1 DUP1 DUP3 MSTORE DUP1 PUSH1 0x20 MUL PUSH1 0x20 ADD DUP3 ADD PUSH1 0x40 MSTORE DUP1 ISZERO PUSH2 0x1730 JUMPI DUP2 PUSH1 0x20 ADD JUMPDEST PUSH2 0x171D PUSH2 0x1C95 JUMP JUMPDEST DUP2 MSTORE PUSH1 0x20 ADD SWAP1 PUSH1 0x1 SWAP1 SUB SWAP1 DUP2 PUSH2 0x1715 JUMPI SWAP1 POP JUMPDEST POP SWAP1 POP DUP5 ISZERO PUSH2 0x1831 JUMPI PUSH1 0x0 DUP3 JUMPDEST PUSH2 0x1747 DUP8 DUP6 PUSH2 0x21F0 JUMP JUMPDEST DUP2 GT ISZERO PUSH2 0x182E JUMPI PUSH1 0xA PUSH1 0x0 DUP7 PUSH2 0x175E PUSH1 0x1 DUP6 PUSH2 0x21F0 JUMP JUMPDEST DUP2 MLOAD DUP2 LT PUSH2 0x176E JUMPI PUSH2 0x176E PUSH2 0x20F7 JUMP JUMPDEST PUSH1 0x20 SWAP1 DUP2 MUL SWAP2 SWAP1 SWAP2 ADD DUP2 ADD MLOAD DUP3 MSTORE DUP2 DUP2 ADD SWAP3 SWAP1 SWAP3 MSTORE PUSH1 0x40 SWAP1 DUP2 ADD PUSH1 0x0 KECCAK256 DUP2 MLOAD PUSH1 0xE0 DUP2 ADD DUP4 MSTORE DUP2 SLOAD PUSH1 0xFF DUP1 DUP3 AND ISZERO ISZERO DUP4 MSTORE PUSH1 0x1 PUSH1 0x1 PUSH1 0xA0 SHL SUB PUSH2 0x100 SWAP1 SWAP3 DIV DUP3 AND SWAP6 DUP4 ADD SWAP6 SWAP1 SWAP6 MSTORE PUSH1 0x1 DUP4 ADD SLOAD AND SWAP3 DUP2 ADD SWAP3 SWAP1 SWAP3 MSTORE PUSH1 0x2 DUP2 ADD SLOAD PUSH1 0x60 DUP4 ADD MSTORE PUSH1 0x3 DUP2 ADD SLOAD PUSH1 0x80 DUP4 ADD MSTORE PUSH1 0x4 DUP2 ADD SLOAD PUSH1 0xA0 DUP4 ADD MSTORE PUSH1 0x5 ADD SLOAD SWAP1 SWAP2 AND ISZERO ISZERO PUSH1 0xC0 DUP3 ADD MSTORE DUP4 MLOAD DUP5 SWAP1 DUP5 SWAP1 DUP2 LT PUSH2 0x1802 JUMPI PUSH2 0x1802 PUSH2 0x20F7 JUMP JUMPDEST PUSH1 0x20 MUL PUSH1 0x20 ADD ADD DUP2 SWAP1 MSTORE POP DUP2 DUP1 PUSH2 0x1818 SWAP1 PUSH2 0x2170 JUMP JUMPDEST SWAP3 POP POP DUP1 DUP1 PUSH2 0x1826 SWAP1 PUSH2 0x227F JUMP JUMPDEST SWAP2 POP POP PUSH2 0x173D JUMP JUMPDEST POP POP JUMPDEST SWAP6 SWAP5 POP POP POP POP POP JUMP JUMPDEST PUSH1 0x2 PUSH1 0x1 SLOAD EQ ISZERO PUSH2 0x188D JUMPI PUSH1 0x40 MLOAD PUSH3 0x461BCD PUSH1 0xE5 SHL DUP2 MSTORE PUSH1 0x20 PUSH1 0x4 DUP3 ADD MSTORE PUSH1 0x1F PUSH1 0x24 DUP3 ADD MSTORE PUSH32 0x5265656E7472616E637947756172643A207265656E7472616E742063616C6C00 PUSH1 0x44 DUP3 ADD MSTORE PUSH1 0x64 ADD PUSH2 0x6E2 JUMP JUMPDEST PUSH1 0x2 PUSH1 0x1 SSTORE JUMP JUMPDEST PUSH1 0x40 MLOAD PUSH1 0x1 PUSH1 0x1 PUSH1 0xA0 SHL SUB DUP4 AND PUSH1 0x24 DUP3 ADD MSTORE PUSH1 0x44 DUP2 ADD DUP3 SWAP1 MSTORE PUSH2 0x18F7 SWAP1 DUP5 SWAP1 PUSH4 0xA9059CBB PUSH1 0xE0 SHL SWAP1 PUSH1 0x64 ADD JUMPDEST PUSH1 0x40 DUP1 MLOAD PUSH1 0x1F NOT DUP2 DUP5 SUB ADD DUP2 MSTORE SWAP2 SWAP1 MSTORE PUSH1 0x20 DUP2 ADD DUP1 MLOAD PUSH1 0x1 PUSH1 0x1 PUSH1 0xE0 SHL SUB AND PUSH1 0x1 PUSH1 0x1 PUSH1 0xE0 SHL SUB NOT SWAP1 SWAP4 AND SWAP3 SWAP1 SWAP3 OR SWAP1 SWAP2 MSTORE PUSH2 0x1A2E JUMP JUMPDEST POP POP POP JUMP JUMPDEST PUSH1 0x1 PUSH1 0x1 PUSH1 0xA0 SHL SUB DUP3 AND PUSH1 0x0 SWAP1 DUP2 MSTORE PUSH1 0xE PUSH1 0x20 MSTORE PUSH1 0x40 DUP2 KECCAK256 SLOAD PUSH2 0x2710 SWAP1 PUSH2 0x10BE SWAP1 DUP5 SWAP1 PUSH2 0xFFFF AND PUSH2 0x222A JUMP JUMPDEST PUSH1 0x40 MLOAD PUSH1 0x1 PUSH1 0x1 PUSH1 0xA0 SHL SUB DUP1 DUP6 AND PUSH1 0x24 DUP4 ADD MSTORE DUP4 AND PUSH1 0x44 DUP3 ADD MSTORE PUSH1 0x64 DUP2 ADD DUP3 SWAP1 MSTORE PUSH2 0x1960 SWAP1 DUP6 SWAP1 PUSH4 0x23B872DD PUSH1 0xE0 SHL SWAP1 PUSH1 0x84 ADD PUSH2 0x18C0 JUMP JUMPDEST POP POP POP POP JUMP JUMPDEST PUSH1 0x0 SLOAD PUSH1 0x1 PUSH1 0xA0 SHL SWAP1 DIV PUSH1 0xFF AND PUSH2 0x905 JUMPI PUSH1 0x40 MLOAD PUSH3 0x461BCD PUSH1 0xE5 SHL DUP2 MSTORE PUSH1 0x20 PUSH1 0x4 DUP3 ADD MSTORE PUSH1 0x14 PUSH1 0x24 DUP3 ADD MSTORE PUSH20 0x14185D5CD8589B194E881B9BDD081C185D5CD959 PUSH1 0x62 SHL PUSH1 0x44 DUP3 ADD MSTORE PUSH1 0x64 ADD PUSH2 0x6E2 JUMP JUMPDEST PUSH1 0x60 PUSH1 0x0 DUP1 DUP6 PUSH1 0x1 PUSH1 0x1 PUSH1 0xA0 SHL SUB AND DUP6 PUSH1 0x40 MLOAD PUSH2 0x19D3 SWAP2 SWAP1 PUSH2 0x2296 JUMP JUMPDEST PUSH1 0x0 PUSH1 0x40 MLOAD DUP1 DUP4 SUB DUP2 DUP6 GAS DELEGATECALL SWAP2 POP POP RETURNDATASIZE DUP1 PUSH1 0x0 DUP2 EQ PUSH2 0x1A0E JUMPI PUSH1 0x40 MLOAD SWAP2 POP PUSH1 0x1F NOT PUSH1 0x3F RETURNDATASIZE ADD AND DUP3 ADD PUSH1 0x40 MSTORE RETURNDATASIZE DUP3 MSTORE RETURNDATASIZE PUSH1 0x0 PUSH1 0x20 DUP5 ADD RETURNDATACOPY PUSH2 0x1A13 JUMP JUMPDEST PUSH1 0x60 SWAP2 POP JUMPDEST POP SWAP2 POP SWAP2 POP PUSH2 0x1A24 DUP7 DUP4 DUP4 DUP8 PUSH2 0x1B03 JUMP JUMPDEST SWAP7 SWAP6 POP POP POP POP POP POP JUMP JUMPDEST PUSH1 0x0 PUSH2 0x1A83 DUP3 PUSH1 0x40 MLOAD DUP1 PUSH1 0x40 ADD PUSH1 0x40 MSTORE DUP1 PUSH1 0x20 DUP2 MSTORE PUSH1 0x20 ADD PUSH32 0x5361666545524332303A206C6F772D6C6576656C2063616C6C206661696C6564 DUP2 MSTORE POP DUP6 PUSH1 0x1 PUSH1 0x1 PUSH1 0xA0 SHL SUB AND PUSH2 0x1B81 SWAP1 SWAP3 SWAP2 SWAP1 PUSH4 0xFFFFFFFF AND JUMP JUMPDEST SWAP1 POP DUP1 MLOAD PUSH1 0x0 EQ DUP1 PUSH2 0x1AA4 JUMPI POP DUP1 DUP1 PUSH1 0x20 ADD SWAP1 MLOAD DUP2 ADD SWAP1 PUSH2 0x1AA4 SWAP2 SWAP1 PUSH2 0x225D JUMP JUMPDEST PUSH2 0x18F7 JUMPI PUSH1 0x40 MLOAD PUSH3 0x461BCD PUSH1 0xE5 SHL DUP2 MSTORE PUSH1 0x20 PUSH1 0x4 DUP3 ADD MSTORE PUSH1 0x2A PUSH1 0x24 DUP3 ADD MSTORE PUSH32 0x5361666545524332303A204552433230206F7065726174696F6E20646964206E PUSH1 0x44 DUP3 ADD MSTORE PUSH10 0x1BDD081CDD58D8D95959 PUSH1 0xB2 SHL PUSH1 0x64 DUP3 ADD MSTORE PUSH1 0x84 ADD PUSH2 0x6E2 JUMP JUMPDEST PUSH1 0x60 DUP4 ISZERO PUSH2 0x1B6F JUMPI DUP3 MLOAD PUSH2 0x1B68 JUMPI PUSH1 0x1 PUSH1 0x1 PUSH1 0xA0 SHL SUB DUP6 AND EXTCODESIZE PUSH2 0x1B68 JUMPI PUSH1 0x40 MLOAD PUSH3 0x461BCD PUSH1 0xE5 SHL DUP2 MSTORE PUSH1 0x20 PUSH1 0x4 DUP3 ADD MSTORE PUSH1 0x1D PUSH1 0x24 DUP3 ADD MSTORE PUSH32 0x416464726573733A2063616C6C20746F206E6F6E2D636F6E7472616374000000 PUSH1 0x44 DUP3 ADD MSTORE PUSH1 0x64 ADD PUSH2 0x6E2 JUMP JUMPDEST POP DUP2 PUSH2 0x1B79 JUMP JUMPDEST PUSH2 0x1B79 DUP4 DUP4 PUSH2 0x1B90 JUMP JUMPDEST SWAP5 SWAP4 POP POP POP POP JUMP JUMPDEST PUSH1 0x60 PUSH2 0x1B79 DUP5 DUP5 PUSH1 0x0 DUP6 PUSH2 0x1BBA JUMP JUMPDEST DUP2 MLOAD ISZERO PUSH2 0x1BA0 JUMPI DUP2 MLOAD DUP1 DUP4 PUSH1 0x20 ADD REVERT JUMPDEST DUP1 PUSH1 0x40 MLOAD PUSH3 0x461BCD PUSH1 0xE5 SHL DUP2 MSTORE PUSH1 0x4 ADD PUSH2 0x6E2 SWAP2 SWAP1 PUSH2 0x22B2 JUMP JUMPDEST PUSH1 0x60 DUP3 SELFBALANCE LT ISZERO PUSH2 0x1C1B JUMPI PUSH1 0x40 MLOAD PUSH3 0x461BCD PUSH1 0xE5 SHL DUP2 MSTORE PUSH1 0x20 PUSH1 0x4 DUP3 ADD MSTORE PUSH1 0x26 PUSH1 0x24 DUP3 ADD MSTORE PUSH32 0x416464726573733A20696E73756666696369656E742062616C616E636520666F PUSH1 0x44 DUP3 ADD MSTORE PUSH6 0x1C8818D85B1B PUSH1 0xD2 SHL PUSH1 0x64 DUP3 ADD MSTORE PUSH1 0x84 ADD PUSH2 0x6E2 JUMP JUMPDEST PUSH1 0x0 DUP1 DUP7 PUSH1 0x1 PUSH1 0x1 PUSH1 0xA0 SHL SUB AND DUP6 DUP8 PUSH1 0x40 MLOAD PUSH2 0x1C37 SWAP2 SWAP1 PUSH2 0x2296 JUMP JUMPDEST PUSH1 0x0 PUSH1 0x40 MLOAD DUP1 DUP4 SUB DUP2 DUP6 DUP8 GAS CALL SWAP3 POP POP POP RETURNDATASIZE DUP1 PUSH1 0x0 DUP2 EQ PUSH2 0x1C74 JUMPI PUSH1 0x40 MLOAD SWAP2 POP PUSH1 0x1F NOT PUSH1 0x3F RETURNDATASIZE ADD AND DUP3 ADD PUSH1 0x40 MSTORE RETURNDATASIZE DUP3 MSTORE RETURNDATASIZE PUSH1 0x0 PUSH1 0x20 DUP5 ADD RETURNDATACOPY PUSH2 0x1C79 JUMP JUMPDEST PUSH1 0x60 SWAP2 POP JUMPDEST POP SWAP2 POP SWAP2 POP PUSH2 0x1C8A DUP8 DUP4 DUP4 DUP8 PUSH2 0x1B03 JUMP JUMPDEST SWAP8 SWAP7 POP POP POP POP POP POP POP JUMP JUMPDEST PUSH1 0x40 DUP1 MLOAD PUSH1 0xE0 DUP2 ADD DUP3 MSTORE PUSH1 0x0 DUP1 DUP3 MSTORE PUSH1 0x20 DUP3 ADD DUP2 SWAP1 MSTORE SWAP2 DUP2 ADD DUP3 SWAP1 MSTORE PUSH1 0x60 DUP2 ADD DUP3 SWAP1 MSTORE PUSH1 0x80 DUP2 ADD DUP3 SWAP1 MSTORE PUSH1 0xA0 DUP2 ADD DUP3 SWAP1 MSTORE PUSH1 0xC0 DUP2 ADD SWAP2 SWAP1 SWAP2 MSTORE SWAP1 JUMP JUMPDEST PUSH1 0x40 MLOAD DUP1 PUSH1 0x40 ADD PUSH1 0x40 MSTORE DUP1 PUSH2 0x1CE4 PUSH2 0x1C95 JUMP JUMPDEST DUP2 MSTORE PUSH1 0x20 ADD PUSH2 0x1D0C PUSH1 0x40 MLOAD DUP1 PUSH1 0x40 ADD PUSH1 0x40 MSTORE DUP1 PUSH1 0x0 PUSH1 0xFF AND DUP2 MSTORE PUSH1 0x20 ADD PUSH1 0x0 PUSH1 0xFF AND DUP2 MSTORE POP SWAP1 JUMP JUMPDEST SWAP1 MSTORE SWAP1 JUMP JUMPDEST PUSH1 0x1 PUSH1 0x1 PUSH1 0xA0 SHL SUB DUP2 AND DUP2 EQ PUSH2 0xD90 JUMPI PUSH1 0x0 DUP1 REVERT JUMPDEST PUSH1 0x0 PUSH1 0x20 DUP3 DUP5 SUB SLT ISZERO PUSH2 0x1D38 JUMPI PUSH1 0x0 DUP1 REVERT JUMPDEST DUP2 CALLDATALOAD PUSH2 0x77A DUP2 PUSH2 0x1D11 JUMP JUMPDEST PUSH4 0x4E487B71 PUSH1 0xE0 SHL PUSH1 0x0 MSTORE PUSH1 0x41 PUSH1 0x4 MSTORE PUSH1 0x24 PUSH1 0x0 REVERT JUMPDEST PUSH1 0x0 DUP1 PUSH1 0x40 DUP4 DUP6 SUB SLT ISZERO PUSH2 0x1D6C JUMPI PUSH1 0x0 DUP1 REVERT JUMPDEST DUP3 CALLDATALOAD SWAP2 POP PUSH1 0x20 DUP1 DUP5 ADD CALLDATALOAD PUSH1 0x1 PUSH1 0x1 PUSH1 0x40 SHL SUB DUP1 DUP3 GT ISZERO PUSH2 0x1D8B JUMPI PUSH1 0x0 DUP1 REVERT JUMPDEST DUP2 DUP7 ADD SWAP2 POP DUP7 PUSH1 0x1F DUP4 ADD SLT PUSH2 0x1D9F JUMPI PUSH1 0x0 DUP1 REVERT JUMPDEST DUP2 CALLDATALOAD DUP2 DUP2 GT ISZERO PUSH2 0x1DB1 JUMPI PUSH2 0x1DB1 PUSH2 0x1D43 JUMP JUMPDEST DUP1 PUSH1 0x5 SHL PUSH1 0x40 MLOAD PUSH1 0x1F NOT PUSH1 0x3F DUP4 ADD AND DUP2 ADD DUP2 DUP2 LT DUP6 DUP3 GT OR ISZERO PUSH2 0x1DD6 JUMPI PUSH2 0x1DD6 PUSH2 0x1D43 JUMP JUMPDEST PUSH1 0x40 MSTORE SWAP2 DUP3 MSTORE DUP5 DUP3 ADD SWAP3 POP DUP4 DUP2 ADD DUP6 ADD SWAP2 DUP10 DUP4 GT ISZERO PUSH2 0x1DF4 JUMPI PUSH1 0x0 DUP1 REVERT JUMPDEST SWAP4 DUP6 ADD SWAP4 JUMPDEST DUP3 DUP6 LT ISZERO PUSH2 0x1E12 JUMPI DUP5 CALLDATALOAD DUP5 MSTORE SWAP4 DUP6 ADD SWAP4 SWAP3 DUP6 ADD SWAP3 PUSH2 0x1DF9 JUMP JUMPDEST DUP1 SWAP7 POP POP POP POP POP POP POP SWAP3 POP SWAP3 SWAP1 POP JUMP JUMPDEST PUSH1 0x0 PUSH1 0x20 DUP3 DUP5 SUB SLT ISZERO PUSH2 0x1E34 JUMPI PUSH1 0x0 DUP1 REVERT JUMPDEST POP CALLDATALOAD SWAP2 SWAP1 POP JUMP JUMPDEST PUSH1 0x0 DUP1 PUSH1 0x0 PUSH1 0x60 DUP5 DUP7 SUB SLT ISZERO PUSH2 0x1E50 JUMPI PUSH1 0x0 DUP1 REVERT JUMPDEST DUP4 CALLDATALOAD PUSH1 0xFF DUP2 AND DUP2 EQ PUSH2 0x1E61 JUMPI PUSH1 0x0 DUP1 REVERT JUMPDEST SWAP3 POP PUSH1 0x20 DUP5 ADD CALLDATALOAD PUSH2 0x1E71 DUP2 PUSH2 0x1D11 JUMP JUMPDEST SWAP3 SWAP6 SWAP3 SWAP5 POP POP POP PUSH1 0x40 SWAP2 SWAP1 SWAP2 ADD CALLDATALOAD SWAP1 JUMP JUMPDEST DUP1 MLOAD ISZERO ISZERO DUP3 MSTORE PUSH1 0x20 DUP2 ADD MLOAD PUSH1 0x1 DUP1 PUSH1 0xA0 SHL SUB DUP1 DUP3 AND PUSH1 0x20 DUP6 ADD MSTORE DUP1 PUSH1 0x40 DUP5 ADD MLOAD AND PUSH1 0x40 DUP6 ADD MSTORE POP POP PUSH1 0x60 DUP2 ADD MLOAD PUSH1 0x60 DUP4 ADD MSTORE PUSH1 0x80 DUP2 ADD MLOAD PUSH1 0x80 DUP4 ADD MSTORE PUSH1 0xA0 DUP2 ADD MLOAD PUSH1 0xA0 DUP4 ADD MSTORE PUSH1 0xC0 DUP2 ADD MLOAD ISZERO ISZERO PUSH1 0xC0 DUP4 ADD MSTORE POP POP JUMP JUMPDEST PUSH1 0xE0 DUP2 ADD PUSH2 0xAF7 DUP3 DUP5 PUSH2 0x1E82 JUMP JUMPDEST PUSH1 0x0 DUP1 PUSH1 0x40 DUP4 DUP6 SUB SLT ISZERO PUSH2 0x1EF9 JUMPI PUSH1 0x0 DUP1 REVERT JUMPDEST DUP3 CALLDATALOAD PUSH2 0x1F04 DUP2 PUSH2 0x1D11 JUMP JUMPDEST SWAP2 POP PUSH1 0x20 DUP4 ADD CALLDATALOAD PUSH2 0xFFFF DUP2 AND DUP2 EQ PUSH2 0x1F1B JUMPI PUSH1 0x0 DUP1 REVERT JUMPDEST DUP1 SWAP2 POP POP SWAP3 POP SWAP3 SWAP1 POP JUMP JUMPDEST PUSH1 0x0 DUP1 PUSH1 0x20 DUP4 DUP6 SUB SLT ISZERO PUSH2 0x1F39 JUMPI PUSH1 0x0 DUP1 REVERT JUMPDEST DUP3 CALLDATALOAD PUSH1 0x1 PUSH1 0x1 PUSH1 0x40 SHL SUB DUP1 DUP3 GT ISZERO PUSH2 0x1F50 JUMPI PUSH1 0x0 DUP1 REVERT JUMPDEST DUP2 DUP6 ADD SWAP2 POP DUP6 PUSH1 0x1F DUP4 ADD SLT PUSH2 0x1F64 JUMPI PUSH1 0x0 DUP1 REVERT JUMPDEST DUP2 CALLDATALOAD DUP2 DUP2 GT ISZERO PUSH2 0x1F73 JUMPI PUSH1 0x0 DUP1 REVERT JUMPDEST DUP7 PUSH1 0x20 DUP3 PUSH1 0x5 SHL DUP6 ADD ADD GT ISZERO PUSH2 0x1F88 JUMPI PUSH1 0x0 DUP1 REVERT JUMPDEST PUSH1 0x20 SWAP3 SWAP1 SWAP3 ADD SWAP7 SWAP2 SWAP6 POP SWAP1 SWAP4 POP POP POP POP JUMP JUMPDEST PUSH1 0x0 JUMPDEST DUP4 DUP2 LT ISZERO PUSH2 0x1FB5 JUMPI DUP2 DUP2 ADD MLOAD DUP4 DUP3 ADD MSTORE PUSH1 0x20 ADD PUSH2 0x1F9D JUMP JUMPDEST DUP4 DUP2 GT ISZERO PUSH2 0x1960 JUMPI POP POP PUSH1 0x0 SWAP2 ADD MSTORE JUMP JUMPDEST PUSH1 0x0 DUP2 MLOAD DUP1 DUP5 MSTORE PUSH2 0x1FDE DUP2 PUSH1 0x20 DUP7 ADD PUSH1 0x20 DUP7 ADD PUSH2 0x1F9A JUMP JUMPDEST PUSH1 0x1F ADD PUSH1 0x1F NOT AND SWAP3 SWAP1 SWAP3 ADD PUSH1 0x20 ADD SWAP3 SWAP2 POP POP JUMP JUMPDEST PUSH1 0x0 PUSH1 0x20 DUP1 DUP4 ADD DUP2 DUP5 MSTORE DUP1 DUP6 MLOAD DUP1 DUP4 MSTORE PUSH1 0x40 DUP7 ADD SWAP2 POP PUSH1 0x40 DUP2 PUSH1 0x5 SHL DUP8 ADD ADD SWAP3 POP DUP4 DUP8 ADD PUSH1 0x0 JUMPDEST DUP3 DUP2 LT ISZERO PUSH2 0x2047 JUMPI PUSH1 0x3F NOT DUP9 DUP7 SUB ADD DUP5 MSTORE PUSH2 0x2035 DUP6 DUP4 MLOAD PUSH2 0x1FC6 JUMP JUMPDEST SWAP5 POP SWAP3 DUP6 ADD SWAP3 SWAP1 DUP6 ADD SWAP1 PUSH1 0x1 ADD PUSH2 0x2019 JUMP JUMPDEST POP SWAP3 SWAP8 SWAP7 POP POP POP POP POP POP POP JUMP JUMPDEST PUSH1 0x0 DUP1 PUSH1 0x40 DUP4 DUP6 SUB SLT ISZERO PUSH2 0x2067 JUMPI PUSH1 0x0 DUP1 REVERT JUMPDEST DUP3 CALLDATALOAD PUSH2 0x2072 DUP2 PUSH2 0x1D11 JUMP JUMPDEST SWAP5 PUSH1 0x20 SWAP4 SWAP1 SWAP4 ADD CALLDATALOAD SWAP4 POP POP POP JUMP JUMPDEST PUSH1 0x20 DUP1 DUP3 MSTORE DUP3 MLOAD DUP3 DUP3 ADD DUP2 SWAP1 MSTORE PUSH1 0x0 SWAP2 SWAP1 DUP5 DUP3 ADD SWAP1 PUSH1 0x40 DUP6 ADD SWAP1 DUP5 JUMPDEST DUP2 DUP2 LT ISZERO PUSH2 0x182E JUMPI DUP4 MLOAD PUSH2 0x20B1 DUP5 DUP3 MLOAD PUSH2 0x1E82 JUMP JUMPDEST DUP6 ADD MLOAD DUP1 MLOAD PUSH1 0xFF SWAP1 DUP2 AND PUSH1 0xE0 DUP7 ADD MSTORE SWAP1 DUP7 ADD MLOAD AND PUSH2 0x100 DUP5 ADD MSTORE SWAP3 DUP5 ADD SWAP3 PUSH2 0x120 SWAP1 SWAP3 ADD SWAP2 PUSH1 0x1 ADD PUSH2 0x209C JUMP JUMPDEST PUSH1 0x0 PUSH1 0x20 DUP3 DUP5 SUB SLT ISZERO PUSH2 0x20F0 JUMPI PUSH1 0x0 DUP1 REVERT JUMPDEST POP MLOAD SWAP2 SWAP1 POP JUMP JUMPDEST PUSH4 0x4E487B71 PUSH1 0xE0 SHL PUSH1 0x0 MSTORE PUSH1 0x32 PUSH1 0x4 MSTORE PUSH1 0x24 PUSH1 0x0 REVERT JUMPDEST PUSH1 0x0 DUP1 DUP4 CALLDATALOAD PUSH1 0x1E NOT DUP5 CALLDATASIZE SUB ADD DUP2 SLT PUSH2 0x2124 JUMPI PUSH1 0x0 DUP1 REVERT JUMPDEST DUP4 ADD DUP1 CALLDATALOAD SWAP2 POP PUSH1 0x1 PUSH1 0x1 PUSH1 0x40 SHL SUB DUP3 GT ISZERO PUSH2 0x213E JUMPI PUSH1 0x0 DUP1 REVERT JUMPDEST PUSH1 0x20 ADD SWAP2 POP CALLDATASIZE DUP2 SWAP1 SUB DUP3 SGT ISZERO PUSH2 0x2153 JUMPI PUSH1 0x0 DUP1 REVERT JUMPDEST SWAP3 POP SWAP3 SWAP1 POP JUMP JUMPDEST PUSH4 0x4E487B71 PUSH1 0xE0 SHL PUSH1 0x0 MSTORE PUSH1 0x11 PUSH1 0x4 MSTORE PUSH1 0x24 PUSH1 0x0 REVERT JUMPDEST PUSH1 0x0 PUSH1 0x0 NOT DUP3 EQ ISZERO PUSH2 0x2184 JUMPI PUSH2 0x2184 PUSH2 0x215A JUMP JUMPDEST POP PUSH1 0x1 ADD SWAP1 JUMP JUMPDEST PUSH1 0x0 DUP3 NOT DUP3 GT ISZERO PUSH2 0x219E JUMPI PUSH2 0x219E PUSH2 0x215A JUMP JUMPDEST POP ADD SWAP1 JUMP JUMPDEST PUSH1 0x0 PUSH1 0x1 PUSH1 0x1 PUSH1 0x40 SHL SUB DUP3 AND DUP1 PUSH2 0x21BC JUMPI PUSH2 0x21BC PUSH2 0x215A JUMP JUMPDEST PUSH1 0x0 NOT ADD SWAP3 SWAP2 POP POP JUMP JUMPDEST PUSH4 0x4E487B71 PUSH1 0xE0 SHL PUSH1 0x0 MSTORE PUSH1 0x12 PUSH1 0x4 MSTORE PUSH1 0x24 PUSH1 0x0 REVERT JUMPDEST PUSH1 0x0 DUP3 PUSH2 0x21EB JUMPI PUSH2 0x21EB PUSH2 0x21C6 JUMP JUMPDEST POP MOD SWAP1 JUMP JUMPDEST PUSH1 0x0 DUP3 DUP3 LT ISZERO PUSH2 0x2202 JUMPI PUSH2 0x2202 PUSH2 0x215A JUMP JUMPDEST POP SUB SWAP1 JUMP JUMPDEST PUSH1 0x0 PUSH1 0xFF DUP3 AND PUSH1 0xFF DUP5 AND DUP1 DUP3 LT ISZERO PUSH2 0x2221 JUMPI PUSH2 0x2221 PUSH2 0x215A JUMP JUMPDEST SWAP1 SUB SWAP4 SWAP3 POP POP POP JUMP JUMPDEST PUSH1 0x0 DUP2 PUSH1 0x0 NOT DIV DUP4 GT DUP3 ISZERO ISZERO AND ISZERO PUSH2 0x2244 JUMPI PUSH2 0x2244 PUSH2 0x215A JUMP JUMPDEST POP MUL SWAP1 JUMP JUMPDEST PUSH1 0x0 DUP3 PUSH2 0x2258 JUMPI PUSH2 0x2258 PUSH2 0x21C6 JUMP JUMPDEST POP DIV SWAP1 JUMP JUMPDEST PUSH1 0x0 PUSH1 0x20 DUP3 DUP5 SUB SLT ISZERO PUSH2 0x226F JUMPI PUSH1 0x0 DUP1 REVERT JUMPDEST DUP2 MLOAD DUP1 ISZERO ISZERO DUP2 EQ PUSH2 0x77A JUMPI PUSH1 0x0 DUP1 REVERT JUMPDEST PUSH1 0x0 DUP2 PUSH2 0x228E JUMPI PUSH2 0x228E PUSH2 0x215A JUMP JUMPDEST POP PUSH1 0x0 NOT ADD SWAP1 JUMP JUMPDEST PUSH1 0x0 DUP3 MLOAD PUSH2 0x22A8 DUP2 DUP5 PUSH1 0x20 DUP8 ADD PUSH2 0x1F9A JUMP JUMPDEST SWAP2 SWAP1 SWAP2 ADD SWAP3 SWAP2 POP POP JUMP JUMPDEST PUSH1 0x20 DUP2 MSTORE PUSH1 0x0 PUSH2 0x77A PUSH1 0x20 DUP4 ADD DUP5 PUSH2 0x1FC6 JUMP INVALID COINBASE PUSH5 0x6472657373 GASPRICE KECCAK256 PUSH13 0x6F772D6C6576656C2064656C65 PUSH8 0x6174652063616C6C KECCAK256 PUSH7 0x61696C6564A264 PUSH10 0x7066735822122074DB6C 0xB6 SIGNEXTEND 0xCF 0x2F STATICCALL PUSH25 0x80D27923AFFFA101041FBFBF71683315DABF25D47AB9596473 PUSH16 0x6C634300080C00330000000000000000 "},"gasEstimates":{"creation":{"codeDepositCost":"1798800","executionCost":"infinite","totalCost":"infinite"},"external":{"bank()":"2404","bets(uint256)":"13353","diceBets(uint256)":"2593","getBalance()":"218","getBetData(uint256)":"13751","getBetStatus(uint256)":"2479","getLastUserBets(address,uint256)":"infinite","getTokenBalance(address)":"infinite","hasPendingBets(address)":"2617","multicall(bytes[])":"infinite","multiplier()":"2352","owner()":"2464","pause()":"infinite","paused()":"2410","rawFulfillRandomWords(uint256,uint256[])":"infinite","refundBet(uint256)":"infinite","renounceOwnership()":"infinite","s_owner()":"2381","s_randomWords()":"2374","s_requestId()":"2372","setBank(address)":"27806","setHouseEdge(address,uint16)":"30648","tokens(address)":"2668","transferOwnership(address)":"infinite","updateMultiplier(uint256)":"24599","wager(uint8,address,uint256)":"infinite"},"internal":{"_getFees(address,uint256)":"2384","_getLastUserBets(address,uint256)":"infinite","_getPayout(uint256,uint8)":"288","_isGasToken(address)":"infinite","_newBet(address,uint256,uint256)":"infinite","fulfillRandomWords(uint256,uint256[] memory)":"infinite","getMultiplier()":"infinite"}},"methodIdentifiers":{"bank()":"76cdb03b","bets(uint256)":"22af00fa","diceBets(uint256)":"42258eca","getBalance()":"12065fe0","getBetData(uint256)":"5bfe1630","getBetStatus(uint256)":"61f14f11","getLastUserBets(address,uint256)":"c2fb579f","getTokenBalance(address)":"3aecd0e3","hasPendingBets(address)":"594043fd","multicall(bytes[])":"ac9650d8","multiplier()":"1b3ed722","owner()":"8da5cb5b","pause()":"8456cb59","paused()":"5c975abb","rawFulfillRandomWords(uint256,uint256[])":"1fe543e3","refundBet(uint256)":"e1fdb4b4","renounceOwnership()":"715018a6","s_owner()":"e3978240","s_randomWords()":"1d3c7b91","s_requestId()":"e89e106a","setBank(address)":"090d23b9","setHouseEdge(address,uint16)":"78bcde22","tokens(address)":"e4860339","transferOwnership(address)":"f2fde38b","updateMultiplier(uint256)":"5ffe6146","wager(uint8,address,uint256)":"4031e85b"}},"storageLayout":{"storage":[{"astId":766,"contract":"contracts/Dice.sol:DiceV4","label":"_owner","offset":0,"slot":"0","type":"t_address"},{"astId":889,"contract":"contracts/Dice.sol:DiceV4","label":"_paused","offset":20,"slot":"0","type":"t_bool"},{"astId":990,"contract":"contracts/Dice.sol:DiceV4","label":"_status","offset":0,"slot":"1","type":"t_uint256"},{"astId":6158,"contract":"contracts/Dice.sol:DiceV4","label":"s_subscriptionId","offset":0,"slot":"2","type":"t_uint64"},{"astId":6161,"contract":"contracts/Dice.sol:DiceV4","label":"COORDINATOR","offset":8,"slot":"2","type":"t_contract(VRFCoordinatorV2Interface)219"},{"astId":6164,"contract":"contracts/Dice.sol:DiceV4","label":"vrfCoordinator","offset":0,"slot":"3","type":"t_address"},{"astId":6167,"contract":"contracts/Dice.sol:DiceV4","label":"keyHash","offset":0,"slot":"4","type":"t_bytes32"},{"astId":6170,"contract":"contracts/Dice.sol:DiceV4","label":"callbackGasLimit","offset":0,"slot":"5","type":"t_uint32"},{"astId":6173,"contract":"contracts/Dice.sol:DiceV4","label":"requestConfirmations","offset":4,"slot":"5","type":"t_uint16"},{"astId":6176,"contract":"contracts/Dice.sol:DiceV4","label":"numWords","offset":6,"slot":"5","type":"t_uint32"},{"astId":6178,"contract":"contracts/Dice.sol:DiceV4","label":"s_randomWords","offset":0,"slot":"6","type":"t_uint256"},{"astId":6180,"contract":"contracts/Dice.sol:DiceV4","label":"s_requestId","offset":0,"slot":"7","type":"t_uint256"},{"astId":6182,"contract":"contracts/Dice.sol:DiceV4","label":"s_owner","offset":0,"slot":"8","type":"t_address"},{"astId":6185,"contract":"contracts/Dice.sol:DiceV4","label":"bank","offset":0,"slot":"9","type":"t_contract(IBankV2)7313"},{"astId":6230,"contract":"contracts/Dice.sol:DiceV4","label":"bets","offset":0,"slot":"10","type":"t_mapping(t_uint256,t_struct(Bet)6224_storage)"},{"astId":6236,"contract":"contracts/Dice.sol:DiceV4","label":"_userBets","offset":0,"slot":"11","type":"t_mapping(t_address,t_array(t_uint256)dyn_storage)"},{"astId":6276,"contract":"contracts/Dice.sol:DiceV4","label":"diceBets","offset":0,"slot":"12","type":"t_mapping(t_uint256,t_struct(DiceBet)6270_storage)"},{"astId":6286,"contract":"contracts/Dice.sol:DiceV4","label":"betAuditCheck","offset":0,"slot":"13","type":"t_mapping(t_uint256,t_struct(betAudit)6281_storage)"},{"astId":6332,"contract":"contracts/Dice.sol:DiceV4","label":"tokens","offset":0,"slot":"14","type":"t_mapping(t_address,t_struct(Token)6326_storage)"},{"astId":6654,"contract":"contracts/Dice.sol:DiceV4","label":"multiplier","offset":0,"slot":"15","type":"t_uint256"}],"types":{"t_address":{"encoding":"inplace","label":"address","numberOfBytes":"20"},"t_address_payable":{"encoding":"inplace","label":"address payable","numberOfBytes":"20"},"t_array(t_uint256)dyn_storage":{"base":"t_uint256","encoding":"dynamic_array","label":"uint256[]","numberOfBytes":"32"},"t_bool":{"encoding":"inplace","label":"bool","numberOfBytes":"1"},"t_bytes32":{"encoding":"inplace","label":"bytes32","numberOfBytes":"32"},"t_contract(IBankV2)7313":{"encoding":"inplace","label":"contract IBankV2","numberOfBytes":"20"},"t_contract(VRFCoordinatorV2Interface)219":{"encoding":"inplace","label":"contract VRFCoordinatorV2Interface","numberOfBytes":"20"},"t_mapping(t_address,t_array(t_uint256)dyn_storage)":{"encoding":"mapping","key":"t_address","label":"mapping(address => uint256[])","numberOfBytes":"32","value":"t_array(t_uint256)dyn_storage"},"t_mapping(t_address,t_struct(Token)6326_storage)":{"encoding":"mapping","key":"t_address","label":"mapping(address => struct DiceV4.Token)","numberOfBytes":"32","value":"t_struct(Token)6326_storage"},"t_mapping(t_uint256,t_struct(Bet)6224_storage)":{"encoding":"mapping","key":"t_uint256","label":"mapping(uint256 => struct DiceV4.Bet)","numberOfBytes":"32","value":"t_struct(Bet)6224_storage"},"t_mapping(t_uint256,t_struct(DiceBet)6270_storage)":{"encoding":"mapping","key":"t_uint256","label":"mapping(uint256 => struct DiceV4.DiceBet)","numberOfBytes":"32","value":"t_struct(DiceBet)6270_storage"},"t_mapping(t_uint256,t_struct(betAudit)6281_storage)":{"encoding":"mapping","key":"t_uint256","label":"mapping(uint256 => struct DiceV4.betAudit)","numberOfBytes":"32","value":"t_struct(betAudit)6281_storage"},"t_struct(Bet)6224_storage":{"encoding":"inplace","label":"struct DiceV4.Bet","members":[{"astId":6211,"contract":"contracts/Dice.sol:DiceV4","label":"resolved","offset":0,"slot":"0","type":"t_bool"},{"astId":6213,"contract":"contracts/Dice.sol:DiceV4","label":"user","offset":1,"slot":"0","type":"t_address_payable"},{"astId":6215,"contract":"contracts/Dice.sol:DiceV4","label":"token","offset":0,"slot":"1","type":"t_address"},{"astId":6217,"contract":"contracts/Dice.sol:DiceV4","label":"id","offset":0,"slot":"2","type":"t_uint256"},{"astId":6219,"contract":"contracts/Dice.sol:DiceV4","label":"amount","offset":0,"slot":"3","type":"t_uint256"},{"astId":6221,"contract":"contracts/Dice.sol:DiceV4","label":"blockTime","offset":0,"slot":"4","type":"t_uint256"},{"astId":6223,"contract":"contracts/Dice.sol:DiceV4","label":"betStatus","offset":0,"slot":"5","type":"t_bool"}],"numberOfBytes":"192"},"t_struct(DiceBet)6270_storage":{"encoding":"inplace","label":"struct DiceV4.DiceBet","members":[{"astId":6267,"contract":"contracts/Dice.sol:DiceV4","label":"cap","offset":0,"slot":"0","type":"t_uint8"},{"astId":6269,"contract":"contracts/Dice.sol:DiceV4","label":"rolled","offset":1,"slot":"0","type":"t_uint8"}],"numberOfBytes":"32"},"t_struct(Token)6326_storage":{"encoding":"inplace","label":"struct DiceV4.Token","members":[{"astId":6323,"contract":"contracts/Dice.sol:DiceV4","label":"houseEdge","offset":0,"slot":"0","type":"t_uint16"},{"astId":6325,"contract":"contracts/Dice.sol:DiceV4","label":"pendingCount","offset":2,"slot":"0","type":"t_uint64"}],"numberOfBytes":"32"},"t_struct(betAudit)6281_storage":{"encoding":"inplace","label":"struct DiceV4.betAudit","members":[{"astId":6278,"contract":"contracts/Dice.sol:DiceV4","label":"paid","offset":0,"slot":"0","type":"t_bool"},{"astId":6280,"contract":"contracts/Dice.sol:DiceV4","label":"betId","offset":0,"slot":"1","type":"t_uint256"}],"numberOfBytes":"64"},"t_uint16":{"encoding":"inplace","label":"uint16","numberOfBytes":"2"},"t_uint256":{"encoding":"inplace","label":"uint256","numberOfBytes":"32"},"t_uint32":{"encoding":"inplace","label":"uint32","numberOfBytes":"4"},"t_uint64":{"encoding":"inplace","label":"uint64","numberOfBytes":"8"},"t_uint8":{"encoding":"inplace","label":"uint8","numberOfBytes":"1"}}},"userdoc":{"errors":{"CapNotInRange(uint8,uint8)":[{"notice":"Provided cap is not within 1 and 99 included."}],"NotFulfilled()":[{"notice":"Bet isn't resolved yet."}],"NotPendingBet()":[{"notice":"Bet provided doesn't exist or was already resolved."}],"UnderMinBetAmount(uint256)":[{"notice":"Insufficient bet amount."}]},"events":{"BetRefunded(uint256,address,uint256,uint256)":{"notice":"Emitted after the bet amount is transfered to the user."},"PlaceBet(uint256,address,address,uint256,uint8)":{"notice":"Emitted after a bet is placed."},"Roll(uint256,address,address,uint256,uint8,uint8)":{"notice":"Emitted after a bet is rolled."},"SetBank(address)":{"notice":"Emitted after the bank is set."},"SetHouseEdge(address,uint16)":{"notice":"Emitted after the house edge is set for a token."}},"kind":"user","methods":{"bets(uint256)":{"notice":"Maps bets IDs to Bet information."},"diceBets(uint256)":{"notice":"Maps bets IDs to chosen and rolled dice numbers."},"getLastUserBets(address,uint256)":{"notice":"Gets the list of the last user bets."},"getTokenBalance(address)":{"notice":"Gets the token's balance. The token's house edge allocation amounts are subtracted from the balance."},"hasPendingBets(address)":{"notice":"Returns whether the token has pending bets."},"pause()":{"notice":"Pauses the contract to disable new bets."},"refundBet(uint256)":{"notice":"Refunds the bet to the user if the Chainlink VRF callback failed."},"setBank(address)":{"notice":"Sets the Bank contract."},"setHouseEdge(address,uint16)":{"notice":"Sets the game house edge rate for a specific token."},"tokens(address)":{"notice":"Maps tokens addresses to token configuration."},"wager(uint8,address,uint256)":{"notice":"Creates a new bet and stores the chosen coin face."}},"version":1}}}}