{"contracts/BankV2.sol":{"BankV2":{"abi":[{"inputs":[{"internalType":"address","name":"treasuryAddress","type":"address"},{"internalType":"address","name":"teamWalletAddress","type":"address"}],"stateMutability":"nonpayable","type":"constructor"},{"inputs":[],"name":"AccessDenied","type":"error"},{"inputs":[],"name":"TokenExists","type":"error"},{"inputs":[],"name":"TokenHasPendingBets","type":"error"},{"inputs":[],"name":"TokenNotPaused","type":"error"},{"inputs":[],"name":"WrongAddress","type":"error"},{"inputs":[{"internalType":"uint16","name":"splitSum","type":"uint16"}],"name":"WrongHouseEdgeSplit","type":"error"},{"anonymous":false,"inputs":[{"indexed":true,"internalType":"address","name":"token","type":"address"},{"indexed":false,"internalType":"uint256","name":"newBalance","type":"uint256"},{"indexed":false,"internalType":"uint256","name":"fees","type":"uint256"}],"name":"AccountFees","type":"event"},{"anonymous":false,"inputs":[{"indexed":false,"internalType":"address","name":"token","type":"address"}],"name":"AddToken","type":"event"},{"anonymous":false,"inputs":[{"indexed":true,"internalType":"address","name":"token","type":"address"},{"indexed":false,"internalType":"uint256","name":"bank","type":"uint256"},{"indexed":false,"internalType":"uint256","name":"dividend","type":"uint256"},{"indexed":false,"internalType":"uint256","name":"treasury","type":"uint256"},{"indexed":false,"internalType":"uint256","name":"team","type":"uint256"}],"name":"AllocateHouseEdgeAmount","type":"event"},{"anonymous":false,"inputs":[{"indexed":true,"internalType":"address","name":"token","type":"address"},{"indexed":false,"internalType":"uint256","name":"newBalance","type":"uint256"},{"indexed":false,"internalType":"uint256","name":"amount","type":"uint256"}],"name":"CashIn","type":"event"},{"anonymous":false,"inputs":[{"indexed":true,"internalType":"address","name":"token","type":"address"},{"indexed":false,"internalType":"uint256","name":"amount","type":"uint256"}],"name":"Deposit","type":"event"},{"anonymous":false,"inputs":[{"indexed":true,"internalType":"address","name":"token","type":"address"},{"indexed":false,"internalType":"uint256","name":"amount","type":"uint256"}],"name":"HarvestDividend","type":"event"},{"anonymous":false,"inputs":[{"indexed":true,"internalType":"address","name":"token","type":"address"},{"indexed":false,"internalType":"uint256","name":"treasuryAmount","type":"uint256"},{"indexed":false,"internalType":"uint256","name":"teamAmount","type":"uint256"}],"name":"HouseEdgeDistribution","type":"event"},{"anonymous":false,"inputs":[{"indexed":true,"internalType":"address","name":"token","type":"address"},{"indexed":false,"internalType":"uint256","name":"newBalance","type":"uint256"},{"indexed":false,"internalType":"uint256","name":"profit","type":"uint256"}],"name":"Payout","type":"event"},{"anonymous":false,"inputs":[{"indexed":true,"internalType":"address","name":"token","type":"address"},{"indexed":false,"internalType":"bool","name":"allowed","type":"bool"}],"name":"SetAllowedToken","type":"event"},{"anonymous":false,"inputs":[{"indexed":true,"internalType":"address","name":"token","type":"address"},{"indexed":false,"internalType":"uint16","name":"balanceRisk","type":"uint16"}],"name":"SetBalanceRisk","type":"event"},{"anonymous":false,"inputs":[{"indexed":false,"internalType":"address","name":"teamWallet","type":"address"}],"name":"SetTeamWallet","type":"event"},{"anonymous":false,"inputs":[{"indexed":true,"internalType":"address","name":"token","type":"address"},{"indexed":false,"internalType":"uint16","name":"bank","type":"uint16"},{"indexed":false,"internalType":"uint16","name":"dividend","type":"uint16"},{"indexed":false,"internalType":"uint16","name":"treasury","type":"uint16"},{"indexed":false,"internalType":"uint16","name":"team","type":"uint16"}],"name":"SetTokenHouseEdgeSplit","type":"event"},{"anonymous":false,"inputs":[{"indexed":true,"internalType":"address","name":"token","type":"address"},{"indexed":false,"internalType":"uint256","name":"minBetAmount","type":"uint256"}],"name":"SetTokenMinBetAmount","type":"event"},{"anonymous":false,"inputs":[{"indexed":true,"internalType":"address","name":"token","type":"address"},{"indexed":false,"internalType":"uint256","name":"amount","type":"uint256"}],"name":"Withdraw","type":"event"},{"inputs":[{"internalType":"address","name":"token","type":"address"},{"internalType":"uint256","name":"fees","type":"uint256"}],"name":"accountFees","outputs":[],"stateMutability":"payable","type":"function"},{"inputs":[{"internalType":"address","name":"token","type":"address"}],"name":"addToken","outputs":[],"stateMutability":"nonpayable","type":"function"},{"inputs":[{"internalType":"address","name":"tokenAddress","type":"address"},{"internalType":"uint256","name":"amount","type":"uint256"}],"name":"cashIn","outputs":[],"stateMutability":"payable","type":"function"},{"inputs":[{"internalType":"address","name":"token","type":"address"},{"internalType":"uint256","name":"amount","type":"uint256"}],"name":"deposit","outputs":[],"stateMutability":"payable","type":"function"},{"inputs":[{"internalType":"address","name":"token","type":"address"}],"name":"getBalance","outputs":[{"internalType":"uint256","name":"","type":"uint256"}],"stateMutability":"view","type":"function"},{"inputs":[],"name":"getDividends","outputs":[{"internalType":"address[]","name":"","type":"address[]"},{"internalType":"uint256[]","name":"","type":"uint256[]"}],"stateMutability":"view","type":"function"},{"inputs":[{"internalType":"address","name":"token","type":"address"},{"internalType":"uint256","name":"multiplier","type":"uint256"}],"name":"getMaxBetAmount","outputs":[{"internalType":"uint256","name":"","type":"uint256"}],"stateMutability":"view","type":"function"},{"inputs":[{"internalType":"address","name":"token","type":"address"}],"name":"getMinBetAmount","outputs":[{"internalType":"uint256","name":"minBetAmount","type":"uint256"}],"stateMutability":"view","type":"function"},{"inputs":[],"name":"getTokens","outputs":[{"components":[{"internalType":"uint8","name":"decimals","type":"uint8"},{"internalType":"address","name":"tokenAddress","type":"address"},{"internalType":"string","name":"name","type":"string"},{"internalType":"string","name":"symbol","type":"string"},{"components":[{"internalType":"bool","name":"allowed","type":"bool"},{"internalType":"bool","name":"paused","type":"bool"},{"internalType":"uint16","name":"balanceRisk","type":"uint16"},{"internalType":"uint256","name":"minBetAmount","type":"uint256"},{"components":[{"internalType":"uint16","name":"bank","type":"uint16"},{"internalType":"uint16","name":"dividend","type":"uint16"},{"internalType":"uint16","name":"treasury","type":"uint16"},{"internalType":"uint16","name":"team","type":"uint16"},{"internalType":"uint256","name":"dividendAmount","type":"uint256"},{"internalType":"uint256","name":"treasuryAmount","type":"uint256"},{"internalType":"uint256","name":"teamAmount","type":"uint256"}],"internalType":"struct BankV2.HouseEdgeSplit","name":"houseEdgeSplit","type":"tuple"}],"internalType":"struct BankV2.Token","name":"token","type":"tuple"}],"internalType":"struct BankV2.TokenMetadata[]","name":"","type":"tuple[]"}],"stateMutability":"view","type":"function"},{"inputs":[],"name":"harvestDividends","outputs":[{"internalType":"address[]","name":"","type":"address[]"},{"internalType":"uint256[]","name":"","type":"uint256[]"}],"stateMutability":"nonpayable","type":"function"},{"inputs":[{"internalType":"address","name":"tokenAddress","type":"address"}],"name":"isAllowedToken","outputs":[{"internalType":"bool","name":"","type":"bool"}],"stateMutability":"view","type":"function"},{"inputs":[{"internalType":"address payable","name":"user","type":"address"},{"internalType":"address","name":"token","type":"address"},{"internalType":"uint256","name":"profit","type":"uint256"},{"internalType":"uint256","name":"fees","type":"uint256"}],"name":"payout","outputs":[],"stateMutability":"payable","type":"function"},{"inputs":[{"internalType":"address","name":"token","type":"address"},{"internalType":"bool","name":"allowed","type":"bool"}],"name":"setAllowedToken","outputs":[],"stateMutability":"nonpayable","type":"function"},{"inputs":[{"internalType":"address","name":"token","type":"address"},{"internalType":"uint16","name":"balanceRisk","type":"uint16"}],"name":"setBalanceRisk","outputs":[],"stateMutability":"nonpayable","type":"function"},{"inputs":[{"internalType":"address","name":"token","type":"address"},{"internalType":"uint16","name":"bank","type":"uint16"},{"internalType":"uint16","name":"dividend","type":"uint16"},{"internalType":"uint16","name":"_treasury","type":"uint16"},{"internalType":"uint16","name":"team","type":"uint16"}],"name":"setHouseEdgeSplit","outputs":[],"stateMutability":"nonpayable","type":"function"},{"inputs":[{"internalType":"address","name":"_teamWallet","type":"address"}],"name":"setTeamWallet","outputs":[],"stateMutability":"nonpayable","type":"function"},{"inputs":[{"internalType":"address","name":"token","type":"address"},{"internalType":"uint256","name":"tokenMinBetAmount","type":"uint256"}],"name":"setTokenMinBetAmount","outputs":[],"stateMutability":"nonpayable","type":"function"},{"inputs":[],"name":"teamWallet","outputs":[{"internalType":"address","name":"","type":"address"}],"stateMutability":"view","type":"function"},{"inputs":[{"internalType":"address","name":"","type":"address"}],"name":"tokens","outputs":[{"internalType":"bool","name":"allowed","type":"bool"},{"internalType":"bool","name":"paused","type":"bool"},{"internalType":"uint16","name":"balanceRisk","type":"uint16"},{"internalType":"uint256","name":"minBetAmount","type":"uint256"},{"components":[{"internalType":"uint16","name":"bank","type":"uint16"},{"internalType":"uint16","name":"dividend","type":"uint16"},{"internalType":"uint16","name":"treasury","type":"uint16"},{"internalType":"uint16","name":"team","type":"uint16"},{"internalType":"uint256","name":"dividendAmount","type":"uint256"},{"internalType":"uint256","name":"treasuryAmount","type":"uint256"},{"internalType":"uint256","name":"teamAmount","type":"uint256"}],"internalType":"struct BankV2.HouseEdgeSplit","name":"houseEdgeSplit","type":"tuple"}],"stateMutability":"view","type":"function"},{"inputs":[],"name":"treasury","outputs":[{"internalType":"address","name":"","type":"address"}],"stateMutability":"view","type":"function"},{"inputs":[{"internalType":"address","name":"token","type":"address"},{"internalType":"uint256","name":"amount","type":"uint256"}],"name":"withdraw","outputs":[],"stateMutability":"nonpayable","type":"function"},{"inputs":[{"internalType":"address","name":"tokenAddress","type":"address"}],"name":"withdrawHouseEdgeAmount","outputs":[],"stateMutability":"nonpayable","type":"function"}],"devdoc":{"errors":{"WrongHouseEdgeSplit(uint16)":[{"params":{"splitSum":"Sum of the house edge allocations rates."}}]},"events":{"AccountFees(address,uint256,uint256)":{"params":{"fees":"Fees received from game.","newBalance":"New token balance.","token":"Address of the token."}},"AddToken(address)":{"params":{"token":"Address of the token."}},"AllocateHouseEdgeAmount(address,uint256,uint256,uint256,uint256)":{"params":{"bank":"The number of tokens allocated to bank.","dividend":"The number of tokens allocated as staking rewards.","team":"The number of tokens allocated to the team.","token":"Address of the token.","treasury":"The number of tokens allocated to the treasury."}},"CashIn(address,uint256,uint256)":{"params":{"amount":"Bet amount collected.","newBalance":"New token balance.","token":"Address of the token."}},"Deposit(address,uint256)":{"params":{"amount":"The number of token deposited.","token":"Address of the token."}},"HarvestDividend(address,uint256)":{"params":{"amount":"The number of tokens sent to the SwirlMaster.","token":"Address of the token."}},"HouseEdgeDistribution(address,uint256,uint256)":{"params":{"teamAmount":"The number of tokens sent to the team.","token":"Address of the token.","treasuryAmount":"The number of tokens sent to the treasury."}},"Payout(address,uint256,uint256)":{"params":{"newBalance":"New token balance.","profit":"Bet profit amount sent.","token":"Address of the token."}},"SetAllowedToken(address,bool)":{"params":{"allowed":"Whether the token is allowed for betting.","token":"Address of the token."}},"SetBalanceRisk(address,uint16)":{"params":{"balanceRisk":"Rate defining the balance risk."}},"SetTeamWallet(address)":{"params":{"teamWallet":"The team wallet address."}},"SetTokenMinBetAmount(address,uint256)":{"params":{"minBetAmount":"Minimum bet amount.","token":"Address of the token."}},"Withdraw(address,uint256)":{"params":{"amount":"The number of token withdrawn.","token":"Address of the token."}}},"kind":"dev","methods":{"accountFees(address,uint256)":{"params":{"fees":"Bet amount and bet profit fees amount.","token":"Address of the token."}},"addToken(address)":{"params":{"token":"Address of the token."}},"cashIn(address,uint256)":{"details":"In case of an ERC20, the bet amount should be transfered prior to this tx.In case of the gas token, the bet amount is sent along with this tx.","params":{"amount":"Loss bet amount.","tokenAddress":"Address of the token."}},"constructor":{"params":{"teamWalletAddress":"Team wallet.","treasuryAddress":"Treasury multi-sig wallet."}},"deposit(address,uint256)":{"params":{"amount":"Number of tokens.","token":"Address of the token."}},"getBalance(address)":{"params":{"token":"Address of the token."},"returns":{"_0":"The amount of token available for profits."}},"getDividends()":{"returns":{"_0":"The list of tokens addresses.","_1":"The list of tokens' amounts harvested."}},"getMaxBetAmount(address,uint256)":{"details":"The multiplier should be at least 10000.","params":{"multiplier":"The bet amount leverage determines the user's profit amount. 10000 = 100% = no profit.","token":"Address of the token."},"returns":{"_0":"Maximum bet amount for the token."}},"getMinBetAmount(address)":{"details":"The min bet amount should be at least 10000 cause of the `getMaxBetAmount` calculation.","params":{"token":"Address of the token."},"returns":{"minBetAmount":"Min bet amount."}},"getTokens()":{"details":"For the front-end"},"harvestDividends()":{"returns":{"_0":"The list of tokens addresses.","_1":"The list of tokens' amounts harvested."}},"isAllowedToken(address)":{"params":{"tokenAddress":"Address of the token."},"returns":{"_0":"Whether the token is enabled for bets."}},"payout(address,address,uint256,uint256)":{"params":{"fees":"Bet amount and bet profit fees amount.","profit":"Number of tokens to be sent to the gamer.","token":"Address of the token.","user":"Address of the gamer."}},"setAllowedToken(address,bool)":{"params":{"allowed":"Whether the token is enabled for bets.","token":"Address of the token."}},"setBalanceRisk(address,uint16)":{"params":{"balanceRisk":"Risk rate.","token":"Address of the token."}},"setHouseEdgeSplit(address,uint16,uint16,uint16,uint16)":{"details":"`bank`, `dividend`, `_treasury` and `team` rates sum must equals 10000.","params":{"_treasury":"Rate to be allocated to the treasury, on bet payout.","bank":"Rate to be allocated to the bank, on bet payout.","dividend":"Rate to be allocated as staking rewards, on bet payout.","team":"Rate to be allocated to the team, on bet payout.","token":"Address of the token."}},"setTeamWallet(address)":{"params":{"_teamWallet":"The team wallet address."}},"setTokenMinBetAmount(address,uint256)":{"params":{"token":"Address of the token.","tokenMinBetAmount":"Minimum bet amount."}},"withdraw(address,uint256)":{"params":{"amount":"Number of tokens.","token":"Address of the token."}},"withdrawHouseEdgeAmount(address)":{"params":{"tokenAddress":"Address of the token."}}},"version":1},"evm":{"bytecode":{"linkReferences":{},"object":"60a06040523480156200001157600080fd5b506040516200213338038062002133833981016040819052620000349162000120565b6001600160a01b0382166200005c57604051630d23cf4160e11b815260040160405180910390fd5b6001600160a01b03821660805262000074816200007c565b505062000158565b6001600160a01b038116620000a457604051630d23cf4160e11b815260040160405180910390fd5b60008054610100600160a81b0319166101006001600160a01b038481168202929092179283905560405192041681527fc6a5dd316fe9d0339f2769deab7e31f64c8f5b101ffd85dfc9a83dbeaf2e69da9060200160405180910390a150565b80516001600160a01b03811681146200011b57600080fd5b919050565b600080604083850312156200013457600080fd5b6200013f8362000103565b91506200014f6020840162000103565b90509250929050565b608051611fb86200017b6000396000818161027701526104f20152611fb86000f3fe6080604052600436106101355760003560e01c80638aaa2284116100ab578063d48bfca71161006f578063d48bfca714610361578063e486033914610381578063ed442e1414610443578063f3fef3a314610458578063f6b2a2f114610478578063f8b2cb4f1461049857600080fd5b80638aaa2284146102bc578063a7fd00f0146102dc578063aa6ca808146102fc578063ca7a87691461031e578063cbe230c31461033157600080fd5b80634297dcbe116100fd5780634297dcbe146101d557806347e7ef24146101f557806356f0406d14610208578063599270441461022857806361d027b314610265578063802ad8fb1461029957600080fd5b80630ae30cb01461013a5780631525ff7d1461015c5780631f6150231461017c578063278b39de1461018f5780633138809d146101c2575b600080fd5b34801561014657600080fd5b5061015a610155366004611964565b6104b8565b005b34801561016857600080fd5b5061015a610177366004611964565b61059f565b61015a61018a366004611981565b610626565b34801561019b57600080fd5b506101af6101aa3660046119c7565b610683565b6040519081526020015b60405180910390f35b61015a6101d03660046119c7565b6106cc565b3480156101e157600080fd5b5061015a6101f03660046119c7565b610734565b61015a6102033660046119c7565b610784565b34801561021457600080fd5b5061015a610223366004611a05565b6107e9565b34801561023457600080fd5b5060005461024d9061010090046001600160a01b031681565b6040516001600160a01b0390911681526020016101b9565b34801561027157600080fd5b5061024d7f000000000000000000000000000000000000000000000000000000000000000081565b3480156102a557600080fd5b506102ae61084e565b6040516101b9929190611a3a565b3480156102c857600080fd5b5061015a6102d7366004611acc565b610a02565b3480156102e857600080fd5b5061015a6102f7366004611b05565b610a5a565b34801561030857600080fd5b50610311610b75565b6040516101b99190611c14565b61015a61032c3660046119c7565b610ef0565b34801561033d57600080fd5b5061035161034c366004611964565b610f2e565b60405190151581526020016101b9565b34801561036d57600080fd5b5061015a61037c366004611964565b611002565b34801561038d57600080fd5b5061043261039c366004611964565b600160208181526000928352604092839020805492810154845160e081018652600283015461ffff8082168352620100008083048216968401969096526401000000008204811697830197909752600160301b90048616606082015260038301546080820152600483015460a082015260059092015460c083015260ff8085169561010086049091169493909304909216919085565b6040516101b9959493929190611d01565b34801561044f57600080fd5b506102ae61110b565b34801561046457600080fd5b5061015a6104733660046119c7565b611260565b34801561048457600080fd5b506101af610493366004611964565b611310565b3480156104a457600080fd5b506101af6104b3366004611964565b61133c565b6001600160a01b038116600090815260016020526040902060048101546005820154600290920191811561051857600060028401556105187f0000000000000000000000000000000000000000000000000000000000000000858461146d565b801561054157600060038401819055546105419061010090046001600160a01b0316858361146d565b8115158061054e57508015155b156105995760408051838152602081018390526001600160a01b038616917f0146f1701c23c89f761280798d36d6c4e3acb349438456f5da8f83a2f5dd8cdc91015b60405180910390a25b50505050565b6001600160a01b0381166105c657604051630d23cf4160e11b815260040160405180910390fd5b60008054610100600160a81b0319166101006001600160a01b038481168202929092179283905560405192041681527fc6a5dd316fe9d0339f2769deab7e31f64c8f5b101ffd85dfc9a83dbeaf2e69da906020015b60405180910390a150565b61063083826114ca565b61063b84848461146d565b826001600160a01b03167f634235fcf5af0adbca1a405ec65f6f6c08f55e1f379c2c45cd10f23cb29e0e3161066f8561133c565b604080519182526020820186905201610590565b6001600160a01b038216600090815260016020526040812054829062010000900461ffff166106b18561133c565b6106bb9190611d51565b6106c59190611d70565b9392505050565b816001600160a01b03167f812b76b477469edc716929cbf7ed54e3d9c1a68d8b9f8290dbabcda54d96fcbe6107008461133c565b6001600160a01b038516156107155783610717565b345b604080519283526020830191909152015b60405180910390a25050565b6001600160a01b03821660008181526001602081905260409182902001839055517f8b4a07860448b613116df3f175c837980eceaca7d1dc5143c46a20ab31ec00f9906107289084815260200190565b6001600160a01b0382166107995750346107ae565b6107ae6001600160a01b038316333084611622565b816001600160a01b03167fe1fffcc4923d04b559f4d29a8bfc6cda04eb5b0d3c460751c2402c5c5cc9109c8260405161072891815260200190565b6001600160a01b038216600081815260016020908152604091829020805463ffff000019166201000061ffff87169081029190911790915591519182527f68288b0936dd994d19323ee940b2703e7bf46fae2552319d60dc1239ba52ec689101610728565b60008054606091829160ff1667ffffffffffffffff81111561087257610872611d92565b60405190808252806020026020018201604052801561089b578160200160208202803683370190505b50600080549192509060ff1667ffffffffffffffff8111156108bf576108bf611d92565b6040519080825280602002602001820160405280156108e8578160200160208202803683370190505b50905060005b60005460ff90811690821610156109f85760ff81166000908152600260209081526040808320546001600160a01b03168084526001909252909120600381015480156109e2576000600383015561094633848361146d565b826001600160a01b03167fca64dbcaf91abfb066e7a5163f1d135f8f48f2cbdb0395e3b35cc278ebbd340b8260405161098191815260200190565b60405180910390a282868560ff168151811061099f5761099f611da8565b60200260200101906001600160a01b031690816001600160a01b03168152505080858560ff16815181106109d5576109d5611da8565b6020026020010181815250505b50505080806109f090611dbe565b9150506108ee565b5090939092509050565b6001600160a01b038216600081815260016020908152604091829020805460ff191685151590811790915591519182527fe589eb036e62c07e307aa4d441bd39c81e8bd86f349eaacb0caa06b1477f7f9a9101610728565b60008282610a688688611dde565b610a729190611dde565b610a7c9190611dde565b90508061ffff1661271014610aaf576040516318410e1160e21b815261ffff821660048201526024015b60405180910390fd5b6001600160a01b038616600081815260016020908152604091829020600201805461ffff8a811663ffffffff199092168217620100008b83169081029190911767ffffffff0000000019166401000000008b841690810267ffff000000000000191691909117600160301b938b169384021785558651938452948301529381019290925260608201929092529091907f01573e473e8842c25da06b37c286cdd7bf1c828e796ab47f7eec894ac9fbbee3906080015b60405180910390a250505050505050565b600080546060919060ff1667ffffffffffffffff811115610b9857610b98611d92565b604051908082528060200260200182016040528015610bd157816020015b610bbe6118b2565b815260200190600190039081610bb65790505b50905060005b60005460ff9081169082161015610eea5760ff8181166000908152600260208181526040808420546001600160a01b0316808552600180845294829020825160a080820185528254808a1615158352610100810490991615158287015261ffff62010000998a900481168387015297830154606080840191909152855160e08101875297840154808a168952998a048916968801969096526401000000008904881694870194909452600160301b90970490951692840192909252600384015460808085019190915260048501549184019190915260059093015460c0830152918301529081610d50576040518060a00160405280601260ff168152602001836001600160a01b031681526020016040518060400160405280600381526020016208aa8960eb1b81525081526020016040518060400160405280600381526020016208aa8960eb1b815250815260200182815250848460ff1681518110610d4057610d40611da8565b6020026020010181905250610ed5565b60008290506040518060a00160405280826001600160a01b031663313ce5676040518163ffffffff1660e01b8152600401602060405180830381865afa158015610d9e573d6000803e3d6000fd5b505050506040513d601f19601f82011682018060405250810190610dc29190611e04565b60ff168152602001846001600160a01b03168152602001826001600160a01b03166306fdde036040518163ffffffff1660e01b8152600401600060405180830381865afa158015610e17573d6000803e3d6000fd5b505050506040513d6000823e601f3d908101601f19168201604052610e3f9190810190611e27565b8152602001826001600160a01b03166395d89b416040518163ffffffff1660e01b8152600401600060405180830381865afa158015610e82573d6000803e3d6000fd5b505050506040513d6000823e601f3d908101601f19168201604052610eaa9190810190611e27565b815260200183815250858560ff1681518110610ec857610ec8611da8565b6020026020010181905250505b50508080610ee290611dbe565b915050610bd7565b50919050565b610efa82826114ca565b816001600160a01b03167f71928ab56dd9fb6df8072adf5fefb4d17ed280fa21652433fe96d7d6729bd3286107008461133c565b6001600160a01b0381166000908152600160208181526040808420815160a08082018452825460ff8082161515845261010082041615158387015261ffff620100009182900481168487015296840154606080850191909152855160e0810187526002860154808a1682529283048916978101979097526401000000008204881695870195909552600160301b90049095169284019290925260038101546080848101919091526004820154948401949094526005015460c083015291820152805180156106c55750602001511592915050565b60005460ff16156110745760005b60005460ff90811690821610156110725760ff81166000908152600260205260409020546001600160a01b038381169116141561106057604051632ae3f45d60e11b815260040160405180910390fd5b8061106a81611dbe565b915050611010565b505b6000805460ff908116825260026020526040822080546001600160a01b0319166001600160a01b03851617905581546001929182916110b591859116611ec9565b92506101000a81548160ff021916908360ff1602179055507fe473c74f34be27c1464d6624f14a0d7fd4e301cbfa29c3eba425d378c8a7ebe08160405161061b91906001600160a01b0391909116815260200190565b60008054606091829160ff1667ffffffffffffffff81111561112f5761112f611d92565b604051908082528060200260200182016040528015611158578160200160208202803683370190505b50600080549192509060ff1667ffffffffffffffff81111561117c5761117c611d92565b6040519080825280602002602001820160405280156111a5578160200160208202803683370190505b50905060005b60005460ff90811690821610156109f85760ff81166000908152600260209081526040808320546001600160a01b031680845260019092529091206003810154801561124a5782868560ff168151811061120757611207611da8565b60200260200101906001600160a01b031690816001600160a01b03168152505080858560ff168151811061123d5761123d611da8565b6020026020010181815250505b505050808061125890611dbe565b9150506111ab565b600061126b8361133c565b905080156112b1576001600160a01b038316600090815260016020526040902054610100900460ff166112b1576040516393b3a85d60e01b815260040160405180910390fd5b808211156112bd578091505b6112c833848461146d565b826001600160a01b03167f884edad9ce6fa2440d8a54cc123490eb96d2768479d49ff9c7366125a94243648360405161130391815260200190565b60405180910390a2505050565b6001600160a01b038116600090815260016020819052604090912001548061133757506127105b919050565b6000806001600160a01b0383166113545750476113bf565b6040516370a0823160e01b81523060048201526001600160a01b038416906370a0823190602401602060405180830381865afa158015611398573d6000803e3d6000fd5b505050506040513d601f19601f820116820180604052508101906113bc9190611eee565b90505b6001600160a01b038316600090815260016020908152604091829020825160e081018452600282015461ffff80821683526201000082048116948301949094526401000000008104841694820194909452600160301b9093049091166060830152600381015460808301819052600482015460a0840181905260059092015460c0840181905291906114519085611f07565b61145b9190611f07565b6114659190611f07565b949350505050565b6001600160a01b0382166114b1576040516001600160a01b0384169082156108fc029083906000818181858888f19350505050158015610599573d6000803e3d6000fd5b6114c56001600160a01b038316848361168d565b505050565b6001600160a01b03821660009081526001602052604081206002018054909190612710906115029062010000900461ffff1685611d51565b61150c9190611d70565b9050808260010160008282546115229190611f1e565b909155505081546000906127109061153e9061ffff1686611d51565b6115489190611d70565b83549091506000906127109061156a90640100000000900461ffff1687611d51565b6115749190611d70565b90508084600201600082825461158a9190611f1e565b90915550508354600090612710906115ad90600160301b900461ffff1688611d51565b6115b79190611d70565b9050808560030160008282546115cd9190611f1e565b90915550506040805184815260208101869052908101839052606081018290526001600160a01b038816907f0b5a4c9121a83120fc7b30f195ddd2c279ec4510cfc8f051380851e8f0686f4990608001610b64565b6040516001600160a01b03808516602483015283166044820152606481018290526105999085906323b872dd60e01b906084015b60408051601f198184030181529190526020810180516001600160e01b03166001600160e01b0319909316929092179091526116bd565b6040516001600160a01b0383166024820152604481018290526114c590849063a9059cbb60e01b90606401611656565b6000611712826040518060400160405280602081526020017f5361666545524332303a206c6f772d6c6576656c2063616c6c206661696c6564815250856001600160a01b03166117929092919063ffffffff16565b90508051600014806117335750808060200190518101906117339190611f36565b6114c55760405162461bcd60e51b815260206004820152602a60248201527f5361666545524332303a204552433230206f7065726174696f6e20646964206e6044820152691bdd081cdd58d8d9595960b21b6064820152608401610aa6565b6060611465848460008585600080866001600160a01b031685876040516117b99190611f53565b60006040518083038185875af1925050503d80600081146117f6576040519150601f19603f3d011682016040523d82523d6000602084013e6117fb565b606091505b509150915061180c87838387611817565b979650505050505050565b6060831561188357825161187c576001600160a01b0385163b61187c5760405162461bcd60e51b815260206004820152601d60248201527f416464726573733a2063616c6c20746f206e6f6e2d636f6e74726163740000006044820152606401610aa6565b5081611465565b61146583838151156118985781518083602001fd5b8060405162461bcd60e51b8152600401610aa69190611f6f565b6040518060a00160405280600060ff16815260200160006001600160a01b0316815260200160608152602001606081526020016119476040805160a08082018352600080835260208084018290528385018290526060808501839052855160e081018752838152918201839052948101829052938401819052608084810182905291840181905260c084015290919082015290565b905290565b6001600160a01b038116811461196157600080fd5b50565b60006020828403121561197657600080fd5b81356106c58161194c565b6000806000806080858703121561199757600080fd5b84356119a28161194c565b935060208501356119b28161194c565b93969395505050506040820135916060013590565b600080604083850312156119da57600080fd5b82356119e58161194c565b946020939093013593505050565b803561ffff8116811461133757600080fd5b60008060408385031215611a1857600080fd5b8235611a238161194c565b9150611a31602084016119f3565b90509250929050565b604080825283519082018190526000906020906060840190828701845b82811015611a7c5781516001600160a01b031684529284019290840190600101611a57565b5050508381038285015284518082528583019183019060005b81811015611ab157835183529284019291840191600101611a95565b5090979650505050505050565b801515811461196157600080fd5b60008060408385031215611adf57600080fd5b8235611aea8161194c565b91506020830135611afa81611abe565b809150509250929050565b600080600080600060a08688031215611b1d57600080fd5b8535611b288161194c565b9450611b36602087016119f3565b9350611b44604087016119f3565b9250611b52606087016119f3565b9150611b60608087016119f3565b90509295509295909350565b60005b83811015611b87578181015183820152602001611b6f565b838111156105995750506000910152565b60008151808452611bb0816020860160208601611b6c565b601f01601f19169290920160200192915050565b61ffff808251168352806020830151166020840152806040830151166040840152806060830151166060840152506080810151608083015260a081015160a083015260c081015160c08301525050565b60006020808301818452808551808352604092508286019150828160051b87010184880160005b83811015611cf357888303603f190185528151805160ff168452878101516001600160a01b031688850152868101516101e088860181905290611c8082870182611b98565b91505060608083015186830382880152611c9a8382611b98565b60809485015180511515898701528c810151151560a08a01528b81015161ffff1660c08a01529283015160e0890152919093015192509050611ce0610100860183611bc4565b9588019593505090860190600101611c3b565b509098975050505050505050565b8515158152841515602082015261ffff84166040820152606081018390526101608101611d316080830184611bc4565b9695505050505050565b634e487b7160e01b600052601160045260246000fd5b6000816000190483118215151615611d6b57611d6b611d3b565b500290565b600082611d8d57634e487b7160e01b600052601260045260246000fd5b500490565b634e487b7160e01b600052604160045260246000fd5b634e487b7160e01b600052603260045260246000fd5b600060ff821660ff811415611dd557611dd5611d3b565b60010192915050565b600061ffff808316818516808303821115611dfb57611dfb611d3b565b01949350505050565b600060208284031215611e1657600080fd5b815160ff811681146106c557600080fd5b600060208284031215611e3957600080fd5b815167ffffffffffffffff80821115611e5157600080fd5b818401915084601f830112611e6557600080fd5b815181811115611e7757611e77611d92565b604051601f8201601f19908116603f01168101908382118183101715611e9f57611e9f611d92565b81604052828152876020848701011115611eb857600080fd5b61180c836020830160208801611b6c565b600060ff821660ff84168060ff03821115611ee657611ee6611d3b565b019392505050565b600060208284031215611f0057600080fd5b5051919050565b600082821015611f1957611f19611d3b565b500390565b60008219821115611f3157611f31611d3b565b500190565b600060208284031215611f4857600080fd5b81516106c581611abe565b60008251611f65818460208701611b6c565b9190910192915050565b6020815260006106c56020830184611b9856fea2646970667358221220b7cc471adb090fd8025c528729e4e7d168f0962cbcc83bb66910dfd66ec8fca264736f6c634300080c0033","opcodes":"PUSH1 0xA0 PUSH1 0x40 MSTORE CALLVALUE DUP1 ISZERO PUSH3 0x11 JUMPI PUSH1 0x0 DUP1 REVERT JUMPDEST POP PUSH1 0x40 MLOAD PUSH3 0x2133 CODESIZE SUB DUP1 PUSH3 0x2133 DUP4 CODECOPY DUP2 ADD PUSH1 0x40 DUP2 SWAP1 MSTORE PUSH3 0x34 SWAP2 PUSH3 0x120 JUMP JUMPDEST PUSH1 0x1 PUSH1 0x1 PUSH1 0xA0 SHL SUB DUP3 AND PUSH3 0x5C JUMPI PUSH1 0x40 MLOAD PUSH4 0xD23CF41 PUSH1 0xE1 SHL DUP2 MSTORE PUSH1 0x4 ADD PUSH1 0x40 MLOAD DUP1 SWAP2 SUB SWAP1 REVERT JUMPDEST PUSH1 0x1 PUSH1 0x1 PUSH1 0xA0 SHL SUB DUP3 AND PUSH1 0x80 MSTORE PUSH3 0x74 DUP2 PUSH3 0x7C JUMP JUMPDEST POP POP PUSH3 0x158 JUMP JUMPDEST PUSH1 0x1 PUSH1 0x1 PUSH1 0xA0 SHL SUB DUP2 AND PUSH3 0xA4 JUMPI PUSH1 0x40 MLOAD PUSH4 0xD23CF41 PUSH1 0xE1 SHL DUP2 MSTORE PUSH1 0x4 ADD PUSH1 0x40 MLOAD DUP1 SWAP2 SUB SWAP1 REVERT JUMPDEST PUSH1 0x0 DUP1 SLOAD PUSH2 0x100 PUSH1 0x1 PUSH1 0xA8 SHL SUB NOT AND PUSH2 0x100 PUSH1 0x1 PUSH1 0x1 PUSH1 0xA0 SHL SUB DUP5 DUP2 AND DUP3 MUL SWAP3 SWAP1 SWAP3 OR SWAP3 DUP4 SWAP1 SSTORE PUSH1 0x40 MLOAD SWAP3 DIV AND DUP2 MSTORE PUSH32 0xC6A5DD316FE9D0339F2769DEAB7E31F64C8F5B101FFD85DFC9A83DBEAF2E69DA SWAP1 PUSH1 0x20 ADD PUSH1 0x40 MLOAD DUP1 SWAP2 SUB SWAP1 LOG1 POP JUMP JUMPDEST DUP1 MLOAD PUSH1 0x1 PUSH1 0x1 PUSH1 0xA0 SHL SUB DUP2 AND DUP2 EQ PUSH3 0x11B JUMPI PUSH1 0x0 DUP1 REVERT JUMPDEST SWAP2 SWAP1 POP JUMP JUMPDEST PUSH1 0x0 DUP1 PUSH1 0x40 DUP4 DUP6 SUB SLT ISZERO PUSH3 0x134 JUMPI PUSH1 0x0 DUP1 REVERT JUMPDEST PUSH3 0x13F DUP4 PUSH3 0x103 JUMP JUMPDEST SWAP2 POP PUSH3 0x14F PUSH1 0x20 DUP5 ADD PUSH3 0x103 JUMP JUMPDEST SWAP1 POP SWAP3 POP SWAP3 SWAP1 POP JUMP JUMPDEST PUSH1 0x80 MLOAD PUSH2 0x1FB8 PUSH3 0x17B PUSH1 0x0 CODECOPY PUSH1 0x0 DUP2 DUP2 PUSH2 0x277 ADD MSTORE PUSH2 0x4F2 ADD MSTORE PUSH2 0x1FB8 PUSH1 0x0 RETURN INVALID PUSH1 0x80 PUSH1 0x40 MSTORE PUSH1 0x4 CALLDATASIZE LT PUSH2 0x135 JUMPI PUSH1 0x0 CALLDATALOAD PUSH1 0xE0 SHR DUP1 PUSH4 0x8AAA2284 GT PUSH2 0xAB JUMPI DUP1 PUSH4 0xD48BFCA7 GT PUSH2 0x6F JUMPI DUP1 PUSH4 0xD48BFCA7 EQ PUSH2 0x361 JUMPI DUP1 PUSH4 0xE4860339 EQ PUSH2 0x381 JUMPI DUP1 PUSH4 0xED442E14 EQ PUSH2 0x443 JUMPI DUP1 PUSH4 0xF3FEF3A3 EQ PUSH2 0x458 JUMPI DUP1 PUSH4 0xF6B2A2F1 EQ PUSH2 0x478 JUMPI DUP1 PUSH4 0xF8B2CB4F EQ PUSH2 0x498 JUMPI PUSH1 0x0 DUP1 REVERT JUMPDEST DUP1 PUSH4 0x8AAA2284 EQ PUSH2 0x2BC JUMPI DUP1 PUSH4 0xA7FD00F0 EQ PUSH2 0x2DC JUMPI DUP1 PUSH4 0xAA6CA808 EQ PUSH2 0x2FC JUMPI DUP1 PUSH4 0xCA7A8769 EQ PUSH2 0x31E JUMPI DUP1 PUSH4 0xCBE230C3 EQ PUSH2 0x331 JUMPI PUSH1 0x0 DUP1 REVERT JUMPDEST DUP1 PUSH4 0x4297DCBE GT PUSH2 0xFD JUMPI DUP1 PUSH4 0x4297DCBE EQ PUSH2 0x1D5 JUMPI DUP1 PUSH4 0x47E7EF24 EQ PUSH2 0x1F5 JUMPI DUP1 PUSH4 0x56F0406D EQ PUSH2 0x208 JUMPI DUP1 PUSH4 0x59927044 EQ PUSH2 0x228 JUMPI DUP1 PUSH4 0x61D027B3 EQ PUSH2 0x265 JUMPI DUP1 PUSH4 0x802AD8FB EQ PUSH2 0x299 JUMPI PUSH1 0x0 DUP1 REVERT JUMPDEST DUP1 PUSH4 0xAE30CB0 EQ PUSH2 0x13A JUMPI DUP1 PUSH4 0x1525FF7D EQ PUSH2 0x15C JUMPI DUP1 PUSH4 0x1F615023 EQ PUSH2 0x17C JUMPI DUP1 PUSH4 0x278B39DE EQ PUSH2 0x18F JUMPI DUP1 PUSH4 0x3138809D EQ PUSH2 0x1C2 JUMPI JUMPDEST PUSH1 0x0 DUP1 REVERT JUMPDEST CALLVALUE DUP1 ISZERO PUSH2 0x146 JUMPI PUSH1 0x0 DUP1 REVERT JUMPDEST POP PUSH2 0x15A PUSH2 0x155 CALLDATASIZE PUSH1 0x4 PUSH2 0x1964 JUMP JUMPDEST PUSH2 0x4B8 JUMP JUMPDEST STOP JUMPDEST CALLVALUE DUP1 ISZERO PUSH2 0x168 JUMPI PUSH1 0x0 DUP1 REVERT JUMPDEST POP PUSH2 0x15A PUSH2 0x177 CALLDATASIZE PUSH1 0x4 PUSH2 0x1964 JUMP JUMPDEST PUSH2 0x59F JUMP JUMPDEST PUSH2 0x15A PUSH2 0x18A CALLDATASIZE PUSH1 0x4 PUSH2 0x1981 JUMP JUMPDEST PUSH2 0x626 JUMP JUMPDEST CALLVALUE DUP1 ISZERO PUSH2 0x19B JUMPI PUSH1 0x0 DUP1 REVERT JUMPDEST POP PUSH2 0x1AF PUSH2 0x1AA CALLDATASIZE PUSH1 0x4 PUSH2 0x19C7 JUMP JUMPDEST PUSH2 0x683 JUMP JUMPDEST PUSH1 0x40 MLOAD SWAP1 DUP2 MSTORE PUSH1 0x20 ADD JUMPDEST PUSH1 0x40 MLOAD DUP1 SWAP2 SUB SWAP1 RETURN JUMPDEST PUSH2 0x15A PUSH2 0x1D0 CALLDATASIZE PUSH1 0x4 PUSH2 0x19C7 JUMP JUMPDEST PUSH2 0x6CC JUMP JUMPDEST CALLVALUE DUP1 ISZERO PUSH2 0x1E1 JUMPI PUSH1 0x0 DUP1 REVERT JUMPDEST POP PUSH2 0x15A PUSH2 0x1F0 CALLDATASIZE PUSH1 0x4 PUSH2 0x19C7 JUMP JUMPDEST PUSH2 0x734 JUMP JUMPDEST PUSH2 0x15A PUSH2 0x203 CALLDATASIZE PUSH1 0x4 PUSH2 0x19C7 JUMP JUMPDEST PUSH2 0x784 JUMP JUMPDEST CALLVALUE DUP1 ISZERO PUSH2 0x214 JUMPI PUSH1 0x0 DUP1 REVERT JUMPDEST POP PUSH2 0x15A PUSH2 0x223 CALLDATASIZE PUSH1 0x4 PUSH2 0x1A05 JUMP JUMPDEST PUSH2 0x7E9 JUMP JUMPDEST CALLVALUE DUP1 ISZERO PUSH2 0x234 JUMPI PUSH1 0x0 DUP1 REVERT JUMPDEST POP PUSH1 0x0 SLOAD PUSH2 0x24D SWAP1 PUSH2 0x100 SWAP1 DIV PUSH1 0x1 PUSH1 0x1 PUSH1 0xA0 SHL SUB AND DUP2 JUMP JUMPDEST PUSH1 0x40 MLOAD PUSH1 0x1 PUSH1 0x1 PUSH1 0xA0 SHL SUB SWAP1 SWAP2 AND DUP2 MSTORE PUSH1 0x20 ADD PUSH2 0x1B9 JUMP JUMPDEST CALLVALUE DUP1 ISZERO PUSH2 0x271 JUMPI PUSH1 0x0 DUP1 REVERT JUMPDEST POP PUSH2 0x24D PUSH32 0x0 DUP2 JUMP JUMPDEST CALLVALUE DUP1 ISZERO PUSH2 0x2A5 JUMPI PUSH1 0x0 DUP1 REVERT JUMPDEST POP PUSH2 0x2AE PUSH2 0x84E JUMP JUMPDEST PUSH1 0x40 MLOAD PUSH2 0x1B9 SWAP3 SWAP2 SWAP1 PUSH2 0x1A3A JUMP JUMPDEST CALLVALUE DUP1 ISZERO PUSH2 0x2C8 JUMPI PUSH1 0x0 DUP1 REVERT JUMPDEST POP PUSH2 0x15A PUSH2 0x2D7 CALLDATASIZE PUSH1 0x4 PUSH2 0x1ACC JUMP JUMPDEST PUSH2 0xA02 JUMP JUMPDEST CALLVALUE DUP1 ISZERO PUSH2 0x2E8 JUMPI PUSH1 0x0 DUP1 REVERT JUMPDEST POP PUSH2 0x15A PUSH2 0x2F7 CALLDATASIZE PUSH1 0x4 PUSH2 0x1B05 JUMP JUMPDEST PUSH2 0xA5A JUMP JUMPDEST CALLVALUE DUP1 ISZERO PUSH2 0x308 JUMPI PUSH1 0x0 DUP1 REVERT JUMPDEST POP PUSH2 0x311 PUSH2 0xB75 JUMP JUMPDEST PUSH1 0x40 MLOAD PUSH2 0x1B9 SWAP2 SWAP1 PUSH2 0x1C14 JUMP JUMPDEST PUSH2 0x15A PUSH2 0x32C CALLDATASIZE PUSH1 0x4 PUSH2 0x19C7 JUMP JUMPDEST PUSH2 0xEF0 JUMP JUMPDEST CALLVALUE DUP1 ISZERO PUSH2 0x33D JUMPI PUSH1 0x0 DUP1 REVERT JUMPDEST POP PUSH2 0x351 PUSH2 0x34C CALLDATASIZE PUSH1 0x4 PUSH2 0x1964 JUMP JUMPDEST PUSH2 0xF2E JUMP JUMPDEST PUSH1 0x40 MLOAD SWAP1 ISZERO ISZERO DUP2 MSTORE PUSH1 0x20 ADD PUSH2 0x1B9 JUMP JUMPDEST CALLVALUE DUP1 ISZERO PUSH2 0x36D JUMPI PUSH1 0x0 DUP1 REVERT JUMPDEST POP PUSH2 0x15A PUSH2 0x37C CALLDATASIZE PUSH1 0x4 PUSH2 0x1964 JUMP JUMPDEST PUSH2 0x1002 JUMP JUMPDEST CALLVALUE DUP1 ISZERO PUSH2 0x38D JUMPI PUSH1 0x0 DUP1 REVERT JUMPDEST POP PUSH2 0x432 PUSH2 0x39C CALLDATASIZE PUSH1 0x4 PUSH2 0x1964 JUMP JUMPDEST PUSH1 0x1 PUSH1 0x20 DUP2 DUP2 MSTORE PUSH1 0x0 SWAP3 DUP4 MSTORE PUSH1 0x40 SWAP3 DUP4 SWAP1 KECCAK256 DUP1 SLOAD SWAP3 DUP2 ADD SLOAD DUP5 MLOAD PUSH1 0xE0 DUP2 ADD DUP7 MSTORE PUSH1 0x2 DUP4 ADD SLOAD PUSH2 0xFFFF DUP1 DUP3 AND DUP4 MSTORE PUSH3 0x10000 DUP1 DUP4 DIV DUP3 AND SWAP7 DUP5 ADD SWAP7 SWAP1 SWAP7 MSTORE PUSH5 0x100000000 DUP3 DIV DUP2 AND SWAP8 DUP4 ADD SWAP8 SWAP1 SWAP8 MSTORE PUSH1 0x1 PUSH1 0x30 SHL SWAP1 DIV DUP7 AND PUSH1 0x60 DUP3 ADD MSTORE PUSH1 0x3 DUP4 ADD SLOAD PUSH1 0x80 DUP3 ADD MSTORE PUSH1 0x4 DUP4 ADD SLOAD PUSH1 0xA0 DUP3 ADD MSTORE PUSH1 0x5 SWAP1 SWAP3 ADD SLOAD PUSH1 0xC0 DUP4 ADD MSTORE PUSH1 0xFF DUP1 DUP6 AND SWAP6 PUSH2 0x100 DUP7 DIV SWAP1 SWAP2 AND SWAP5 SWAP4 SWAP1 SWAP4 DIV SWAP1 SWAP3 AND SWAP2 SWAP1 DUP6 JUMP JUMPDEST PUSH1 0x40 MLOAD PUSH2 0x1B9 SWAP6 SWAP5 SWAP4 SWAP3 SWAP2 SWAP1 PUSH2 0x1D01 JUMP JUMPDEST CALLVALUE DUP1 ISZERO PUSH2 0x44F JUMPI PUSH1 0x0 DUP1 REVERT JUMPDEST POP PUSH2 0x2AE PUSH2 0x110B JUMP JUMPDEST CALLVALUE DUP1 ISZERO PUSH2 0x464 JUMPI PUSH1 0x0 DUP1 REVERT JUMPDEST POP PUSH2 0x15A PUSH2 0x473 CALLDATASIZE PUSH1 0x4 PUSH2 0x19C7 JUMP JUMPDEST PUSH2 0x1260 JUMP JUMPDEST CALLVALUE DUP1 ISZERO PUSH2 0x484 JUMPI PUSH1 0x0 DUP1 REVERT JUMPDEST POP PUSH2 0x1AF PUSH2 0x493 CALLDATASIZE PUSH1 0x4 PUSH2 0x1964 JUMP JUMPDEST PUSH2 0x1310 JUMP JUMPDEST CALLVALUE DUP1 ISZERO PUSH2 0x4A4 JUMPI PUSH1 0x0 DUP1 REVERT JUMPDEST POP PUSH2 0x1AF PUSH2 0x4B3 CALLDATASIZE PUSH1 0x4 PUSH2 0x1964 JUMP JUMPDEST PUSH2 0x133C JUMP JUMPDEST PUSH1 0x1 PUSH1 0x1 PUSH1 0xA0 SHL SUB DUP2 AND PUSH1 0x0 SWAP1 DUP2 MSTORE PUSH1 0x1 PUSH1 0x20 MSTORE PUSH1 0x40 SWAP1 KECCAK256 PUSH1 0x4 DUP2 ADD SLOAD PUSH1 0x5 DUP3 ADD SLOAD PUSH1 0x2 SWAP1 SWAP3 ADD SWAP2 DUP2 ISZERO PUSH2 0x518 JUMPI PUSH1 0x0 PUSH1 0x2 DUP5 ADD SSTORE PUSH2 0x518 PUSH32 0x0 DUP6 DUP5 PUSH2 0x146D JUMP JUMPDEST DUP1 ISZERO PUSH2 0x541 JUMPI PUSH1 0x0 PUSH1 0x3 DUP5 ADD DUP2 SWAP1 SSTORE SLOAD PUSH2 0x541 SWAP1 PUSH2 0x100 SWAP1 DIV PUSH1 0x1 PUSH1 0x1 PUSH1 0xA0 SHL SUB AND DUP6 DUP4 PUSH2 0x146D JUMP JUMPDEST DUP2 ISZERO ISZERO DUP1 PUSH2 0x54E JUMPI POP DUP1 ISZERO ISZERO JUMPDEST ISZERO PUSH2 0x599 JUMPI PUSH1 0x40 DUP1 MLOAD DUP4 DUP2 MSTORE PUSH1 0x20 DUP2 ADD DUP4 SWAP1 MSTORE PUSH1 0x1 PUSH1 0x1 PUSH1 0xA0 SHL SUB DUP7 AND SWAP2 PUSH32 0x146F1701C23C89F761280798D36D6C4E3ACB349438456F5DA8F83A2F5DD8CDC SWAP2 ADD JUMPDEST PUSH1 0x40 MLOAD DUP1 SWAP2 SUB SWAP1 LOG2 JUMPDEST POP POP POP POP JUMP JUMPDEST PUSH1 0x1 PUSH1 0x1 PUSH1 0xA0 SHL SUB DUP2 AND PUSH2 0x5C6 JUMPI PUSH1 0x40 MLOAD PUSH4 0xD23CF41 PUSH1 0xE1 SHL DUP2 MSTORE PUSH1 0x4 ADD PUSH1 0x40 MLOAD DUP1 SWAP2 SUB SWAP1 REVERT JUMPDEST PUSH1 0x0 DUP1 SLOAD PUSH2 0x100 PUSH1 0x1 PUSH1 0xA8 SHL SUB NOT AND PUSH2 0x100 PUSH1 0x1 PUSH1 0x1 PUSH1 0xA0 SHL SUB DUP5 DUP2 AND DUP3 MUL SWAP3 SWAP1 SWAP3 OR SWAP3 DUP4 SWAP1 SSTORE PUSH1 0x40 MLOAD SWAP3 DIV AND DUP2 MSTORE PUSH32 0xC6A5DD316FE9D0339F2769DEAB7E31F64C8F5B101FFD85DFC9A83DBEAF2E69DA SWAP1 PUSH1 0x20 ADD JUMPDEST PUSH1 0x40 MLOAD DUP1 SWAP2 SUB SWAP1 LOG1 POP JUMP JUMPDEST PUSH2 0x630 DUP4 DUP3 PUSH2 0x14CA JUMP JUMPDEST PUSH2 0x63B DUP5 DUP5 DUP5 PUSH2 0x146D JUMP JUMPDEST DUP3 PUSH1 0x1 PUSH1 0x1 PUSH1 0xA0 SHL SUB AND PUSH32 0x634235FCF5AF0ADBCA1A405EC65F6F6C08F55E1F379C2C45CD10F23CB29E0E31 PUSH2 0x66F DUP6 PUSH2 0x133C JUMP JUMPDEST PUSH1 0x40 DUP1 MLOAD SWAP2 DUP3 MSTORE PUSH1 0x20 DUP3 ADD DUP7 SWAP1 MSTORE ADD PUSH2 0x590 JUMP JUMPDEST PUSH1 0x1 PUSH1 0x1 PUSH1 0xA0 SHL SUB DUP3 AND PUSH1 0x0 SWAP1 DUP2 MSTORE PUSH1 0x1 PUSH1 0x20 MSTORE PUSH1 0x40 DUP2 KECCAK256 SLOAD DUP3 SWAP1 PUSH3 0x10000 SWAP1 DIV PUSH2 0xFFFF AND PUSH2 0x6B1 DUP6 PUSH2 0x133C JUMP JUMPDEST PUSH2 0x6BB SWAP2 SWAP1 PUSH2 0x1D51 JUMP JUMPDEST PUSH2 0x6C5 SWAP2 SWAP1 PUSH2 0x1D70 JUMP JUMPDEST SWAP4 SWAP3 POP POP POP JUMP JUMPDEST DUP2 PUSH1 0x1 PUSH1 0x1 PUSH1 0xA0 SHL SUB AND PUSH32 0x812B76B477469EDC716929CBF7ED54E3D9C1A68D8B9F8290DBABCDA54D96FCBE PUSH2 0x700 DUP5 PUSH2 0x133C JUMP JUMPDEST PUSH1 0x1 PUSH1 0x1 PUSH1 0xA0 SHL SUB DUP6 AND ISZERO PUSH2 0x715 JUMPI DUP4 PUSH2 0x717 JUMP JUMPDEST CALLVALUE JUMPDEST PUSH1 0x40 DUP1 MLOAD SWAP3 DUP4 MSTORE PUSH1 0x20 DUP4 ADD SWAP2 SWAP1 SWAP2 MSTORE ADD JUMPDEST PUSH1 0x40 MLOAD DUP1 SWAP2 SUB SWAP1 LOG2 POP POP JUMP JUMPDEST PUSH1 0x1 PUSH1 0x1 PUSH1 0xA0 SHL SUB DUP3 AND PUSH1 0x0 DUP2 DUP2 MSTORE PUSH1 0x1 PUSH1 0x20 DUP2 SWAP1 MSTORE PUSH1 0x40 SWAP2 DUP3 SWAP1 KECCAK256 ADD DUP4 SWAP1 SSTORE MLOAD PUSH32 0x8B4A07860448B613116DF3F175C837980ECEACA7D1DC5143C46A20AB31EC00F9 SWAP1 PUSH2 0x728 SWAP1 DUP5 DUP2 MSTORE PUSH1 0x20 ADD SWAP1 JUMP JUMPDEST PUSH1 0x1 PUSH1 0x1 PUSH1 0xA0 SHL SUB DUP3 AND PUSH2 0x799 JUMPI POP CALLVALUE PUSH2 0x7AE JUMP JUMPDEST PUSH2 0x7AE PUSH1 0x1 PUSH1 0x1 PUSH1 0xA0 SHL SUB DUP4 AND CALLER ADDRESS DUP5 PUSH2 0x1622 JUMP JUMPDEST DUP2 PUSH1 0x1 PUSH1 0x1 PUSH1 0xA0 SHL SUB AND PUSH32 0xE1FFFCC4923D04B559F4D29A8BFC6CDA04EB5B0D3C460751C2402C5C5CC9109C DUP3 PUSH1 0x40 MLOAD PUSH2 0x728 SWAP2 DUP2 MSTORE PUSH1 0x20 ADD SWAP1 JUMP JUMPDEST PUSH1 0x1 PUSH1 0x1 PUSH1 0xA0 SHL SUB DUP3 AND PUSH1 0x0 DUP2 DUP2 MSTORE PUSH1 0x1 PUSH1 0x20 SWAP1 DUP2 MSTORE PUSH1 0x40 SWAP2 DUP3 SWAP1 KECCAK256 DUP1 SLOAD PUSH4 0xFFFF0000 NOT AND PUSH3 0x10000 PUSH2 0xFFFF DUP8 AND SWAP1 DUP2 MUL SWAP2 SWAP1 SWAP2 OR SWAP1 SWAP2 SSTORE SWAP2 MLOAD SWAP2 DUP3 MSTORE PUSH32 0x68288B0936DD994D19323EE940B2703E7BF46FAE2552319D60DC1239BA52EC68 SWAP2 ADD PUSH2 0x728 JUMP JUMPDEST PUSH1 0x0 DUP1 SLOAD PUSH1 0x60 SWAP2 DUP3 SWAP2 PUSH1 0xFF AND PUSH8 0xFFFFFFFFFFFFFFFF DUP2 GT ISZERO PUSH2 0x872 JUMPI PUSH2 0x872 PUSH2 0x1D92 JUMP JUMPDEST PUSH1 0x40 MLOAD SWAP1 DUP1 DUP3 MSTORE DUP1 PUSH1 0x20 MUL PUSH1 0x20 ADD DUP3 ADD PUSH1 0x40 MSTORE DUP1 ISZERO PUSH2 0x89B JUMPI DUP2 PUSH1 0x20 ADD PUSH1 0x20 DUP3 MUL DUP1 CALLDATASIZE DUP4 CALLDATACOPY ADD SWAP1 POP JUMPDEST POP PUSH1 0x0 DUP1 SLOAD SWAP2 SWAP3 POP SWAP1 PUSH1 0xFF AND PUSH8 0xFFFFFFFFFFFFFFFF DUP2 GT ISZERO PUSH2 0x8BF JUMPI PUSH2 0x8BF PUSH2 0x1D92 JUMP JUMPDEST PUSH1 0x40 MLOAD SWAP1 DUP1 DUP3 MSTORE DUP1 PUSH1 0x20 MUL PUSH1 0x20 ADD DUP3 ADD PUSH1 0x40 MSTORE DUP1 ISZERO PUSH2 0x8E8 JUMPI DUP2 PUSH1 0x20 ADD PUSH1 0x20 DUP3 MUL DUP1 CALLDATASIZE DUP4 CALLDATACOPY ADD SWAP1 POP JUMPDEST POP SWAP1 POP PUSH1 0x0 JUMPDEST PUSH1 0x0 SLOAD PUSH1 0xFF SWAP1 DUP2 AND SWAP1 DUP3 AND LT ISZERO PUSH2 0x9F8 JUMPI PUSH1 0xFF DUP2 AND PUSH1 0x0 SWAP1 DUP2 MSTORE PUSH1 0x2 PUSH1 0x20 SWAP1 DUP2 MSTORE PUSH1 0x40 DUP1 DUP4 KECCAK256 SLOAD PUSH1 0x1 PUSH1 0x1 PUSH1 0xA0 SHL SUB AND DUP1 DUP5 MSTORE PUSH1 0x1 SWAP1 SWAP3 MSTORE SWAP1 SWAP2 KECCAK256 PUSH1 0x3 DUP2 ADD SLOAD DUP1 ISZERO PUSH2 0x9E2 JUMPI PUSH1 0x0 PUSH1 0x3 DUP4 ADD SSTORE PUSH2 0x946 CALLER DUP5 DUP4 PUSH2 0x146D JUMP JUMPDEST DUP3 PUSH1 0x1 PUSH1 0x1 PUSH1 0xA0 SHL SUB AND PUSH32 0xCA64DBCAF91ABFB066E7A5163F1D135F8F48F2CBDB0395E3B35CC278EBBD340B DUP3 PUSH1 0x40 MLOAD PUSH2 0x981 SWAP2 DUP2 MSTORE PUSH1 0x20 ADD SWAP1 JUMP JUMPDEST PUSH1 0x40 MLOAD DUP1 SWAP2 SUB SWAP1 LOG2 DUP3 DUP7 DUP6 PUSH1 0xFF AND DUP2 MLOAD DUP2 LT PUSH2 0x99F JUMPI PUSH2 0x99F PUSH2 0x1DA8 JUMP JUMPDEST PUSH1 0x20 MUL PUSH1 0x20 ADD ADD SWAP1 PUSH1 0x1 PUSH1 0x1 PUSH1 0xA0 SHL SUB AND SWAP1 DUP2 PUSH1 0x1 PUSH1 0x1 PUSH1 0xA0 SHL SUB AND DUP2 MSTORE POP POP DUP1 DUP6 DUP6 PUSH1 0xFF AND DUP2 MLOAD DUP2 LT PUSH2 0x9D5 JUMPI PUSH2 0x9D5 PUSH2 0x1DA8 JUMP JUMPDEST PUSH1 0x20 MUL PUSH1 0x20 ADD ADD DUP2 DUP2 MSTORE POP POP JUMPDEST POP POP POP DUP1 DUP1 PUSH2 0x9F0 SWAP1 PUSH2 0x1DBE JUMP JUMPDEST SWAP2 POP POP PUSH2 0x8EE JUMP JUMPDEST POP SWAP1 SWAP4 SWAP1 SWAP3 POP SWAP1 POP JUMP JUMPDEST PUSH1 0x1 PUSH1 0x1 PUSH1 0xA0 SHL SUB DUP3 AND PUSH1 0x0 DUP2 DUP2 MSTORE PUSH1 0x1 PUSH1 0x20 SWAP1 DUP2 MSTORE PUSH1 0x40 SWAP2 DUP3 SWAP1 KECCAK256 DUP1 SLOAD PUSH1 0xFF NOT AND DUP6 ISZERO ISZERO SWAP1 DUP2 OR SWAP1 SWAP2 SSTORE SWAP2 MLOAD SWAP2 DUP3 MSTORE PUSH32 0xE589EB036E62C07E307AA4D441BD39C81E8BD86F349EAACB0CAA06B1477F7F9A SWAP2 ADD PUSH2 0x728 JUMP JUMPDEST PUSH1 0x0 DUP3 DUP3 PUSH2 0xA68 DUP7 DUP9 PUSH2 0x1DDE JUMP JUMPDEST PUSH2 0xA72 SWAP2 SWAP1 PUSH2 0x1DDE JUMP JUMPDEST PUSH2 0xA7C SWAP2 SWAP1 PUSH2 0x1DDE JUMP JUMPDEST SWAP1 POP DUP1 PUSH2 0xFFFF AND PUSH2 0x2710 EQ PUSH2 0xAAF JUMPI PUSH1 0x40 MLOAD PUSH4 0x18410E11 PUSH1 0xE2 SHL DUP2 MSTORE PUSH2 0xFFFF DUP3 AND PUSH1 0x4 DUP3 ADD MSTORE PUSH1 0x24 ADD JUMPDEST PUSH1 0x40 MLOAD DUP1 SWAP2 SUB SWAP1 REVERT JUMPDEST PUSH1 0x1 PUSH1 0x1 PUSH1 0xA0 SHL SUB DUP7 AND PUSH1 0x0 DUP2 DUP2 MSTORE PUSH1 0x1 PUSH1 0x20 SWAP1 DUP2 MSTORE PUSH1 0x40 SWAP2 DUP3 SWAP1 KECCAK256 PUSH1 0x2 ADD DUP1 SLOAD PUSH2 0xFFFF DUP11 DUP2 AND PUSH4 0xFFFFFFFF NOT SWAP1 SWAP3 AND DUP3 OR PUSH3 0x10000 DUP12 DUP4 AND SWAP1 DUP2 MUL SWAP2 SWAP1 SWAP2 OR PUSH8 0xFFFFFFFF00000000 NOT AND PUSH5 0x100000000 DUP12 DUP5 AND SWAP1 DUP2 MUL PUSH8 0xFFFF000000000000 NOT AND SWAP2 SWAP1 SWAP2 OR PUSH1 0x1 PUSH1 0x30 SHL SWAP4 DUP12 AND SWAP4 DUP5 MUL OR DUP6 SSTORE DUP7 MLOAD SWAP4 DUP5 MSTORE SWAP5 DUP4 ADD MSTORE SWAP4 DUP2 ADD SWAP3 SWAP1 SWAP3 MSTORE PUSH1 0x60 DUP3 ADD SWAP3 SWAP1 SWAP3 MSTORE SWAP1 SWAP2 SWAP1 PUSH32 0x1573E473E8842C25DA06B37C286CDD7BF1C828E796AB47F7EEC894AC9FBBEE3 SWAP1 PUSH1 0x80 ADD JUMPDEST PUSH1 0x40 MLOAD DUP1 SWAP2 SUB SWAP1 LOG2 POP POP POP POP POP POP POP JUMP JUMPDEST PUSH1 0x0 DUP1 SLOAD PUSH1 0x60 SWAP2 SWAP1 PUSH1 0xFF AND PUSH8 0xFFFFFFFFFFFFFFFF DUP2 GT ISZERO PUSH2 0xB98 JUMPI PUSH2 0xB98 PUSH2 0x1D92 JUMP JUMPDEST PUSH1 0x40 MLOAD SWAP1 DUP1 DUP3 MSTORE DUP1 PUSH1 0x20 MUL PUSH1 0x20 ADD DUP3 ADD PUSH1 0x40 MSTORE DUP1 ISZERO PUSH2 0xBD1 JUMPI DUP2 PUSH1 0x20 ADD JUMPDEST PUSH2 0xBBE PUSH2 0x18B2 JUMP JUMPDEST DUP2 MSTORE PUSH1 0x20 ADD SWAP1 PUSH1 0x1 SWAP1 SUB SWAP1 DUP2 PUSH2 0xBB6 JUMPI SWAP1 POP JUMPDEST POP SWAP1 POP PUSH1 0x0 JUMPDEST PUSH1 0x0 SLOAD PUSH1 0xFF SWAP1 DUP2 AND SWAP1 DUP3 AND LT ISZERO PUSH2 0xEEA JUMPI PUSH1 0xFF DUP2 DUP2 AND PUSH1 0x0 SWAP1 DUP2 MSTORE PUSH1 0x2 PUSH1 0x20 DUP2 DUP2 MSTORE PUSH1 0x40 DUP1 DUP5 KECCAK256 SLOAD PUSH1 0x1 PUSH1 0x1 PUSH1 0xA0 SHL SUB AND DUP1 DUP6 MSTORE PUSH1 0x1 DUP1 DUP5 MSTORE SWAP5 DUP3 SWAP1 KECCAK256 DUP3 MLOAD PUSH1 0xA0 DUP1 DUP3 ADD DUP6 MSTORE DUP3 SLOAD DUP1 DUP11 AND ISZERO ISZERO DUP4 MSTORE PUSH2 0x100 DUP2 DIV SWAP1 SWAP10 AND ISZERO ISZERO DUP3 DUP8 ADD MSTORE PUSH2 0xFFFF PUSH3 0x10000 SWAP10 DUP11 SWAP1 DIV DUP2 AND DUP4 DUP8 ADD MSTORE SWAP8 DUP4 ADD SLOAD PUSH1 0x60 DUP1 DUP5 ADD SWAP2 SWAP1 SWAP2 MSTORE DUP6 MLOAD PUSH1 0xE0 DUP2 ADD DUP8 MSTORE SWAP8 DUP5 ADD SLOAD DUP1 DUP11 AND DUP10 MSTORE SWAP10 DUP11 DIV DUP10 AND SWAP7 DUP9 ADD SWAP7 SWAP1 SWAP7 MSTORE PUSH5 0x100000000 DUP10 DIV DUP9 AND SWAP5 DUP8 ADD SWAP5 SWAP1 SWAP5 MSTORE PUSH1 0x1 PUSH1 0x30 SHL SWAP1 SWAP8 DIV SWAP1 SWAP6 AND SWAP3 DUP5 ADD SWAP3 SWAP1 SWAP3 MSTORE PUSH1 0x3 DUP5 ADD SLOAD PUSH1 0x80 DUP1 DUP6 ADD SWAP2 SWAP1 SWAP2 MSTORE PUSH1 0x4 DUP6 ADD SLOAD SWAP2 DUP5 ADD SWAP2 SWAP1 SWAP2 MSTORE PUSH1 0x5 SWAP1 SWAP4 ADD SLOAD PUSH1 0xC0 DUP4 ADD MSTORE SWAP2 DUP4 ADD MSTORE SWAP1 DUP2 PUSH2 0xD50 JUMPI PUSH1 0x40 MLOAD DUP1 PUSH1 0xA0 ADD PUSH1 0x40 MSTORE DUP1 PUSH1 0x12 PUSH1 0xFF AND DUP2 MSTORE PUSH1 0x20 ADD DUP4 PUSH1 0x1 PUSH1 0x1 PUSH1 0xA0 SHL SUB AND DUP2 MSTORE PUSH1 0x20 ADD PUSH1 0x40 MLOAD DUP1 PUSH1 0x40 ADD PUSH1 0x40 MSTORE DUP1 PUSH1 0x3 DUP2 MSTORE PUSH1 0x20 ADD PUSH3 0x8AA89 PUSH1 0xEB SHL DUP2 MSTORE POP DUP2 MSTORE PUSH1 0x20 ADD PUSH1 0x40 MLOAD DUP1 PUSH1 0x40 ADD PUSH1 0x40 MSTORE DUP1 PUSH1 0x3 DUP2 MSTORE PUSH1 0x20 ADD PUSH3 0x8AA89 PUSH1 0xEB SHL DUP2 MSTORE POP DUP2 MSTORE PUSH1 0x20 ADD DUP3 DUP2 MSTORE POP DUP5 DUP5 PUSH1 0xFF AND DUP2 MLOAD DUP2 LT PUSH2 0xD40 JUMPI PUSH2 0xD40 PUSH2 0x1DA8 JUMP JUMPDEST PUSH1 0x20 MUL PUSH1 0x20 ADD ADD DUP2 SWAP1 MSTORE POP PUSH2 0xED5 JUMP JUMPDEST PUSH1 0x0 DUP3 SWAP1 POP PUSH1 0x40 MLOAD DUP1 PUSH1 0xA0 ADD PUSH1 0x40 MSTORE DUP1 DUP3 PUSH1 0x1 PUSH1 0x1 PUSH1 0xA0 SHL SUB AND PUSH4 0x313CE567 PUSH1 0x40 MLOAD DUP2 PUSH4 0xFFFFFFFF AND PUSH1 0xE0 SHL DUP2 MSTORE PUSH1 0x4 ADD PUSH1 0x20 PUSH1 0x40 MLOAD DUP1 DUP4 SUB DUP2 DUP7 GAS STATICCALL ISZERO DUP1 ISZERO PUSH2 0xD9E JUMPI RETURNDATASIZE PUSH1 0x0 DUP1 RETURNDATACOPY RETURNDATASIZE PUSH1 0x0 REVERT JUMPDEST POP POP POP POP PUSH1 0x40 MLOAD RETURNDATASIZE PUSH1 0x1F NOT PUSH1 0x1F DUP3 ADD AND DUP3 ADD DUP1 PUSH1 0x40 MSTORE POP DUP2 ADD SWAP1 PUSH2 0xDC2 SWAP2 SWAP1 PUSH2 0x1E04 JUMP JUMPDEST PUSH1 0xFF AND DUP2 MSTORE PUSH1 0x20 ADD DUP5 PUSH1 0x1 PUSH1 0x1 PUSH1 0xA0 SHL SUB AND DUP2 MSTORE PUSH1 0x20 ADD DUP3 PUSH1 0x1 PUSH1 0x1 PUSH1 0xA0 SHL SUB AND PUSH4 0x6FDDE03 PUSH1 0x40 MLOAD DUP2 PUSH4 0xFFFFFFFF AND PUSH1 0xE0 SHL DUP2 MSTORE PUSH1 0x4 ADD PUSH1 0x0 PUSH1 0x40 MLOAD DUP1 DUP4 SUB DUP2 DUP7 GAS STATICCALL ISZERO DUP1 ISZERO PUSH2 0xE17 JUMPI RETURNDATASIZE PUSH1 0x0 DUP1 RETURNDATACOPY RETURNDATASIZE PUSH1 0x0 REVERT JUMPDEST POP POP POP POP PUSH1 0x40 MLOAD RETURNDATASIZE PUSH1 0x0 DUP3 RETURNDATACOPY PUSH1 0x1F RETURNDATASIZE SWAP1 DUP2 ADD PUSH1 0x1F NOT AND DUP3 ADD PUSH1 0x40 MSTORE PUSH2 0xE3F SWAP2 SWAP1 DUP2 ADD SWAP1 PUSH2 0x1E27 JUMP JUMPDEST DUP2 MSTORE PUSH1 0x20 ADD DUP3 PUSH1 0x1 PUSH1 0x1 PUSH1 0xA0 SHL SUB AND PUSH4 0x95D89B41 PUSH1 0x40 MLOAD DUP2 PUSH4 0xFFFFFFFF AND PUSH1 0xE0 SHL DUP2 MSTORE PUSH1 0x4 ADD PUSH1 0x0 PUSH1 0x40 MLOAD DUP1 DUP4 SUB DUP2 DUP7 GAS STATICCALL ISZERO DUP1 ISZERO PUSH2 0xE82 JUMPI RETURNDATASIZE PUSH1 0x0 DUP1 RETURNDATACOPY RETURNDATASIZE PUSH1 0x0 REVERT JUMPDEST POP POP POP POP PUSH1 0x40 MLOAD RETURNDATASIZE PUSH1 0x0 DUP3 RETURNDATACOPY PUSH1 0x1F RETURNDATASIZE SWAP1 DUP2 ADD PUSH1 0x1F NOT AND DUP3 ADD PUSH1 0x40 MSTORE PUSH2 0xEAA SWAP2 SWAP1 DUP2 ADD SWAP1 PUSH2 0x1E27 JUMP JUMPDEST DUP2 MSTORE PUSH1 0x20 ADD DUP4 DUP2 MSTORE POP DUP6 DUP6 PUSH1 0xFF AND DUP2 MLOAD DUP2 LT PUSH2 0xEC8 JUMPI PUSH2 0xEC8 PUSH2 0x1DA8 JUMP JUMPDEST PUSH1 0x20 MUL PUSH1 0x20 ADD ADD DUP2 SWAP1 MSTORE POP POP JUMPDEST POP POP DUP1 DUP1 PUSH2 0xEE2 SWAP1 PUSH2 0x1DBE JUMP JUMPDEST SWAP2 POP POP PUSH2 0xBD7 JUMP JUMPDEST POP SWAP2 SWAP1 POP JUMP JUMPDEST PUSH2 0xEFA DUP3 DUP3 PUSH2 0x14CA JUMP JUMPDEST DUP2 PUSH1 0x1 PUSH1 0x1 PUSH1 0xA0 SHL SUB AND PUSH32 0x71928AB56DD9FB6DF8072ADF5FEFB4D17ED280FA21652433FE96D7D6729BD328 PUSH2 0x700 DUP5 PUSH2 0x133C JUMP JUMPDEST PUSH1 0x1 PUSH1 0x1 PUSH1 0xA0 SHL SUB DUP2 AND PUSH1 0x0 SWAP1 DUP2 MSTORE PUSH1 0x1 PUSH1 0x20 DUP2 DUP2 MSTORE PUSH1 0x40 DUP1 DUP5 KECCAK256 DUP2 MLOAD PUSH1 0xA0 DUP1 DUP3 ADD DUP5 MSTORE DUP3 SLOAD PUSH1 0xFF DUP1 DUP3 AND ISZERO ISZERO DUP5 MSTORE PUSH2 0x100 DUP3 DIV AND ISZERO ISZERO DUP4 DUP8 ADD MSTORE PUSH2 0xFFFF PUSH3 0x10000 SWAP2 DUP3 SWAP1 DIV DUP2 AND DUP5 DUP8 ADD MSTORE SWAP7 DUP5 ADD SLOAD PUSH1 0x60 DUP1 DUP6 ADD SWAP2 SWAP1 SWAP2 MSTORE DUP6 MLOAD PUSH1 0xE0 DUP2 ADD DUP8 MSTORE PUSH1 0x2 DUP7 ADD SLOAD DUP1 DUP11 AND DUP3 MSTORE SWAP3 DUP4 DIV DUP10 AND SWAP8 DUP2 ADD SWAP8 SWAP1 SWAP8 MSTORE PUSH5 0x100000000 DUP3 DIV DUP9 AND SWAP6 DUP8 ADD SWAP6 SWAP1 SWAP6 MSTORE PUSH1 0x1 PUSH1 0x30 SHL SWAP1 DIV SWAP1 SWAP6 AND SWAP3 DUP5 ADD SWAP3 SWAP1 SWAP3 MSTORE PUSH1 0x3 DUP2 ADD SLOAD PUSH1 0x80 DUP5 DUP2 ADD SWAP2 SWAP1 SWAP2 MSTORE PUSH1 0x4 DUP3 ADD SLOAD SWAP5 DUP5 ADD SWAP5 SWAP1 SWAP5 MSTORE PUSH1 0x5 ADD SLOAD PUSH1 0xC0 DUP4 ADD MSTORE SWAP2 DUP3 ADD MSTORE DUP1 MLOAD DUP1 ISZERO PUSH2 0x6C5 JUMPI POP PUSH1 0x20 ADD MLOAD ISZERO SWAP3 SWAP2 POP POP JUMP JUMPDEST PUSH1 0x0 SLOAD PUSH1 0xFF AND ISZERO PUSH2 0x1074 JUMPI PUSH1 0x0 JUMPDEST PUSH1 0x0 SLOAD PUSH1 0xFF SWAP1 DUP2 AND SWAP1 DUP3 AND LT ISZERO PUSH2 0x1072 JUMPI PUSH1 0xFF DUP2 AND PUSH1 0x0 SWAP1 DUP2 MSTORE PUSH1 0x2 PUSH1 0x20 MSTORE PUSH1 0x40 SWAP1 KECCAK256 SLOAD PUSH1 0x1 PUSH1 0x1 PUSH1 0xA0 SHL SUB DUP4 DUP2 AND SWAP2 AND EQ ISZERO PUSH2 0x1060 JUMPI PUSH1 0x40 MLOAD PUSH4 0x2AE3F45D PUSH1 0xE1 SHL DUP2 MSTORE PUSH1 0x4 ADD PUSH1 0x40 MLOAD DUP1 SWAP2 SUB SWAP1 REVERT JUMPDEST DUP1 PUSH2 0x106A DUP2 PUSH2 0x1DBE JUMP JUMPDEST SWAP2 POP POP PUSH2 0x1010 JUMP JUMPDEST POP JUMPDEST PUSH1 0x0 DUP1 SLOAD PUSH1 0xFF SWAP1 DUP2 AND DUP3 MSTORE PUSH1 0x2 PUSH1 0x20 MSTORE PUSH1 0x40 DUP3 KECCAK256 DUP1 SLOAD PUSH1 0x1 PUSH1 0x1 PUSH1 0xA0 SHL SUB NOT AND PUSH1 0x1 PUSH1 0x1 PUSH1 0xA0 SHL SUB DUP6 AND OR SWAP1 SSTORE DUP2 SLOAD PUSH1 0x1 SWAP3 SWAP2 DUP3 SWAP2 PUSH2 0x10B5 SWAP2 DUP6 SWAP2 AND PUSH2 0x1EC9 JUMP JUMPDEST SWAP3 POP PUSH2 0x100 EXP DUP2 SLOAD DUP2 PUSH1 0xFF MUL NOT AND SWAP1 DUP4 PUSH1 0xFF AND MUL OR SWAP1 SSTORE POP PUSH32 0xE473C74F34BE27C1464D6624F14A0D7FD4E301CBFA29C3EBA425D378C8A7EBE0 DUP2 PUSH1 0x40 MLOAD PUSH2 0x61B SWAP2 SWAP1 PUSH1 0x1 PUSH1 0x1 PUSH1 0xA0 SHL SUB SWAP2 SWAP1 SWAP2 AND DUP2 MSTORE PUSH1 0x20 ADD SWAP1 JUMP JUMPDEST PUSH1 0x0 DUP1 SLOAD PUSH1 0x60 SWAP2 DUP3 SWAP2 PUSH1 0xFF AND PUSH8 0xFFFFFFFFFFFFFFFF DUP2 GT ISZERO PUSH2 0x112F JUMPI PUSH2 0x112F PUSH2 0x1D92 JUMP JUMPDEST PUSH1 0x40 MLOAD SWAP1 DUP1 DUP3 MSTORE DUP1 PUSH1 0x20 MUL PUSH1 0x20 ADD DUP3 ADD PUSH1 0x40 MSTORE DUP1 ISZERO PUSH2 0x1158 JUMPI DUP2 PUSH1 0x20 ADD PUSH1 0x20 DUP3 MUL DUP1 CALLDATASIZE DUP4 CALLDATACOPY ADD SWAP1 POP JUMPDEST POP PUSH1 0x0 DUP1 SLOAD SWAP2 SWAP3 POP SWAP1 PUSH1 0xFF AND PUSH8 0xFFFFFFFFFFFFFFFF DUP2 GT ISZERO PUSH2 0x117C JUMPI PUSH2 0x117C PUSH2 0x1D92 JUMP JUMPDEST PUSH1 0x40 MLOAD SWAP1 DUP1 DUP3 MSTORE DUP1 PUSH1 0x20 MUL PUSH1 0x20 ADD DUP3 ADD PUSH1 0x40 MSTORE DUP1 ISZERO PUSH2 0x11A5 JUMPI DUP2 PUSH1 0x20 ADD PUSH1 0x20 DUP3 MUL DUP1 CALLDATASIZE DUP4 CALLDATACOPY ADD SWAP1 POP JUMPDEST POP SWAP1 POP PUSH1 0x0 JUMPDEST PUSH1 0x0 SLOAD PUSH1 0xFF SWAP1 DUP2 AND SWAP1 DUP3 AND LT ISZERO PUSH2 0x9F8 JUMPI PUSH1 0xFF DUP2 AND PUSH1 0x0 SWAP1 DUP2 MSTORE PUSH1 0x2 PUSH1 0x20 SWAP1 DUP2 MSTORE PUSH1 0x40 DUP1 DUP4 KECCAK256 SLOAD PUSH1 0x1 PUSH1 0x1 PUSH1 0xA0 SHL SUB AND DUP1 DUP5 MSTORE PUSH1 0x1 SWAP1 SWAP3 MSTORE SWAP1 SWAP2 KECCAK256 PUSH1 0x3 DUP2 ADD SLOAD DUP1 ISZERO PUSH2 0x124A JUMPI DUP3 DUP7 DUP6 PUSH1 0xFF AND DUP2 MLOAD DUP2 LT PUSH2 0x1207 JUMPI PUSH2 0x1207 PUSH2 0x1DA8 JUMP JUMPDEST PUSH1 0x20 MUL PUSH1 0x20 ADD ADD SWAP1 PUSH1 0x1 PUSH1 0x1 PUSH1 0xA0 SHL SUB AND SWAP1 DUP2 PUSH1 0x1 PUSH1 0x1 PUSH1 0xA0 SHL SUB AND DUP2 MSTORE POP POP DUP1 DUP6 DUP6 PUSH1 0xFF AND DUP2 MLOAD DUP2 LT PUSH2 0x123D JUMPI PUSH2 0x123D PUSH2 0x1DA8 JUMP JUMPDEST PUSH1 0x20 MUL PUSH1 0x20 ADD ADD DUP2 DUP2 MSTORE POP POP JUMPDEST POP POP POP DUP1 DUP1 PUSH2 0x1258 SWAP1 PUSH2 0x1DBE JUMP JUMPDEST SWAP2 POP POP PUSH2 0x11AB JUMP JUMPDEST PUSH1 0x0 PUSH2 0x126B DUP4 PUSH2 0x133C JUMP JUMPDEST SWAP1 POP DUP1 ISZERO PUSH2 0x12B1 JUMPI PUSH1 0x1 PUSH1 0x1 PUSH1 0xA0 SHL SUB DUP4 AND PUSH1 0x0 SWAP1 DUP2 MSTORE PUSH1 0x1 PUSH1 0x20 MSTORE PUSH1 0x40 SWAP1 KECCAK256 SLOAD PUSH2 0x100 SWAP1 DIV PUSH1 0xFF AND PUSH2 0x12B1 JUMPI PUSH1 0x40 MLOAD PUSH4 0x93B3A85D PUSH1 0xE0 SHL DUP2 MSTORE PUSH1 0x4 ADD PUSH1 0x40 MLOAD DUP1 SWAP2 SUB SWAP1 REVERT JUMPDEST DUP1 DUP3 GT ISZERO PUSH2 0x12BD JUMPI DUP1 SWAP2 POP JUMPDEST PUSH2 0x12C8 CALLER DUP5 DUP5 PUSH2 0x146D JUMP JUMPDEST DUP3 PUSH1 0x1 PUSH1 0x1 PUSH1 0xA0 SHL SUB AND PUSH32 0x884EDAD9CE6FA2440D8A54CC123490EB96D2768479D49FF9C7366125A9424364 DUP4 PUSH1 0x40 MLOAD PUSH2 0x1303 SWAP2 DUP2 MSTORE PUSH1 0x20 ADD SWAP1 JUMP JUMPDEST PUSH1 0x40 MLOAD DUP1 SWAP2 SUB SWAP1 LOG2 POP POP POP JUMP JUMPDEST PUSH1 0x1 PUSH1 0x1 PUSH1 0xA0 SHL SUB DUP2 AND PUSH1 0x0 SWAP1 DUP2 MSTORE PUSH1 0x1 PUSH1 0x20 DUP2 SWAP1 MSTORE PUSH1 0x40 SWAP1 SWAP2 KECCAK256 ADD SLOAD DUP1 PUSH2 0x1337 JUMPI POP PUSH2 0x2710 JUMPDEST SWAP2 SWAP1 POP JUMP JUMPDEST PUSH1 0x0 DUP1 PUSH1 0x1 PUSH1 0x1 PUSH1 0xA0 SHL SUB DUP4 AND PUSH2 0x1354 JUMPI POP SELFBALANCE PUSH2 0x13BF JUMP JUMPDEST PUSH1 0x40 MLOAD PUSH4 0x70A08231 PUSH1 0xE0 SHL DUP2 MSTORE ADDRESS PUSH1 0x4 DUP3 ADD MSTORE PUSH1 0x1 PUSH1 0x1 PUSH1 0xA0 SHL SUB DUP5 AND SWAP1 PUSH4 0x70A08231 SWAP1 PUSH1 0x24 ADD PUSH1 0x20 PUSH1 0x40 MLOAD DUP1 DUP4 SUB DUP2 DUP7 GAS STATICCALL ISZERO DUP1 ISZERO PUSH2 0x1398 JUMPI RETURNDATASIZE PUSH1 0x0 DUP1 RETURNDATACOPY RETURNDATASIZE PUSH1 0x0 REVERT JUMPDEST POP POP POP POP PUSH1 0x40 MLOAD RETURNDATASIZE PUSH1 0x1F NOT PUSH1 0x1F DUP3 ADD AND DUP3 ADD DUP1 PUSH1 0x40 MSTORE POP DUP2 ADD SWAP1 PUSH2 0x13BC SWAP2 SWAP1 PUSH2 0x1EEE JUMP JUMPDEST SWAP1 POP JUMPDEST PUSH1 0x1 PUSH1 0x1 PUSH1 0xA0 SHL SUB DUP4 AND PUSH1 0x0 SWAP1 DUP2 MSTORE PUSH1 0x1 PUSH1 0x20 SWAP1 DUP2 MSTORE PUSH1 0x40 SWAP2 DUP3 SWAP1 KECCAK256 DUP3 MLOAD PUSH1 0xE0 DUP2 ADD DUP5 MSTORE PUSH1 0x2 DUP3 ADD SLOAD PUSH2 0xFFFF DUP1 DUP3 AND DUP4 MSTORE PUSH3 0x10000 DUP3 DIV DUP2 AND SWAP5 DUP4 ADD SWAP5 SWAP1 SWAP5 MSTORE PUSH5 0x100000000 DUP2 DIV DUP5 AND SWAP5 DUP3 ADD SWAP5 SWAP1 SWAP5 MSTORE PUSH1 0x1 PUSH1 0x30 SHL SWAP1 SWAP4 DIV SWAP1 SWAP2 AND PUSH1 0x60 DUP4 ADD MSTORE PUSH1 0x3 DUP2 ADD SLOAD PUSH1 0x80 DUP4 ADD DUP2 SWAP1 MSTORE PUSH1 0x4 DUP3 ADD SLOAD PUSH1 0xA0 DUP5 ADD DUP2 SWAP1 MSTORE PUSH1 0x5 SWAP1 SWAP3 ADD SLOAD PUSH1 0xC0 DUP5 ADD DUP2 SWAP1 MSTORE SWAP2 SWAP1 PUSH2 0x1451 SWAP1 DUP6 PUSH2 0x1F07 JUMP JUMPDEST PUSH2 0x145B SWAP2 SWAP1 PUSH2 0x1F07 JUMP JUMPDEST PUSH2 0x1465 SWAP2 SWAP1 PUSH2 0x1F07 JUMP JUMPDEST SWAP5 SWAP4 POP POP POP POP JUMP JUMPDEST PUSH1 0x1 PUSH1 0x1 PUSH1 0xA0 SHL SUB DUP3 AND PUSH2 0x14B1 JUMPI PUSH1 0x40 MLOAD PUSH1 0x1 PUSH1 0x1 PUSH1 0xA0 SHL SUB DUP5 AND SWAP1 DUP3 ISZERO PUSH2 0x8FC MUL SWAP1 DUP4 SWAP1 PUSH1 0x0 DUP2 DUP2 DUP2 DUP6 DUP9 DUP9 CALL SWAP4 POP POP POP POP ISZERO DUP1 ISZERO PUSH2 0x599 JUMPI RETURNDATASIZE PUSH1 0x0 DUP1 RETURNDATACOPY RETURNDATASIZE PUSH1 0x0 REVERT JUMPDEST PUSH2 0x14C5 PUSH1 0x1 PUSH1 0x1 PUSH1 0xA0 SHL SUB DUP4 AND DUP5 DUP4 PUSH2 0x168D JUMP JUMPDEST POP POP POP JUMP JUMPDEST PUSH1 0x1 PUSH1 0x1 PUSH1 0xA0 SHL SUB DUP3 AND PUSH1 0x0 SWAP1 DUP2 MSTORE PUSH1 0x1 PUSH1 0x20 MSTORE PUSH1 0x40 DUP2 KECCAK256 PUSH1 0x2 ADD DUP1 SLOAD SWAP1 SWAP2 SWAP1 PUSH2 0x2710 SWAP1 PUSH2 0x1502 SWAP1 PUSH3 0x10000 SWAP1 DIV PUSH2 0xFFFF AND DUP6 PUSH2 0x1D51 JUMP JUMPDEST PUSH2 0x150C SWAP2 SWAP1 PUSH2 0x1D70 JUMP JUMPDEST SWAP1 POP DUP1 DUP3 PUSH1 0x1 ADD PUSH1 0x0 DUP3 DUP3 SLOAD PUSH2 0x1522 SWAP2 SWAP1 PUSH2 0x1F1E JUMP JUMPDEST SWAP1 SWAP2 SSTORE POP POP DUP2 SLOAD PUSH1 0x0 SWAP1 PUSH2 0x2710 SWAP1 PUSH2 0x153E SWAP1 PUSH2 0xFFFF AND DUP7 PUSH2 0x1D51 JUMP JUMPDEST PUSH2 0x1548 SWAP2 SWAP1 PUSH2 0x1D70 JUMP JUMPDEST DUP4 SLOAD SWAP1 SWAP2 POP PUSH1 0x0 SWAP1 PUSH2 0x2710 SWAP1 PUSH2 0x156A SWAP1 PUSH5 0x100000000 SWAP1 DIV PUSH2 0xFFFF AND DUP8 PUSH2 0x1D51 JUMP JUMPDEST PUSH2 0x1574 SWAP2 SWAP1 PUSH2 0x1D70 JUMP JUMPDEST SWAP1 POP DUP1 DUP5 PUSH1 0x2 ADD PUSH1 0x0 DUP3 DUP3 SLOAD PUSH2 0x158A SWAP2 SWAP1 PUSH2 0x1F1E JUMP JUMPDEST SWAP1 SWAP2 SSTORE POP POP DUP4 SLOAD PUSH1 0x0 SWAP1 PUSH2 0x2710 SWAP1 PUSH2 0x15AD SWAP1 PUSH1 0x1 PUSH1 0x30 SHL SWAP1 DIV PUSH2 0xFFFF AND DUP9 PUSH2 0x1D51 JUMP JUMPDEST PUSH2 0x15B7 SWAP2 SWAP1 PUSH2 0x1D70 JUMP JUMPDEST SWAP1 POP DUP1 DUP6 PUSH1 0x3 ADD PUSH1 0x0 DUP3 DUP3 SLOAD PUSH2 0x15CD SWAP2 SWAP1 PUSH2 0x1F1E JUMP JUMPDEST SWAP1 SWAP2 SSTORE POP POP PUSH1 0x40 DUP1 MLOAD DUP5 DUP2 MSTORE PUSH1 0x20 DUP2 ADD DUP7 SWAP1 MSTORE SWAP1 DUP2 ADD DUP4 SWAP1 MSTORE PUSH1 0x60 DUP2 ADD DUP3 SWAP1 MSTORE PUSH1 0x1 PUSH1 0x1 PUSH1 0xA0 SHL SUB DUP9 AND SWAP1 PUSH32 0xB5A4C9121A83120FC7B30F195DDD2C279EC4510CFC8F051380851E8F0686F49 SWAP1 PUSH1 0x80 ADD PUSH2 0xB64 JUMP JUMPDEST PUSH1 0x40 MLOAD PUSH1 0x1 PUSH1 0x1 PUSH1 0xA0 SHL SUB DUP1 DUP6 AND PUSH1 0x24 DUP4 ADD MSTORE DUP4 AND PUSH1 0x44 DUP3 ADD MSTORE PUSH1 0x64 DUP2 ADD DUP3 SWAP1 MSTORE PUSH2 0x599 SWAP1 DUP6 SWAP1 PUSH4 0x23B872DD PUSH1 0xE0 SHL SWAP1 PUSH1 0x84 ADD JUMPDEST PUSH1 0x40 DUP1 MLOAD PUSH1 0x1F NOT DUP2 DUP5 SUB ADD DUP2 MSTORE SWAP2 SWAP1 MSTORE PUSH1 0x20 DUP2 ADD DUP1 MLOAD PUSH1 0x1 PUSH1 0x1 PUSH1 0xE0 SHL SUB AND PUSH1 0x1 PUSH1 0x1 PUSH1 0xE0 SHL SUB NOT SWAP1 SWAP4 AND SWAP3 SWAP1 SWAP3 OR SWAP1 SWAP2 MSTORE PUSH2 0x16BD JUMP JUMPDEST PUSH1 0x40 MLOAD PUSH1 0x1 PUSH1 0x1 PUSH1 0xA0 SHL SUB DUP4 AND PUSH1 0x24 DUP3 ADD MSTORE PUSH1 0x44 DUP2 ADD DUP3 SWAP1 MSTORE PUSH2 0x14C5 SWAP1 DUP5 SWAP1 PUSH4 0xA9059CBB PUSH1 0xE0 SHL SWAP1 PUSH1 0x64 ADD PUSH2 0x1656 JUMP JUMPDEST PUSH1 0x0 PUSH2 0x1712 DUP3 PUSH1 0x40 MLOAD DUP1 PUSH1 0x40 ADD PUSH1 0x40 MSTORE DUP1 PUSH1 0x20 DUP2 MSTORE PUSH1 0x20 ADD PUSH32 0x5361666545524332303A206C6F772D6C6576656C2063616C6C206661696C6564 DUP2 MSTORE POP DUP6 PUSH1 0x1 PUSH1 0x1 PUSH1 0xA0 SHL SUB AND PUSH2 0x1792 SWAP1 SWAP3 SWAP2 SWAP1 PUSH4 0xFFFFFFFF AND JUMP JUMPDEST SWAP1 POP DUP1 MLOAD PUSH1 0x0 EQ DUP1 PUSH2 0x1733 JUMPI POP DUP1 DUP1 PUSH1 0x20 ADD SWAP1 MLOAD DUP2 ADD SWAP1 PUSH2 0x1733 SWAP2 SWAP1 PUSH2 0x1F36 JUMP JUMPDEST PUSH2 0x14C5 JUMPI PUSH1 0x40 MLOAD PUSH3 0x461BCD PUSH1 0xE5 SHL DUP2 MSTORE PUSH1 0x20 PUSH1 0x4 DUP3 ADD MSTORE PUSH1 0x2A PUSH1 0x24 DUP3 ADD MSTORE PUSH32 0x5361666545524332303A204552433230206F7065726174696F6E20646964206E PUSH1 0x44 DUP3 ADD MSTORE PUSH10 0x1BDD081CDD58D8D95959 PUSH1 0xB2 SHL PUSH1 0x64 DUP3 ADD MSTORE PUSH1 0x84 ADD PUSH2 0xAA6 JUMP JUMPDEST PUSH1 0x60 PUSH2 0x1465 DUP5 DUP5 PUSH1 0x0 DUP6 DUP6 PUSH1 0x0 DUP1 DUP7 PUSH1 0x1 PUSH1 0x1 PUSH1 0xA0 SHL SUB AND DUP6 DUP8 PUSH1 0x40 MLOAD PUSH2 0x17B9 SWAP2 SWAP1 PUSH2 0x1F53 JUMP JUMPDEST PUSH1 0x0 PUSH1 0x40 MLOAD DUP1 DUP4 SUB DUP2 DUP6 DUP8 GAS CALL SWAP3 POP POP POP RETURNDATASIZE DUP1 PUSH1 0x0 DUP2 EQ PUSH2 0x17F6 JUMPI PUSH1 0x40 MLOAD SWAP2 POP PUSH1 0x1F NOT PUSH1 0x3F RETURNDATASIZE ADD AND DUP3 ADD PUSH1 0x40 MSTORE RETURNDATASIZE DUP3 MSTORE RETURNDATASIZE PUSH1 0x0 PUSH1 0x20 DUP5 ADD RETURNDATACOPY PUSH2 0x17FB JUMP JUMPDEST PUSH1 0x60 SWAP2 POP JUMPDEST POP SWAP2 POP SWAP2 POP PUSH2 0x180C DUP8 DUP4 DUP4 DUP8 PUSH2 0x1817 JUMP JUMPDEST SWAP8 SWAP7 POP POP POP POP POP POP POP JUMP JUMPDEST PUSH1 0x60 DUP4 ISZERO PUSH2 0x1883 JUMPI DUP3 MLOAD PUSH2 0x187C JUMPI PUSH1 0x1 PUSH1 0x1 PUSH1 0xA0 SHL SUB DUP6 AND EXTCODESIZE PUSH2 0x187C JUMPI PUSH1 0x40 MLOAD PUSH3 0x461BCD PUSH1 0xE5 SHL DUP2 MSTORE PUSH1 0x20 PUSH1 0x4 DUP3 ADD MSTORE PUSH1 0x1D PUSH1 0x24 DUP3 ADD MSTORE PUSH32 0x416464726573733A2063616C6C20746F206E6F6E2D636F6E7472616374000000 PUSH1 0x44 DUP3 ADD MSTORE PUSH1 0x64 ADD PUSH2 0xAA6 JUMP JUMPDEST POP DUP2 PUSH2 0x1465 JUMP JUMPDEST PUSH2 0x1465 DUP4 DUP4 DUP2 MLOAD ISZERO PUSH2 0x1898 JUMPI DUP2 MLOAD DUP1 DUP4 PUSH1 0x20 ADD REVERT JUMPDEST DUP1 PUSH1 0x40 MLOAD PUSH3 0x461BCD PUSH1 0xE5 SHL DUP2 MSTORE PUSH1 0x4 ADD PUSH2 0xAA6 SWAP2 SWAP1 PUSH2 0x1F6F JUMP JUMPDEST PUSH1 0x40 MLOAD DUP1 PUSH1 0xA0 ADD PUSH1 0x40 MSTORE DUP1 PUSH1 0x0 PUSH1 0xFF AND DUP2 MSTORE PUSH1 0x20 ADD PUSH1 0x0 PUSH1 0x1 PUSH1 0x1 PUSH1 0xA0 SHL SUB AND DUP2 MSTORE PUSH1 0x20 ADD PUSH1 0x60 DUP2 MSTORE PUSH1 0x20 ADD PUSH1 0x60 DUP2 MSTORE PUSH1 0x20 ADD PUSH2 0x1947 PUSH1 0x40 DUP1 MLOAD PUSH1 0xA0 DUP1 DUP3 ADD DUP4 MSTORE PUSH1 0x0 DUP1 DUP4 MSTORE PUSH1 0x20 DUP1 DUP5 ADD DUP3 SWAP1 MSTORE DUP4 DUP6 ADD DUP3 SWAP1 MSTORE PUSH1 0x60 DUP1 DUP6 ADD DUP4 SWAP1 MSTORE DUP6 MLOAD PUSH1 0xE0 DUP2 ADD DUP8 MSTORE DUP4 DUP2 MSTORE SWAP2 DUP3 ADD DUP4 SWAP1 MSTORE SWAP5 DUP2 ADD DUP3 SWAP1 MSTORE SWAP4 DUP5 ADD DUP2 SWAP1 MSTORE PUSH1 0x80 DUP5 DUP2 ADD DUP3 SWAP1 MSTORE SWAP2 DUP5 ADD DUP2 SWAP1 MSTORE PUSH1 0xC0 DUP5 ADD MSTORE SWAP1 SWAP2 SWAP1 DUP3 ADD MSTORE SWAP1 JUMP JUMPDEST SWAP1 MSTORE SWAP1 JUMP JUMPDEST PUSH1 0x1 PUSH1 0x1 PUSH1 0xA0 SHL SUB DUP2 AND DUP2 EQ PUSH2 0x1961 JUMPI PUSH1 0x0 DUP1 REVERT JUMPDEST POP JUMP JUMPDEST PUSH1 0x0 PUSH1 0x20 DUP3 DUP5 SUB SLT ISZERO PUSH2 0x1976 JUMPI PUSH1 0x0 DUP1 REVERT JUMPDEST DUP2 CALLDATALOAD PUSH2 0x6C5 DUP2 PUSH2 0x194C JUMP JUMPDEST PUSH1 0x0 DUP1 PUSH1 0x0 DUP1 PUSH1 0x80 DUP6 DUP8 SUB SLT ISZERO PUSH2 0x1997 JUMPI PUSH1 0x0 DUP1 REVERT JUMPDEST DUP5 CALLDATALOAD PUSH2 0x19A2 DUP2 PUSH2 0x194C JUMP JUMPDEST SWAP4 POP PUSH1 0x20 DUP6 ADD CALLDATALOAD PUSH2 0x19B2 DUP2 PUSH2 0x194C JUMP JUMPDEST SWAP4 SWAP7 SWAP4 SWAP6 POP POP POP POP PUSH1 0x40 DUP3 ADD CALLDATALOAD SWAP2 PUSH1 0x60 ADD CALLDATALOAD SWAP1 JUMP JUMPDEST PUSH1 0x0 DUP1 PUSH1 0x40 DUP4 DUP6 SUB SLT ISZERO PUSH2 0x19DA JUMPI PUSH1 0x0 DUP1 REVERT JUMPDEST DUP3 CALLDATALOAD PUSH2 0x19E5 DUP2 PUSH2 0x194C JUMP JUMPDEST SWAP5 PUSH1 0x20 SWAP4 SWAP1 SWAP4 ADD CALLDATALOAD SWAP4 POP POP POP JUMP JUMPDEST DUP1 CALLDATALOAD PUSH2 0xFFFF DUP2 AND DUP2 EQ PUSH2 0x1337 JUMPI PUSH1 0x0 DUP1 REVERT JUMPDEST PUSH1 0x0 DUP1 PUSH1 0x40 DUP4 DUP6 SUB SLT ISZERO PUSH2 0x1A18 JUMPI PUSH1 0x0 DUP1 REVERT JUMPDEST DUP3 CALLDATALOAD PUSH2 0x1A23 DUP2 PUSH2 0x194C JUMP JUMPDEST SWAP2 POP PUSH2 0x1A31 PUSH1 0x20 DUP5 ADD PUSH2 0x19F3 JUMP JUMPDEST SWAP1 POP SWAP3 POP SWAP3 SWAP1 POP JUMP JUMPDEST PUSH1 0x40 DUP1 DUP3 MSTORE DUP4 MLOAD SWAP1 DUP3 ADD DUP2 SWAP1 MSTORE PUSH1 0x0 SWAP1 PUSH1 0x20 SWAP1 PUSH1 0x60 DUP5 ADD SWAP1 DUP3 DUP8 ADD DUP5 JUMPDEST DUP3 DUP2 LT ISZERO PUSH2 0x1A7C JUMPI DUP2 MLOAD PUSH1 0x1 PUSH1 0x1 PUSH1 0xA0 SHL SUB AND DUP5 MSTORE SWAP3 DUP5 ADD SWAP3 SWAP1 DUP5 ADD SWAP1 PUSH1 0x1 ADD PUSH2 0x1A57 JUMP JUMPDEST POP POP POP DUP4 DUP2 SUB DUP3 DUP6 ADD MSTORE DUP5 MLOAD DUP1 DUP3 MSTORE DUP6 DUP4 ADD SWAP2 DUP4 ADD SWAP1 PUSH1 0x0 JUMPDEST DUP2 DUP2 LT ISZERO PUSH2 0x1AB1 JUMPI DUP4 MLOAD DUP4 MSTORE SWAP3 DUP5 ADD SWAP3 SWAP2 DUP5 ADD SWAP2 PUSH1 0x1 ADD PUSH2 0x1A95 JUMP JUMPDEST POP SWAP1 SWAP8 SWAP7 POP POP POP POP POP POP POP JUMP JUMPDEST DUP1 ISZERO ISZERO DUP2 EQ PUSH2 0x1961 JUMPI PUSH1 0x0 DUP1 REVERT JUMPDEST PUSH1 0x0 DUP1 PUSH1 0x40 DUP4 DUP6 SUB SLT ISZERO PUSH2 0x1ADF JUMPI PUSH1 0x0 DUP1 REVERT JUMPDEST DUP3 CALLDATALOAD PUSH2 0x1AEA DUP2 PUSH2 0x194C JUMP JUMPDEST SWAP2 POP PUSH1 0x20 DUP4 ADD CALLDATALOAD PUSH2 0x1AFA DUP2 PUSH2 0x1ABE JUMP JUMPDEST DUP1 SWAP2 POP POP SWAP3 POP SWAP3 SWAP1 POP JUMP JUMPDEST PUSH1 0x0 DUP1 PUSH1 0x0 DUP1 PUSH1 0x0 PUSH1 0xA0 DUP7 DUP9 SUB SLT ISZERO PUSH2 0x1B1D JUMPI PUSH1 0x0 DUP1 REVERT JUMPDEST DUP6 CALLDATALOAD PUSH2 0x1B28 DUP2 PUSH2 0x194C JUMP JUMPDEST SWAP5 POP PUSH2 0x1B36 PUSH1 0x20 DUP8 ADD PUSH2 0x19F3 JUMP JUMPDEST SWAP4 POP PUSH2 0x1B44 PUSH1 0x40 DUP8 ADD PUSH2 0x19F3 JUMP JUMPDEST SWAP3 POP PUSH2 0x1B52 PUSH1 0x60 DUP8 ADD PUSH2 0x19F3 JUMP JUMPDEST SWAP2 POP PUSH2 0x1B60 PUSH1 0x80 DUP8 ADD PUSH2 0x19F3 JUMP JUMPDEST SWAP1 POP SWAP3 SWAP6 POP SWAP3 SWAP6 SWAP1 SWAP4 POP JUMP JUMPDEST PUSH1 0x0 JUMPDEST DUP4 DUP2 LT ISZERO PUSH2 0x1B87 JUMPI DUP2 DUP2 ADD MLOAD DUP4 DUP3 ADD MSTORE PUSH1 0x20 ADD PUSH2 0x1B6F JUMP JUMPDEST DUP4 DUP2 GT ISZERO PUSH2 0x599 JUMPI POP POP PUSH1 0x0 SWAP2 ADD MSTORE JUMP JUMPDEST PUSH1 0x0 DUP2 MLOAD DUP1 DUP5 MSTORE PUSH2 0x1BB0 DUP2 PUSH1 0x20 DUP7 ADD PUSH1 0x20 DUP7 ADD PUSH2 0x1B6C JUMP JUMPDEST PUSH1 0x1F ADD PUSH1 0x1F NOT AND SWAP3 SWAP1 SWAP3 ADD PUSH1 0x20 ADD SWAP3 SWAP2 POP POP JUMP JUMPDEST PUSH2 0xFFFF DUP1 DUP3 MLOAD AND DUP4 MSTORE DUP1 PUSH1 0x20 DUP4 ADD MLOAD AND PUSH1 0x20 DUP5 ADD MSTORE DUP1 PUSH1 0x40 DUP4 ADD MLOAD AND PUSH1 0x40 DUP5 ADD MSTORE DUP1 PUSH1 0x60 DUP4 ADD MLOAD AND PUSH1 0x60 DUP5 ADD MSTORE POP PUSH1 0x80 DUP2 ADD MLOAD PUSH1 0x80 DUP4 ADD MSTORE PUSH1 0xA0 DUP2 ADD MLOAD PUSH1 0xA0 DUP4 ADD MSTORE PUSH1 0xC0 DUP2 ADD MLOAD PUSH1 0xC0 DUP4 ADD MSTORE POP POP JUMP JUMPDEST PUSH1 0x0 PUSH1 0x20 DUP1 DUP4 ADD DUP2 DUP5 MSTORE DUP1 DUP6 MLOAD DUP1 DUP4 MSTORE PUSH1 0x40 SWAP3 POP DUP3 DUP7 ADD SWAP2 POP DUP3 DUP2 PUSH1 0x5 SHL DUP8 ADD ADD DUP5 DUP9 ADD PUSH1 0x0 JUMPDEST DUP4 DUP2 LT ISZERO PUSH2 0x1CF3 JUMPI DUP9 DUP4 SUB PUSH1 0x3F NOT ADD DUP6 MSTORE DUP2 MLOAD DUP1 MLOAD PUSH1 0xFF AND DUP5 MSTORE DUP8 DUP2 ADD MLOAD PUSH1 0x1 PUSH1 0x1 PUSH1 0xA0 SHL SUB AND DUP9 DUP6 ADD MSTORE DUP7 DUP2 ADD MLOAD PUSH2 0x1E0 DUP9 DUP7 ADD DUP2 SWAP1 MSTORE SWAP1 PUSH2 0x1C80 DUP3 DUP8 ADD DUP3 PUSH2 0x1B98 JUMP JUMPDEST SWAP2 POP POP PUSH1 0x60 DUP1 DUP4 ADD MLOAD DUP7 DUP4 SUB DUP3 DUP9 ADD MSTORE PUSH2 0x1C9A DUP4 DUP3 PUSH2 0x1B98 JUMP JUMPDEST PUSH1 0x80 SWAP5 DUP6 ADD MLOAD DUP1 MLOAD ISZERO ISZERO DUP10 DUP8 ADD MSTORE DUP13 DUP2 ADD MLOAD ISZERO ISZERO PUSH1 0xA0 DUP11 ADD MSTORE DUP12 DUP2 ADD MLOAD PUSH2 0xFFFF AND PUSH1 0xC0 DUP11 ADD MSTORE SWAP3 DUP4 ADD MLOAD PUSH1 0xE0 DUP10 ADD MSTORE SWAP2 SWAP1 SWAP4 ADD MLOAD SWAP3 POP SWAP1 POP PUSH2 0x1CE0 PUSH2 0x100 DUP7 ADD DUP4 PUSH2 0x1BC4 JUMP JUMPDEST SWAP6 DUP9 ADD SWAP6 SWAP4 POP POP SWAP1 DUP7 ADD SWAP1 PUSH1 0x1 ADD PUSH2 0x1C3B JUMP JUMPDEST POP SWAP1 SWAP9 SWAP8 POP POP POP POP POP POP POP POP JUMP JUMPDEST DUP6 ISZERO ISZERO DUP2 MSTORE DUP5 ISZERO ISZERO PUSH1 0x20 DUP3 ADD MSTORE PUSH2 0xFFFF DUP5 AND PUSH1 0x40 DUP3 ADD MSTORE PUSH1 0x60 DUP2 ADD DUP4 SWAP1 MSTORE PUSH2 0x160 DUP2 ADD PUSH2 0x1D31 PUSH1 0x80 DUP4 ADD DUP5 PUSH2 0x1BC4 JUMP JUMPDEST SWAP7 SWAP6 POP POP POP POP POP POP JUMP JUMPDEST PUSH4 0x4E487B71 PUSH1 0xE0 SHL PUSH1 0x0 MSTORE PUSH1 0x11 PUSH1 0x4 MSTORE PUSH1 0x24 PUSH1 0x0 REVERT JUMPDEST PUSH1 0x0 DUP2 PUSH1 0x0 NOT DIV DUP4 GT DUP3 ISZERO ISZERO AND ISZERO PUSH2 0x1D6B JUMPI PUSH2 0x1D6B PUSH2 0x1D3B JUMP JUMPDEST POP MUL SWAP1 JUMP JUMPDEST PUSH1 0x0 DUP3 PUSH2 0x1D8D JUMPI PUSH4 0x4E487B71 PUSH1 0xE0 SHL PUSH1 0x0 MSTORE PUSH1 0x12 PUSH1 0x4 MSTORE PUSH1 0x24 PUSH1 0x0 REVERT JUMPDEST POP DIV SWAP1 JUMP JUMPDEST PUSH4 0x4E487B71 PUSH1 0xE0 SHL PUSH1 0x0 MSTORE PUSH1 0x41 PUSH1 0x4 MSTORE PUSH1 0x24 PUSH1 0x0 REVERT JUMPDEST PUSH4 0x4E487B71 PUSH1 0xE0 SHL PUSH1 0x0 MSTORE PUSH1 0x32 PUSH1 0x4 MSTORE PUSH1 0x24 PUSH1 0x0 REVERT JUMPDEST PUSH1 0x0 PUSH1 0xFF DUP3 AND PUSH1 0xFF DUP2 EQ ISZERO PUSH2 0x1DD5 JUMPI PUSH2 0x1DD5 PUSH2 0x1D3B JUMP JUMPDEST PUSH1 0x1 ADD SWAP3 SWAP2 POP POP JUMP JUMPDEST PUSH1 0x0 PUSH2 0xFFFF DUP1 DUP4 AND DUP2 DUP6 AND DUP1 DUP4 SUB DUP3 GT ISZERO PUSH2 0x1DFB JUMPI PUSH2 0x1DFB PUSH2 0x1D3B JUMP JUMPDEST ADD SWAP5 SWAP4 POP POP POP POP JUMP JUMPDEST PUSH1 0x0 PUSH1 0x20 DUP3 DUP5 SUB SLT ISZERO PUSH2 0x1E16 JUMPI PUSH1 0x0 DUP1 REVERT JUMPDEST DUP2 MLOAD PUSH1 0xFF DUP2 AND DUP2 EQ PUSH2 0x6C5 JUMPI PUSH1 0x0 DUP1 REVERT JUMPDEST PUSH1 0x0 PUSH1 0x20 DUP3 DUP5 SUB SLT ISZERO PUSH2 0x1E39 JUMPI PUSH1 0x0 DUP1 REVERT JUMPDEST DUP2 MLOAD PUSH8 0xFFFFFFFFFFFFFFFF DUP1 DUP3 GT ISZERO PUSH2 0x1E51 JUMPI PUSH1 0x0 DUP1 REVERT JUMPDEST DUP2 DUP5 ADD SWAP2 POP DUP5 PUSH1 0x1F DUP4 ADD SLT PUSH2 0x1E65 JUMPI PUSH1 0x0 DUP1 REVERT JUMPDEST DUP2 MLOAD DUP2 DUP2 GT ISZERO PUSH2 0x1E77 JUMPI PUSH2 0x1E77 PUSH2 0x1D92 JUMP JUMPDEST PUSH1 0x40 MLOAD PUSH1 0x1F DUP3 ADD PUSH1 0x1F NOT SWAP1 DUP2 AND PUSH1 0x3F ADD AND DUP2 ADD SWAP1 DUP4 DUP3 GT DUP2 DUP4 LT OR ISZERO PUSH2 0x1E9F JUMPI PUSH2 0x1E9F PUSH2 0x1D92 JUMP JUMPDEST DUP2 PUSH1 0x40 MSTORE DUP3 DUP2 MSTORE DUP8 PUSH1 0x20 DUP5 DUP8 ADD ADD GT ISZERO PUSH2 0x1EB8 JUMPI PUSH1 0x0 DUP1 REVERT JUMPDEST PUSH2 0x180C DUP4 PUSH1 0x20 DUP4 ADD PUSH1 0x20 DUP9 ADD PUSH2 0x1B6C JUMP JUMPDEST PUSH1 0x0 PUSH1 0xFF DUP3 AND PUSH1 0xFF DUP5 AND DUP1 PUSH1 0xFF SUB DUP3 GT ISZERO PUSH2 0x1EE6 JUMPI PUSH2 0x1EE6 PUSH2 0x1D3B JUMP JUMPDEST ADD SWAP4 SWAP3 POP POP POP JUMP JUMPDEST PUSH1 0x0 PUSH1 0x20 DUP3 DUP5 SUB SLT ISZERO PUSH2 0x1F00 JUMPI PUSH1 0x0 DUP1 REVERT JUMPDEST POP MLOAD SWAP2 SWAP1 POP JUMP JUMPDEST PUSH1 0x0 DUP3 DUP3 LT ISZERO PUSH2 0x1F19 JUMPI PUSH2 0x1F19 PUSH2 0x1D3B JUMP JUMPDEST POP SUB SWAP1 JUMP JUMPDEST PUSH1 0x0 DUP3 NOT DUP3 GT ISZERO PUSH2 0x1F31 JUMPI PUSH2 0x1F31 PUSH2 0x1D3B JUMP JUMPDEST POP ADD SWAP1 JUMP JUMPDEST PUSH1 0x0 PUSH1 0x20 DUP3 DUP5 SUB SLT ISZERO PUSH2 0x1F48 JUMPI PUSH1 0x0 DUP1 REVERT JUMPDEST DUP2 MLOAD PUSH2 0x6C5 DUP2 PUSH2 0x1ABE JUMP JUMPDEST PUSH1 0x0 DUP3 MLOAD PUSH2 0x1F65 DUP2 DUP5 PUSH1 0x20 DUP8 ADD PUSH2 0x1B6C JUMP JUMPDEST SWAP2 SWAP1 SWAP2 ADD SWAP3 SWAP2 POP POP JUMP JUMPDEST PUSH1 0x20 DUP2 MSTORE PUSH1 0x0 PUSH2 0x6C5 PUSH1 0x20 DUP4 ADD DUP5 PUSH2 0x1B98 JUMP INVALID LOG2 PUSH5 0x6970667358 0x22 SLT KECCAK256 0xB7 0xCC SELFBALANCE BYTE 0xDB MULMOD 0xF 0xD8 MUL 0x5C MSTORE DUP8 0x29 0xE4 0xE7 0xD1 PUSH9 0xF0962CBCC83BB66910 0xDF 0xD6 PUSH15 0xC8FCA264736F6C634300080C003300 "},"gasEstimates":{"creation":{"codeDepositCost":"1624000","executionCost":"infinite","totalCost":"infinite"},"external":{"accountFees(address,uint256)":"infinite","addToken(address)":"infinite","cashIn(address,uint256)":"infinite","deposit(address,uint256)":"infinite","getBalance(address)":"infinite","getDividends()":"infinite","getMaxBetAmount(address,uint256)":"infinite","getMinBetAmount(address)":"2684","getTokens()":"infinite","harvestDividends()":"infinite","isAllowedToken(address)":"infinite","payout(address,address,uint256,uint256)":"infinite","setAllowedToken(address,bool)":"infinite","setBalanceRisk(address,uint16)":"26253","setHouseEdgeSplit(address,uint16,uint16,uint16,uint16)":"infinite","setTeamWallet(address)":"25728","setTokenMinBetAmount(address,uint256)":"24002","teamWallet()":"2437","tokens(address)":"13769","treasury()":"infinite","withdraw(address,uint256)":"infinite","withdrawHouseEdgeAmount(address)":"infinite"},"internal":{"_allocateHouseEdge(address,uint256)":"infinite","_isGasToken(address)":"infinite","_safeTransfer(address,address,uint256)":"infinite"}},"methodIdentifiers":{"accountFees(address,uint256)":"ca7a8769","addToken(address)":"d48bfca7","cashIn(address,uint256)":"3138809d","deposit(address,uint256)":"47e7ef24","getBalance(address)":"f8b2cb4f","getDividends()":"ed442e14","getMaxBetAmount(address,uint256)":"278b39de","getMinBetAmount(address)":"f6b2a2f1","getTokens()":"aa6ca808","harvestDividends()":"802ad8fb","isAllowedToken(address)":"cbe230c3","payout(address,address,uint256,uint256)":"1f615023","setAllowedToken(address,bool)":"8aaa2284","setBalanceRisk(address,uint16)":"56f0406d","setHouseEdgeSplit(address,uint16,uint16,uint16,uint16)":"a7fd00f0","setTeamWallet(address)":"1525ff7d","setTokenMinBetAmount(address,uint256)":"4297dcbe","teamWallet()":"59927044","tokens(address)":"e4860339","treasury()":"61d027b3","withdraw(address,uint256)":"f3fef3a3","withdrawHouseEdgeAmount(address)":"0ae30cb0"}},"storageLayout":{"storage":[{"astId":3874,"contract":"contracts/BankV2.sol:BankV2","label":"_tokensCount","offset":0,"slot":"0","type":"t_uint8"},{"astId":3880,"contract":"contracts/BankV2.sol:BankV2","label":"teamWallet","offset":1,"slot":"0","type":"t_address"},{"astId":3886,"contract":"contracts/BankV2.sol:BankV2","label":"tokens","offset":0,"slot":"1","type":"t_mapping(t_address,t_struct(Token)3859_storage)"},{"astId":3891,"contract":"contracts/BankV2.sol:BankV2","label":"_tokensList","offset":0,"slot":"2","type":"t_mapping(t_uint8,t_address)"}],"types":{"t_address":{"encoding":"inplace","label":"address","numberOfBytes":"20"},"t_bool":{"encoding":"inplace","label":"bool","numberOfBytes":"1"},"t_mapping(t_address,t_struct(Token)3859_storage)":{"encoding":"mapping","key":"t_address","label":"mapping(address => struct BankV2.Token)","numberOfBytes":"32","value":"t_struct(Token)3859_storage"},"t_mapping(t_uint8,t_address)":{"encoding":"mapping","key":"t_uint8","label":"mapping(uint8 => address)","numberOfBytes":"32","value":"t_address"},"t_struct(HouseEdgeSplit)3847_storage":{"encoding":"inplace","label":"struct BankV2.HouseEdgeSplit","members":[{"astId":3834,"contract":"contracts/BankV2.sol:BankV2","label":"bank","offset":0,"slot":"0","type":"t_uint16"},{"astId":3836,"contract":"contracts/BankV2.sol:BankV2","label":"dividend","offset":2,"slot":"0","type":"t_uint16"},{"astId":3838,"contract":"contracts/BankV2.sol:BankV2","label":"treasury","offset":4,"slot":"0","type":"t_uint16"},{"astId":3840,"contract":"contracts/BankV2.sol:BankV2","label":"team","offset":6,"slot":"0","type":"t_uint16"},{"astId":3842,"contract":"contracts/BankV2.sol:BankV2","label":"dividendAmount","offset":0,"slot":"1","type":"t_uint256"},{"astId":3844,"contract":"contracts/BankV2.sol:BankV2","label":"treasuryAmount","offset":0,"slot":"2","type":"t_uint256"},{"astId":3846,"contract":"contracts/BankV2.sol:BankV2","label":"teamAmount","offset":0,"slot":"3","type":"t_uint256"}],"numberOfBytes":"128"},"t_struct(Token)3859_storage":{"encoding":"inplace","label":"struct BankV2.Token","members":[{"astId":3849,"contract":"contracts/BankV2.sol:BankV2","label":"allowed","offset":0,"slot":"0","type":"t_bool"},{"astId":3851,"contract":"contracts/BankV2.sol:BankV2","label":"paused","offset":1,"slot":"0","type":"t_bool"},{"astId":3853,"contract":"contracts/BankV2.sol:BankV2","label":"balanceRisk","offset":2,"slot":"0","type":"t_uint16"},{"astId":3855,"contract":"contracts/BankV2.sol:BankV2","label":"minBetAmount","offset":0,"slot":"1","type":"t_uint256"},{"astId":3858,"contract":"contracts/BankV2.sol:BankV2","label":"houseEdgeSplit","offset":0,"slot":"2","type":"t_struct(HouseEdgeSplit)3847_storage"}],"numberOfBytes":"192"},"t_uint16":{"encoding":"inplace","label":"uint16","numberOfBytes":"2"},"t_uint256":{"encoding":"inplace","label":"uint256","numberOfBytes":"32"},"t_uint8":{"encoding":"inplace","label":"uint8","numberOfBytes":"1"}}},"userdoc":{"errors":{"AccessDenied()":[{"notice":"Reverting error when sender isn't allowed."}],"TokenExists()":[{"notice":"Reverting error when trying to add an existing token."}],"TokenHasPendingBets()":[{"notice":"Reverting error when token has pending bets on a game."}],"TokenNotPaused()":[{"notice":"Reverting error when withdrawing a non paused token."}],"WrongAddress()":[{"notice":"Reverting error when team wallet or treasury is the zero address."}],"WrongHouseEdgeSplit(uint16)":[{"notice":"Reverting error when setting the house edge allocations, but the sum isn't 100%."}]},"events":{"AccountFees(address,uint256,uint256)":{"notice":"Emitted after the game's fees are sent to the bank."},"AddToken(address)":{"notice":"Emitted after a token is added."},"AllocateHouseEdgeAmount(address,uint256,uint256,uint256,uint256)":{"notice":"Emitted after the token's house edge is allocated."},"CashIn(address,uint256,uint256)":{"notice":"Emitted after the bet amount is collected from the game smart contract."},"Deposit(address,uint256)":{"notice":"Emitted after a token deposit."},"HarvestDividend(address,uint256)":{"notice":"Emitted after the token's dividend allocation is distributed."},"HouseEdgeDistribution(address,uint256,uint256)":{"notice":"Emitted after the token's treasury and team allocations are distributed."},"Payout(address,uint256,uint256)":{"notice":"Emitted after the bet profit amount is sent to the user."},"SetAllowedToken(address,bool)":{"notice":"Emitted after a token is allowed."},"SetBalanceRisk(address,uint16)":{"notice":"Emitted after the balance risk is set."},"SetTeamWallet(address)":{"notice":"Emitted after the team wallet is set."},"SetTokenMinBetAmount(address,uint256)":{"notice":"Emitted after the minimum bet amount is set for a token."},"Withdraw(address,uint256)":{"notice":"Emitted after a token withdrawal."}},"kind":"user","methods":{"accountFees(address,uint256)":{"notice":"Receive game's fees."},"addToken(address)":{"notice":"Adds a new token that'll be enabled for the games' betting. Token shouldn't exist yet."},"cashIn(address,uint256)":{"notice":"Accounts a loss bet."},"constructor":{"notice":"Initialize the contract's admin role to the deployer, and state variables."},"deposit(address,uint256)":{"notice":"Deposit funds in the bank to allow gamers to win more. ERC20 token allowance should be given prior to deposit."},"getBalance(address)":{"notice":"Gets the token's balance. The token's house edge allocation amounts are subtracted from the balance."},"getDividends()":{"notice":"Get the available tokens dividends amounts."},"getMaxBetAmount(address,uint256)":{"notice":"Calculates the max bet amount based on the token balance, the balance risk, and the game multiplier."},"getMinBetAmount(address)":{"notice":"Gets the token's min bet amount."},"harvestDividends()":{"notice":"Harvests tokens dividends."},"isAllowedToken(address)":{"notice":"Gets the token's allow status used on the games smart contracts."},"payout(address,address,uint256,uint256)":{"notice":"Payouts a winning bet, and allocate the house edge fee."},"setAllowedToken(address,bool)":{"notice":"Changes the token's bet permission."},"setBalanceRisk(address,uint16)":{"notice":"Sets the new token balance risk."},"setHouseEdgeSplit(address,uint16,uint16,uint16,uint16)":{"notice":"Sets the token's house edge allocations for bet payout."},"setTeamWallet(address)":{"notice":"Sets the new team wallet."},"setTokenMinBetAmount(address,uint256)":{"notice":"Sets the minimum bet amount for a specific token."},"teamWallet()":{"notice":"Team wallet."},"tokens(address)":{"notice":"Maps tokens addresses to token configuration."},"treasury()":{"notice":"Treasury multi-sig wallet."},"withdraw(address,uint256)":{"notice":"Withdraw funds from the bank. Token has to be paused and no pending bet resolution on games."},"withdrawHouseEdgeAmount(address)":{"notice":"Distributes the token's treasury and team allocations amounts."}},"version":1}}}}