{"contracts/CoinToss.sol":{"CoinTossV5":{"abi":[{"inputs":[{"internalType":"uint64","name":"subscriptionId","type":"uint64"},{"internalType":"address","name":"bankAddress","type":"address"}],"stateMutability":"nonpayable","type":"constructor"},{"inputs":[],"name":"AccessDenied","type":"error"},{"inputs":[],"name":"ExcessiveHouseEdge","type":"error"},{"inputs":[],"name":"ForbiddenToken","type":"error"},{"inputs":[],"name":"InvalidAddress","type":"error"},{"inputs":[],"name":"NotFulfilled","type":"error"},{"inputs":[],"name":"NotPendingBet","type":"error"},{"inputs":[{"internalType":"address","name":"have","type":"address"},{"internalType":"address","name":"want","type":"address"}],"name":"OnlyCoordinatorCanFulfill","type":"error"},{"inputs":[],"name":"TokenHasPendingBets","type":"error"},{"inputs":[{"internalType":"uint256","name":"minBetAmount","type":"uint256"}],"name":"UnderMinBetAmount","type":"error"},{"inputs":[],"name":"WrongGasValueToCoverFee","type":"error"},{"anonymous":false,"inputs":[{"indexed":false,"internalType":"uint256","name":"id","type":"uint256"},{"indexed":false,"internalType":"address","name":"user","type":"address"},{"indexed":false,"internalType":"uint256","name":"amount","type":"uint256"},{"indexed":false,"internalType":"uint256","name":"chainlinkVRFCost","type":"uint256"}],"name":"BetRefunded","type":"event"},{"anonymous":false,"inputs":[{"indexed":true,"internalType":"address","name":"previousOwner","type":"address"},{"indexed":true,"internalType":"address","name":"newOwner","type":"address"}],"name":"OwnershipTransferred","type":"event"},{"anonymous":false,"inputs":[{"indexed":false,"internalType":"address","name":"account","type":"address"}],"name":"Paused","type":"event"},{"anonymous":false,"inputs":[{"indexed":false,"internalType":"uint256","name":"id","type":"uint256"},{"indexed":true,"internalType":"address","name":"user","type":"address"},{"indexed":true,"internalType":"address","name":"token","type":"address"},{"indexed":false,"internalType":"uint256","name":"amount","type":"uint256"},{"indexed":false,"internalType":"bool","name":"face","type":"bool"}],"name":"PlaceBet","type":"event"},{"anonymous":false,"inputs":[{"indexed":false,"internalType":"uint256","name":"id","type":"uint256"},{"indexed":true,"internalType":"address","name":"user","type":"address"},{"indexed":true,"internalType":"address","name":"token","type":"address"},{"indexed":false,"internalType":"uint256","name":"amount","type":"uint256"},{"indexed":false,"internalType":"bool","name":"face","type":"bool"},{"indexed":false,"internalType":"bool","name":"rolled","type":"bool"}],"name":"Roll","type":"event"},{"anonymous":false,"inputs":[{"indexed":false,"internalType":"address","name":"bank","type":"address"}],"name":"SetBank","type":"event"},{"anonymous":false,"inputs":[{"indexed":true,"internalType":"address","name":"token","type":"address"},{"indexed":false,"internalType":"uint16","name":"houseEdge","type":"uint16"}],"name":"SetHouseEdge","type":"event"},{"anonymous":false,"inputs":[{"indexed":false,"internalType":"address","name":"account","type":"address"}],"name":"Unpaused","type":"event"},{"inputs":[],"name":"bank","outputs":[{"internalType":"contract IBankV2","name":"","type":"address"}],"stateMutability":"view","type":"function"},{"inputs":[{"internalType":"uint256","name":"","type":"uint256"}],"name":"bets","outputs":[{"internalType":"bool","name":"resolved","type":"bool"},{"internalType":"address payable","name":"user","type":"address"},{"internalType":"address","name":"token","type":"address"},{"internalType":"uint256","name":"id","type":"uint256"},{"internalType":"uint256","name":"amount","type":"uint256"},{"internalType":"uint256","name":"blockTime","type":"uint256"},{"internalType":"bool","name":"betStatus","type":"bool"}],"stateMutability":"view","type":"function"},{"inputs":[{"internalType":"uint256","name":"","type":"uint256"}],"name":"coinTossBets","outputs":[{"internalType":"bool","name":"face","type":"bool"},{"internalType":"bool","name":"rolled","type":"bool"}],"stateMutability":"view","type":"function"},{"inputs":[],"name":"getBalance","outputs":[{"internalType":"uint256","name":"","type":"uint256"}],"stateMutability":"view","type":"function"},{"inputs":[{"internalType":"uint256","name":"id","type":"uint256"}],"name":"getBetData","outputs":[{"components":[{"internalType":"bool","name":"resolved","type":"bool"},{"internalType":"address payable","name":"user","type":"address"},{"internalType":"address","name":"token","type":"address"},{"internalType":"uint256","name":"id","type":"uint256"},{"internalType":"uint256","name":"amount","type":"uint256"},{"internalType":"uint256","name":"blockTime","type":"uint256"},{"internalType":"bool","name":"betStatus","type":"bool"}],"internalType":"struct CoinTossV5.Bet","name":"betData","type":"tuple"}],"stateMutability":"view","type":"function"},{"inputs":[{"internalType":"uint256","name":"id","type":"uint256"}],"name":"getBetStatus","outputs":[{"internalType":"bool","name":"status","type":"bool"}],"stateMutability":"view","type":"function"},{"inputs":[{"internalType":"address","name":"user","type":"address"},{"internalType":"uint256","name":"dataLength","type":"uint256"}],"name":"getLastUserBets","outputs":[{"components":[{"components":[{"internalType":"bool","name":"resolved","type":"bool"},{"internalType":"address payable","name":"user","type":"address"},{"internalType":"address","name":"token","type":"address"},{"internalType":"uint256","name":"id","type":"uint256"},{"internalType":"uint256","name":"amount","type":"uint256"},{"internalType":"uint256","name":"blockTime","type":"uint256"},{"internalType":"bool","name":"betStatus","type":"bool"}],"internalType":"struct CoinTossV5.Bet","name":"bet","type":"tuple"},{"components":[{"internalType":"bool","name":"face","type":"bool"},{"internalType":"bool","name":"rolled","type":"bool"}],"internalType":"struct CoinTossV5.CoinTossBet","name":"coinTossBet","type":"tuple"}],"internalType":"struct CoinTossV5.FullCoinTossBet[]","name":"","type":"tuple[]"}],"stateMutability":"view","type":"function"},{"inputs":[{"internalType":"address","name":"token","type":"address"}],"name":"getTokenBalance","outputs":[{"internalType":"uint256","name":"","type":"uint256"}],"stateMutability":"view","type":"function"},{"inputs":[{"internalType":"address","name":"token","type":"address"}],"name":"hasPendingBets","outputs":[{"internalType":"bool","name":"","type":"bool"}],"stateMutability":"view","type":"function"},{"inputs":[{"internalType":"bytes[]","name":"data","type":"bytes[]"}],"name":"multicall","outputs":[{"internalType":"bytes[]","name":"results","type":"bytes[]"}],"stateMutability":"nonpayable","type":"function"},{"inputs":[],"name":"multiplier","outputs":[{"internalType":"uint256","name":"","type":"uint256"}],"stateMutability":"view","type":"function"},{"inputs":[],"name":"owner","outputs":[{"internalType":"address","name":"","type":"address"}],"stateMutability":"view","type":"function"},{"inputs":[],"name":"pause","outputs":[],"stateMutability":"nonpayable","type":"function"},{"inputs":[],"name":"paused","outputs":[{"internalType":"bool","name":"","type":"bool"}],"stateMutability":"view","type":"function"},{"inputs":[{"internalType":"uint256","name":"requestId","type":"uint256"},{"internalType":"uint256[]","name":"randomWords","type":"uint256[]"}],"name":"rawFulfillRandomWords","outputs":[],"stateMutability":"nonpayable","type":"function"},{"inputs":[{"internalType":"uint256","name":"id","type":"uint256"}],"name":"refundBet","outputs":[],"stateMutability":"nonpayable","type":"function"},{"inputs":[],"name":"renounceOwnership","outputs":[],"stateMutability":"nonpayable","type":"function"},{"inputs":[],"name":"s_owner","outputs":[{"internalType":"address","name":"","type":"address"}],"stateMutability":"view","type":"function"},{"inputs":[],"name":"s_randomWords","outputs":[{"internalType":"uint256","name":"","type":"uint256"}],"stateMutability":"view","type":"function"},{"inputs":[],"name":"s_requestId","outputs":[{"internalType":"uint256","name":"","type":"uint256"}],"stateMutability":"view","type":"function"},{"inputs":[{"internalType":"contract IBankV2","name":"_bank","type":"address"}],"name":"setBank","outputs":[],"stateMutability":"nonpayable","type":"function"},{"inputs":[{"internalType":"address","name":"token","type":"address"},{"internalType":"uint16","name":"houseEdge","type":"uint16"}],"name":"setHouseEdge","outputs":[],"stateMutability":"nonpayable","type":"function"},{"inputs":[{"internalType":"address","name":"","type":"address"}],"name":"tokens","outputs":[{"internalType":"uint16","name":"houseEdge","type":"uint16"},{"internalType":"uint64","name":"pendingCount","type":"uint64"}],"stateMutability":"view","type":"function"},{"inputs":[{"internalType":"address","name":"newOwner","type":"address"}],"name":"transferOwnership","outputs":[],"stateMutability":"nonpayable","type":"function"},{"inputs":[{"internalType":"uint256","name":"amount","type":"uint256"}],"name":"updateMultiplier","outputs":[],"stateMutability":"nonpayable","type":"function"},{"inputs":[{"internalType":"bool","name":"face","type":"bool"},{"internalType":"address","name":"token","type":"address"},{"internalType":"uint256","name":"tokenAmount","type":"uint256"}],"name":"wager","outputs":[],"stateMutability":"payable","type":"function"}],"devdoc":{"errors":{"UnderMinBetAmount(uint256)":[{"params":{"minBetAmount":"Bet amount."}}]},"events":{"BetRefunded(uint256,address,uint256,uint256)":{"params":{"amount":"Number of tokens refunded.","chainlinkVRFCost":"The Chainlink VRF cost refunded to player.","id":"The bet ID.","user":"Address of the gamer."}},"PlaceBet(uint256,address,address,uint256,bool)":{"params":{"amount":"The bet amount.","face":"The chosen coin face.","id":"The bet ID.","token":"Address of the token.","user":"Address of the gamer."}},"Roll(uint256,address,address,uint256,bool,bool)":{"params":{"amount":"The bet amount.","face":"The chosen coin face.","id":"The bet ID.","rolled":"The rolled coin face.","token":"Address of the token.","user":"Address of the gamer."}},"SetBank(address)":{"params":{"bank":"Address of the bank contract."}},"SetHouseEdge(address,uint16)":{"params":{"houseEdge":"House edge rate.","token":"Address of the token."}}},"kind":"dev","methods":{"getLastUserBets(address,uint256)":{"params":{"dataLength":"The amount of bets to return.","user":"Address of the gamer."},"returns":{"_0":"A list of Coin Toss bet."}},"getTokenBalance(address)":{"params":{"token":"Address of the token."},"returns":{"_0":"The amount of token available for profits."}},"hasPendingBets(address)":{"returns":{"_0":"Whether the token has pending bets."}},"multicall(bytes[])":{"custom:oz-upgrades-unsafe-allow-reachable":"delegatecall","details":"Receives and executes a batch of function calls on this contract."},"owner()":{"details":"Returns the address of the current owner."},"paused()":{"details":"Returns true if the contract is paused, and false otherwise."},"refundBet(uint256)":{"params":{"id":"The Bet ID."}},"renounceOwnership()":{"details":"Leaves the contract without owner. It will not be possible to call `onlyOwner` functions. Can only be called by the current owner. NOTE: Renouncing ownership will leave the contract without an owner, thereby disabling any functionality that is only available to the owner."},"setBank(address)":{"params":{"_bank":"Address of the Bank contract."}},"setHouseEdge(address,uint16)":{"details":"The house edge rate couldn't exceed 4%.","params":{"houseEdge":"House edge rate.","token":"Address of the token."}},"transferOwnership(address)":{"details":"Transfers ownership of the contract to a new account (`newOwner`). Can only be called by the current owner."},"wager(bool,address,uint256)":{"params":{"face":"The chosen color number from the struct .","token":"Address of the token.","tokenAmount":"The number of tokens bet."}}},"stateVariables":{"coinTossBets":{"details":"Coin faces: true = Tails, false = Heads."}},"version":1},"evm":{"bytecode":{"linkReferences":{},"object":"60a0604052600480546001600160a01b03191673bd13f08b8352a3635218ab9418e340c60d6eb4181790557f121a143066e0f2f08b620784af77cccb35c6242460b4a8ee251b4b416abaebd4600555600680546602000300030d406001600160501b03199091161790556003600e553480156200007b57600080fd5b506040516200258f3803806200258f8339810160408190526200009e916200023d565b6004546001600160a01b0316608052620000b8336200012e565b6000805460ff60a01b1916905560018055600454600380546001600160a01b039092166001600160a01b03199283161790556009805433921691909117905560028054600160a01b600160e01b031916600160a01b6001600160401b0385160217905562000126816200017e565b505062000292565b600080546001600160a01b038381166001600160a01b0319831681178455604051919092169283917f8be0079c531659141344cd1fd0a4f28419497f9722a3daafe3b4186f6b6457e09190a35050565b62000188620001dc565b600280546001600160a01b0319166001600160a01b0383169081179091556040519081527f10f5824683d64a0712038f2244e046b174a1cc57fbb8556bfda5ffb2612440679060200160405180910390a150565b6000546001600160a01b031633146200023b5760405162461bcd60e51b815260206004820181905260248201527f4f776e61626c653a2063616c6c6572206973206e6f7420746865206f776e6572604482015260640160405180910390fd5b565b600080604083850312156200025157600080fd5b82516001600160401b03811681146200026957600080fd5b60208401519092506001600160a01b03811681146200028757600080fd5b809150509250929050565b6080516122da620002b56000396000818161067401526106b601526122da6000f3fe6080604052600436106101815760003560e01c8063715018a6116100d1578063c2fb579f1161008a578063e397824011610064578063e397824014610553578063e486033914610573578063e89e106a146105d7578063f2fde38b146105ed57600080fd5b8063c2fb579f146104b6578063e051ece9146104e3578063e1fdb4b41461053357600080fd5b8063715018a6146103e957806376cdb03b146103fe57806378bcde22146104365780638456cb59146104565780638da5cb5b1461046b578063ac9650d81461048957600080fd5b80633aecd0e31161013e5780635bfe1630116101185780635bfe16301461034a5780635c975abb146103775780635ffe61461461039657806361f14f11146103b657600080fd5b80633aecd0e3146102c057806350462ea0146102e0578063594043fd146102f357600080fd5b8063090d23b91461018657806312065fe0146101a85780631b3ed722146101ca5780631d3c7b91146101e05780631fe543e3146101f657806322af00fa14610216575b600080fd5b34801561019257600080fd5b506101a66101a1366004611d01565b61060d565b005b3480156101b457600080fd5b50475b6040519081526020015b60405180910390f35b3480156101d657600080fd5b506101b7600e5481565b3480156101ec57600080fd5b506101b760075481565b34801561020257600080fd5b506101a6610211366004611d34565b610669565b34801561022257600080fd5b5061027b610231366004611dfd565b600b6020526000908152604090208054600182015460028301546003840154600485015460059095015460ff808616966101009096046001600160a01b0390811696951694911687565b6040805197151588526001600160a01b03968716602089015294909516938601939093526060850191909152608084015260a0830152151560c082015260e0016101c1565b3480156102cc57600080fd5b506101b76102db366004611d01565b6106f6565b6101a66102ee366004611e24565b61077e565b3480156102ff57600080fd5b5061033a61030e366004611d01565b6001600160a01b03166000908152600a60205260409020546201000090046001600160401b0316151590565b60405190151581526020016101c1565b34801561035657600080fd5b5061036a610365366004611dfd565b610827565b6040516101c19190611ebb565b34801561038357600080fd5b50600054600160a01b900460ff1661033a565b3480156103a257600080fd5b506101a66103b1366004611dfd565b6108a6565b3480156103c257600080fd5b5061033a6103d1366004611dfd565b6000908152600b602052604090206005015460ff1690565b3480156103f557600080fd5b506101a66108b3565b34801561040a57600080fd5b5060025461041e906001600160a01b031681565b6040516001600160a01b0390911681526020016101c1565b34801561044257600080fd5b506101a6610451366004611ec9565b6108c7565b34801561046257600080fd5b506101a661099e565b34801561047757600080fd5b506000546001600160a01b031661041e565b34801561049557600080fd5b506104a96104a4366004611f09565b6109c8565b6040516101c19190611fd5565b3480156104c257600080fd5b506104d66104d1366004612037565b610abd565b6040516101c19190612063565b3480156104ef57600080fd5b5061051c6104fe366004611dfd565b600d6020526000908152604090205460ff8082169161010090041682565b6040805192151583529015156020830152016101c1565b34801561053f57600080fd5b506101a661054e366004611dfd565b610bf0565b34801561055f57600080fd5b5060095461041e906001600160a01b031681565b34801561057f57600080fd5b506105b561058e366004611d01565b600a6020526000908152604090205461ffff8116906201000090046001600160401b031682565b6040805161ffff90931683526001600160401b039091166020830152016101c1565b3480156105e357600080fd5b506101b760085481565b3480156105f957600080fd5b506101a6610608366004611d01565b610d57565b610615610dcd565b600280546001600160a01b0319166001600160a01b0383169081179091556040519081527f10f5824683d64a0712038f2244e046b174a1cc57fbb8556bfda5ffb2612440679060200160405180910390a150565b336001600160a01b037f000000000000000000000000000000000000000000000000000000000000000016146106e85760405163073e64fd60e21b81523360048201526001600160a01b037f00000000000000000000000000000000000000000000000000000000000000001660248201526044015b60405180910390fd5b6106f28282610e27565b5050565b6000806001600160a01b03831661070f57504792915050565b6040516370a0823160e01b81523060048201526001600160a01b038416906370a0823190602401602060405180830381865afa158015610753573d6000803e3d6000fd5b505050506040513d601f19601f8201168201806040525081019061077791906120be565b9392505050565b61078661103f565b600061079d838361079861271061108c565b61109c565b606081810180516000908152600d6020908152604091829020805460ff19168a1515908117909155828601518287015194516080880151855191825293810193909352928201529394506001600160a01b03908116939116917f388b4fad58a4c74ad944d05888d8e83b64e28a3a71e0381a02c7d98440c63ac3910160405180910390a350505050565b61082f611c72565b506000908152600b6020908152604091829020825160e081018452815460ff808216151583526001600160a01b03610100909204821694830194909452600183015416938101939093526002810154606084015260038101546080840152600481015460a08401526005015416151560c082015290565b6108ae610dcd565b600e55565b6108bb610dcd565b6108c5600061152e565b565b6108cf610dcd565b6101908161ffff1611156108f657604051631c2d5dd360e21b815260040160405180910390fd5b6001600160a01b0382166000908152600a60205260409020546201000090046001600160401b03161561093c5760405163055212b760e51b815260040160405180910390fd5b6001600160a01b0382166000818152600a6020908152604091829020805461ffff191661ffff861690811790915591519182527f7dfd3ecb8ac83242184c019f85ca408558f2ac0a5a19af6be2a4aee697eac812910160405180910390a25050565b6109a6610dcd565b600054600160a01b900460ff16156109c0576108c561157e565b6108c56115d3565b6060816001600160401b038111156109e2576109e2611d1e565b604051908082528060200260200182016040528015610a1557816020015b6060815260200190600190039081610a005790505b50905060005b82811015610ab557610a8530858584818110610a3957610a396120d7565b9050602002810190610a4b91906120ed565b8080601f01602080910402602001604051908101604052809392919081815260200183838082843760009201919091525061161692505050565b828281518110610a9757610a976120d7565b60200260200101819052508080610aad90612150565b915050610a1b565b505b92915050565b60606000610acb848461163b565b9050600081516001600160401b03811115610ae857610ae8611d1e565b604051908082528060200260200182016040528015610b2157816020015b610b0e611cae565b815260200190600190039081610b065790505b50905060005b8251811015610be7576040518060400160405280848381518110610b4d57610b4d6120d7565b60200260200101518152602001600d6000868581518110610b7057610b706120d7565b60209081029190910181015160600151825281810192909252604090810160002081518083019092525460ff808216151583526101009091041615159181019190915290528251839083908110610bc957610bc96120d7565b60200260200101819052508080610bdf90612150565b915050610b27565b50949350505050565b610bf861180d565b6000818152600b60205260409020805460ff16151560011415610c2e576040516310d5f2bd60e11b815260040160405180910390fd5b6004810154610c3e90601e61216b565b421015610c5e576040516303de361f60e11b815260040160405180910390fd5b60018101546001600160a01b03166000908152600a6020526040902080546201000090046001600160401b0316816002610c9783612183565b82546001600160401b039182166101009390930a928302919092021990911617905550815460ff1916600190811783558201546001600160a01b0316610d1e57815460038301546040516101009092046001600160a01b0316916108fc82150291906000818181858888f19350505050158015610d18573d6000803e3d6000fd5b50610d49565b815460038301546001840154610d49926001600160a01b039182169261010090910490911690611867565b5050610d5460018055565b50565b610d5f610dcd565b6001600160a01b038116610dc45760405162461bcd60e51b815260206004820152602660248201527f4f776e61626c653a206e6577206f776e657220697320746865207a65726f206160448201526564647265737360d01b60648201526084016106df565b610d548161152e565b6000546001600160a01b031633146108c55760405162461bcd60e51b815260206004820181905260248201527f4f776e61626c653a2063616c6c6572206973206e6f7420746865206f776e657260448201526064016106df565b6000828152600d60209081526040808320600b909252822083519192909160029085908390610e5857610e586120d7565b6020026020010151610e6a91906121bc565b6040805180820190915260008082526001602083015291925090818360028110610e9657610e966120d7565b6020020151855461ff00198116610100831515908102918217895592935060ff91821691161715151415610fa9578354600160ff199182168117808755600587018054909316821790925585015460038601546001600160a01b03918216926101009004909116906000610f098261108c565b9050806000610f1886856118cf565b90506000610f2682846121d0565b600254604051631f61502360e01b81526001600160a01b0389811660048301528a811660248301526044820184905260648201869052929350911690631f61502390608401600060405180830381600087803b158015610f8557600080fd5b505af1158015610f99573d6000803e3d6000fd5b5050505050505050505050610fc2565b835460ff19908116600117855560058501805490911690555b6001840154845460028601546003870154885460408051938452602084019290925260ff161515828201528415156060830152516001600160a01b0393841693610100909304909216917f61a9f4ed6fa1d9a386035ef6d352d6e5ff07bd93eb58025400302b462eb9b0639181900360800190a350505050505050565b600054600160a01b900460ff16156108c55760405162461bcd60e51b815260206004820152601060248201526f14185d5cd8589b194e881c185d5cd95960821b60448201526064016106df565b6000600e5482610ab791906121e7565b6110a4611c72565b6110ac61103f565b6110b461180d565b6001600160a01b038481166000818152600a602052604090819020600254915163cbe230c360e01b8152600481019390935292169063cbe230c390602401602060405180830381865afa15801561110f573d6000803e3d6000fd5b505050506040513d601f19601f820116820180604052508101906111339190612206565b15806111425750805461ffff16155b156111605760405163c455905560e01b815260040160405180910390fd5b60025460405163f6b2a2f160e01b81526001600160a01b038781166004830181905233939015928892600092169063f6b2a2f190602401602060405180830381865afa1580156111b4573d6000803e3d6000fd5b505050506040513d601f19601f820116820180604052508101906111d891906120be565b9050808210156111fd576040516289563d60e21b8152600481018290526024016106df565b6002546040516313c59cef60e11b81526001600160a01b038b81166004830152602482018a9052600092169063278b39de90604401602060405180830381865afa15801561124f573d6000803e3d6000fd5b505050506040513d601f19601f8201168201806040525081019061127391906120be565b9050808311156112c85783156112c4576001600160a01b0385166108fc61129a83866121d0565b6040518115909202916000818181858888f193505050501580156112c2573d6000803e3d6000fd5b505b8092505b50506003546005546002546006546040516305d3b1d360e41b81526004810193909352600160a01b9091046001600160401b03166024830152640100000000810461ffff16604483015263ffffffff808216606484015266010000000000009091041660848201526001600160a01b0390911690635d3b1d309060a4016020604051808303816000875af1158015611364573d6000803e3d6000fd5b505050506040513d601f19601f8201168201806040525081019061138891906120be565b60088190555060006040518060e00160405280600015158152602001856001600160a01b031681526020018a6001600160a01b031681526020016008548152602001838152602001428152602001600015158152509050600c6000856001600160a01b03166001600160a01b03168152602001908152602001600020600854908060018154018082558091505060019003906000526020600020016000909190919091505580600b6000600854815260200190815260200160002060008201518160000160006101000a81548160ff02191690831515021790555060208201518160000160016101000a8154816001600160a01b0302191690836001600160a01b0316021790555060408201518160010160006101000a8154816001600160a01b0302191690836001600160a01b03160217905550606082015181600201556080820151816003015560a0820151816004015560c08201518160050160006101000a81548160ff0219169083151502179055509050508261151f5760025461151f906001600160a01b038b81169187911685611905565b94505050505061077760018055565b600080546001600160a01b038381166001600160a01b0319831681178455604051919092169283917f8be0079c531659141344cd1fd0a4f28419497f9722a3daafe3b4186f6b6457e09190a35050565b611586611943565b6000805460ff60a01b191690557f5db9ee0a495bf2e6ff9c91a7834c1ba4fdd244a5e8aa4e537bd38aeae4b073aa335b6040516001600160a01b03909116815260200160405180910390a1565b6115db61103f565b6000805460ff60a01b1916600160a01b1790557f62e78cea01bee320cd4e420270b5ea74000d11b0c9f74754ebdbfc544b05a2586115b63390565b6060610777838360405180606001604052806027815260200161227e60279139611993565b6001600160a01b0382166000908152600c6020908152604080832080548251818502810185019093528083526060949383018282801561169a57602002820191906000526020600020905b815481526020019060010190808311611686575b50508351939450505050838110156116b0578093505b6000846001600160401b038111156116ca576116ca611d1e565b60405190808252806020026020018201604052801561170357816020015b6116f0611c72565b8152602001906001900390816116e85790505b5090508415611804576000825b61171a87856121d0565b81111561180157600b6000866117316001856121d0565b81518110611741576117416120d7565b6020908102919091018101518252818101929092526040908101600020815160e081018352815460ff808216151583526001600160a01b03610100909204821695830195909552600183015416928101929092526002810154606083015260038101546080830152600481015460a083015260050154909116151560c082015283518490849081106117d5576117d56120d7565b602002602001018190525081806117eb90612150565b92505080806117f990612223565b915050611710565b50505b95945050505050565b600260015414156118605760405162461bcd60e51b815260206004820152601f60248201527f5265656e7472616e637947756172643a207265656e7472616e742063616c6c0060448201526064016106df565b6002600155565b6040516001600160a01b0383166024820152604481018290526118ca90849063a9059cbb60e01b906064015b60408051601f198184030181529190526020810180516001600160e01b03166001600160e01b031990931692909217909152611a0b565b505050565b6001600160a01b0382166000908152600a6020526040812054612710906118fb90849061ffff166121e7565b610777919061223a565b6040516001600160a01b038085166024830152831660448201526064810182905261193d9085906323b872dd60e01b90608401611893565b50505050565b600054600160a01b900460ff166108c55760405162461bcd60e51b815260206004820152601460248201527314185d5cd8589b194e881b9bdd081c185d5cd95960621b60448201526064016106df565b6060600080856001600160a01b0316856040516119b0919061224e565b600060405180830381855af49150503d80600081146119eb576040519150601f19603f3d011682016040523d82523d6000602084013e6119f0565b606091505b5091509150611a0186838387611ae0565b9695505050505050565b6000611a60826040518060400160405280602081526020017f5361666545524332303a206c6f772d6c6576656c2063616c6c206661696c6564815250856001600160a01b0316611b5e9092919063ffffffff16565b9050805160001480611a81575080806020019051810190611a819190612206565b6118ca5760405162461bcd60e51b815260206004820152602a60248201527f5361666545524332303a204552433230206f7065726174696f6e20646964206e6044820152691bdd081cdd58d8d9595960b21b60648201526084016106df565b60608315611b4c578251611b45576001600160a01b0385163b611b455760405162461bcd60e51b815260206004820152601d60248201527f416464726573733a2063616c6c20746f206e6f6e2d636f6e747261637400000060448201526064016106df565b5081611b56565b611b568383611b6d565b949350505050565b6060611b568484600085611b97565b815115611b7d5781518083602001fd5b8060405162461bcd60e51b81526004016106df919061226a565b606082471015611bf85760405162461bcd60e51b815260206004820152602660248201527f416464726573733a20696e73756666696369656e742062616c616e636520666f6044820152651c8818d85b1b60d21b60648201526084016106df565b600080866001600160a01b03168587604051611c14919061224e565b60006040518083038185875af1925050503d8060008114611c51576040519150601f19603f3d011682016040523d82523d6000602084013e611c56565b606091505b5091509150611c6787838387611ae0565b979650505050505050565b6040805160e081018252600080825260208201819052918101829052606081018290526080810182905260a0810182905260c081019190915290565b6040518060400160405280611cc1611c72565b8152602001611ce760405180604001604052806000151581526020016000151581525090565b905290565b6001600160a01b0381168114610d5457600080fd5b600060208284031215611d1357600080fd5b813561077781611cec565b634e487b7160e01b600052604160045260246000fd5b60008060408385031215611d4757600080fd5b823591506020808401356001600160401b0380821115611d6657600080fd5b818601915086601f830112611d7a57600080fd5b813581811115611d8c57611d8c611d1e565b8060051b604051601f19603f83011681018181108582111715611db157611db1611d1e565b604052918252848201925083810185019189831115611dcf57600080fd5b938501935b82851015611ded57843584529385019392850192611dd4565b8096505050505050509250929050565b600060208284031215611e0f57600080fd5b5035919050565b8015158114610d5457600080fd5b600080600060608486031215611e3957600080fd5b8335611e4481611e16565b92506020840135611e5481611cec565b929592945050506040919091013590565b805115158252602081015160018060a01b0380821660208501528060408401511660408501525050606081015160608301526080810151608083015260a081015160a083015260c0810151151560c08301525050565b60e08101610ab78284611e65565b60008060408385031215611edc57600080fd5b8235611ee781611cec565b9150602083013561ffff81168114611efe57600080fd5b809150509250929050565b60008060208385031215611f1c57600080fd5b82356001600160401b0380821115611f3357600080fd5b818501915085601f830112611f4757600080fd5b813581811115611f5657600080fd5b8660208260051b8501011115611f6b57600080fd5b60209290920196919550909350505050565b60005b83811015611f98578181015183820152602001611f80565b8381111561193d5750506000910152565b60008151808452611fc1816020860160208601611f7d565b601f01601f19169290920160200192915050565b6000602080830181845280855180835260408601915060408160051b870101925083870160005b8281101561202a57603f19888603018452612018858351611fa9565b94509285019290850190600101611ffc565b5092979650505050505050565b6000806040838503121561204a57600080fd5b823561205581611cec565b946020939093013593505050565b6020808252825182820181905260009190848201906040850190845b81811015611801578351612094848251611e65565b8501518051151560e08501528501511515610100840152928401926101209092019160010161207f565b6000602082840312156120d057600080fd5b5051919050565b634e487b7160e01b600052603260045260246000fd5b6000808335601e1984360301811261210457600080fd5b8301803591506001600160401b0382111561211e57600080fd5b60200191503681900382131561213357600080fd5b9250929050565b634e487b7160e01b600052601160045260246000fd5b60006000198214156121645761216461213a565b5060010190565b6000821982111561217e5761217e61213a565b500190565b60006001600160401b0382168061219c5761219c61213a565b6000190192915050565b634e487b7160e01b600052601260045260246000fd5b6000826121cb576121cb6121a6565b500690565b6000828210156121e2576121e261213a565b500390565b60008160001904831182151516156122015761220161213a565b500290565b60006020828403121561221857600080fd5b815161077781611e16565b6000816122325761223261213a565b506000190190565b600082612249576122496121a6565b500490565b60008251612260818460208701611f7d565b9190910192915050565b6020815260006107776020830184611fa956fe416464726573733a206c6f772d6c6576656c2064656c65676174652063616c6c206661696c6564a26469706673582212204fb91405c17bdb5ad62d8a106e09d7f765d0856ed1bc354f31e6eef2e925a02864736f6c634300080c0033","opcodes":"PUSH1 0xA0 PUSH1 0x40 MSTORE PUSH1 0x4 DUP1 SLOAD PUSH1 0x1 PUSH1 0x1 PUSH1 0xA0 SHL SUB NOT AND PUSH20 0xBD13F08B8352A3635218AB9418E340C60D6EB418 OR SWAP1 SSTORE PUSH32 0x121A143066E0F2F08B620784AF77CCCB35C6242460B4A8EE251B4B416ABAEBD4 PUSH1 0x5 SSTORE PUSH1 0x6 DUP1 SLOAD PUSH7 0x2000300030D40 PUSH1 0x1 PUSH1 0x1 PUSH1 0x50 SHL SUB NOT SWAP1 SWAP2 AND OR SWAP1 SSTORE PUSH1 0x3 PUSH1 0xE SSTORE CALLVALUE DUP1 ISZERO PUSH3 0x7B JUMPI PUSH1 0x0 DUP1 REVERT JUMPDEST POP PUSH1 0x40 MLOAD PUSH3 0x258F CODESIZE SUB DUP1 PUSH3 0x258F DUP4 CODECOPY DUP2 ADD PUSH1 0x40 DUP2 SWAP1 MSTORE PUSH3 0x9E SWAP2 PUSH3 0x23D JUMP JUMPDEST PUSH1 0x4 SLOAD PUSH1 0x1 PUSH1 0x1 PUSH1 0xA0 SHL SUB AND PUSH1 0x80 MSTORE PUSH3 0xB8 CALLER PUSH3 0x12E JUMP JUMPDEST PUSH1 0x0 DUP1 SLOAD PUSH1 0xFF PUSH1 0xA0 SHL NOT AND SWAP1 SSTORE PUSH1 0x1 DUP1 SSTORE PUSH1 0x4 SLOAD PUSH1 0x3 DUP1 SLOAD PUSH1 0x1 PUSH1 0x1 PUSH1 0xA0 SHL SUB SWAP1 SWAP3 AND PUSH1 0x1 PUSH1 0x1 PUSH1 0xA0 SHL SUB NOT SWAP3 DUP4 AND OR SWAP1 SSTORE PUSH1 0x9 DUP1 SLOAD CALLER SWAP3 AND SWAP2 SWAP1 SWAP2 OR SWAP1 SSTORE PUSH1 0x2 DUP1 SLOAD PUSH1 0x1 PUSH1 0xA0 SHL PUSH1 0x1 PUSH1 0xE0 SHL SUB NOT AND PUSH1 0x1 PUSH1 0xA0 SHL PUSH1 0x1 PUSH1 0x1 PUSH1 0x40 SHL SUB DUP6 AND MUL OR SWAP1 SSTORE PUSH3 0x126 DUP2 PUSH3 0x17E JUMP JUMPDEST POP POP PUSH3 0x292 JUMP JUMPDEST PUSH1 0x0 DUP1 SLOAD PUSH1 0x1 PUSH1 0x1 PUSH1 0xA0 SHL SUB DUP4 DUP2 AND PUSH1 0x1 PUSH1 0x1 PUSH1 0xA0 SHL SUB NOT DUP4 AND DUP2 OR DUP5 SSTORE PUSH1 0x40 MLOAD SWAP2 SWAP1 SWAP3 AND SWAP3 DUP4 SWAP2 PUSH32 0x8BE0079C531659141344CD1FD0A4F28419497F9722A3DAAFE3B4186F6B6457E0 SWAP2 SWAP1 LOG3 POP POP JUMP JUMPDEST PUSH3 0x188 PUSH3 0x1DC JUMP JUMPDEST PUSH1 0x2 DUP1 SLOAD PUSH1 0x1 PUSH1 0x1 PUSH1 0xA0 SHL SUB NOT AND PUSH1 0x1 PUSH1 0x1 PUSH1 0xA0 SHL SUB DUP4 AND SWAP1 DUP2 OR SWAP1 SWAP2 SSTORE PUSH1 0x40 MLOAD SWAP1 DUP2 MSTORE PUSH32 0x10F5824683D64A0712038F2244E046B174A1CC57FBB8556BFDA5FFB261244067 SWAP1 PUSH1 0x20 ADD PUSH1 0x40 MLOAD DUP1 SWAP2 SUB SWAP1 LOG1 POP JUMP JUMPDEST PUSH1 0x0 SLOAD PUSH1 0x1 PUSH1 0x1 PUSH1 0xA0 SHL SUB AND CALLER EQ PUSH3 0x23B JUMPI PUSH1 0x40 MLOAD PUSH3 0x461BCD PUSH1 0xE5 SHL DUP2 MSTORE PUSH1 0x20 PUSH1 0x4 DUP3 ADD DUP2 SWAP1 MSTORE PUSH1 0x24 DUP3 ADD MSTORE PUSH32 0x4F776E61626C653A2063616C6C6572206973206E6F7420746865206F776E6572 PUSH1 0x44 DUP3 ADD MSTORE PUSH1 0x64 ADD PUSH1 0x40 MLOAD DUP1 SWAP2 SUB SWAP1 REVERT JUMPDEST JUMP JUMPDEST PUSH1 0x0 DUP1 PUSH1 0x40 DUP4 DUP6 SUB SLT ISZERO PUSH3 0x251 JUMPI PUSH1 0x0 DUP1 REVERT JUMPDEST DUP3 MLOAD PUSH1 0x1 PUSH1 0x1 PUSH1 0x40 SHL SUB DUP2 AND DUP2 EQ PUSH3 0x269 JUMPI PUSH1 0x0 DUP1 REVERT JUMPDEST PUSH1 0x20 DUP5 ADD MLOAD SWAP1 SWAP3 POP PUSH1 0x1 PUSH1 0x1 PUSH1 0xA0 SHL SUB DUP2 AND DUP2 EQ PUSH3 0x287 JUMPI PUSH1 0x0 DUP1 REVERT JUMPDEST DUP1 SWAP2 POP POP SWAP3 POP SWAP3 SWAP1 POP JUMP JUMPDEST PUSH1 0x80 MLOAD PUSH2 0x22DA PUSH3 0x2B5 PUSH1 0x0 CODECOPY PUSH1 0x0 DUP2 DUP2 PUSH2 0x674 ADD MSTORE PUSH2 0x6B6 ADD MSTORE PUSH2 0x22DA PUSH1 0x0 RETURN INVALID PUSH1 0x80 PUSH1 0x40 MSTORE PUSH1 0x4 CALLDATASIZE LT PUSH2 0x181 JUMPI PUSH1 0x0 CALLDATALOAD PUSH1 0xE0 SHR DUP1 PUSH4 0x715018A6 GT PUSH2 0xD1 JUMPI DUP1 PUSH4 0xC2FB579F GT PUSH2 0x8A JUMPI DUP1 PUSH4 0xE3978240 GT PUSH2 0x64 JUMPI DUP1 PUSH4 0xE3978240 EQ PUSH2 0x553 JUMPI DUP1 PUSH4 0xE4860339 EQ PUSH2 0x573 JUMPI DUP1 PUSH4 0xE89E106A EQ PUSH2 0x5D7 JUMPI DUP1 PUSH4 0xF2FDE38B EQ PUSH2 0x5ED JUMPI PUSH1 0x0 DUP1 REVERT JUMPDEST DUP1 PUSH4 0xC2FB579F EQ PUSH2 0x4B6 JUMPI DUP1 PUSH4 0xE051ECE9 EQ PUSH2 0x4E3 JUMPI DUP1 PUSH4 0xE1FDB4B4 EQ PUSH2 0x533 JUMPI PUSH1 0x0 DUP1 REVERT JUMPDEST DUP1 PUSH4 0x715018A6 EQ PUSH2 0x3E9 JUMPI DUP1 PUSH4 0x76CDB03B EQ PUSH2 0x3FE JUMPI DUP1 PUSH4 0x78BCDE22 EQ PUSH2 0x436 JUMPI DUP1 PUSH4 0x8456CB59 EQ PUSH2 0x456 JUMPI DUP1 PUSH4 0x8DA5CB5B EQ PUSH2 0x46B JUMPI DUP1 PUSH4 0xAC9650D8 EQ PUSH2 0x489 JUMPI PUSH1 0x0 DUP1 REVERT JUMPDEST DUP1 PUSH4 0x3AECD0E3 GT PUSH2 0x13E JUMPI DUP1 PUSH4 0x5BFE1630 GT PUSH2 0x118 JUMPI DUP1 PUSH4 0x5BFE1630 EQ PUSH2 0x34A JUMPI DUP1 PUSH4 0x5C975ABB EQ PUSH2 0x377 JUMPI DUP1 PUSH4 0x5FFE6146 EQ PUSH2 0x396 JUMPI DUP1 PUSH4 0x61F14F11 EQ PUSH2 0x3B6 JUMPI PUSH1 0x0 DUP1 REVERT JUMPDEST DUP1 PUSH4 0x3AECD0E3 EQ PUSH2 0x2C0 JUMPI DUP1 PUSH4 0x50462EA0 EQ PUSH2 0x2E0 JUMPI DUP1 PUSH4 0x594043FD EQ PUSH2 0x2F3 JUMPI PUSH1 0x0 DUP1 REVERT JUMPDEST DUP1 PUSH4 0x90D23B9 EQ PUSH2 0x186 JUMPI DUP1 PUSH4 0x12065FE0 EQ PUSH2 0x1A8 JUMPI DUP1 PUSH4 0x1B3ED722 EQ PUSH2 0x1CA JUMPI DUP1 PUSH4 0x1D3C7B91 EQ PUSH2 0x1E0 JUMPI DUP1 PUSH4 0x1FE543E3 EQ PUSH2 0x1F6 JUMPI DUP1 PUSH4 0x22AF00FA EQ PUSH2 0x216 JUMPI JUMPDEST PUSH1 0x0 DUP1 REVERT JUMPDEST CALLVALUE DUP1 ISZERO PUSH2 0x192 JUMPI PUSH1 0x0 DUP1 REVERT JUMPDEST POP PUSH2 0x1A6 PUSH2 0x1A1 CALLDATASIZE PUSH1 0x4 PUSH2 0x1D01 JUMP JUMPDEST PUSH2 0x60D JUMP JUMPDEST STOP JUMPDEST CALLVALUE DUP1 ISZERO PUSH2 0x1B4 JUMPI PUSH1 0x0 DUP1 REVERT JUMPDEST POP SELFBALANCE JUMPDEST PUSH1 0x40 MLOAD SWAP1 DUP2 MSTORE PUSH1 0x20 ADD JUMPDEST PUSH1 0x40 MLOAD DUP1 SWAP2 SUB SWAP1 RETURN JUMPDEST CALLVALUE DUP1 ISZERO PUSH2 0x1D6 JUMPI PUSH1 0x0 DUP1 REVERT JUMPDEST POP PUSH2 0x1B7 PUSH1 0xE SLOAD DUP2 JUMP JUMPDEST CALLVALUE DUP1 ISZERO PUSH2 0x1EC JUMPI PUSH1 0x0 DUP1 REVERT JUMPDEST POP PUSH2 0x1B7 PUSH1 0x7 SLOAD DUP2 JUMP JUMPDEST CALLVALUE DUP1 ISZERO PUSH2 0x202 JUMPI PUSH1 0x0 DUP1 REVERT JUMPDEST POP PUSH2 0x1A6 PUSH2 0x211 CALLDATASIZE PUSH1 0x4 PUSH2 0x1D34 JUMP JUMPDEST PUSH2 0x669 JUMP JUMPDEST CALLVALUE DUP1 ISZERO PUSH2 0x222 JUMPI PUSH1 0x0 DUP1 REVERT JUMPDEST POP PUSH2 0x27B PUSH2 0x231 CALLDATASIZE PUSH1 0x4 PUSH2 0x1DFD JUMP JUMPDEST PUSH1 0xB PUSH1 0x20 MSTORE PUSH1 0x0 SWAP1 DUP2 MSTORE PUSH1 0x40 SWAP1 KECCAK256 DUP1 SLOAD PUSH1 0x1 DUP3 ADD SLOAD PUSH1 0x2 DUP4 ADD SLOAD PUSH1 0x3 DUP5 ADD SLOAD PUSH1 0x4 DUP6 ADD SLOAD PUSH1 0x5 SWAP1 SWAP6 ADD SLOAD PUSH1 0xFF DUP1 DUP7 AND SWAP7 PUSH2 0x100 SWAP1 SWAP7 DIV PUSH1 0x1 PUSH1 0x1 PUSH1 0xA0 SHL SUB SWAP1 DUP2 AND SWAP7 SWAP6 AND SWAP5 SWAP2 AND DUP8 JUMP JUMPDEST PUSH1 0x40 DUP1 MLOAD SWAP8 ISZERO ISZERO DUP9 MSTORE PUSH1 0x1 PUSH1 0x1 PUSH1 0xA0 SHL SUB SWAP7 DUP8 AND PUSH1 0x20 DUP10 ADD MSTORE SWAP5 SWAP1 SWAP6 AND SWAP4 DUP7 ADD SWAP4 SWAP1 SWAP4 MSTORE PUSH1 0x60 DUP6 ADD SWAP2 SWAP1 SWAP2 MSTORE PUSH1 0x80 DUP5 ADD MSTORE PUSH1 0xA0 DUP4 ADD MSTORE ISZERO ISZERO PUSH1 0xC0 DUP3 ADD MSTORE PUSH1 0xE0 ADD PUSH2 0x1C1 JUMP JUMPDEST CALLVALUE DUP1 ISZERO PUSH2 0x2CC JUMPI PUSH1 0x0 DUP1 REVERT JUMPDEST POP PUSH2 0x1B7 PUSH2 0x2DB CALLDATASIZE PUSH1 0x4 PUSH2 0x1D01 JUMP JUMPDEST PUSH2 0x6F6 JUMP JUMPDEST PUSH2 0x1A6 PUSH2 0x2EE CALLDATASIZE PUSH1 0x4 PUSH2 0x1E24 JUMP JUMPDEST PUSH2 0x77E JUMP JUMPDEST CALLVALUE DUP1 ISZERO PUSH2 0x2FF JUMPI PUSH1 0x0 DUP1 REVERT JUMPDEST POP PUSH2 0x33A PUSH2 0x30E CALLDATASIZE PUSH1 0x4 PUSH2 0x1D01 JUMP JUMPDEST PUSH1 0x1 PUSH1 0x1 PUSH1 0xA0 SHL SUB AND PUSH1 0x0 SWAP1 DUP2 MSTORE PUSH1 0xA PUSH1 0x20 MSTORE PUSH1 0x40 SWAP1 KECCAK256 SLOAD PUSH3 0x10000 SWAP1 DIV PUSH1 0x1 PUSH1 0x1 PUSH1 0x40 SHL SUB AND ISZERO ISZERO SWAP1 JUMP JUMPDEST PUSH1 0x40 MLOAD SWAP1 ISZERO ISZERO DUP2 MSTORE PUSH1 0x20 ADD PUSH2 0x1C1 JUMP JUMPDEST CALLVALUE DUP1 ISZERO PUSH2 0x356 JUMPI PUSH1 0x0 DUP1 REVERT JUMPDEST POP PUSH2 0x36A PUSH2 0x365 CALLDATASIZE PUSH1 0x4 PUSH2 0x1DFD JUMP JUMPDEST PUSH2 0x827 JUMP JUMPDEST PUSH1 0x40 MLOAD PUSH2 0x1C1 SWAP2 SWAP1 PUSH2 0x1EBB JUMP JUMPDEST CALLVALUE DUP1 ISZERO PUSH2 0x383 JUMPI PUSH1 0x0 DUP1 REVERT JUMPDEST POP PUSH1 0x0 SLOAD PUSH1 0x1 PUSH1 0xA0 SHL SWAP1 DIV PUSH1 0xFF AND PUSH2 0x33A JUMP JUMPDEST CALLVALUE DUP1 ISZERO PUSH2 0x3A2 JUMPI PUSH1 0x0 DUP1 REVERT JUMPDEST POP PUSH2 0x1A6 PUSH2 0x3B1 CALLDATASIZE PUSH1 0x4 PUSH2 0x1DFD JUMP JUMPDEST PUSH2 0x8A6 JUMP JUMPDEST CALLVALUE DUP1 ISZERO PUSH2 0x3C2 JUMPI PUSH1 0x0 DUP1 REVERT JUMPDEST POP PUSH2 0x33A PUSH2 0x3D1 CALLDATASIZE PUSH1 0x4 PUSH2 0x1DFD JUMP JUMPDEST PUSH1 0x0 SWAP1 DUP2 MSTORE PUSH1 0xB PUSH1 0x20 MSTORE PUSH1 0x40 SWAP1 KECCAK256 PUSH1 0x5 ADD SLOAD PUSH1 0xFF AND SWAP1 JUMP JUMPDEST CALLVALUE DUP1 ISZERO PUSH2 0x3F5 JUMPI PUSH1 0x0 DUP1 REVERT JUMPDEST POP PUSH2 0x1A6 PUSH2 0x8B3 JUMP JUMPDEST CALLVALUE DUP1 ISZERO PUSH2 0x40A JUMPI PUSH1 0x0 DUP1 REVERT JUMPDEST POP PUSH1 0x2 SLOAD PUSH2 0x41E SWAP1 PUSH1 0x1 PUSH1 0x1 PUSH1 0xA0 SHL SUB AND DUP2 JUMP JUMPDEST PUSH1 0x40 MLOAD PUSH1 0x1 PUSH1 0x1 PUSH1 0xA0 SHL SUB SWAP1 SWAP2 AND DUP2 MSTORE PUSH1 0x20 ADD PUSH2 0x1C1 JUMP JUMPDEST CALLVALUE DUP1 ISZERO PUSH2 0x442 JUMPI PUSH1 0x0 DUP1 REVERT JUMPDEST POP PUSH2 0x1A6 PUSH2 0x451 CALLDATASIZE PUSH1 0x4 PUSH2 0x1EC9 JUMP JUMPDEST PUSH2 0x8C7 JUMP JUMPDEST CALLVALUE DUP1 ISZERO PUSH2 0x462 JUMPI PUSH1 0x0 DUP1 REVERT JUMPDEST POP PUSH2 0x1A6 PUSH2 0x99E JUMP JUMPDEST CALLVALUE DUP1 ISZERO PUSH2 0x477 JUMPI PUSH1 0x0 DUP1 REVERT JUMPDEST POP PUSH1 0x0 SLOAD PUSH1 0x1 PUSH1 0x1 PUSH1 0xA0 SHL SUB AND PUSH2 0x41E JUMP JUMPDEST CALLVALUE DUP1 ISZERO PUSH2 0x495 JUMPI PUSH1 0x0 DUP1 REVERT JUMPDEST POP PUSH2 0x4A9 PUSH2 0x4A4 CALLDATASIZE PUSH1 0x4 PUSH2 0x1F09 JUMP JUMPDEST PUSH2 0x9C8 JUMP JUMPDEST PUSH1 0x40 MLOAD PUSH2 0x1C1 SWAP2 SWAP1 PUSH2 0x1FD5 JUMP JUMPDEST CALLVALUE DUP1 ISZERO PUSH2 0x4C2 JUMPI PUSH1 0x0 DUP1 REVERT JUMPDEST POP PUSH2 0x4D6 PUSH2 0x4D1 CALLDATASIZE PUSH1 0x4 PUSH2 0x2037 JUMP JUMPDEST PUSH2 0xABD JUMP JUMPDEST PUSH1 0x40 MLOAD PUSH2 0x1C1 SWAP2 SWAP1 PUSH2 0x2063 JUMP JUMPDEST CALLVALUE DUP1 ISZERO PUSH2 0x4EF JUMPI PUSH1 0x0 DUP1 REVERT JUMPDEST POP PUSH2 0x51C PUSH2 0x4FE CALLDATASIZE PUSH1 0x4 PUSH2 0x1DFD JUMP JUMPDEST PUSH1 0xD PUSH1 0x20 MSTORE PUSH1 0x0 SWAP1 DUP2 MSTORE PUSH1 0x40 SWAP1 KECCAK256 SLOAD PUSH1 0xFF DUP1 DUP3 AND SWAP2 PUSH2 0x100 SWAP1 DIV AND DUP3 JUMP JUMPDEST PUSH1 0x40 DUP1 MLOAD SWAP3 ISZERO ISZERO DUP4 MSTORE SWAP1 ISZERO ISZERO PUSH1 0x20 DUP4 ADD MSTORE ADD PUSH2 0x1C1 JUMP JUMPDEST CALLVALUE DUP1 ISZERO PUSH2 0x53F JUMPI PUSH1 0x0 DUP1 REVERT JUMPDEST POP PUSH2 0x1A6 PUSH2 0x54E CALLDATASIZE PUSH1 0x4 PUSH2 0x1DFD JUMP JUMPDEST PUSH2 0xBF0 JUMP JUMPDEST CALLVALUE DUP1 ISZERO PUSH2 0x55F JUMPI PUSH1 0x0 DUP1 REVERT JUMPDEST POP PUSH1 0x9 SLOAD PUSH2 0x41E SWAP1 PUSH1 0x1 PUSH1 0x1 PUSH1 0xA0 SHL SUB AND DUP2 JUMP JUMPDEST CALLVALUE DUP1 ISZERO PUSH2 0x57F JUMPI PUSH1 0x0 DUP1 REVERT JUMPDEST POP PUSH2 0x5B5 PUSH2 0x58E CALLDATASIZE PUSH1 0x4 PUSH2 0x1D01 JUMP JUMPDEST PUSH1 0xA PUSH1 0x20 MSTORE PUSH1 0x0 SWAP1 DUP2 MSTORE PUSH1 0x40 SWAP1 KECCAK256 SLOAD PUSH2 0xFFFF DUP2 AND SWAP1 PUSH3 0x10000 SWAP1 DIV PUSH1 0x1 PUSH1 0x1 PUSH1 0x40 SHL SUB AND DUP3 JUMP JUMPDEST PUSH1 0x40 DUP1 MLOAD PUSH2 0xFFFF SWAP1 SWAP4 AND DUP4 MSTORE PUSH1 0x1 PUSH1 0x1 PUSH1 0x40 SHL SUB SWAP1 SWAP2 AND PUSH1 0x20 DUP4 ADD MSTORE ADD PUSH2 0x1C1 JUMP JUMPDEST CALLVALUE DUP1 ISZERO PUSH2 0x5E3 JUMPI PUSH1 0x0 DUP1 REVERT JUMPDEST POP PUSH2 0x1B7 PUSH1 0x8 SLOAD DUP2 JUMP JUMPDEST CALLVALUE DUP1 ISZERO PUSH2 0x5F9 JUMPI PUSH1 0x0 DUP1 REVERT JUMPDEST POP PUSH2 0x1A6 PUSH2 0x608 CALLDATASIZE PUSH1 0x4 PUSH2 0x1D01 JUMP JUMPDEST PUSH2 0xD57 JUMP JUMPDEST PUSH2 0x615 PUSH2 0xDCD JUMP JUMPDEST PUSH1 0x2 DUP1 SLOAD PUSH1 0x1 PUSH1 0x1 PUSH1 0xA0 SHL SUB NOT AND PUSH1 0x1 PUSH1 0x1 PUSH1 0xA0 SHL SUB DUP4 AND SWAP1 DUP2 OR SWAP1 SWAP2 SSTORE PUSH1 0x40 MLOAD SWAP1 DUP2 MSTORE PUSH32 0x10F5824683D64A0712038F2244E046B174A1CC57FBB8556BFDA5FFB261244067 SWAP1 PUSH1 0x20 ADD PUSH1 0x40 MLOAD DUP1 SWAP2 SUB SWAP1 LOG1 POP JUMP JUMPDEST CALLER PUSH1 0x1 PUSH1 0x1 PUSH1 0xA0 SHL SUB PUSH32 0x0 AND EQ PUSH2 0x6E8 JUMPI PUSH1 0x40 MLOAD PUSH4 0x73E64FD PUSH1 0xE2 SHL DUP2 MSTORE CALLER PUSH1 0x4 DUP3 ADD MSTORE PUSH1 0x1 PUSH1 0x1 PUSH1 0xA0 SHL SUB PUSH32 0x0 AND PUSH1 0x24 DUP3 ADD MSTORE PUSH1 0x44 ADD JUMPDEST PUSH1 0x40 MLOAD DUP1 SWAP2 SUB SWAP1 REVERT JUMPDEST PUSH2 0x6F2 DUP3 DUP3 PUSH2 0xE27 JUMP JUMPDEST POP POP JUMP JUMPDEST PUSH1 0x0 DUP1 PUSH1 0x1 PUSH1 0x1 PUSH1 0xA0 SHL SUB DUP4 AND PUSH2 0x70F JUMPI POP SELFBALANCE SWAP3 SWAP2 POP POP JUMP JUMPDEST PUSH1 0x40 MLOAD PUSH4 0x70A08231 PUSH1 0xE0 SHL DUP2 MSTORE ADDRESS PUSH1 0x4 DUP3 ADD MSTORE PUSH1 0x1 PUSH1 0x1 PUSH1 0xA0 SHL SUB DUP5 AND SWAP1 PUSH4 0x70A08231 SWAP1 PUSH1 0x24 ADD PUSH1 0x20 PUSH1 0x40 MLOAD DUP1 DUP4 SUB DUP2 DUP7 GAS STATICCALL ISZERO DUP1 ISZERO PUSH2 0x753 JUMPI RETURNDATASIZE PUSH1 0x0 DUP1 RETURNDATACOPY RETURNDATASIZE PUSH1 0x0 REVERT JUMPDEST POP POP POP POP PUSH1 0x40 MLOAD RETURNDATASIZE PUSH1 0x1F NOT PUSH1 0x1F DUP3 ADD AND DUP3 ADD DUP1 PUSH1 0x40 MSTORE POP DUP2 ADD SWAP1 PUSH2 0x777 SWAP2 SWAP1 PUSH2 0x20BE JUMP JUMPDEST SWAP4 SWAP3 POP POP POP JUMP JUMPDEST PUSH2 0x786 PUSH2 0x103F JUMP JUMPDEST PUSH1 0x0 PUSH2 0x79D DUP4 DUP4 PUSH2 0x798 PUSH2 0x2710 PUSH2 0x108C JUMP JUMPDEST PUSH2 0x109C JUMP JUMPDEST PUSH1 0x60 DUP2 DUP2 ADD DUP1 MLOAD PUSH1 0x0 SWAP1 DUP2 MSTORE PUSH1 0xD PUSH1 0x20 SWAP1 DUP2 MSTORE PUSH1 0x40 SWAP2 DUP3 SWAP1 KECCAK256 DUP1 SLOAD PUSH1 0xFF NOT AND DUP11 ISZERO ISZERO SWAP1 DUP2 OR SWAP1 SWAP2 SSTORE DUP3 DUP7 ADD MLOAD DUP3 DUP8 ADD MLOAD SWAP5 MLOAD PUSH1 0x80 DUP9 ADD MLOAD DUP6 MLOAD SWAP2 DUP3 MSTORE SWAP4 DUP2 ADD SWAP4 SWAP1 SWAP4 MSTORE SWAP3 DUP3 ADD MSTORE SWAP4 SWAP5 POP PUSH1 0x1 PUSH1 0x1 PUSH1 0xA0 SHL SUB SWAP1 DUP2 AND SWAP4 SWAP2 AND SWAP2 PUSH32 0x388B4FAD58A4C74AD944D05888D8E83B64E28A3A71E0381A02C7D98440C63AC3 SWAP2 ADD PUSH1 0x40 MLOAD DUP1 SWAP2 SUB SWAP1 LOG3 POP POP POP POP JUMP JUMPDEST PUSH2 0x82F PUSH2 0x1C72 JUMP JUMPDEST POP PUSH1 0x0 SWAP1 DUP2 MSTORE PUSH1 0xB PUSH1 0x20 SWAP1 DUP2 MSTORE PUSH1 0x40 SWAP2 DUP3 SWAP1 KECCAK256 DUP3 MLOAD PUSH1 0xE0 DUP2 ADD DUP5 MSTORE DUP2 SLOAD PUSH1 0xFF DUP1 DUP3 AND ISZERO ISZERO DUP4 MSTORE PUSH1 0x1 PUSH1 0x1 PUSH1 0xA0 SHL SUB PUSH2 0x100 SWAP1 SWAP3 DIV DUP3 AND SWAP5 DUP4 ADD SWAP5 SWAP1 SWAP5 MSTORE PUSH1 0x1 DUP4 ADD SLOAD AND SWAP4 DUP2 ADD SWAP4 SWAP1 SWAP4 MSTORE PUSH1 0x2 DUP2 ADD SLOAD PUSH1 0x60 DUP5 ADD MSTORE PUSH1 0x3 DUP2 ADD SLOAD PUSH1 0x80 DUP5 ADD MSTORE PUSH1 0x4 DUP2 ADD SLOAD PUSH1 0xA0 DUP5 ADD MSTORE PUSH1 0x5 ADD SLOAD AND ISZERO ISZERO PUSH1 0xC0 DUP3 ADD MSTORE SWAP1 JUMP JUMPDEST PUSH2 0x8AE PUSH2 0xDCD JUMP JUMPDEST PUSH1 0xE SSTORE JUMP JUMPDEST PUSH2 0x8BB PUSH2 0xDCD JUMP JUMPDEST PUSH2 0x8C5 PUSH1 0x0 PUSH2 0x152E JUMP JUMPDEST JUMP JUMPDEST PUSH2 0x8CF PUSH2 0xDCD JUMP JUMPDEST PUSH2 0x190 DUP2 PUSH2 0xFFFF AND GT ISZERO PUSH2 0x8F6 JUMPI PUSH1 0x40 MLOAD PUSH4 0x1C2D5DD3 PUSH1 0xE2 SHL DUP2 MSTORE PUSH1 0x4 ADD PUSH1 0x40 MLOAD DUP1 SWAP2 SUB SWAP1 REVERT JUMPDEST PUSH1 0x1 PUSH1 0x1 PUSH1 0xA0 SHL SUB DUP3 AND PUSH1 0x0 SWAP1 DUP2 MSTORE PUSH1 0xA PUSH1 0x20 MSTORE PUSH1 0x40 SWAP1 KECCAK256 SLOAD PUSH3 0x10000 SWAP1 DIV PUSH1 0x1 PUSH1 0x1 PUSH1 0x40 SHL SUB AND ISZERO PUSH2 0x93C JUMPI PUSH1 0x40 MLOAD PUSH4 0x55212B7 PUSH1 0xE5 SHL DUP2 MSTORE PUSH1 0x4 ADD PUSH1 0x40 MLOAD DUP1 SWAP2 SUB SWAP1 REVERT JUMPDEST PUSH1 0x1 PUSH1 0x1 PUSH1 0xA0 SHL SUB DUP3 AND PUSH1 0x0 DUP2 DUP2 MSTORE PUSH1 0xA PUSH1 0x20 SWAP1 DUP2 MSTORE PUSH1 0x40 SWAP2 DUP3 SWAP1 KECCAK256 DUP1 SLOAD PUSH2 0xFFFF NOT AND PUSH2 0xFFFF DUP7 AND SWAP1 DUP2 OR SWAP1 SWAP2 SSTORE SWAP2 MLOAD SWAP2 DUP3 MSTORE PUSH32 0x7DFD3ECB8AC83242184C019F85CA408558F2AC0A5A19AF6BE2A4AEE697EAC812 SWAP2 ADD PUSH1 0x40 MLOAD DUP1 SWAP2 SUB SWAP1 LOG2 POP POP JUMP JUMPDEST PUSH2 0x9A6 PUSH2 0xDCD JUMP JUMPDEST PUSH1 0x0 SLOAD PUSH1 0x1 PUSH1 0xA0 SHL SWAP1 DIV PUSH1 0xFF AND ISZERO PUSH2 0x9C0 JUMPI PUSH2 0x8C5 PUSH2 0x157E JUMP JUMPDEST PUSH2 0x8C5 PUSH2 0x15D3 JUMP JUMPDEST PUSH1 0x60 DUP2 PUSH1 0x1 PUSH1 0x1 PUSH1 0x40 SHL SUB DUP2 GT ISZERO PUSH2 0x9E2 JUMPI PUSH2 0x9E2 PUSH2 0x1D1E JUMP JUMPDEST PUSH1 0x40 MLOAD SWAP1 DUP1 DUP3 MSTORE DUP1 PUSH1 0x20 MUL PUSH1 0x20 ADD DUP3 ADD PUSH1 0x40 MSTORE DUP1 ISZERO PUSH2 0xA15 JUMPI DUP2 PUSH1 0x20 ADD JUMPDEST PUSH1 0x60 DUP2 MSTORE PUSH1 0x20 ADD SWAP1 PUSH1 0x1 SWAP1 SUB SWAP1 DUP2 PUSH2 0xA00 JUMPI SWAP1 POP JUMPDEST POP SWAP1 POP PUSH1 0x0 JUMPDEST DUP3 DUP2 LT ISZERO PUSH2 0xAB5 JUMPI PUSH2 0xA85 ADDRESS DUP6 DUP6 DUP5 DUP2 DUP2 LT PUSH2 0xA39 JUMPI PUSH2 0xA39 PUSH2 0x20D7 JUMP JUMPDEST SWAP1 POP PUSH1 0x20 MUL DUP2 ADD SWAP1 PUSH2 0xA4B SWAP2 SWAP1 PUSH2 0x20ED JUMP JUMPDEST DUP1 DUP1 PUSH1 0x1F ADD PUSH1 0x20 DUP1 SWAP2 DIV MUL PUSH1 0x20 ADD PUSH1 0x40 MLOAD SWAP1 DUP2 ADD PUSH1 0x40 MSTORE DUP1 SWAP4 SWAP3 SWAP2 SWAP1 DUP2 DUP2 MSTORE PUSH1 0x20 ADD DUP4 DUP4 DUP1 DUP3 DUP5 CALLDATACOPY PUSH1 0x0 SWAP3 ADD SWAP2 SWAP1 SWAP2 MSTORE POP PUSH2 0x1616 SWAP3 POP POP POP JUMP JUMPDEST DUP3 DUP3 DUP2 MLOAD DUP2 LT PUSH2 0xA97 JUMPI PUSH2 0xA97 PUSH2 0x20D7 JUMP JUMPDEST PUSH1 0x20 MUL PUSH1 0x20 ADD ADD DUP2 SWAP1 MSTORE POP DUP1 DUP1 PUSH2 0xAAD SWAP1 PUSH2 0x2150 JUMP JUMPDEST SWAP2 POP POP PUSH2 0xA1B JUMP JUMPDEST POP JUMPDEST SWAP3 SWAP2 POP POP JUMP JUMPDEST PUSH1 0x60 PUSH1 0x0 PUSH2 0xACB DUP5 DUP5 PUSH2 0x163B JUMP JUMPDEST SWAP1 POP PUSH1 0x0 DUP2 MLOAD PUSH1 0x1 PUSH1 0x1 PUSH1 0x40 SHL SUB DUP2 GT ISZERO PUSH2 0xAE8 JUMPI PUSH2 0xAE8 PUSH2 0x1D1E JUMP JUMPDEST PUSH1 0x40 MLOAD SWAP1 DUP1 DUP3 MSTORE DUP1 PUSH1 0x20 MUL PUSH1 0x20 ADD DUP3 ADD PUSH1 0x40 MSTORE DUP1 ISZERO PUSH2 0xB21 JUMPI DUP2 PUSH1 0x20 ADD JUMPDEST PUSH2 0xB0E PUSH2 0x1CAE JUMP JUMPDEST DUP2 MSTORE PUSH1 0x20 ADD SWAP1 PUSH1 0x1 SWAP1 SUB SWAP1 DUP2 PUSH2 0xB06 JUMPI SWAP1 POP JUMPDEST POP SWAP1 POP PUSH1 0x0 JUMPDEST DUP3 MLOAD DUP2 LT ISZERO PUSH2 0xBE7 JUMPI PUSH1 0x40 MLOAD DUP1 PUSH1 0x40 ADD PUSH1 0x40 MSTORE DUP1 DUP5 DUP4 DUP2 MLOAD DUP2 LT PUSH2 0xB4D JUMPI PUSH2 0xB4D PUSH2 0x20D7 JUMP JUMPDEST PUSH1 0x20 MUL PUSH1 0x20 ADD ADD MLOAD DUP2 MSTORE PUSH1 0x20 ADD PUSH1 0xD PUSH1 0x0 DUP7 DUP6 DUP2 MLOAD DUP2 LT PUSH2 0xB70 JUMPI PUSH2 0xB70 PUSH2 0x20D7 JUMP JUMPDEST PUSH1 0x20 SWAP1 DUP2 MUL SWAP2 SWAP1 SWAP2 ADD DUP2 ADD MLOAD PUSH1 0x60 ADD MLOAD DUP3 MSTORE DUP2 DUP2 ADD SWAP3 SWAP1 SWAP3 MSTORE PUSH1 0x40 SWAP1 DUP2 ADD PUSH1 0x0 KECCAK256 DUP2 MLOAD DUP1 DUP4 ADD SWAP1 SWAP3 MSTORE SLOAD PUSH1 0xFF DUP1 DUP3 AND ISZERO ISZERO DUP4 MSTORE PUSH2 0x100 SWAP1 SWAP2 DIV AND ISZERO ISZERO SWAP2 DUP2 ADD SWAP2 SWAP1 SWAP2 MSTORE SWAP1 MSTORE DUP3 MLOAD DUP4 SWAP1 DUP4 SWAP1 DUP2 LT PUSH2 0xBC9 JUMPI PUSH2 0xBC9 PUSH2 0x20D7 JUMP JUMPDEST PUSH1 0x20 MUL PUSH1 0x20 ADD ADD DUP2 SWAP1 MSTORE POP DUP1 DUP1 PUSH2 0xBDF SWAP1 PUSH2 0x2150 JUMP JUMPDEST SWAP2 POP POP PUSH2 0xB27 JUMP JUMPDEST POP SWAP5 SWAP4 POP POP POP POP JUMP JUMPDEST PUSH2 0xBF8 PUSH2 0x180D JUMP JUMPDEST PUSH1 0x0 DUP2 DUP2 MSTORE PUSH1 0xB PUSH1 0x20 MSTORE PUSH1 0x40 SWAP1 KECCAK256 DUP1 SLOAD PUSH1 0xFF AND ISZERO ISZERO PUSH1 0x1 EQ ISZERO PUSH2 0xC2E JUMPI PUSH1 0x40 MLOAD PUSH4 0x10D5F2BD PUSH1 0xE1 SHL DUP2 MSTORE PUSH1 0x4 ADD PUSH1 0x40 MLOAD DUP1 SWAP2 SUB SWAP1 REVERT JUMPDEST PUSH1 0x4 DUP2 ADD SLOAD PUSH2 0xC3E SWAP1 PUSH1 0x1E PUSH2 0x216B JUMP JUMPDEST TIMESTAMP LT ISZERO PUSH2 0xC5E JUMPI PUSH1 0x40 MLOAD PUSH4 0x3DE361F PUSH1 0xE1 SHL DUP2 MSTORE PUSH1 0x4 ADD PUSH1 0x40 MLOAD DUP1 SWAP2 SUB SWAP1 REVERT JUMPDEST PUSH1 0x1 DUP2 ADD SLOAD PUSH1 0x1 PUSH1 0x1 PUSH1 0xA0 SHL SUB AND PUSH1 0x0 SWAP1 DUP2 MSTORE PUSH1 0xA PUSH1 0x20 MSTORE PUSH1 0x40 SWAP1 KECCAK256 DUP1 SLOAD PUSH3 0x10000 SWAP1 DIV PUSH1 0x1 PUSH1 0x1 PUSH1 0x40 SHL SUB AND DUP2 PUSH1 0x2 PUSH2 0xC97 DUP4 PUSH2 0x2183 JUMP JUMPDEST DUP3 SLOAD PUSH1 0x1 PUSH1 0x1 PUSH1 0x40 SHL SUB SWAP2 DUP3 AND PUSH2 0x100 SWAP4 SWAP1 SWAP4 EXP SWAP3 DUP4 MUL SWAP2 SWAP1 SWAP3 MUL NOT SWAP1 SWAP2 AND OR SWAP1 SSTORE POP DUP2 SLOAD PUSH1 0xFF NOT AND PUSH1 0x1 SWAP1 DUP2 OR DUP4 SSTORE DUP3 ADD SLOAD PUSH1 0x1 PUSH1 0x1 PUSH1 0xA0 SHL SUB AND PUSH2 0xD1E JUMPI DUP2 SLOAD PUSH1 0x3 DUP4 ADD SLOAD PUSH1 0x40 MLOAD PUSH2 0x100 SWAP1 SWAP3 DIV PUSH1 0x1 PUSH1 0x1 PUSH1 0xA0 SHL SUB AND SWAP2 PUSH2 0x8FC DUP3 ISZERO MUL SWAP2 SWAP1 PUSH1 0x0 DUP2 DUP2 DUP2 DUP6 DUP9 DUP9 CALL SWAP4 POP POP POP POP ISZERO DUP1 ISZERO PUSH2 0xD18 JUMPI RETURNDATASIZE PUSH1 0x0 DUP1 RETURNDATACOPY RETURNDATASIZE PUSH1 0x0 REVERT JUMPDEST POP PUSH2 0xD49 JUMP JUMPDEST DUP2 SLOAD PUSH1 0x3 DUP4 ADD SLOAD PUSH1 0x1 DUP5 ADD SLOAD PUSH2 0xD49 SWAP3 PUSH1 0x1 PUSH1 0x1 PUSH1 0xA0 SHL SUB SWAP2 DUP3 AND SWAP3 PUSH2 0x100 SWAP1 SWAP2 DIV SWAP1 SWAP2 AND SWAP1 PUSH2 0x1867 JUMP JUMPDEST POP POP PUSH2 0xD54 PUSH1 0x1 DUP1 SSTORE JUMP JUMPDEST POP JUMP JUMPDEST PUSH2 0xD5F PUSH2 0xDCD JUMP JUMPDEST PUSH1 0x1 PUSH1 0x1 PUSH1 0xA0 SHL SUB DUP2 AND PUSH2 0xDC4 JUMPI PUSH1 0x40 MLOAD PUSH3 0x461BCD PUSH1 0xE5 SHL DUP2 MSTORE PUSH1 0x20 PUSH1 0x4 DUP3 ADD MSTORE PUSH1 0x26 PUSH1 0x24 DUP3 ADD MSTORE PUSH32 0x4F776E61626C653A206E6577206F776E657220697320746865207A65726F2061 PUSH1 0x44 DUP3 ADD MSTORE PUSH6 0x646472657373 PUSH1 0xD0 SHL PUSH1 0x64 DUP3 ADD MSTORE PUSH1 0x84 ADD PUSH2 0x6DF JUMP JUMPDEST PUSH2 0xD54 DUP2 PUSH2 0x152E JUMP JUMPDEST PUSH1 0x0 SLOAD PUSH1 0x1 PUSH1 0x1 PUSH1 0xA0 SHL SUB AND CALLER EQ PUSH2 0x8C5 JUMPI PUSH1 0x40 MLOAD PUSH3 0x461BCD PUSH1 0xE5 SHL DUP2 MSTORE PUSH1 0x20 PUSH1 0x4 DUP3 ADD DUP2 SWAP1 MSTORE PUSH1 0x24 DUP3 ADD MSTORE PUSH32 0x4F776E61626C653A2063616C6C6572206973206E6F7420746865206F776E6572 PUSH1 0x44 DUP3 ADD MSTORE PUSH1 0x64 ADD PUSH2 0x6DF JUMP JUMPDEST PUSH1 0x0 DUP3 DUP2 MSTORE PUSH1 0xD PUSH1 0x20 SWAP1 DUP2 MSTORE PUSH1 0x40 DUP1 DUP4 KECCAK256 PUSH1 0xB SWAP1 SWAP3 MSTORE DUP3 KECCAK256 DUP4 MLOAD SWAP2 SWAP3 SWAP1 SWAP2 PUSH1 0x2 SWAP1 DUP6 SWAP1 DUP4 SWAP1 PUSH2 0xE58 JUMPI PUSH2 0xE58 PUSH2 0x20D7 JUMP JUMPDEST PUSH1 0x20 MUL PUSH1 0x20 ADD ADD MLOAD PUSH2 0xE6A SWAP2 SWAP1 PUSH2 0x21BC JUMP JUMPDEST PUSH1 0x40 DUP1 MLOAD DUP1 DUP3 ADD SWAP1 SWAP2 MSTORE PUSH1 0x0 DUP1 DUP3 MSTORE PUSH1 0x1 PUSH1 0x20 DUP4 ADD MSTORE SWAP2 SWAP3 POP SWAP1 DUP2 DUP4 PUSH1 0x2 DUP2 LT PUSH2 0xE96 JUMPI PUSH2 0xE96 PUSH2 0x20D7 JUMP JUMPDEST PUSH1 0x20 MUL ADD MLOAD DUP6 SLOAD PUSH2 0xFF00 NOT DUP2 AND PUSH2 0x100 DUP4 ISZERO ISZERO SWAP1 DUP2 MUL SWAP2 DUP3 OR DUP10 SSTORE SWAP3 SWAP4 POP PUSH1 0xFF SWAP2 DUP3 AND SWAP2 AND OR ISZERO ISZERO EQ ISZERO PUSH2 0xFA9 JUMPI DUP4 SLOAD PUSH1 0x1 PUSH1 0xFF NOT SWAP2 DUP3 AND DUP2 OR DUP1 DUP8 SSTORE PUSH1 0x5 DUP8 ADD DUP1 SLOAD SWAP1 SWAP4 AND DUP3 OR SWAP1 SWAP3 SSTORE DUP6 ADD SLOAD PUSH1 0x3 DUP7 ADD SLOAD PUSH1 0x1 PUSH1 0x1 PUSH1 0xA0 SHL SUB SWAP2 DUP3 AND SWAP3 PUSH2 0x100 SWAP1 DIV SWAP1 SWAP2 AND SWAP1 PUSH1 0x0 PUSH2 0xF09 DUP3 PUSH2 0x108C JUMP JUMPDEST SWAP1 POP DUP1 PUSH1 0x0 PUSH2 0xF18 DUP7 DUP6 PUSH2 0x18CF JUMP JUMPDEST SWAP1 POP PUSH1 0x0 PUSH2 0xF26 DUP3 DUP5 PUSH2 0x21D0 JUMP JUMPDEST PUSH1 0x2 SLOAD PUSH1 0x40 MLOAD PUSH4 0x1F615023 PUSH1 0xE0 SHL DUP2 MSTORE PUSH1 0x1 PUSH1 0x1 PUSH1 0xA0 SHL SUB DUP10 DUP2 AND PUSH1 0x4 DUP4 ADD MSTORE DUP11 DUP2 AND PUSH1 0x24 DUP4 ADD MSTORE PUSH1 0x44 DUP3 ADD DUP5 SWAP1 MSTORE PUSH1 0x64 DUP3 ADD DUP7 SWAP1 MSTORE SWAP3 SWAP4 POP SWAP2 AND SWAP1 PUSH4 0x1F615023 SWAP1 PUSH1 0x84 ADD PUSH1 0x0 PUSH1 0x40 MLOAD DUP1 DUP4 SUB DUP2 PUSH1 0x0 DUP8 DUP1 EXTCODESIZE ISZERO DUP1 ISZERO PUSH2 0xF85 JUMPI PUSH1 0x0 DUP1 REVERT JUMPDEST POP GAS CALL ISZERO DUP1 ISZERO PUSH2 0xF99 JUMPI RETURNDATASIZE PUSH1 0x0 DUP1 RETURNDATACOPY RETURNDATASIZE PUSH1 0x0 REVERT JUMPDEST POP POP POP POP POP POP POP POP POP POP POP PUSH2 0xFC2 JUMP JUMPDEST DUP4 SLOAD PUSH1 0xFF NOT SWAP1 DUP2 AND PUSH1 0x1 OR DUP6 SSTORE PUSH1 0x5 DUP6 ADD DUP1 SLOAD SWAP1 SWAP2 AND SWAP1 SSTORE JUMPDEST PUSH1 0x1 DUP5 ADD SLOAD DUP5 SLOAD PUSH1 0x2 DUP7 ADD SLOAD PUSH1 0x3 DUP8 ADD SLOAD DUP9 SLOAD PUSH1 0x40 DUP1 MLOAD SWAP4 DUP5 MSTORE PUSH1 0x20 DUP5 ADD SWAP3 SWAP1 SWAP3 MSTORE PUSH1 0xFF AND ISZERO ISZERO DUP3 DUP3 ADD MSTORE DUP5 ISZERO ISZERO PUSH1 0x60 DUP4 ADD MSTORE MLOAD PUSH1 0x1 PUSH1 0x1 PUSH1 0xA0 SHL SUB SWAP4 DUP5 AND SWAP4 PUSH2 0x100 SWAP1 SWAP4 DIV SWAP1 SWAP3 AND SWAP2 PUSH32 0x61A9F4ED6FA1D9A386035EF6D352D6E5FF07BD93EB58025400302B462EB9B063 SWAP2 DUP2 SWAP1 SUB PUSH1 0x80 ADD SWAP1 LOG3 POP POP POP POP POP POP POP JUMP JUMPDEST PUSH1 0x0 SLOAD PUSH1 0x1 PUSH1 0xA0 SHL SWAP1 DIV PUSH1 0xFF AND ISZERO PUSH2 0x8C5 JUMPI PUSH1 0x40 MLOAD PUSH3 0x461BCD PUSH1 0xE5 SHL DUP2 MSTORE PUSH1 0x20 PUSH1 0x4 DUP3 ADD MSTORE PUSH1 0x10 PUSH1 0x24 DUP3 ADD MSTORE PUSH16 0x14185D5CD8589B194E881C185D5CD959 PUSH1 0x82 SHL PUSH1 0x44 DUP3 ADD MSTORE PUSH1 0x64 ADD PUSH2 0x6DF JUMP JUMPDEST PUSH1 0x0 PUSH1 0xE SLOAD DUP3 PUSH2 0xAB7 SWAP2 SWAP1 PUSH2 0x21E7 JUMP JUMPDEST PUSH2 0x10A4 PUSH2 0x1C72 JUMP JUMPDEST PUSH2 0x10AC PUSH2 0x103F JUMP JUMPDEST PUSH2 0x10B4 PUSH2 0x180D JUMP JUMPDEST PUSH1 0x1 PUSH1 0x1 PUSH1 0xA0 SHL SUB DUP5 DUP2 AND PUSH1 0x0 DUP2 DUP2 MSTORE PUSH1 0xA PUSH1 0x20 MSTORE PUSH1 0x40 SWAP1 DUP2 SWAP1 KECCAK256 PUSH1 0x2 SLOAD SWAP2 MLOAD PUSH4 0xCBE230C3 PUSH1 0xE0 SHL DUP2 MSTORE PUSH1 0x4 DUP2 ADD SWAP4 SWAP1 SWAP4 MSTORE SWAP3 AND SWAP1 PUSH4 0xCBE230C3 SWAP1 PUSH1 0x24 ADD PUSH1 0x20 PUSH1 0x40 MLOAD DUP1 DUP4 SUB DUP2 DUP7 GAS STATICCALL ISZERO DUP1 ISZERO PUSH2 0x110F JUMPI RETURNDATASIZE PUSH1 0x0 DUP1 RETURNDATACOPY RETURNDATASIZE PUSH1 0x0 REVERT JUMPDEST POP POP POP POP PUSH1 0x40 MLOAD RETURNDATASIZE PUSH1 0x1F NOT PUSH1 0x1F DUP3 ADD AND DUP3 ADD DUP1 PUSH1 0x40 MSTORE POP DUP2 ADD SWAP1 PUSH2 0x1133 SWAP2 SWAP1 PUSH2 0x2206 JUMP JUMPDEST ISZERO DUP1 PUSH2 0x1142 JUMPI POP DUP1 SLOAD PUSH2 0xFFFF AND ISZERO JUMPDEST ISZERO PUSH2 0x1160 JUMPI PUSH1 0x40 MLOAD PUSH4 0xC4559055 PUSH1 0xE0 SHL DUP2 MSTORE PUSH1 0x4 ADD PUSH1 0x40 MLOAD DUP1 SWAP2 SUB SWAP1 REVERT JUMPDEST PUSH1 0x2 SLOAD PUSH1 0x40 MLOAD PUSH4 0xF6B2A2F1 PUSH1 0xE0 SHL DUP2 MSTORE PUSH1 0x1 PUSH1 0x1 PUSH1 0xA0 SHL SUB DUP8 DUP2 AND PUSH1 0x4 DUP4 ADD DUP2 SWAP1 MSTORE CALLER SWAP4 SWAP1 ISZERO SWAP3 DUP9 SWAP3 PUSH1 0x0 SWAP3 AND SWAP1 PUSH4 0xF6B2A2F1 SWAP1 PUSH1 0x24 ADD PUSH1 0x20 PUSH1 0x40 MLOAD DUP1 DUP4 SUB DUP2 DUP7 GAS STATICCALL ISZERO DUP1 ISZERO PUSH2 0x11B4 JUMPI RETURNDATASIZE PUSH1 0x0 DUP1 RETURNDATACOPY RETURNDATASIZE PUSH1 0x0 REVERT JUMPDEST POP POP POP POP PUSH1 0x40 MLOAD RETURNDATASIZE PUSH1 0x1F NOT PUSH1 0x1F DUP3 ADD AND DUP3 ADD DUP1 PUSH1 0x40 MSTORE POP DUP2 ADD SWAP1 PUSH2 0x11D8 SWAP2 SWAP1 PUSH2 0x20BE JUMP JUMPDEST SWAP1 POP DUP1 DUP3 LT ISZERO PUSH2 0x11FD JUMPI PUSH1 0x40 MLOAD PUSH3 0x89563D PUSH1 0xE2 SHL DUP2 MSTORE PUSH1 0x4 DUP2 ADD DUP3 SWAP1 MSTORE PUSH1 0x24 ADD PUSH2 0x6DF JUMP JUMPDEST PUSH1 0x2 SLOAD PUSH1 0x40 MLOAD PUSH4 0x13C59CEF PUSH1 0xE1 SHL DUP2 MSTORE PUSH1 0x1 PUSH1 0x1 PUSH1 0xA0 SHL SUB DUP12 DUP2 AND PUSH1 0x4 DUP4 ADD MSTORE PUSH1 0x24 DUP3 ADD DUP11 SWAP1 MSTORE PUSH1 0x0 SWAP3 AND SWAP1 PUSH4 0x278B39DE SWAP1 PUSH1 0x44 ADD PUSH1 0x20 PUSH1 0x40 MLOAD DUP1 DUP4 SUB DUP2 DUP7 GAS STATICCALL ISZERO DUP1 ISZERO PUSH2 0x124F JUMPI RETURNDATASIZE PUSH1 0x0 DUP1 RETURNDATACOPY RETURNDATASIZE PUSH1 0x0 REVERT JUMPDEST POP POP POP POP PUSH1 0x40 MLOAD RETURNDATASIZE PUSH1 0x1F NOT PUSH1 0x1F DUP3 ADD AND DUP3 ADD DUP1 PUSH1 0x40 MSTORE POP DUP2 ADD SWAP1 PUSH2 0x1273 SWAP2 SWAP1 PUSH2 0x20BE JUMP JUMPDEST SWAP1 POP DUP1 DUP4 GT ISZERO PUSH2 0x12C8 JUMPI DUP4 ISZERO PUSH2 0x12C4 JUMPI PUSH1 0x1 PUSH1 0x1 PUSH1 0xA0 SHL SUB DUP6 AND PUSH2 0x8FC PUSH2 0x129A DUP4 DUP7 PUSH2 0x21D0 JUMP JUMPDEST PUSH1 0x40 MLOAD DUP2 ISZERO SWAP1 SWAP3 MUL SWAP2 PUSH1 0x0 DUP2 DUP2 DUP2 DUP6 DUP9 DUP9 CALL SWAP4 POP POP POP POP ISZERO DUP1 ISZERO PUSH2 0x12C2 JUMPI RETURNDATASIZE PUSH1 0x0 DUP1 RETURNDATACOPY RETURNDATASIZE PUSH1 0x0 REVERT JUMPDEST POP JUMPDEST DUP1 SWAP3 POP JUMPDEST POP POP PUSH1 0x3 SLOAD PUSH1 0x5 SLOAD PUSH1 0x2 SLOAD PUSH1 0x6 SLOAD PUSH1 0x40 MLOAD PUSH4 0x5D3B1D3 PUSH1 0xE4 SHL DUP2 MSTORE PUSH1 0x4 DUP2 ADD SWAP4 SWAP1 SWAP4 MSTORE PUSH1 0x1 PUSH1 0xA0 SHL SWAP1 SWAP2 DIV PUSH1 0x1 PUSH1 0x1 PUSH1 0x40 SHL SUB AND PUSH1 0x24 DUP4 ADD MSTORE PUSH5 0x100000000 DUP2 DIV PUSH2 0xFFFF AND PUSH1 0x44 DUP4 ADD MSTORE PUSH4 0xFFFFFFFF DUP1 DUP3 AND PUSH1 0x64 DUP5 ADD MSTORE PUSH7 0x1000000000000 SWAP1 SWAP2 DIV AND PUSH1 0x84 DUP3 ADD MSTORE PUSH1 0x1 PUSH1 0x1 PUSH1 0xA0 SHL SUB SWAP1 SWAP2 AND SWAP1 PUSH4 0x5D3B1D30 SWAP1 PUSH1 0xA4 ADD PUSH1 0x20 PUSH1 0x40 MLOAD DUP1 DUP4 SUB DUP2 PUSH1 0x0 DUP8 GAS CALL ISZERO DUP1 ISZERO PUSH2 0x1364 JUMPI RETURNDATASIZE PUSH1 0x0 DUP1 RETURNDATACOPY RETURNDATASIZE PUSH1 0x0 REVERT JUMPDEST POP POP POP POP PUSH1 0x40 MLOAD RETURNDATASIZE PUSH1 0x1F NOT PUSH1 0x1F DUP3 ADD AND DUP3 ADD DUP1 PUSH1 0x40 MSTORE POP DUP2 ADD SWAP1 PUSH2 0x1388 SWAP2 SWAP1 PUSH2 0x20BE JUMP JUMPDEST PUSH1 0x8 DUP2 SWAP1 SSTORE POP PUSH1 0x0 PUSH1 0x40 MLOAD DUP1 PUSH1 0xE0 ADD PUSH1 0x40 MSTORE DUP1 PUSH1 0x0 ISZERO ISZERO DUP2 MSTORE PUSH1 0x20 ADD DUP6 PUSH1 0x1 PUSH1 0x1 PUSH1 0xA0 SHL SUB AND DUP2 MSTORE PUSH1 0x20 ADD DUP11 PUSH1 0x1 PUSH1 0x1 PUSH1 0xA0 SHL SUB AND DUP2 MSTORE PUSH1 0x20 ADD PUSH1 0x8 SLOAD DUP2 MSTORE PUSH1 0x20 ADD DUP4 DUP2 MSTORE PUSH1 0x20 ADD TIMESTAMP DUP2 MSTORE PUSH1 0x20 ADD PUSH1 0x0 ISZERO ISZERO DUP2 MSTORE POP SWAP1 POP PUSH1 0xC PUSH1 0x0 DUP6 PUSH1 0x1 PUSH1 0x1 PUSH1 0xA0 SHL SUB AND PUSH1 0x1 PUSH1 0x1 PUSH1 0xA0 SHL SUB AND DUP2 MSTORE PUSH1 0x20 ADD SWAP1 DUP2 MSTORE PUSH1 0x20 ADD PUSH1 0x0 KECCAK256 PUSH1 0x8 SLOAD SWAP1 DUP1 PUSH1 0x1 DUP2 SLOAD ADD DUP1 DUP3 SSTORE DUP1 SWAP2 POP POP PUSH1 0x1 SWAP1 SUB SWAP1 PUSH1 0x0 MSTORE PUSH1 0x20 PUSH1 0x0 KECCAK256 ADD PUSH1 0x0 SWAP1 SWAP2 SWAP1 SWAP2 SWAP1 SWAP2 POP SSTORE DUP1 PUSH1 0xB PUSH1 0x0 PUSH1 0x8 SLOAD DUP2 MSTORE PUSH1 0x20 ADD SWAP1 DUP2 MSTORE PUSH1 0x20 ADD PUSH1 0x0 KECCAK256 PUSH1 0x0 DUP3 ADD MLOAD DUP2 PUSH1 0x0 ADD PUSH1 0x0 PUSH2 0x100 EXP DUP2 SLOAD DUP2 PUSH1 0xFF MUL NOT AND SWAP1 DUP4 ISZERO ISZERO MUL OR SWAP1 SSTORE POP PUSH1 0x20 DUP3 ADD MLOAD DUP2 PUSH1 0x0 ADD PUSH1 0x1 PUSH2 0x100 EXP DUP2 SLOAD DUP2 PUSH1 0x1 PUSH1 0x1 PUSH1 0xA0 SHL SUB MUL NOT AND SWAP1 DUP4 PUSH1 0x1 PUSH1 0x1 PUSH1 0xA0 SHL SUB AND MUL OR SWAP1 SSTORE POP PUSH1 0x40 DUP3 ADD MLOAD DUP2 PUSH1 0x1 ADD PUSH1 0x0 PUSH2 0x100 EXP DUP2 SLOAD DUP2 PUSH1 0x1 PUSH1 0x1 PUSH1 0xA0 SHL SUB MUL NOT AND SWAP1 DUP4 PUSH1 0x1 PUSH1 0x1 PUSH1 0xA0 SHL SUB AND MUL OR SWAP1 SSTORE POP PUSH1 0x60 DUP3 ADD MLOAD DUP2 PUSH1 0x2 ADD SSTORE PUSH1 0x80 DUP3 ADD MLOAD DUP2 PUSH1 0x3 ADD SSTORE PUSH1 0xA0 DUP3 ADD MLOAD DUP2 PUSH1 0x4 ADD SSTORE PUSH1 0xC0 DUP3 ADD MLOAD DUP2 PUSH1 0x5 ADD PUSH1 0x0 PUSH2 0x100 EXP DUP2 SLOAD DUP2 PUSH1 0xFF MUL NOT AND SWAP1 DUP4 ISZERO ISZERO MUL OR SWAP1 SSTORE POP SWAP1 POP POP DUP3 PUSH2 0x151F JUMPI PUSH1 0x2 SLOAD PUSH2 0x151F SWAP1 PUSH1 0x1 PUSH1 0x1 PUSH1 0xA0 SHL SUB DUP12 DUP2 AND SWAP2 DUP8 SWAP2 AND DUP6 PUSH2 0x1905 JUMP JUMPDEST SWAP5 POP POP POP POP POP PUSH2 0x777 PUSH1 0x1 DUP1 SSTORE JUMP JUMPDEST PUSH1 0x0 DUP1 SLOAD PUSH1 0x1 PUSH1 0x1 PUSH1 0xA0 SHL SUB DUP4 DUP2 AND PUSH1 0x1 PUSH1 0x1 PUSH1 0xA0 SHL SUB NOT DUP4 AND DUP2 OR DUP5 SSTORE PUSH1 0x40 MLOAD SWAP2 SWAP1 SWAP3 AND SWAP3 DUP4 SWAP2 PUSH32 0x8BE0079C531659141344CD1FD0A4F28419497F9722A3DAAFE3B4186F6B6457E0 SWAP2 SWAP1 LOG3 POP POP JUMP JUMPDEST PUSH2 0x1586 PUSH2 0x1943 JUMP JUMPDEST PUSH1 0x0 DUP1 SLOAD PUSH1 0xFF PUSH1 0xA0 SHL NOT AND SWAP1 SSTORE PUSH32 0x5DB9EE0A495BF2E6FF9C91A7834C1BA4FDD244A5E8AA4E537BD38AEAE4B073AA CALLER JUMPDEST PUSH1 0x40 MLOAD PUSH1 0x1 PUSH1 0x1 PUSH1 0xA0 SHL SUB SWAP1 SWAP2 AND DUP2 MSTORE PUSH1 0x20 ADD PUSH1 0x40 MLOAD DUP1 SWAP2 SUB SWAP1 LOG1 JUMP JUMPDEST PUSH2 0x15DB PUSH2 0x103F JUMP JUMPDEST PUSH1 0x0 DUP1 SLOAD PUSH1 0xFF PUSH1 0xA0 SHL NOT AND PUSH1 0x1 PUSH1 0xA0 SHL OR SWAP1 SSTORE PUSH32 0x62E78CEA01BEE320CD4E420270B5EA74000D11B0C9F74754EBDBFC544B05A258 PUSH2 0x15B6 CALLER SWAP1 JUMP JUMPDEST PUSH1 0x60 PUSH2 0x777 DUP4 DUP4 PUSH1 0x40 MLOAD DUP1 PUSH1 0x60 ADD PUSH1 0x40 MSTORE DUP1 PUSH1 0x27 DUP2 MSTORE PUSH1 0x20 ADD PUSH2 0x227E PUSH1 0x27 SWAP2 CODECOPY PUSH2 0x1993 JUMP JUMPDEST PUSH1 0x1 PUSH1 0x1 PUSH1 0xA0 SHL SUB DUP3 AND PUSH1 0x0 SWAP1 DUP2 MSTORE PUSH1 0xC PUSH1 0x20 SWAP1 DUP2 MSTORE PUSH1 0x40 DUP1 DUP4 KECCAK256 DUP1 SLOAD DUP3 MLOAD DUP2 DUP6 MUL DUP2 ADD DUP6 ADD SWAP1 SWAP4 MSTORE DUP1 DUP4 MSTORE PUSH1 0x60 SWAP5 SWAP4 DUP4 ADD DUP3 DUP3 DUP1 ISZERO PUSH2 0x169A JUMPI PUSH1 0x20 MUL DUP3 ADD SWAP2 SWAP1 PUSH1 0x0 MSTORE PUSH1 0x20 PUSH1 0x0 KECCAK256 SWAP1 JUMPDEST DUP2 SLOAD DUP2 MSTORE PUSH1 0x20 ADD SWAP1 PUSH1 0x1 ADD SWAP1 DUP1 DUP4 GT PUSH2 0x1686 JUMPI JUMPDEST POP POP DUP4 MLOAD SWAP4 SWAP5 POP POP POP POP DUP4 DUP2 LT ISZERO PUSH2 0x16B0 JUMPI DUP1 SWAP4 POP JUMPDEST PUSH1 0x0 DUP5 PUSH1 0x1 PUSH1 0x1 PUSH1 0x40 SHL SUB DUP2 GT ISZERO PUSH2 0x16CA JUMPI PUSH2 0x16CA PUSH2 0x1D1E JUMP JUMPDEST PUSH1 0x40 MLOAD SWAP1 DUP1 DUP3 MSTORE DUP1 PUSH1 0x20 MUL PUSH1 0x20 ADD DUP3 ADD PUSH1 0x40 MSTORE DUP1 ISZERO PUSH2 0x1703 JUMPI DUP2 PUSH1 0x20 ADD JUMPDEST PUSH2 0x16F0 PUSH2 0x1C72 JUMP JUMPDEST DUP2 MSTORE PUSH1 0x20 ADD SWAP1 PUSH1 0x1 SWAP1 SUB SWAP1 DUP2 PUSH2 0x16E8 JUMPI SWAP1 POP JUMPDEST POP SWAP1 POP DUP5 ISZERO PUSH2 0x1804 JUMPI PUSH1 0x0 DUP3 JUMPDEST PUSH2 0x171A DUP8 DUP6 PUSH2 0x21D0 JUMP JUMPDEST DUP2 GT ISZERO PUSH2 0x1801 JUMPI PUSH1 0xB PUSH1 0x0 DUP7 PUSH2 0x1731 PUSH1 0x1 DUP6 PUSH2 0x21D0 JUMP JUMPDEST DUP2 MLOAD DUP2 LT PUSH2 0x1741 JUMPI PUSH2 0x1741 PUSH2 0x20D7 JUMP JUMPDEST PUSH1 0x20 SWAP1 DUP2 MUL SWAP2 SWAP1 SWAP2 ADD DUP2 ADD MLOAD DUP3 MSTORE DUP2 DUP2 ADD SWAP3 SWAP1 SWAP3 MSTORE PUSH1 0x40 SWAP1 DUP2 ADD PUSH1 0x0 KECCAK256 DUP2 MLOAD PUSH1 0xE0 DUP2 ADD DUP4 MSTORE DUP2 SLOAD PUSH1 0xFF DUP1 DUP3 AND ISZERO ISZERO DUP4 MSTORE PUSH1 0x1 PUSH1 0x1 PUSH1 0xA0 SHL SUB PUSH2 0x100 SWAP1 SWAP3 DIV DUP3 AND SWAP6 DUP4 ADD SWAP6 SWAP1 SWAP6 MSTORE PUSH1 0x1 DUP4 ADD SLOAD AND SWAP3 DUP2 ADD SWAP3 SWAP1 SWAP3 MSTORE PUSH1 0x2 DUP2 ADD SLOAD PUSH1 0x60 DUP4 ADD MSTORE PUSH1 0x3 DUP2 ADD SLOAD PUSH1 0x80 DUP4 ADD MSTORE PUSH1 0x4 DUP2 ADD SLOAD PUSH1 0xA0 DUP4 ADD MSTORE PUSH1 0x5 ADD SLOAD SWAP1 SWAP2 AND ISZERO ISZERO PUSH1 0xC0 DUP3 ADD MSTORE DUP4 MLOAD DUP5 SWAP1 DUP5 SWAP1 DUP2 LT PUSH2 0x17D5 JUMPI PUSH2 0x17D5 PUSH2 0x20D7 JUMP JUMPDEST PUSH1 0x20 MUL PUSH1 0x20 ADD ADD DUP2 SWAP1 MSTORE POP DUP2 DUP1 PUSH2 0x17EB SWAP1 PUSH2 0x2150 JUMP JUMPDEST SWAP3 POP POP DUP1 DUP1 PUSH2 0x17F9 SWAP1 PUSH2 0x2223 JUMP JUMPDEST SWAP2 POP POP PUSH2 0x1710 JUMP JUMPDEST POP POP JUMPDEST SWAP6 SWAP5 POP POP POP POP POP JUMP JUMPDEST PUSH1 0x2 PUSH1 0x1 SLOAD EQ ISZERO PUSH2 0x1860 JUMPI PUSH1 0x40 MLOAD PUSH3 0x461BCD PUSH1 0xE5 SHL DUP2 MSTORE PUSH1 0x20 PUSH1 0x4 DUP3 ADD MSTORE PUSH1 0x1F PUSH1 0x24 DUP3 ADD MSTORE PUSH32 0x5265656E7472616E637947756172643A207265656E7472616E742063616C6C00 PUSH1 0x44 DUP3 ADD MSTORE PUSH1 0x64 ADD PUSH2 0x6DF JUMP JUMPDEST PUSH1 0x2 PUSH1 0x1 SSTORE JUMP JUMPDEST PUSH1 0x40 MLOAD PUSH1 0x1 PUSH1 0x1 PUSH1 0xA0 SHL SUB DUP4 AND PUSH1 0x24 DUP3 ADD MSTORE PUSH1 0x44 DUP2 ADD DUP3 SWAP1 MSTORE PUSH2 0x18CA SWAP1 DUP5 SWAP1 PUSH4 0xA9059CBB PUSH1 0xE0 SHL SWAP1 PUSH1 0x64 ADD JUMPDEST PUSH1 0x40 DUP1 MLOAD PUSH1 0x1F NOT DUP2 DUP5 SUB ADD DUP2 MSTORE SWAP2 SWAP1 MSTORE PUSH1 0x20 DUP2 ADD DUP1 MLOAD PUSH1 0x1 PUSH1 0x1 PUSH1 0xE0 SHL SUB AND PUSH1 0x1 PUSH1 0x1 PUSH1 0xE0 SHL SUB NOT SWAP1 SWAP4 AND SWAP3 SWAP1 SWAP3 OR SWAP1 SWAP2 MSTORE PUSH2 0x1A0B JUMP JUMPDEST POP POP POP JUMP JUMPDEST PUSH1 0x1 PUSH1 0x1 PUSH1 0xA0 SHL SUB DUP3 AND PUSH1 0x0 SWAP1 DUP2 MSTORE PUSH1 0xA PUSH1 0x20 MSTORE PUSH1 0x40 DUP2 KECCAK256 SLOAD PUSH2 0x2710 SWAP1 PUSH2 0x18FB SWAP1 DUP5 SWAP1 PUSH2 0xFFFF AND PUSH2 0x21E7 JUMP JUMPDEST PUSH2 0x777 SWAP2 SWAP1 PUSH2 0x223A JUMP JUMPDEST PUSH1 0x40 MLOAD PUSH1 0x1 PUSH1 0x1 PUSH1 0xA0 SHL SUB DUP1 DUP6 AND PUSH1 0x24 DUP4 ADD MSTORE DUP4 AND PUSH1 0x44 DUP3 ADD MSTORE PUSH1 0x64 DUP2 ADD DUP3 SWAP1 MSTORE PUSH2 0x193D SWAP1 DUP6 SWAP1 PUSH4 0x23B872DD PUSH1 0xE0 SHL SWAP1 PUSH1 0x84 ADD PUSH2 0x1893 JUMP JUMPDEST POP POP POP POP JUMP JUMPDEST PUSH1 0x0 SLOAD PUSH1 0x1 PUSH1 0xA0 SHL SWAP1 DIV PUSH1 0xFF AND PUSH2 0x8C5 JUMPI PUSH1 0x40 MLOAD PUSH3 0x461BCD PUSH1 0xE5 SHL DUP2 MSTORE PUSH1 0x20 PUSH1 0x4 DUP3 ADD MSTORE PUSH1 0x14 PUSH1 0x24 DUP3 ADD MSTORE PUSH20 0x14185D5CD8589B194E881B9BDD081C185D5CD959 PUSH1 0x62 SHL PUSH1 0x44 DUP3 ADD MSTORE PUSH1 0x64 ADD PUSH2 0x6DF JUMP JUMPDEST PUSH1 0x60 PUSH1 0x0 DUP1 DUP6 PUSH1 0x1 PUSH1 0x1 PUSH1 0xA0 SHL SUB AND DUP6 PUSH1 0x40 MLOAD PUSH2 0x19B0 SWAP2 SWAP1 PUSH2 0x224E JUMP JUMPDEST PUSH1 0x0 PUSH1 0x40 MLOAD DUP1 DUP4 SUB DUP2 DUP6 GAS DELEGATECALL SWAP2 POP POP RETURNDATASIZE DUP1 PUSH1 0x0 DUP2 EQ PUSH2 0x19EB JUMPI PUSH1 0x40 MLOAD SWAP2 POP PUSH1 0x1F NOT PUSH1 0x3F RETURNDATASIZE ADD AND DUP3 ADD PUSH1 0x40 MSTORE RETURNDATASIZE DUP3 MSTORE RETURNDATASIZE PUSH1 0x0 PUSH1 0x20 DUP5 ADD RETURNDATACOPY PUSH2 0x19F0 JUMP JUMPDEST PUSH1 0x60 SWAP2 POP JUMPDEST POP SWAP2 POP SWAP2 POP PUSH2 0x1A01 DUP7 DUP4 DUP4 DUP8 PUSH2 0x1AE0 JUMP JUMPDEST SWAP7 SWAP6 POP POP POP POP POP POP JUMP JUMPDEST PUSH1 0x0 PUSH2 0x1A60 DUP3 PUSH1 0x40 MLOAD DUP1 PUSH1 0x40 ADD PUSH1 0x40 MSTORE DUP1 PUSH1 0x20 DUP2 MSTORE PUSH1 0x20 ADD PUSH32 0x5361666545524332303A206C6F772D6C6576656C2063616C6C206661696C6564 DUP2 MSTORE POP DUP6 PUSH1 0x1 PUSH1 0x1 PUSH1 0xA0 SHL SUB AND PUSH2 0x1B5E SWAP1 SWAP3 SWAP2 SWAP1 PUSH4 0xFFFFFFFF AND JUMP JUMPDEST SWAP1 POP DUP1 MLOAD PUSH1 0x0 EQ DUP1 PUSH2 0x1A81 JUMPI POP DUP1 DUP1 PUSH1 0x20 ADD SWAP1 MLOAD DUP2 ADD SWAP1 PUSH2 0x1A81 SWAP2 SWAP1 PUSH2 0x2206 JUMP JUMPDEST PUSH2 0x18CA JUMPI PUSH1 0x40 MLOAD PUSH3 0x461BCD PUSH1 0xE5 SHL DUP2 MSTORE PUSH1 0x20 PUSH1 0x4 DUP3 ADD MSTORE PUSH1 0x2A PUSH1 0x24 DUP3 ADD MSTORE PUSH32 0x5361666545524332303A204552433230206F7065726174696F6E20646964206E PUSH1 0x44 DUP3 ADD MSTORE PUSH10 0x1BDD081CDD58D8D95959 PUSH1 0xB2 SHL PUSH1 0x64 DUP3 ADD MSTORE PUSH1 0x84 ADD PUSH2 0x6DF JUMP JUMPDEST PUSH1 0x60 DUP4 ISZERO PUSH2 0x1B4C JUMPI DUP3 MLOAD PUSH2 0x1B45 JUMPI PUSH1 0x1 PUSH1 0x1 PUSH1 0xA0 SHL SUB DUP6 AND EXTCODESIZE PUSH2 0x1B45 JUMPI PUSH1 0x40 MLOAD PUSH3 0x461BCD PUSH1 0xE5 SHL DUP2 MSTORE PUSH1 0x20 PUSH1 0x4 DUP3 ADD MSTORE PUSH1 0x1D PUSH1 0x24 DUP3 ADD MSTORE PUSH32 0x416464726573733A2063616C6C20746F206E6F6E2D636F6E7472616374000000 PUSH1 0x44 DUP3 ADD MSTORE PUSH1 0x64 ADD PUSH2 0x6DF JUMP JUMPDEST POP DUP2 PUSH2 0x1B56 JUMP JUMPDEST PUSH2 0x1B56 DUP4 DUP4 PUSH2 0x1B6D JUMP JUMPDEST SWAP5 SWAP4 POP POP POP POP JUMP JUMPDEST PUSH1 0x60 PUSH2 0x1B56 DUP5 DUP5 PUSH1 0x0 DUP6 PUSH2 0x1B97 JUMP JUMPDEST DUP2 MLOAD ISZERO PUSH2 0x1B7D JUMPI DUP2 MLOAD DUP1 DUP4 PUSH1 0x20 ADD REVERT JUMPDEST DUP1 PUSH1 0x40 MLOAD PUSH3 0x461BCD PUSH1 0xE5 SHL DUP2 MSTORE PUSH1 0x4 ADD PUSH2 0x6DF SWAP2 SWAP1 PUSH2 0x226A JUMP JUMPDEST PUSH1 0x60 DUP3 SELFBALANCE LT ISZERO PUSH2 0x1BF8 JUMPI PUSH1 0x40 MLOAD PUSH3 0x461BCD PUSH1 0xE5 SHL DUP2 MSTORE PUSH1 0x20 PUSH1 0x4 DUP3 ADD MSTORE PUSH1 0x26 PUSH1 0x24 DUP3 ADD MSTORE PUSH32 0x416464726573733A20696E73756666696369656E742062616C616E636520666F PUSH1 0x44 DUP3 ADD MSTORE PUSH6 0x1C8818D85B1B PUSH1 0xD2 SHL PUSH1 0x64 DUP3 ADD MSTORE PUSH1 0x84 ADD PUSH2 0x6DF JUMP JUMPDEST PUSH1 0x0 DUP1 DUP7 PUSH1 0x1 PUSH1 0x1 PUSH1 0xA0 SHL SUB AND DUP6 DUP8 PUSH1 0x40 MLOAD PUSH2 0x1C14 SWAP2 SWAP1 PUSH2 0x224E JUMP JUMPDEST PUSH1 0x0 PUSH1 0x40 MLOAD DUP1 DUP4 SUB DUP2 DUP6 DUP8 GAS CALL SWAP3 POP POP POP RETURNDATASIZE DUP1 PUSH1 0x0 DUP2 EQ PUSH2 0x1C51 JUMPI PUSH1 0x40 MLOAD SWAP2 POP PUSH1 0x1F NOT PUSH1 0x3F RETURNDATASIZE ADD AND DUP3 ADD PUSH1 0x40 MSTORE RETURNDATASIZE DUP3 MSTORE RETURNDATASIZE PUSH1 0x0 PUSH1 0x20 DUP5 ADD RETURNDATACOPY PUSH2 0x1C56 JUMP JUMPDEST PUSH1 0x60 SWAP2 POP JUMPDEST POP SWAP2 POP SWAP2 POP PUSH2 0x1C67 DUP8 DUP4 DUP4 DUP8 PUSH2 0x1AE0 JUMP JUMPDEST SWAP8 SWAP7 POP POP POP POP POP POP POP JUMP JUMPDEST PUSH1 0x40 DUP1 MLOAD PUSH1 0xE0 DUP2 ADD DUP3 MSTORE PUSH1 0x0 DUP1 DUP3 MSTORE PUSH1 0x20 DUP3 ADD DUP2 SWAP1 MSTORE SWAP2 DUP2 ADD DUP3 SWAP1 MSTORE PUSH1 0x60 DUP2 ADD DUP3 SWAP1 MSTORE PUSH1 0x80 DUP2 ADD DUP3 SWAP1 MSTORE PUSH1 0xA0 DUP2 ADD DUP3 SWAP1 MSTORE PUSH1 0xC0 DUP2 ADD SWAP2 SWAP1 SWAP2 MSTORE SWAP1 JUMP JUMPDEST PUSH1 0x40 MLOAD DUP1 PUSH1 0x40 ADD PUSH1 0x40 MSTORE DUP1 PUSH2 0x1CC1 PUSH2 0x1C72 JUMP JUMPDEST DUP2 MSTORE PUSH1 0x20 ADD PUSH2 0x1CE7 PUSH1 0x40 MLOAD DUP1 PUSH1 0x40 ADD PUSH1 0x40 MSTORE DUP1 PUSH1 0x0 ISZERO ISZERO DUP2 MSTORE PUSH1 0x20 ADD PUSH1 0x0 ISZERO ISZERO DUP2 MSTORE POP SWAP1 JUMP JUMPDEST SWAP1 MSTORE SWAP1 JUMP JUMPDEST PUSH1 0x1 PUSH1 0x1 PUSH1 0xA0 SHL SUB DUP2 AND DUP2 EQ PUSH2 0xD54 JUMPI PUSH1 0x0 DUP1 REVERT JUMPDEST PUSH1 0x0 PUSH1 0x20 DUP3 DUP5 SUB SLT ISZERO PUSH2 0x1D13 JUMPI PUSH1 0x0 DUP1 REVERT JUMPDEST DUP2 CALLDATALOAD PUSH2 0x777 DUP2 PUSH2 0x1CEC JUMP JUMPDEST PUSH4 0x4E487B71 PUSH1 0xE0 SHL PUSH1 0x0 MSTORE PUSH1 0x41 PUSH1 0x4 MSTORE PUSH1 0x24 PUSH1 0x0 REVERT JUMPDEST PUSH1 0x0 DUP1 PUSH1 0x40 DUP4 DUP6 SUB SLT ISZERO PUSH2 0x1D47 JUMPI PUSH1 0x0 DUP1 REVERT JUMPDEST DUP3 CALLDATALOAD SWAP2 POP PUSH1 0x20 DUP1 DUP5 ADD CALLDATALOAD PUSH1 0x1 PUSH1 0x1 PUSH1 0x40 SHL SUB DUP1 DUP3 GT ISZERO PUSH2 0x1D66 JUMPI PUSH1 0x0 DUP1 REVERT JUMPDEST DUP2 DUP7 ADD SWAP2 POP DUP7 PUSH1 0x1F DUP4 ADD SLT PUSH2 0x1D7A JUMPI PUSH1 0x0 DUP1 REVERT JUMPDEST DUP2 CALLDATALOAD DUP2 DUP2 GT ISZERO PUSH2 0x1D8C JUMPI PUSH2 0x1D8C PUSH2 0x1D1E JUMP JUMPDEST DUP1 PUSH1 0x5 SHL PUSH1 0x40 MLOAD PUSH1 0x1F NOT PUSH1 0x3F DUP4 ADD AND DUP2 ADD DUP2 DUP2 LT DUP6 DUP3 GT OR ISZERO PUSH2 0x1DB1 JUMPI PUSH2 0x1DB1 PUSH2 0x1D1E JUMP JUMPDEST PUSH1 0x40 MSTORE SWAP2 DUP3 MSTORE DUP5 DUP3 ADD SWAP3 POP DUP4 DUP2 ADD DUP6 ADD SWAP2 DUP10 DUP4 GT ISZERO PUSH2 0x1DCF JUMPI PUSH1 0x0 DUP1 REVERT JUMPDEST SWAP4 DUP6 ADD SWAP4 JUMPDEST DUP3 DUP6 LT ISZERO PUSH2 0x1DED JUMPI DUP5 CALLDATALOAD DUP5 MSTORE SWAP4 DUP6 ADD SWAP4 SWAP3 DUP6 ADD SWAP3 PUSH2 0x1DD4 JUMP JUMPDEST DUP1 SWAP7 POP POP POP POP POP POP POP SWAP3 POP SWAP3 SWAP1 POP JUMP JUMPDEST PUSH1 0x0 PUSH1 0x20 DUP3 DUP5 SUB SLT ISZERO PUSH2 0x1E0F JUMPI PUSH1 0x0 DUP1 REVERT JUMPDEST POP CALLDATALOAD SWAP2 SWAP1 POP JUMP JUMPDEST DUP1 ISZERO ISZERO DUP2 EQ PUSH2 0xD54 JUMPI PUSH1 0x0 DUP1 REVERT JUMPDEST PUSH1 0x0 DUP1 PUSH1 0x0 PUSH1 0x60 DUP5 DUP7 SUB SLT ISZERO PUSH2 0x1E39 JUMPI PUSH1 0x0 DUP1 REVERT JUMPDEST DUP4 CALLDATALOAD PUSH2 0x1E44 DUP2 PUSH2 0x1E16 JUMP JUMPDEST SWAP3 POP PUSH1 0x20 DUP5 ADD CALLDATALOAD PUSH2 0x1E54 DUP2 PUSH2 0x1CEC JUMP JUMPDEST SWAP3 SWAP6 SWAP3 SWAP5 POP POP POP PUSH1 0x40 SWAP2 SWAP1 SWAP2 ADD CALLDATALOAD SWAP1 JUMP JUMPDEST DUP1 MLOAD ISZERO ISZERO DUP3 MSTORE PUSH1 0x20 DUP2 ADD MLOAD PUSH1 0x1 DUP1 PUSH1 0xA0 SHL SUB DUP1 DUP3 AND PUSH1 0x20 DUP6 ADD MSTORE DUP1 PUSH1 0x40 DUP5 ADD MLOAD AND PUSH1 0x40 DUP6 ADD MSTORE POP POP PUSH1 0x60 DUP2 ADD MLOAD PUSH1 0x60 DUP4 ADD MSTORE PUSH1 0x80 DUP2 ADD MLOAD PUSH1 0x80 DUP4 ADD MSTORE PUSH1 0xA0 DUP2 ADD MLOAD PUSH1 0xA0 DUP4 ADD MSTORE PUSH1 0xC0 DUP2 ADD MLOAD ISZERO ISZERO PUSH1 0xC0 DUP4 ADD MSTORE POP POP JUMP JUMPDEST PUSH1 0xE0 DUP2 ADD PUSH2 0xAB7 DUP3 DUP5 PUSH2 0x1E65 JUMP JUMPDEST PUSH1 0x0 DUP1 PUSH1 0x40 DUP4 DUP6 SUB SLT ISZERO PUSH2 0x1EDC JUMPI PUSH1 0x0 DUP1 REVERT JUMPDEST DUP3 CALLDATALOAD PUSH2 0x1EE7 DUP2 PUSH2 0x1CEC JUMP JUMPDEST SWAP2 POP PUSH1 0x20 DUP4 ADD CALLDATALOAD PUSH2 0xFFFF DUP2 AND DUP2 EQ PUSH2 0x1EFE JUMPI PUSH1 0x0 DUP1 REVERT JUMPDEST DUP1 SWAP2 POP POP SWAP3 POP SWAP3 SWAP1 POP JUMP JUMPDEST PUSH1 0x0 DUP1 PUSH1 0x20 DUP4 DUP6 SUB SLT ISZERO PUSH2 0x1F1C JUMPI PUSH1 0x0 DUP1 REVERT JUMPDEST DUP3 CALLDATALOAD PUSH1 0x1 PUSH1 0x1 PUSH1 0x40 SHL SUB DUP1 DUP3 GT ISZERO PUSH2 0x1F33 JUMPI PUSH1 0x0 DUP1 REVERT JUMPDEST DUP2 DUP6 ADD SWAP2 POP DUP6 PUSH1 0x1F DUP4 ADD SLT PUSH2 0x1F47 JUMPI PUSH1 0x0 DUP1 REVERT JUMPDEST DUP2 CALLDATALOAD DUP2 DUP2 GT ISZERO PUSH2 0x1F56 JUMPI PUSH1 0x0 DUP1 REVERT JUMPDEST DUP7 PUSH1 0x20 DUP3 PUSH1 0x5 SHL DUP6 ADD ADD GT ISZERO PUSH2 0x1F6B JUMPI PUSH1 0x0 DUP1 REVERT JUMPDEST PUSH1 0x20 SWAP3 SWAP1 SWAP3 ADD SWAP7 SWAP2 SWAP6 POP SWAP1 SWAP4 POP POP POP POP JUMP JUMPDEST PUSH1 0x0 JUMPDEST DUP4 DUP2 LT ISZERO PUSH2 0x1F98 JUMPI DUP2 DUP2 ADD MLOAD DUP4 DUP3 ADD MSTORE PUSH1 0x20 ADD PUSH2 0x1F80 JUMP JUMPDEST DUP4 DUP2 GT ISZERO PUSH2 0x193D JUMPI POP POP PUSH1 0x0 SWAP2 ADD MSTORE JUMP JUMPDEST PUSH1 0x0 DUP2 MLOAD DUP1 DUP5 MSTORE PUSH2 0x1FC1 DUP2 PUSH1 0x20 DUP7 ADD PUSH1 0x20 DUP7 ADD PUSH2 0x1F7D JUMP JUMPDEST PUSH1 0x1F ADD PUSH1 0x1F NOT AND SWAP3 SWAP1 SWAP3 ADD PUSH1 0x20 ADD SWAP3 SWAP2 POP POP JUMP JUMPDEST PUSH1 0x0 PUSH1 0x20 DUP1 DUP4 ADD DUP2 DUP5 MSTORE DUP1 DUP6 MLOAD DUP1 DUP4 MSTORE PUSH1 0x40 DUP7 ADD SWAP2 POP PUSH1 0x40 DUP2 PUSH1 0x5 SHL DUP8 ADD ADD SWAP3 POP DUP4 DUP8 ADD PUSH1 0x0 JUMPDEST DUP3 DUP2 LT ISZERO PUSH2 0x202A JUMPI PUSH1 0x3F NOT DUP9 DUP7 SUB ADD DUP5 MSTORE PUSH2 0x2018 DUP6 DUP4 MLOAD PUSH2 0x1FA9 JUMP JUMPDEST SWAP5 POP SWAP3 DUP6 ADD SWAP3 SWAP1 DUP6 ADD SWAP1 PUSH1 0x1 ADD PUSH2 0x1FFC JUMP JUMPDEST POP SWAP3 SWAP8 SWAP7 POP POP POP POP POP POP POP JUMP JUMPDEST PUSH1 0x0 DUP1 PUSH1 0x40 DUP4 DUP6 SUB SLT ISZERO PUSH2 0x204A JUMPI PUSH1 0x0 DUP1 REVERT JUMPDEST DUP3 CALLDATALOAD PUSH2 0x2055 DUP2 PUSH2 0x1CEC JUMP JUMPDEST SWAP5 PUSH1 0x20 SWAP4 SWAP1 SWAP4 ADD CALLDATALOAD SWAP4 POP POP POP JUMP JUMPDEST PUSH1 0x20 DUP1 DUP3 MSTORE DUP3 MLOAD DUP3 DUP3 ADD DUP2 SWAP1 MSTORE PUSH1 0x0 SWAP2 SWAP1 DUP5 DUP3 ADD SWAP1 PUSH1 0x40 DUP6 ADD SWAP1 DUP5 JUMPDEST DUP2 DUP2 LT ISZERO PUSH2 0x1801 JUMPI DUP4 MLOAD PUSH2 0x2094 DUP5 DUP3 MLOAD PUSH2 0x1E65 JUMP JUMPDEST DUP6 ADD MLOAD DUP1 MLOAD ISZERO ISZERO PUSH1 0xE0 DUP6 ADD MSTORE DUP6 ADD MLOAD ISZERO ISZERO PUSH2 0x100 DUP5 ADD MSTORE SWAP3 DUP5 ADD SWAP3 PUSH2 0x120 SWAP1 SWAP3 ADD SWAP2 PUSH1 0x1 ADD PUSH2 0x207F JUMP JUMPDEST PUSH1 0x0 PUSH1 0x20 DUP3 DUP5 SUB SLT ISZERO PUSH2 0x20D0 JUMPI PUSH1 0x0 DUP1 REVERT JUMPDEST POP MLOAD SWAP2 SWAP1 POP JUMP JUMPDEST PUSH4 0x4E487B71 PUSH1 0xE0 SHL PUSH1 0x0 MSTORE PUSH1 0x32 PUSH1 0x4 MSTORE PUSH1 0x24 PUSH1 0x0 REVERT JUMPDEST PUSH1 0x0 DUP1 DUP4 CALLDATALOAD PUSH1 0x1E NOT DUP5 CALLDATASIZE SUB ADD DUP2 SLT PUSH2 0x2104 JUMPI PUSH1 0x0 DUP1 REVERT JUMPDEST DUP4 ADD DUP1 CALLDATALOAD SWAP2 POP PUSH1 0x1 PUSH1 0x1 PUSH1 0x40 SHL SUB DUP3 GT ISZERO PUSH2 0x211E JUMPI PUSH1 0x0 DUP1 REVERT JUMPDEST PUSH1 0x20 ADD SWAP2 POP CALLDATASIZE DUP2 SWAP1 SUB DUP3 SGT ISZERO PUSH2 0x2133 JUMPI PUSH1 0x0 DUP1 REVERT JUMPDEST SWAP3 POP SWAP3 SWAP1 POP JUMP JUMPDEST PUSH4 0x4E487B71 PUSH1 0xE0 SHL PUSH1 0x0 MSTORE PUSH1 0x11 PUSH1 0x4 MSTORE PUSH1 0x24 PUSH1 0x0 REVERT JUMPDEST PUSH1 0x0 PUSH1 0x0 NOT DUP3 EQ ISZERO PUSH2 0x2164 JUMPI PUSH2 0x2164 PUSH2 0x213A JUMP JUMPDEST POP PUSH1 0x1 ADD SWAP1 JUMP JUMPDEST PUSH1 0x0 DUP3 NOT DUP3 GT ISZERO PUSH2 0x217E JUMPI PUSH2 0x217E PUSH2 0x213A JUMP JUMPDEST POP ADD SWAP1 JUMP JUMPDEST PUSH1 0x0 PUSH1 0x1 PUSH1 0x1 PUSH1 0x40 SHL SUB DUP3 AND DUP1 PUSH2 0x219C JUMPI PUSH2 0x219C PUSH2 0x213A JUMP JUMPDEST PUSH1 0x0 NOT ADD SWAP3 SWAP2 POP POP JUMP JUMPDEST PUSH4 0x4E487B71 PUSH1 0xE0 SHL PUSH1 0x0 MSTORE PUSH1 0x12 PUSH1 0x4 MSTORE PUSH1 0x24 PUSH1 0x0 REVERT JUMPDEST PUSH1 0x0 DUP3 PUSH2 0x21CB JUMPI PUSH2 0x21CB PUSH2 0x21A6 JUMP JUMPDEST POP MOD SWAP1 JUMP JUMPDEST PUSH1 0x0 DUP3 DUP3 LT ISZERO PUSH2 0x21E2 JUMPI PUSH2 0x21E2 PUSH2 0x213A JUMP JUMPDEST POP SUB SWAP1 JUMP JUMPDEST PUSH1 0x0 DUP2 PUSH1 0x0 NOT DIV DUP4 GT DUP3 ISZERO ISZERO AND ISZERO PUSH2 0x2201 JUMPI PUSH2 0x2201 PUSH2 0x213A JUMP JUMPDEST POP MUL SWAP1 JUMP JUMPDEST PUSH1 0x0 PUSH1 0x20 DUP3 DUP5 SUB SLT ISZERO PUSH2 0x2218 JUMPI PUSH1 0x0 DUP1 REVERT JUMPDEST DUP2 MLOAD PUSH2 0x777 DUP2 PUSH2 0x1E16 JUMP JUMPDEST PUSH1 0x0 DUP2 PUSH2 0x2232 JUMPI PUSH2 0x2232 PUSH2 0x213A JUMP JUMPDEST POP PUSH1 0x0 NOT ADD SWAP1 JUMP JUMPDEST PUSH1 0x0 DUP3 PUSH2 0x2249 JUMPI PUSH2 0x2249 PUSH2 0x21A6 JUMP JUMPDEST POP DIV SWAP1 JUMP JUMPDEST PUSH1 0x0 DUP3 MLOAD PUSH2 0x2260 DUP2 DUP5 PUSH1 0x20 DUP8 ADD PUSH2 0x1F7D JUMP JUMPDEST SWAP2 SWAP1 SWAP2 ADD SWAP3 SWAP2 POP POP JUMP JUMPDEST PUSH1 0x20 DUP2 MSTORE PUSH1 0x0 PUSH2 0x777 PUSH1 0x20 DUP4 ADD DUP5 PUSH2 0x1FA9 JUMP INVALID COINBASE PUSH5 0x6472657373 GASPRICE KECCAK256 PUSH13 0x6F772D6C6576656C2064656C65 PUSH8 0x6174652063616C6C KECCAK256 PUSH7 0x61696C6564A264 PUSH10 0x706673582212204FB914 SDIV 0xC1 PUSH28 0xDB5AD62D8A106E09D7F765D0856ED1BC354F31E6EEF2E925A0286473 PUSH16 0x6C634300080C00330000000000000000 "},"gasEstimates":{"creation":{"codeDepositCost":"1784400","executionCost":"infinite","totalCost":"infinite"},"external":{"bank()":"2382","bets(uint256)":"13353","coinTossBets(uint256)":"2564","getBalance()":"218","getBetData(uint256)":"13729","getBetStatus(uint256)":"2567","getLastUserBets(address,uint256)":"infinite","getTokenBalance(address)":"infinite","hasPendingBets(address)":"2662","multicall(bytes[])":"infinite","multiplier()":"2352","owner()":"2442","pause()":"infinite","paused()":"2388","rawFulfillRandomWords(uint256,uint256[])":"infinite","refundBet(uint256)":"infinite","renounceOwnership()":"infinite","s_owner()":"2381","s_randomWords()":"2374","s_requestId()":"2372","setBank(address)":"27806","setHouseEdge(address,uint16)":"30626","tokens(address)":"2668","transferOwnership(address)":"infinite","updateMultiplier(uint256)":"24577","wager(bool,address,uint256)":"infinite"},"internal":{"_getFees(address,uint256)":"2384","_getLastUserBets(address,uint256)":"infinite","_getPayout(uint256)":"2233","_isGasToken(address)":"infinite","_newBet(address,uint256,uint256)":"infinite","fulfillRandomWords(uint256,uint256[] memory)":"infinite","getMultiplier()":"infinite"}},"methodIdentifiers":{"bank()":"76cdb03b","bets(uint256)":"22af00fa","coinTossBets(uint256)":"e051ece9","getBalance()":"12065fe0","getBetData(uint256)":"5bfe1630","getBetStatus(uint256)":"61f14f11","getLastUserBets(address,uint256)":"c2fb579f","getTokenBalance(address)":"3aecd0e3","hasPendingBets(address)":"594043fd","multicall(bytes[])":"ac9650d8","multiplier()":"1b3ed722","owner()":"8da5cb5b","pause()":"8456cb59","paused()":"5c975abb","rawFulfillRandomWords(uint256,uint256[])":"1fe543e3","refundBet(uint256)":"e1fdb4b4","renounceOwnership()":"715018a6","s_owner()":"e3978240","s_randomWords()":"1d3c7b91","s_requestId()":"e89e106a","setBank(address)":"090d23b9","setHouseEdge(address,uint16)":"78bcde22","tokens(address)":"e4860339","transferOwnership(address)":"f2fde38b","updateMultiplier(uint256)":"5ffe6146","wager(bool,address,uint256)":"50462ea0"}},"storageLayout":{"storage":[{"astId":766,"contract":"contracts/CoinToss.sol:CoinTossV5","label":"_owner","offset":0,"slot":"0","type":"t_address"},{"astId":889,"contract":"contracts/CoinToss.sol:CoinTossV5","label":"_paused","offset":20,"slot":"0","type":"t_bool"},{"astId":990,"contract":"contracts/CoinToss.sol:CoinTossV5","label":"_status","offset":0,"slot":"1","type":"t_uint256"},{"astId":5074,"contract":"contracts/CoinToss.sol:CoinTossV5","label":"bank","offset":0,"slot":"2","type":"t_contract(IBankV2)7313"},{"astId":5076,"contract":"contracts/CoinToss.sol:CoinTossV5","label":"s_subscriptionId","offset":20,"slot":"2","type":"t_uint64"},{"astId":5079,"contract":"contracts/CoinToss.sol:CoinTossV5","label":"COORDINATOR","offset":0,"slot":"3","type":"t_contract(VRFCoordinatorV2Interface)219"},{"astId":5082,"contract":"contracts/CoinToss.sol:CoinTossV5","label":"vrfCoordinator","offset":0,"slot":"4","type":"t_address"},{"astId":5085,"contract":"contracts/CoinToss.sol:CoinTossV5","label":"keyHash","offset":0,"slot":"5","type":"t_bytes32"},{"astId":5088,"contract":"contracts/CoinToss.sol:CoinTossV5","label":"callbackGasLimit","offset":0,"slot":"6","type":"t_uint32"},{"astId":5091,"contract":"contracts/CoinToss.sol:CoinTossV5","label":"requestConfirmations","offset":4,"slot":"6","type":"t_uint16"},{"astId":5094,"contract":"contracts/CoinToss.sol:CoinTossV5","label":"numWords","offset":6,"slot":"6","type":"t_uint32"},{"astId":5096,"contract":"contracts/CoinToss.sol:CoinTossV5","label":"s_randomWords","offset":0,"slot":"7","type":"t_uint256"},{"astId":5098,"contract":"contracts/CoinToss.sol:CoinTossV5","label":"s_requestId","offset":0,"slot":"8","type":"t_uint256"},{"astId":5100,"contract":"contracts/CoinToss.sol:CoinTossV5","label":"s_owner","offset":0,"slot":"9","type":"t_address"},{"astId":5135,"contract":"contracts/CoinToss.sol:CoinTossV5","label":"tokens","offset":0,"slot":"10","type":"t_mapping(t_address,t_struct(Token)5129_storage)"},{"astId":5161,"contract":"contracts/CoinToss.sol:CoinTossV5","label":"bets","offset":0,"slot":"11","type":"t_mapping(t_uint256,t_struct(Bet)5150_storage)"},{"astId":5167,"contract":"contracts/CoinToss.sol:CoinTossV5","label":"_userBets","offset":0,"slot":"12","type":"t_mapping(t_address,t_array(t_uint256)dyn_storage)"},{"astId":5207,"contract":"contracts/CoinToss.sol:CoinTossV5","label":"coinTossBets","offset":0,"slot":"13","type":"t_mapping(t_uint256,t_struct(CoinTossBet)5201_storage)"},{"astId":5557,"contract":"contracts/CoinToss.sol:CoinTossV5","label":"multiplier","offset":0,"slot":"14","type":"t_uint256"}],"types":{"t_address":{"encoding":"inplace","label":"address","numberOfBytes":"20"},"t_address_payable":{"encoding":"inplace","label":"address payable","numberOfBytes":"20"},"t_array(t_uint256)dyn_storage":{"base":"t_uint256","encoding":"dynamic_array","label":"uint256[]","numberOfBytes":"32"},"t_bool":{"encoding":"inplace","label":"bool","numberOfBytes":"1"},"t_bytes32":{"encoding":"inplace","label":"bytes32","numberOfBytes":"32"},"t_contract(IBankV2)7313":{"encoding":"inplace","label":"contract IBankV2","numberOfBytes":"20"},"t_contract(VRFCoordinatorV2Interface)219":{"encoding":"inplace","label":"contract VRFCoordinatorV2Interface","numberOfBytes":"20"},"t_mapping(t_address,t_array(t_uint256)dyn_storage)":{"encoding":"mapping","key":"t_address","label":"mapping(address => uint256[])","numberOfBytes":"32","value":"t_array(t_uint256)dyn_storage"},"t_mapping(t_address,t_struct(Token)5129_storage)":{"encoding":"mapping","key":"t_address","label":"mapping(address => struct CoinTossV5.Token)","numberOfBytes":"32","value":"t_struct(Token)5129_storage"},"t_mapping(t_uint256,t_struct(Bet)5150_storage)":{"encoding":"mapping","key":"t_uint256","label":"mapping(uint256 => struct CoinTossV5.Bet)","numberOfBytes":"32","value":"t_struct(Bet)5150_storage"},"t_mapping(t_uint256,t_struct(CoinTossBet)5201_storage)":{"encoding":"mapping","key":"t_uint256","label":"mapping(uint256 => struct CoinTossV5.CoinTossBet)","numberOfBytes":"32","value":"t_struct(CoinTossBet)5201_storage"},"t_struct(Bet)5150_storage":{"encoding":"inplace","label":"struct CoinTossV5.Bet","members":[{"astId":5137,"contract":"contracts/CoinToss.sol:CoinTossV5","label":"resolved","offset":0,"slot":"0","type":"t_bool"},{"astId":5139,"contract":"contracts/CoinToss.sol:CoinTossV5","label":"user","offset":1,"slot":"0","type":"t_address_payable"},{"astId":5141,"contract":"contracts/CoinToss.sol:CoinTossV5","label":"token","offset":0,"slot":"1","type":"t_address"},{"astId":5143,"contract":"contracts/CoinToss.sol:CoinTossV5","label":"id","offset":0,"slot":"2","type":"t_uint256"},{"astId":5145,"contract":"contracts/CoinToss.sol:CoinTossV5","label":"amount","offset":0,"slot":"3","type":"t_uint256"},{"astId":5147,"contract":"contracts/CoinToss.sol:CoinTossV5","label":"blockTime","offset":0,"slot":"4","type":"t_uint256"},{"astId":5149,"contract":"contracts/CoinToss.sol:CoinTossV5","label":"betStatus","offset":0,"slot":"5","type":"t_bool"}],"numberOfBytes":"192"},"t_struct(CoinTossBet)5201_storage":{"encoding":"inplace","label":"struct CoinTossV5.CoinTossBet","members":[{"astId":5198,"contract":"contracts/CoinToss.sol:CoinTossV5","label":"face","offset":0,"slot":"0","type":"t_bool"},{"astId":5200,"contract":"contracts/CoinToss.sol:CoinTossV5","label":"rolled","offset":1,"slot":"0","type":"t_bool"}],"numberOfBytes":"32"},"t_struct(Token)5129_storage":{"encoding":"inplace","label":"struct CoinTossV5.Token","members":[{"astId":5126,"contract":"contracts/CoinToss.sol:CoinTossV5","label":"houseEdge","offset":0,"slot":"0","type":"t_uint16"},{"astId":5128,"contract":"contracts/CoinToss.sol:CoinTossV5","label":"pendingCount","offset":2,"slot":"0","type":"t_uint64"}],"numberOfBytes":"32"},"t_uint16":{"encoding":"inplace","label":"uint16","numberOfBytes":"2"},"t_uint256":{"encoding":"inplace","label":"uint256","numberOfBytes":"32"},"t_uint32":{"encoding":"inplace","label":"uint32","numberOfBytes":"4"},"t_uint64":{"encoding":"inplace","label":"uint64","numberOfBytes":"8"}}},"userdoc":{"errors":{"NotFulfilled()":[{"notice":"Bet isn't resolved yet."}],"NotPendingBet()":[{"notice":"Bet provided doesn't exist or was already resolved."}],"UnderMinBetAmount(uint256)":[{"notice":"Insufficient bet amount."}]},"events":{"BetRefunded(uint256,address,uint256,uint256)":{"notice":"Emitted after the bet amount is transfered to the user."},"PlaceBet(uint256,address,address,uint256,bool)":{"notice":"Emitted after a bet is placed."},"Roll(uint256,address,address,uint256,bool,bool)":{"notice":"Emitted after a bet is rolled."},"SetBank(address)":{"notice":"Emitted after the bank is set."},"SetHouseEdge(address,uint16)":{"notice":"Emitted after the house edge is set for a token."}},"kind":"user","methods":{"bets(uint256)":{"notice":"Maps bets IDs to Bet information."},"coinTossBets(uint256)":{"notice":"Maps bets IDs to chosen and rolled coin faces."},"getLastUserBets(address,uint256)":{"notice":"Gets the list of the last user bets."},"getTokenBalance(address)":{"notice":"Gets the token's balance. The token's house edge allocation amounts are subtracted from the balance."},"hasPendingBets(address)":{"notice":"Returns whether the token has pending bets."},"pause()":{"notice":"Pauses the contract to disable new bets."},"refundBet(uint256)":{"notice":"Refunds the bet to the user if the Chainlink VRF callback failed."},"setBank(address)":{"notice":"Sets the Bank contract."},"setHouseEdge(address,uint16)":{"notice":"Sets the game house edge rate for a specific token."},"tokens(address)":{"notice":"Maps tokens addresses to token configuration."},"wager(bool,address,uint256)":{"notice":"Creates a new bet and stores the chosen coin face."}},"version":1}}}}