{
  "_format": "hh-sol-artifact-1",
  "contractName": "BankV2",
  "sourceName": "contracts/BankV2.sol",
  "abi": [
    {
      "inputs": [
        {
          "internalType": "address",
          "name": "treasuryAddress",
          "type": "address"
        },
        {
          "internalType": "address",
          "name": "teamWalletAddress",
          "type": "address"
        }
      ],
      "stateMutability": "nonpayable",
      "type": "constructor"
    },
    {
      "inputs": [],
      "name": "AccessDenied",
      "type": "error"
    },
    {
      "inputs": [],
      "name": "TokenExists",
      "type": "error"
    },
    {
      "inputs": [],
      "name": "TokenHasPendingBets",
      "type": "error"
    },
    {
      "inputs": [],
      "name": "TokenNotPaused",
      "type": "error"
    },
    {
      "inputs": [],
      "name": "WrongAddress",
      "type": "error"
    },
    {
      "inputs": [
        {
          "internalType": "uint16",
          "name": "splitSum",
          "type": "uint16"
        }
      ],
      "name": "WrongHouseEdgeSplit",
      "type": "error"
    },
    {
      "anonymous": false,
      "inputs": [
        {
          "indexed": true,
          "internalType": "address",
          "name": "token",
          "type": "address"
        },
        {
          "indexed": false,
          "internalType": "uint256",
          "name": "newBalance",
          "type": "uint256"
        },
        {
          "indexed": false,
          "internalType": "uint256",
          "name": "fees",
          "type": "uint256"
        }
      ],
      "name": "AccountFees",
      "type": "event"
    },
    {
      "anonymous": false,
      "inputs": [
        {
          "indexed": false,
          "internalType": "address",
          "name": "token",
          "type": "address"
        }
      ],
      "name": "AddToken",
      "type": "event"
    },
    {
      "anonymous": false,
      "inputs": [
        {
          "indexed": true,
          "internalType": "address",
          "name": "token",
          "type": "address"
        },
        {
          "indexed": false,
          "internalType": "uint256",
          "name": "bank",
          "type": "uint256"
        },
        {
          "indexed": false,
          "internalType": "uint256",
          "name": "dividend",
          "type": "uint256"
        },
        {
          "indexed": false,
          "internalType": "uint256",
          "name": "treasury",
          "type": "uint256"
        },
        {
          "indexed": false,
          "internalType": "uint256",
          "name": "team",
          "type": "uint256"
        }
      ],
      "name": "AllocateHouseEdgeAmount",
      "type": "event"
    },
    {
      "anonymous": false,
      "inputs": [
        {
          "indexed": true,
          "internalType": "address",
          "name": "token",
          "type": "address"
        },
        {
          "indexed": false,
          "internalType": "uint256",
          "name": "newBalance",
          "type": "uint256"
        },
        {
          "indexed": false,
          "internalType": "uint256",
          "name": "amount",
          "type": "uint256"
        }
      ],
      "name": "CashIn",
      "type": "event"
    },
    {
      "anonymous": false,
      "inputs": [
        {
          "indexed": true,
          "internalType": "address",
          "name": "token",
          "type": "address"
        },
        {
          "indexed": false,
          "internalType": "uint256",
          "name": "amount",
          "type": "uint256"
        }
      ],
      "name": "Deposit",
      "type": "event"
    },
    {
      "anonymous": false,
      "inputs": [
        {
          "indexed": true,
          "internalType": "address",
          "name": "token",
          "type": "address"
        },
        {
          "indexed": false,
          "internalType": "uint256",
          "name": "amount",
          "type": "uint256"
        }
      ],
      "name": "HarvestDividend",
      "type": "event"
    },
    {
      "anonymous": false,
      "inputs": [
        {
          "indexed": true,
          "internalType": "address",
          "name": "token",
          "type": "address"
        },
        {
          "indexed": false,
          "internalType": "uint256",
          "name": "treasuryAmount",
          "type": "uint256"
        },
        {
          "indexed": false,
          "internalType": "uint256",
          "name": "teamAmount",
          "type": "uint256"
        }
      ],
      "name": "HouseEdgeDistribution",
      "type": "event"
    },
    {
      "anonymous": false,
      "inputs": [
        {
          "indexed": true,
          "internalType": "address",
          "name": "token",
          "type": "address"
        },
        {
          "indexed": false,
          "internalType": "uint256",
          "name": "newBalance",
          "type": "uint256"
        },
        {
          "indexed": false,
          "internalType": "uint256",
          "name": "profit",
          "type": "uint256"
        }
      ],
      "name": "Payout",
      "type": "event"
    },
    {
      "anonymous": false,
      "inputs": [
        {
          "indexed": true,
          "internalType": "address",
          "name": "token",
          "type": "address"
        },
        {
          "indexed": false,
          "internalType": "bool",
          "name": "allowed",
          "type": "bool"
        }
      ],
      "name": "SetAllowedToken",
      "type": "event"
    },
    {
      "anonymous": false,
      "inputs": [
        {
          "indexed": true,
          "internalType": "address",
          "name": "token",
          "type": "address"
        },
        {
          "indexed": false,
          "internalType": "uint16",
          "name": "balanceRisk",
          "type": "uint16"
        }
      ],
      "name": "SetBalanceRisk",
      "type": "event"
    },
    {
      "anonymous": false,
      "inputs": [
        {
          "indexed": false,
          "internalType": "address",
          "name": "teamWallet",
          "type": "address"
        }
      ],
      "name": "SetTeamWallet",
      "type": "event"
    },
    {
      "anonymous": false,
      "inputs": [
        {
          "indexed": true,
          "internalType": "address",
          "name": "token",
          "type": "address"
        },
        {
          "indexed": false,
          "internalType": "uint16",
          "name": "bank",
          "type": "uint16"
        },
        {
          "indexed": false,
          "internalType": "uint16",
          "name": "dividend",
          "type": "uint16"
        },
        {
          "indexed": false,
          "internalType": "uint16",
          "name": "treasury",
          "type": "uint16"
        },
        {
          "indexed": false,
          "internalType": "uint16",
          "name": "team",
          "type": "uint16"
        }
      ],
      "name": "SetTokenHouseEdgeSplit",
      "type": "event"
    },
    {
      "anonymous": false,
      "inputs": [
        {
          "indexed": true,
          "internalType": "address",
          "name": "token",
          "type": "address"
        },
        {
          "indexed": false,
          "internalType": "uint256",
          "name": "minBetAmount",
          "type": "uint256"
        }
      ],
      "name": "SetTokenMinBetAmount",
      "type": "event"
    },
    {
      "anonymous": false,
      "inputs": [
        {
          "indexed": true,
          "internalType": "address",
          "name": "token",
          "type": "address"
        },
        {
          "indexed": false,
          "internalType": "uint256",
          "name": "amount",
          "type": "uint256"
        }
      ],
      "name": "Withdraw",
      "type": "event"
    },
    {
      "inputs": [
        {
          "internalType": "address",
          "name": "token",
          "type": "address"
        },
        {
          "internalType": "uint256",
          "name": "fees",
          "type": "uint256"
        }
      ],
      "name": "accountFees",
      "outputs": [],
      "stateMutability": "payable",
      "type": "function"
    },
    {
      "inputs": [
        {
          "internalType": "address",
          "name": "token",
          "type": "address"
        }
      ],
      "name": "addToken",
      "outputs": [],
      "stateMutability": "nonpayable",
      "type": "function"
    },
    {
      "inputs": [
        {
          "internalType": "address",
          "name": "tokenAddress",
          "type": "address"
        },
        {
          "internalType": "uint256",
          "name": "amount",
          "type": "uint256"
        }
      ],
      "name": "cashIn",
      "outputs": [],
      "stateMutability": "payable",
      "type": "function"
    },
    {
      "inputs": [
        {
          "internalType": "address",
          "name": "token",
          "type": "address"
        },
        {
          "internalType": "uint256",
          "name": "amount",
          "type": "uint256"
        }
      ],
      "name": "deposit",
      "outputs": [],
      "stateMutability": "payable",
      "type": "function"
    },
    {
      "inputs": [
        {
          "internalType": "address",
          "name": "token",
          "type": "address"
        }
      ],
      "name": "getBalance",
      "outputs": [
        {
          "internalType": "uint256",
          "name": "",
          "type": "uint256"
        }
      ],
      "stateMutability": "view",
      "type": "function"
    },
    {
      "inputs": [],
      "name": "getDividends",
      "outputs": [
        {
          "internalType": "address[]",
          "name": "",
          "type": "address[]"
        },
        {
          "internalType": "uint256[]",
          "name": "",
          "type": "uint256[]"
        }
      ],
      "stateMutability": "view",
      "type": "function"
    },
    {
      "inputs": [
        {
          "internalType": "address",
          "name": "token",
          "type": "address"
        },
        {
          "internalType": "uint256",
          "name": "multiplier",
          "type": "uint256"
        }
      ],
      "name": "getMaxBetAmount",
      "outputs": [
        {
          "internalType": "uint256",
          "name": "",
          "type": "uint256"
        }
      ],
      "stateMutability": "view",
      "type": "function"
    },
    {
      "inputs": [
        {
          "internalType": "address",
          "name": "token",
          "type": "address"
        }
      ],
      "name": "getMinBetAmount",
      "outputs": [
        {
          "internalType": "uint256",
          "name": "minBetAmount",
          "type": "uint256"
        }
      ],
      "stateMutability": "view",
      "type": "function"
    },
    {
      "inputs": [],
      "name": "getTokens",
      "outputs": [
        {
          "components": [
            {
              "internalType": "uint8",
              "name": "decimals",
              "type": "uint8"
            },
            {
              "internalType": "address",
              "name": "tokenAddress",
              "type": "address"
            },
            {
              "internalType": "string",
              "name": "name",
              "type": "string"
            },
            {
              "internalType": "string",
              "name": "symbol",
              "type": "string"
            },
            {
              "components": [
                {
                  "internalType": "bool",
                  "name": "allowed",
                  "type": "bool"
                },
                {
                  "internalType": "bool",
                  "name": "paused",
                  "type": "bool"
                },
                {
                  "internalType": "uint16",
                  "name": "balanceRisk",
                  "type": "uint16"
                },
                {
                  "internalType": "uint256",
                  "name": "minBetAmount",
                  "type": "uint256"
                },
                {
                  "components": [
                    {
                      "internalType": "uint16",
                      "name": "bank",
                      "type": "uint16"
                    },
                    {
                      "internalType": "uint16",
                      "name": "dividend",
                      "type": "uint16"
                    },
                    {
                      "internalType": "uint16",
                      "name": "treasury",
                      "type": "uint16"
                    },
                    {
                      "internalType": "uint16",
                      "name": "team",
                      "type": "uint16"
                    },
                    {
                      "internalType": "uint256",
                      "name": "dividendAmount",
                      "type": "uint256"
                    },
                    {
                      "internalType": "uint256",
                      "name": "treasuryAmount",
                      "type": "uint256"
                    },
                    {
                      "internalType": "uint256",
                      "name": "teamAmount",
                      "type": "uint256"
                    }
                  ],
                  "internalType": "struct BankV2.HouseEdgeSplit",
                  "name": "houseEdgeSplit",
                  "type": "tuple"
                }
              ],
              "internalType": "struct BankV2.Token",
              "name": "token",
              "type": "tuple"
            }
          ],
          "internalType": "struct BankV2.TokenMetadata[]",
          "name": "",
          "type": "tuple[]"
        }
      ],
      "stateMutability": "view",
      "type": "function"
    },
    {
      "inputs": [],
      "name": "harvestDividends",
      "outputs": [
        {
          "internalType": "address[]",
          "name": "",
          "type": "address[]"
        },
        {
          "internalType": "uint256[]",
          "name": "",
          "type": "uint256[]"
        }
      ],
      "stateMutability": "nonpayable",
      "type": "function"
    },
    {
      "inputs": [
        {
          "internalType": "address",
          "name": "tokenAddress",
          "type": "address"
        }
      ],
      "name": "isAllowedToken",
      "outputs": [
        {
          "internalType": "bool",
          "name": "",
          "type": "bool"
        }
      ],
      "stateMutability": "view",
      "type": "function"
    },
    {
      "inputs": [
        {
          "internalType": "address payable",
          "name": "user",
          "type": "address"
        },
        {
          "internalType": "address",
          "name": "token",
          "type": "address"
        },
        {
          "internalType": "uint256",
          "name": "profit",
          "type": "uint256"
        },
        {
          "internalType": "uint256",
          "name": "fees",
          "type": "uint256"
        }
      ],
      "name": "payout",
      "outputs": [],
      "stateMutability": "payable",
      "type": "function"
    },
    {
      "inputs": [
        {
          "internalType": "address",
          "name": "token",
          "type": "address"
        },
        {
          "internalType": "bool",
          "name": "allowed",
          "type": "bool"
        }
      ],
      "name": "setAllowedToken",
      "outputs": [],
      "stateMutability": "nonpayable",
      "type": "function"
    },
    {
      "inputs": [
        {
          "internalType": "address",
          "name": "token",
          "type": "address"
        },
        {
          "internalType": "uint16",
          "name": "balanceRisk",
          "type": "uint16"
        }
      ],
      "name": "setBalanceRisk",
      "outputs": [],
      "stateMutability": "nonpayable",
      "type": "function"
    },
    {
      "inputs": [
        {
          "internalType": "address",
          "name": "token",
          "type": "address"
        },
        {
          "internalType": "uint16",
          "name": "bank",
          "type": "uint16"
        },
        {
          "internalType": "uint16",
          "name": "dividend",
          "type": "uint16"
        },
        {
          "internalType": "uint16",
          "name": "_treasury",
          "type": "uint16"
        },
        {
          "internalType": "uint16",
          "name": "team",
          "type": "uint16"
        }
      ],
      "name": "setHouseEdgeSplit",
      "outputs": [],
      "stateMutability": "nonpayable",
      "type": "function"
    },
    {
      "inputs": [
        {
          "internalType": "address",
          "name": "_teamWallet",
          "type": "address"
        }
      ],
      "name": "setTeamWallet",
      "outputs": [],
      "stateMutability": "nonpayable",
      "type": "function"
    },
    {
      "inputs": [
        {
          "internalType": "address",
          "name": "token",
          "type": "address"
        },
        {
          "internalType": "uint256",
          "name": "tokenMinBetAmount",
          "type": "uint256"
        }
      ],
      "name": "setTokenMinBetAmount",
      "outputs": [],
      "stateMutability": "nonpayable",
      "type": "function"
    },
    {
      "inputs": [],
      "name": "teamWallet",
      "outputs": [
        {
          "internalType": "address",
          "name": "",
          "type": "address"
        }
      ],
      "stateMutability": "view",
      "type": "function"
    },
    {
      "inputs": [
        {
          "internalType": "address",
          "name": "",
          "type": "address"
        }
      ],
      "name": "tokens",
      "outputs": [
        {
          "internalType": "bool",
          "name": "allowed",
          "type": "bool"
        },
        {
          "internalType": "bool",
          "name": "paused",
          "type": "bool"
        },
        {
          "internalType": "uint16",
          "name": "balanceRisk",
          "type": "uint16"
        },
        {
          "internalType": "uint256",
          "name": "minBetAmount",
          "type": "uint256"
        },
        {
          "components": [
            {
              "internalType": "uint16",
              "name": "bank",
              "type": "uint16"
            },
            {
              "internalType": "uint16",
              "name": "dividend",
              "type": "uint16"
            },
            {
              "internalType": "uint16",
              "name": "treasury",
              "type": "uint16"
            },
            {
              "internalType": "uint16",
              "name": "team",
              "type": "uint16"
            },
            {
              "internalType": "uint256",
              "name": "dividendAmount",
              "type": "uint256"
            },
            {
              "internalType": "uint256",
              "name": "treasuryAmount",
              "type": "uint256"
            },
            {
              "internalType": "uint256",
              "name": "teamAmount",
              "type": "uint256"
            }
          ],
          "internalType": "struct BankV2.HouseEdgeSplit",
          "name": "houseEdgeSplit",
          "type": "tuple"
        }
      ],
      "stateMutability": "view",
      "type": "function"
    },
    {
      "inputs": [],
      "name": "treasury",
      "outputs": [
        {
          "internalType": "address",
          "name": "",
          "type": "address"
        }
      ],
      "stateMutability": "view",
      "type": "function"
    },
    {
      "inputs": [
        {
          "internalType": "address",
          "name": "token",
          "type": "address"
        },
        {
          "internalType": "uint256",
          "name": "amount",
          "type": "uint256"
        }
      ],
      "name": "withdraw",
      "outputs": [],
      "stateMutability": "nonpayable",
      "type": "function"
    },
    {
      "inputs": [
        {
          "internalType": "address",
          "name": "tokenAddress",
          "type": "address"
        }
      ],
      "name": "withdrawHouseEdgeAmount",
      "outputs": [],
      "stateMutability": "nonpayable",
      "type": "function"
    }
  ],
  "bytecode": "0x60a06040523480156200001157600080fd5b506040516200213338038062002133833981016040819052620000349162000120565b6001600160a01b0382166200005c57604051630d23cf4160e11b815260040160405180910390fd5b6001600160a01b03821660805262000074816200007c565b505062000158565b6001600160a01b038116620000a457604051630d23cf4160e11b815260040160405180910390fd5b60008054610100600160a81b0319166101006001600160a01b038481168202929092179283905560405192041681527fc6a5dd316fe9d0339f2769deab7e31f64c8f5b101ffd85dfc9a83dbeaf2e69da9060200160405180910390a150565b80516001600160a01b03811681146200011b57600080fd5b919050565b600080604083850312156200013457600080fd5b6200013f8362000103565b91506200014f6020840162000103565b90509250929050565b608051611fb86200017b6000396000818161027701526104f20152611fb86000f3fe6080604052600436106101355760003560e01c80638aaa2284116100ab578063d48bfca71161006f578063d48bfca714610361578063e486033914610381578063ed442e1414610443578063f3fef3a314610458578063f6b2a2f114610478578063f8b2cb4f1461049857600080fd5b80638aaa2284146102bc578063a7fd00f0146102dc578063aa6ca808146102fc578063ca7a87691461031e578063cbe230c31461033157600080fd5b80634297dcbe116100fd5780634297dcbe146101d557806347e7ef24146101f557806356f0406d14610208578063599270441461022857806361d027b314610265578063802ad8fb1461029957600080fd5b80630ae30cb01461013a5780631525ff7d1461015c5780631f6150231461017c578063278b39de1461018f5780633138809d146101c2575b600080fd5b34801561014657600080fd5b5061015a610155366004611964565b6104b8565b005b34801561016857600080fd5b5061015a610177366004611964565b61059f565b61015a61018a366004611981565b610626565b34801561019b57600080fd5b506101af6101aa3660046119c7565b610683565b6040519081526020015b60405180910390f35b61015a6101d03660046119c7565b6106cc565b3480156101e157600080fd5b5061015a6101f03660046119c7565b610734565b61015a6102033660046119c7565b610784565b34801561021457600080fd5b5061015a610223366004611a05565b6107e9565b34801561023457600080fd5b5060005461024d9061010090046001600160a01b031681565b6040516001600160a01b0390911681526020016101b9565b34801561027157600080fd5b5061024d7f000000000000000000000000000000000000000000000000000000000000000081565b3480156102a557600080fd5b506102ae61084e565b6040516101b9929190611a3a565b3480156102c857600080fd5b5061015a6102d7366004611acc565b610a02565b3480156102e857600080fd5b5061015a6102f7366004611b05565b610a5a565b34801561030857600080fd5b50610311610b75565b6040516101b99190611c14565b61015a61032c3660046119c7565b610ef0565b34801561033d57600080fd5b5061035161034c366004611964565b610f2e565b60405190151581526020016101b9565b34801561036d57600080fd5b5061015a61037c366004611964565b611002565b34801561038d57600080fd5b5061043261039c366004611964565b600160208181526000928352604092839020805492810154845160e081018652600283015461ffff8082168352620100008083048216968401969096526401000000008204811697830197909752600160301b90048616606082015260038301546080820152600483015460a082015260059092015460c083015260ff8085169561010086049091169493909304909216919085565b6040516101b9959493929190611d01565b34801561044f57600080fd5b506102ae61110b565b34801561046457600080fd5b5061015a6104733660046119c7565b611260565b34801561048457600080fd5b506101af610493366004611964565b611310565b3480156104a457600080fd5b506101af6104b3366004611964565b61133c565b6001600160a01b038116600090815260016020526040902060048101546005820154600290920191811561051857600060028401556105187f0000000000000000000000000000000000000000000000000000000000000000858461146d565b801561054157600060038401819055546105419061010090046001600160a01b0316858361146d565b8115158061054e57508015155b156105995760408051838152602081018390526001600160a01b038616917f0146f1701c23c89f761280798d36d6c4e3acb349438456f5da8f83a2f5dd8cdc91015b60405180910390a25b50505050565b6001600160a01b0381166105c657604051630d23cf4160e11b815260040160405180910390fd5b60008054610100600160a81b0319166101006001600160a01b038481168202929092179283905560405192041681527fc6a5dd316fe9d0339f2769deab7e31f64c8f5b101ffd85dfc9a83dbeaf2e69da906020015b60405180910390a150565b61063083826114ca565b61063b84848461146d565b826001600160a01b03167f634235fcf5af0adbca1a405ec65f6f6c08f55e1f379c2c45cd10f23cb29e0e3161066f8561133c565b604080519182526020820186905201610590565b6001600160a01b038216600090815260016020526040812054829062010000900461ffff166106b18561133c565b6106bb9190611d51565b6106c59190611d70565b9392505050565b816001600160a01b03167f812b76b477469edc716929cbf7ed54e3d9c1a68d8b9f8290dbabcda54d96fcbe6107008461133c565b6001600160a01b038516156107155783610717565b345b604080519283526020830191909152015b60405180910390a25050565b6001600160a01b03821660008181526001602081905260409182902001839055517f8b4a07860448b613116df3f175c837980eceaca7d1dc5143c46a20ab31ec00f9906107289084815260200190565b6001600160a01b0382166107995750346107ae565b6107ae6001600160a01b038316333084611622565b816001600160a01b03167fe1fffcc4923d04b559f4d29a8bfc6cda04eb5b0d3c460751c2402c5c5cc9109c8260405161072891815260200190565b6001600160a01b038216600081815260016020908152604091829020805463ffff000019166201000061ffff87169081029190911790915591519182527f68288b0936dd994d19323ee940b2703e7bf46fae2552319d60dc1239ba52ec689101610728565b60008054606091829160ff1667ffffffffffffffff81111561087257610872611d92565b60405190808252806020026020018201604052801561089b578160200160208202803683370190505b50600080549192509060ff1667ffffffffffffffff8111156108bf576108bf611d92565b6040519080825280602002602001820160405280156108e8578160200160208202803683370190505b50905060005b60005460ff90811690821610156109f85760ff81166000908152600260209081526040808320546001600160a01b03168084526001909252909120600381015480156109e2576000600383015561094633848361146d565b826001600160a01b03167fca64dbcaf91abfb066e7a5163f1d135f8f48f2cbdb0395e3b35cc278ebbd340b8260405161098191815260200190565b60405180910390a282868560ff168151811061099f5761099f611da8565b60200260200101906001600160a01b031690816001600160a01b03168152505080858560ff16815181106109d5576109d5611da8565b6020026020010181815250505b50505080806109f090611dbe565b9150506108ee565b5090939092509050565b6001600160a01b038216600081815260016020908152604091829020805460ff191685151590811790915591519182527fe589eb036e62c07e307aa4d441bd39c81e8bd86f349eaacb0caa06b1477f7f9a9101610728565b60008282610a688688611dde565b610a729190611dde565b610a7c9190611dde565b90508061ffff1661271014610aaf576040516318410e1160e21b815261ffff821660048201526024015b60405180910390fd5b6001600160a01b038616600081815260016020908152604091829020600201805461ffff8a811663ffffffff199092168217620100008b83169081029190911767ffffffff0000000019166401000000008b841690810267ffff000000000000191691909117600160301b938b169384021785558651938452948301529381019290925260608201929092529091907f01573e473e8842c25da06b37c286cdd7bf1c828e796ab47f7eec894ac9fbbee3906080015b60405180910390a250505050505050565b600080546060919060ff1667ffffffffffffffff811115610b9857610b98611d92565b604051908082528060200260200182016040528015610bd157816020015b610bbe6118b2565b815260200190600190039081610bb65790505b50905060005b60005460ff9081169082161015610eea5760ff8181166000908152600260208181526040808420546001600160a01b0316808552600180845294829020825160a080820185528254808a1615158352610100810490991615158287015261ffff62010000998a900481168387015297830154606080840191909152855160e08101875297840154808a168952998a048916968801969096526401000000008904881694870194909452600160301b90970490951692840192909252600384015460808085019190915260048501549184019190915260059093015460c0830152918301529081610d50576040518060a00160405280601260ff168152602001836001600160a01b031681526020016040518060400160405280600381526020016208aa8960eb1b81525081526020016040518060400160405280600381526020016208aa8960eb1b815250815260200182815250848460ff1681518110610d4057610d40611da8565b6020026020010181905250610ed5565b60008290506040518060a00160405280826001600160a01b031663313ce5676040518163ffffffff1660e01b8152600401602060405180830381865afa158015610d9e573d6000803e3d6000fd5b505050506040513d601f19601f82011682018060405250810190610dc29190611e04565b60ff168152602001846001600160a01b03168152602001826001600160a01b03166306fdde036040518163ffffffff1660e01b8152600401600060405180830381865afa158015610e17573d6000803e3d6000fd5b505050506040513d6000823e601f3d908101601f19168201604052610e3f9190810190611e27565b8152602001826001600160a01b03166395d89b416040518163ffffffff1660e01b8152600401600060405180830381865afa158015610e82573d6000803e3d6000fd5b505050506040513d6000823e601f3d908101601f19168201604052610eaa9190810190611e27565b815260200183815250858560ff1681518110610ec857610ec8611da8565b6020026020010181905250505b50508080610ee290611dbe565b915050610bd7565b50919050565b610efa82826114ca565b816001600160a01b03167f71928ab56dd9fb6df8072adf5fefb4d17ed280fa21652433fe96d7d6729bd3286107008461133c565b6001600160a01b0381166000908152600160208181526040808420815160a08082018452825460ff8082161515845261010082041615158387015261ffff620100009182900481168487015296840154606080850191909152855160e0810187526002860154808a1682529283048916978101979097526401000000008204881695870195909552600160301b90049095169284019290925260038101546080848101919091526004820154948401949094526005015460c083015291820152805180156106c55750602001511592915050565b60005460ff16156110745760005b60005460ff90811690821610156110725760ff81166000908152600260205260409020546001600160a01b038381169116141561106057604051632ae3f45d60e11b815260040160405180910390fd5b8061106a81611dbe565b915050611010565b505b6000805460ff908116825260026020526040822080546001600160a01b0319166001600160a01b03851617905581546001929182916110b591859116611ec9565b92506101000a81548160ff021916908360ff1602179055507fe473c74f34be27c1464d6624f14a0d7fd4e301cbfa29c3eba425d378c8a7ebe08160405161061b91906001600160a01b0391909116815260200190565b60008054606091829160ff1667ffffffffffffffff81111561112f5761112f611d92565b604051908082528060200260200182016040528015611158578160200160208202803683370190505b50600080549192509060ff1667ffffffffffffffff81111561117c5761117c611d92565b6040519080825280602002602001820160405280156111a5578160200160208202803683370190505b50905060005b60005460ff90811690821610156109f85760ff81166000908152600260209081526040808320546001600160a01b031680845260019092529091206003810154801561124a5782868560ff168151811061120757611207611da8565b60200260200101906001600160a01b031690816001600160a01b03168152505080858560ff168151811061123d5761123d611da8565b6020026020010181815250505b505050808061125890611dbe565b9150506111ab565b600061126b8361133c565b905080156112b1576001600160a01b038316600090815260016020526040902054610100900460ff166112b1576040516393b3a85d60e01b815260040160405180910390fd5b808211156112bd578091505b6112c833848461146d565b826001600160a01b03167f884edad9ce6fa2440d8a54cc123490eb96d2768479d49ff9c7366125a94243648360405161130391815260200190565b60405180910390a2505050565b6001600160a01b038116600090815260016020819052604090912001548061133757506127105b919050565b6000806001600160a01b0383166113545750476113bf565b6040516370a0823160e01b81523060048201526001600160a01b038416906370a0823190602401602060405180830381865afa158015611398573d6000803e3d6000fd5b505050506040513d601f19601f820116820180604052508101906113bc9190611eee565b90505b6001600160a01b038316600090815260016020908152604091829020825160e081018452600282015461ffff80821683526201000082048116948301949094526401000000008104841694820194909452600160301b9093049091166060830152600381015460808301819052600482015460a0840181905260059092015460c0840181905291906114519085611f07565b61145b9190611f07565b6114659190611f07565b949350505050565b6001600160a01b0382166114b1576040516001600160a01b0384169082156108fc029083906000818181858888f19350505050158015610599573d6000803e3d6000fd5b6114c56001600160a01b038316848361168d565b505050565b6001600160a01b03821660009081526001602052604081206002018054909190612710906115029062010000900461ffff1685611d51565b61150c9190611d70565b9050808260010160008282546115229190611f1e565b909155505081546000906127109061153e9061ffff1686611d51565b6115489190611d70565b83549091506000906127109061156a90640100000000900461ffff1687611d51565b6115749190611d70565b90508084600201600082825461158a9190611f1e565b90915550508354600090612710906115ad90600160301b900461ffff1688611d51565b6115b79190611d70565b9050808560030160008282546115cd9190611f1e565b90915550506040805184815260208101869052908101839052606081018290526001600160a01b038816907f0b5a4c9121a83120fc7b30f195ddd2c279ec4510cfc8f051380851e8f0686f4990608001610b64565b6040516001600160a01b03808516602483015283166044820152606481018290526105999085906323b872dd60e01b906084015b60408051601f198184030181529190526020810180516001600160e01b03166001600160e01b0319909316929092179091526116bd565b6040516001600160a01b0383166024820152604481018290526114c590849063a9059cbb60e01b90606401611656565b6000611712826040518060400160405280602081526020017f5361666545524332303a206c6f772d6c6576656c2063616c6c206661696c6564815250856001600160a01b03166117929092919063ffffffff16565b90508051600014806117335750808060200190518101906117339190611f36565b6114c55760405162461bcd60e51b815260206004820152602a60248201527f5361666545524332303a204552433230206f7065726174696f6e20646964206e6044820152691bdd081cdd58d8d9595960b21b6064820152608401610aa6565b6060611465848460008585600080866001600160a01b031685876040516117b99190611f53565b60006040518083038185875af1925050503d80600081146117f6576040519150601f19603f3d011682016040523d82523d6000602084013e6117fb565b606091505b509150915061180c87838387611817565b979650505050505050565b6060831561188357825161187c576001600160a01b0385163b61187c5760405162461bcd60e51b815260206004820152601d60248201527f416464726573733a2063616c6c20746f206e6f6e2d636f6e74726163740000006044820152606401610aa6565b5081611465565b61146583838151156118985781518083602001fd5b8060405162461bcd60e51b8152600401610aa69190611f6f565b6040518060a00160405280600060ff16815260200160006001600160a01b0316815260200160608152602001606081526020016119476040805160a08082018352600080835260208084018290528385018290526060808501839052855160e081018752838152918201839052948101829052938401819052608084810182905291840181905260c084015290919082015290565b905290565b6001600160a01b038116811461196157600080fd5b50565b60006020828403121561197657600080fd5b81356106c58161194c565b6000806000806080858703121561199757600080fd5b84356119a28161194c565b935060208501356119b28161194c565b93969395505050506040820135916060013590565b600080604083850312156119da57600080fd5b82356119e58161194c565b946020939093013593505050565b803561ffff8116811461133757600080fd5b60008060408385031215611a1857600080fd5b8235611a238161194c565b9150611a31602084016119f3565b90509250929050565b604080825283519082018190526000906020906060840190828701845b82811015611a7c5781516001600160a01b031684529284019290840190600101611a57565b5050508381038285015284518082528583019183019060005b81811015611ab157835183529284019291840191600101611a95565b5090979650505050505050565b801515811461196157600080fd5b60008060408385031215611adf57600080fd5b8235611aea8161194c565b91506020830135611afa81611abe565b809150509250929050565b600080600080600060a08688031215611b1d57600080fd5b8535611b288161194c565b9450611b36602087016119f3565b9350611b44604087016119f3565b9250611b52606087016119f3565b9150611b60608087016119f3565b90509295509295909350565b60005b83811015611b87578181015183820152602001611b6f565b838111156105995750506000910152565b60008151808452611bb0816020860160208601611b6c565b601f01601f19169290920160200192915050565b61ffff808251168352806020830151166020840152806040830151166040840152806060830151166060840152506080810151608083015260a081015160a083015260c081015160c08301525050565b60006020808301818452808551808352604092508286019150828160051b87010184880160005b83811015611cf357888303603f190185528151805160ff168452878101516001600160a01b031688850152868101516101e088860181905290611c8082870182611b98565b91505060608083015186830382880152611c9a8382611b98565b60809485015180511515898701528c810151151560a08a01528b81015161ffff1660c08a01529283015160e0890152919093015192509050611ce0610100860183611bc4565b9588019593505090860190600101611c3b565b509098975050505050505050565b8515158152841515602082015261ffff84166040820152606081018390526101608101611d316080830184611bc4565b9695505050505050565b634e487b7160e01b600052601160045260246000fd5b6000816000190483118215151615611d6b57611d6b611d3b565b500290565b600082611d8d57634e487b7160e01b600052601260045260246000fd5b500490565b634e487b7160e01b600052604160045260246000fd5b634e487b7160e01b600052603260045260246000fd5b600060ff821660ff811415611dd557611dd5611d3b565b60010192915050565b600061ffff808316818516808303821115611dfb57611dfb611d3b565b01949350505050565b600060208284031215611e1657600080fd5b815160ff811681146106c557600080fd5b600060208284031215611e3957600080fd5b815167ffffffffffffffff80821115611e5157600080fd5b818401915084601f830112611e6557600080fd5b815181811115611e7757611e77611d92565b604051601f8201601f19908116603f01168101908382118183101715611e9f57611e9f611d92565b81604052828152876020848701011115611eb857600080fd5b61180c836020830160208801611b6c565b600060ff821660ff84168060ff03821115611ee657611ee6611d3b565b019392505050565b600060208284031215611f0057600080fd5b5051919050565b600082821015611f1957611f19611d3b565b500390565b60008219821115611f3157611f31611d3b565b500190565b600060208284031215611f4857600080fd5b81516106c581611abe565b60008251611f65818460208701611b6c565b9190910192915050565b6020815260006106c56020830184611b9856fea2646970667358221220b7cc471adb090fd8025c528729e4e7d168f0962cbcc83bb66910dfd66ec8fca264736f6c634300080c0033",
  "linkReferences": {},
  "deployedLinkReferences": {}
}